{
	"contracts/VotingSystem.sol": {
		"VotingSystem": {
			"abi": [
				{
					"inputs": [],
					"stateMutability": "nonpayable",
					"type": "constructor"
				},
				{
					"anonymous": false,
					"inputs": [
						{
							"indexed": false,
							"internalType": "uint256",
							"name": "agendaTokenId",
							"type": "uint256"
						}
					],
					"name": "Listed",
					"type": "event"
				},
				{
					"anonymous": false,
					"inputs": [
						{
							"indexed": false,
							"internalType": "address",
							"name": "voterAddress",
							"type": "address"
						},
						{
							"indexed": false,
							"internalType": "uint256",
							"name": "amount",
							"type": "uint256"
						}
					],
					"name": "Vote",
					"type": "event"
				},
				{
					"inputs": [],
					"name": "getListedAgendas",
					"outputs": [
						{
							"internalType": "uint256[]",
							"name": "",
							"type": "uint256[]"
						}
					],
					"stateMutability": "view",
					"type": "function"
				},
				{
					"inputs": [
						{
							"internalType": "uint256",
							"name": "AgendaTokenId",
							"type": "uint256"
						}
					],
					"name": "getOwner",
					"outputs": [
						{
							"internalType": "address",
							"name": "",
							"type": "address"
						}
					],
					"stateMutability": "view",
					"type": "function"
				},
				{
					"inputs": [
						{
							"internalType": "uint256",
							"name": "agendaTokenId",
							"type": "uint256"
						}
					],
					"name": "getVoteNumber",
					"outputs": [
						{
							"internalType": "uint256",
							"name": "",
							"type": "uint256"
						}
					],
					"stateMutability": "view",
					"type": "function"
				},
				{
					"inputs": [
						{
							"internalType": "uint256",
							"name": "agendaTokenId",
							"type": "uint256"
						}
					],
					"name": "getVotingStatus",
					"outputs": [
						{
							"internalType": "address[]",
							"name": "",
							"type": "address[]"
						},
						{
							"internalType": "uint256[]",
							"name": "",
							"type": "uint256[]"
						}
					],
					"stateMutability": "view",
					"type": "function"
				},
				{
					"inputs": [
						{
							"internalType": "uint256",
							"name": "agendaTokenId",
							"type": "uint256"
						},
						{
							"internalType": "address",
							"name": "voterAddress",
							"type": "address"
						},
						{
							"internalType": "uint256",
							"name": "amount",
							"type": "uint256"
						}
					],
					"name": "vote",
					"outputs": [],
					"stateMutability": "nonpayable",
					"type": "function"
				}
			],
			"devdoc": {
				"kind": "dev",
				"methods": {},
				"version": 1
			},
			"evm": {
				"assembly": "    /* \"contracts/VotingSystem.sol\":582:3885  contract VotingSystem {... */\n  mstore(0x40, 0x80)\n    /* \"contracts/VotingSystem.sol\":631:673  0xAdB8d027111ae2cB88e3C00730AF8EEeCBc21Ca8 */\n  0xadb8d027111ae2cb88e3c00730af8eeecbc21ca8\n    /* \"contracts/VotingSystem.sol\":610:673  address APTAddress = 0xAdB8d027111ae2cB88e3C00730AF8EEeCBc21Ca8 */\n  0x00\n  dup1\n  0x0100\n  exp\n  dup2\n  sload\n  dup2\n  0xffffffffffffffffffffffffffffffffffffffff\n  mul\n  not\n  and\n  swap1\n  dup4\n  0xffffffffffffffffffffffffffffffffffffffff\n  and\n  mul\n  or\n  swap1\n  sstore\n  pop\n    /* \"contracts/VotingSystem.sol\":700:742  0x20552E92665A832cA5c3EA22199f4B1E800652c4 */\n  0x20552e92665a832ca5c3ea22199f4b1e800652c4\n    /* \"contracts/VotingSystem.sol\":679:742  address AECAddress = 0x20552E92665A832cA5c3EA22199f4B1E800652c4 */\n  0x01\n  exp(0x0100, 0x00)\n  dup2\n  sload\n  dup2\n  0xffffffffffffffffffffffffffffffffffffffff\n  mul\n  not\n  and\n  swap1\n  dup4\n  0xffffffffffffffffffffffffffffffffffffffff\n  and\n  mul\n  or\n  swap1\n  sstore\n  pop\n    /* \"contracts/VotingSystem.sol\":803:813  APTAddress */\n  0x00\n  dup1\n  sload\n  swap1\n  0x0100\n  exp\n  swap1\n  div\n  0xffffffffffffffffffffffffffffffffffffffff\n  and\n    /* \"contracts/VotingSystem.sol\":749:814  AgendaProposalToken APTcontract = AgendaProposalToken(APTAddress) */\n  0x02\n  exp(0x0100, 0x00)\n  dup2\n  sload\n  dup2\n  0xffffffffffffffffffffffffffffffffffffffff\n  mul\n  not\n  and\n  swap1\n  dup4\n  0xffffffffffffffffffffffffffffffffffffffff\n  and\n  mul\n  or\n  swap1\n  sstore\n  pop\n    /* \"contracts/VotingSystem.sol\":852:862  AECAddress */\n  0x01\n  0x00\n  swap1\n  sload\n  swap1\n  0x0100\n  exp\n  swap1\n  div\n  0xffffffffffffffffffffffffffffffffffffffff\n  and\n    /* \"contracts/VotingSystem.sol\":820:863  AECToken AECcontract = AECToken(AECAddress) */\n  0x03\n  exp(0x0100, 0x00)\n  dup2\n  sload\n  dup2\n  0xffffffffffffffffffffffffffffffffffffffff\n  mul\n  not\n  and\n  swap1\n  dup4\n  0xffffffffffffffffffffffffffffffffffffffff\n  and\n  mul\n  or\n  swap1\n  sstore\n  pop\n    /* \"contracts/VotingSystem.sol\":926:937  APTcontract */\n  0x02\n  0x00\n  swap1\n  sload\n  swap1\n  0x0100\n  exp\n  swap1\n  div\n  0xffffffffffffffffffffffffffffffffffffffff\n  and\n    /* \"contracts/VotingSystem.sol\":926:957  APTcontract.getTotalTokenNumber */\n  0xffffffffffffffffffffffffffffffffffffffff\n  and\n  0x7e3cd5c4\n    /* \"contracts/VotingSystem.sol\":926:959  APTcontract.getTotalTokenNumber() */\n  mload(0x40)\n  dup2\n  0xffffffff\n  and\n  0xe0\n  shl\n  dup2\n  mstore\n  0x04\n  add\n  0x20\n  mload(0x40)\n  dup1\n  dup4\n  sub\n  dup2\n  dup7\n  gas\n  staticcall\n  iszero\n  dup1\n  iszero\n  tag_2\n  jumpi\n  returndatasize\n  0x00\n  dup1\n  returndatacopy\n  revert(0x00, returndatasize)\ntag_2:\n  pop\n  pop\n  pop\n  pop\n  mload(0x40)\n  returndatasize\n  not(0x1f)\n  0x1f\n  dup3\n  add\n  and\n  dup3\n  add\n  dup1\n  0x40\n  mstore\n  pop\n  dup2\n  add\n  swap1\n  tag_3\n  swap2\n  swap1\n  tag_4\n  jump\t// in\ntag_3:\n    /* \"contracts/VotingSystem.sol\":898:959  uint256 totalAgendaNumber = APTcontract.getTotalTokenNumber() */\n  0x05\n  sstore\n    /* \"contracts/VotingSystem.sol\":988:991  100 */\n  0x64\n    /* \"contracts/VotingSystem.sol\":965:991  uint256 maxVoteToken = 100 */\n  0x06\n  sstore\n    /* \"contracts/VotingSystem.sol\":1349:1406  constructor() {... */\n  callvalue\n  dup1\n  iszero\n  tag_5\n  jumpi\n  0x00\n  dup1\n  revert\ntag_5:\n  pop\n    /* \"contracts/VotingSystem.sol\":1389:1399  msg.sender */\n  caller\n    /* \"contracts/VotingSystem.sol\":1373:1386  contractOwner */\n  0x04\n  0x00\n    /* \"contracts/VotingSystem.sol\":1373:1399  contractOwner = msg.sender */\n  0x0100\n  exp\n  dup2\n  sload\n  dup2\n  0xffffffffffffffffffffffffffffffffffffffff\n  mul\n  not\n  and\n  swap1\n  dup4\n  0xffffffffffffffffffffffffffffffffffffffff\n  and\n  mul\n  or\n  swap1\n  sstore\n  pop\n    /* \"contracts/VotingSystem.sol\":582:3885  contract VotingSystem {... */\n  jump(tag_8)\n    /* \"#utility.yul\":88:205   */\ntag_10:\n    /* \"#utility.yul\":197:198   */\n  0x00\n    /* \"#utility.yul\":194:195   */\n  dup1\n    /* \"#utility.yul\":187:199   */\n  revert\n    /* \"#utility.yul\":334:411   */\ntag_12:\n    /* \"#utility.yul\":371:378   */\n  0x00\n    /* \"#utility.yul\":400:405   */\n  dup2\n    /* \"#utility.yul\":389:405   */\n  swap1\n  pop\n    /* \"#utility.yul\":334:411   */\n  swap2\n  swap1\n  pop\n  jump\t// out\n    /* \"#utility.yul\":417:539   */\ntag_13:\n    /* \"#utility.yul\":490:514   */\n  tag_21\n    /* \"#utility.yul\":508:513   */\n  dup2\n    /* \"#utility.yul\":490:514   */\n  tag_12\n  jump\t// in\ntag_21:\n    /* \"#utility.yul\":483:488   */\n  dup2\n    /* \"#utility.yul\":480:515   */\n  eq\n    /* \"#utility.yul\":470:533   */\n  tag_22\n  jumpi\n    /* \"#utility.yul\":529:530   */\n  0x00\n    /* \"#utility.yul\":526:527   */\n  dup1\n    /* \"#utility.yul\":519:531   */\n  revert\n    /* \"#utility.yul\":470:533   */\ntag_22:\n    /* \"#utility.yul\":417:539   */\n  pop\n  jump\t// out\n    /* \"#utility.yul\":545:688   */\ntag_14:\n    /* \"#utility.yul\":602:607   */\n  0x00\n    /* \"#utility.yul\":633:639   */\n  dup2\n    /* \"#utility.yul\":627:640   */\n  mload\n    /* \"#utility.yul\":618:640   */\n  swap1\n  pop\n    /* \"#utility.yul\":649:682   */\n  tag_24\n    /* \"#utility.yul\":676:681   */\n  dup2\n    /* \"#utility.yul\":649:682   */\n  tag_13\n  jump\t// in\ntag_24:\n    /* \"#utility.yul\":545:688   */\n  swap3\n  swap2\n  pop\n  pop\n  jump\t// out\n    /* \"#utility.yul\":694:1045   */\ntag_4:\n    /* \"#utility.yul\":764:770   */\n  0x00\n    /* \"#utility.yul\":813:815   */\n  0x20\n    /* \"#utility.yul\":801:810   */\n  dup3\n    /* \"#utility.yul\":792:799   */\n  dup5\n    /* \"#utility.yul\":788:811   */\n  sub\n    /* \"#utility.yul\":784:816   */\n  slt\n    /* \"#utility.yul\":781:900   */\n  iszero\n  tag_26\n  jumpi\n    /* \"#utility.yul\":819:898   */\n  tag_27\n  tag_10\n  jump\t// in\ntag_27:\n    /* \"#utility.yul\":781:900   */\ntag_26:\n    /* \"#utility.yul\":939:940   */\n  0x00\n    /* \"#utility.yul\":964:1028   */\n  tag_28\n    /* \"#utility.yul\":1020:1027   */\n  dup5\n    /* \"#utility.yul\":1011:1017   */\n  dup3\n    /* \"#utility.yul\":1000:1009   */\n  dup6\n    /* \"#utility.yul\":996:1018   */\n  add\n    /* \"#utility.yul\":964:1028   */\n  tag_14\n  jump\t// in\ntag_28:\n    /* \"#utility.yul\":954:1028   */\n  swap2\n  pop\n    /* \"#utility.yul\":910:1038   */\n  pop\n    /* \"#utility.yul\":694:1045   */\n  swap3\n  swap2\n  pop\n  pop\n  jump\t// out\n    /* \"contracts/VotingSystem.sol\":582:3885  contract VotingSystem {... */\ntag_8:\n  dataSize(sub_0)\n  dup1\n  dataOffset(sub_0)\n  0x00\n  codecopy\n  0x00\n  return\nstop\n\nsub_0: assembly {\n        /* \"contracts/VotingSystem.sol\":582:3885  contract VotingSystem {... */\n      mstore(0x40, 0x80)\n      callvalue\n      dup1\n      iszero\n      tag_1\n      jumpi\n      0x00\n      dup1\n      revert\n    tag_1:\n      pop\n      jumpi(tag_2, lt(calldatasize, 0x04))\n      shr(0xe0, calldataload(0x00))\n      dup1\n      0x9b9369\n      eq\n      tag_3\n      jumpi\n      dup1\n      0x13d8ac9e\n      eq\n      tag_4\n      jumpi\n      dup1\n      0x4de8737c\n      eq\n      tag_5\n      jumpi\n      dup1\n      0x8f633994\n      eq\n      tag_6\n      jumpi\n      dup1\n      0xc41a360a\n      eq\n      tag_7\n      jumpi\n    tag_2:\n      0x00\n      dup1\n      revert\n        /* \"contracts/VotingSystem.sol\":2869:3008  function getVoteNumber(uint256 agendaTokenId) public view returns (uint256){... */\n    tag_3:\n      tag_8\n      0x04\n      dup1\n      calldatasize\n      sub\n      dup2\n      add\n      swap1\n      tag_9\n      swap2\n      swap1\n      tag_10\n      jump\t// in\n    tag_9:\n      tag_11\n      jump\t// in\n    tag_8:\n      mload(0x40)\n      tag_12\n      swap2\n      swap1\n      tag_13\n      jump\t// in\n    tag_12:\n      mload(0x40)\n      dup1\n      swap2\n      sub\n      swap1\n      return\n        /* \"contracts/VotingSystem.sol\":3015:3118  function getListedAgendas() public view returns(uint256[] memory){... */\n    tag_4:\n      tag_14\n      tag_15\n      jump\t// in\n    tag_14:\n      mload(0x40)\n      tag_16\n      swap2\n      swap1\n      tag_17\n      jump\t// in\n    tag_16:\n      mload(0x40)\n      dup1\n      swap2\n      sub\n      swap1\n      return\n        /* \"contracts/VotingSystem.sol\":1412:2640  function vote(uint256 agendaTokenId, address voterAddress, uint256 amount) public {... */\n    tag_5:\n      tag_18\n      0x04\n      dup1\n      calldatasize\n      sub\n      dup2\n      add\n      swap1\n      tag_19\n      swap2\n      swap1\n      tag_20\n      jump\t// in\n    tag_19:\n      tag_21\n      jump\t// in\n    tag_18:\n      stop\n        /* \"contracts/VotingSystem.sol\":3124:3366  function getVotingStatus(uint256 agendaTokenId) public view returns (address[] memory, uint256[] memory) {... */\n    tag_6:\n      tag_22\n      0x04\n      dup1\n      calldatasize\n      sub\n      dup2\n      add\n      swap1\n      tag_23\n      swap2\n      swap1\n      tag_10\n      jump\t// in\n    tag_23:\n      tag_24\n      jump\t// in\n    tag_22:\n      mload(0x40)\n      tag_25\n      swap3\n      swap2\n      swap1\n      tag_26\n      jump\t// in\n    tag_25:\n      mload(0x40)\n      dup1\n      swap2\n      sub\n      swap1\n      return\n        /* \"contracts/VotingSystem.sol\":3746:3883  function getOwner(uint256 AgendaTokenId) public view returns (address) {... */\n    tag_7:\n      tag_27\n      0x04\n      dup1\n      calldatasize\n      sub\n      dup2\n      add\n      swap1\n      tag_28\n      swap2\n      swap1\n      tag_10\n      jump\t// in\n    tag_28:\n      tag_29\n      jump\t// in\n    tag_27:\n      mload(0x40)\n      tag_30\n      swap2\n      swap1\n      tag_31\n      jump\t// in\n    tag_30:\n      mload(0x40)\n      dup1\n      swap2\n      sub\n      swap1\n      return\n        /* \"contracts/VotingSystem.sol\":2869:3008  function getVoteNumber(uint256 agendaTokenId) public view returns (uint256){... */\n    tag_11:\n        /* \"contracts/VotingSystem.sol\":2936:2943  uint256 */\n      0x00\n        /* \"contracts/VotingSystem.sol\":2961:2975  idToAgendaData */\n      0x08\n        /* \"contracts/VotingSystem.sol\":2961:2990  idToAgendaData[agendaTokenId] */\n      0x00\n        /* \"contracts/VotingSystem.sol\":2976:2989  agendaTokenId */\n      dup4\n        /* \"contracts/VotingSystem.sol\":2961:2990  idToAgendaData[agendaTokenId] */\n      dup2\n      mstore\n      0x20\n      add\n      swap1\n      dup2\n      mstore\n      0x20\n      add\n      0x00\n      keccak256\n        /* \"contracts/VotingSystem.sol\":2961:3001  idToAgendaData[agendaTokenId].totalVotes */\n      0x01\n      add\n      sload\n        /* \"contracts/VotingSystem.sol\":2954:3001  return idToAgendaData[agendaTokenId].totalVotes */\n      swap1\n      pop\n        /* \"contracts/VotingSystem.sol\":2869:3008  function getVoteNumber(uint256 agendaTokenId) public view returns (uint256){... */\n      swap2\n      swap1\n      pop\n      jump\t// out\n        /* \"contracts/VotingSystem.sol\":3015:3118  function getListedAgendas() public view returns(uint256[] memory){... */\n    tag_15:\n        /* \"contracts/VotingSystem.sol\":3063:3079  uint256[] memory */\n      0x60\n        /* \"contracts/VotingSystem.sol\":3097:3111  listedAgendaId */\n      0x07\n        /* \"contracts/VotingSystem.sol\":3090:3111  return listedAgendaId */\n      dup1\n      sload\n      dup1\n      0x20\n      mul\n      0x20\n      add\n      mload(0x40)\n      swap1\n      dup2\n      add\n      0x40\n      mstore\n      dup1\n      swap3\n      swap2\n      swap1\n      dup2\n      dup2\n      mstore\n      0x20\n      add\n      dup3\n      dup1\n      sload\n      dup1\n      iszero\n      tag_34\n      jumpi\n      0x20\n      mul\n      dup3\n      add\n      swap2\n      swap1\n      0x00\n      mstore\n      keccak256(0x00, 0x20)\n      swap1\n    tag_35:\n      dup2\n      sload\n      dup2\n      mstore\n      0x20\n      add\n      swap1\n      0x01\n      add\n      swap1\n      dup1\n      dup4\n      gt\n      tag_35\n      jumpi\n    tag_34:\n      pop\n      pop\n      pop\n      pop\n      pop\n      swap1\n      pop\n        /* \"contracts/VotingSystem.sol\":3015:3118  function getListedAgendas() public view returns(uint256[] memory){... */\n      swap1\n      jump\t// out\n        /* \"contracts/VotingSystem.sol\":1412:2640  function vote(uint256 agendaTokenId, address voterAddress, uint256 amount) public {... */\n    tag_21:\n        /* \"contracts/VotingSystem.sol\":1530:1540  msg.sender */\n      caller\n        /* \"contracts/VotingSystem.sol\":1513:1540  contractOwner == msg.sender */\n      0xffffffffffffffffffffffffffffffffffffffff\n      and\n        /* \"contracts/VotingSystem.sol\":1513:1526  contractOwner */\n      0x04\n      0x00\n      swap1\n      sload\n      swap1\n      0x0100\n      exp\n      swap1\n      div\n      0xffffffffffffffffffffffffffffffffffffffff\n      and\n        /* \"contracts/VotingSystem.sol\":1513:1540  contractOwner == msg.sender */\n      0xffffffffffffffffffffffffffffffffffffffff\n      and\n      eq\n        /* \"contracts/VotingSystem.sol\":1504:1581  require (contractOwner == msg.sender, \"Only contract owner can confirm vote\") */\n      tag_37\n      jumpi\n      mload(0x40)\n      0x08c379a000000000000000000000000000000000000000000000000000000000\n      dup2\n      mstore\n      0x04\n      add\n      tag_38\n      swap1\n      tag_39\n      jump\t// in\n    tag_38:\n      mload(0x40)\n      dup1\n      swap2\n      sub\n      swap1\n      revert\n    tag_37:\n        /* \"contracts/VotingSystem.sol\":1615:1632  totalAgendaNumber */\n      sload(0x05)\n        /* \"contracts/VotingSystem.sol\":1600:1613  agendaTokenId */\n      dup4\n        /* \"contracts/VotingSystem.sol\":1600:1632  agendaTokenId<=totalAgendaNumber */\n      gt\n      iszero\n        /* \"contracts/VotingSystem.sol\":1591:1658  require (agendaTokenId<=totalAgendaNumber, \"No existing agenda id\") */\n      tag_40\n      jumpi\n      mload(0x40)\n      0x08c379a000000000000000000000000000000000000000000000000000000000\n      dup2\n      mstore\n      0x04\n      add\n      tag_41\n      swap1\n      tag_42\n      jump\t// in\n    tag_41:\n      mload(0x40)\n      dup1\n      swap2\n      sub\n      swap1\n      revert\n    tag_40:\n        /* \"contracts/VotingSystem.sol\":1684:1685  0 */\n      0x00\n        /* \"contracts/VotingSystem.sol\":1677:1683  amount */\n      dup2\n        /* \"contracts/VotingSystem.sol\":1677:1685  amount>0 */\n      gt\n        /* \"contracts/VotingSystem.sol\":1668:1709  require (amount>0, \"0 token transferred\") */\n      tag_43\n      jumpi\n      mload(0x40)\n      0x08c379a000000000000000000000000000000000000000000000000000000000\n      dup2\n      mstore\n      0x04\n      add\n      tag_44\n      swap1\n      tag_45\n      jump\t// in\n    tag_44:\n      mload(0x40)\n      dup1\n      swap2\n      sub\n      swap1\n      revert\n    tag_43:\n        /* \"contracts/VotingSystem.sol\":1777:1789  maxVoteToken */\n      sload(0x06)\n        /* \"contracts/VotingSystem.sol\":1769:1775  amount */\n      dup2\n        /* \"contracts/VotingSystem.sol\":1728:1742  idToAgendaData */\n      0x08\n        /* \"contracts/VotingSystem.sol\":1728:1757  idToAgendaData[agendaTokenId] */\n      0x00\n        /* \"contracts/VotingSystem.sol\":1743:1756  agendaTokenId */\n      dup7\n        /* \"contracts/VotingSystem.sol\":1728:1757  idToAgendaData[agendaTokenId] */\n      dup2\n      mstore\n      0x20\n      add\n      swap1\n      dup2\n      mstore\n      0x20\n      add\n      0x00\n      keccak256\n        /* \"contracts/VotingSystem.sol\":1728:1768  idToAgendaData[agendaTokenId].totalVotes */\n      0x01\n      add\n      sload\n        /* \"contracts/VotingSystem.sol\":1728:1775  idToAgendaData[agendaTokenId].totalVotes+amount */\n      tag_46\n      swap2\n      swap1\n      tag_47\n      jump\t// in\n    tag_46:\n        /* \"contracts/VotingSystem.sol\":1728:1789  idToAgendaData[agendaTokenId].totalVotes+amount<=maxVoteToken */\n      gt\n      iszero\n        /* \"contracts/VotingSystem.sol\":1719:1832  require (idToAgendaData[agendaTokenId].totalVotes+amount<=maxVoteToken, \"Maximum available token input exceeded\") */\n      tag_48\n      jumpi\n      mload(0x40)\n      0x08c379a000000000000000000000000000000000000000000000000000000000\n      dup2\n      mstore\n      0x04\n      add\n      tag_49\n      swap1\n      tag_50\n      jump\t// in\n    tag_49:\n      mload(0x40)\n      dup1\n      swap2\n      sub\n      swap1\n      revert\n    tag_48:\n        /* \"contracts/VotingSystem.sol\":1842:1853  AECcontract */\n      0x03\n      0x00\n      swap1\n      sload\n      swap1\n      0x0100\n      exp\n      swap1\n      div\n      0xffffffffffffffffffffffffffffffffffffffff\n      and\n        /* \"contracts/VotingSystem.sol\":1842:1858  AECcontract.burn */\n      0xffffffffffffffffffffffffffffffffffffffff\n      and\n      0x9dc29fac\n        /* \"contracts/VotingSystem.sol\":1859:1871  voterAddress */\n      dup4\n        /* \"contracts/VotingSystem.sol\":1873:1879  amount */\n      dup4\n        /* \"contracts/VotingSystem.sol\":1842:1880  AECcontract.burn(voterAddress, amount) */\n      mload(0x40)\n      dup4\n      0xffffffff\n      and\n      0xe0\n      shl\n      dup2\n      mstore\n      0x04\n      add\n      tag_51\n      swap3\n      swap2\n      swap1\n      tag_52\n      jump\t// in\n    tag_51:\n      0x20\n      mload(0x40)\n      dup1\n      dup4\n      sub\n      dup2\n      0x00\n      dup8\n      gas\n      call\n      iszero\n      dup1\n      iszero\n      tag_54\n      jumpi\n      returndatasize\n      0x00\n      dup1\n      returndatacopy\n      revert(0x00, returndatasize)\n    tag_54:\n      pop\n      pop\n      pop\n      pop\n      mload(0x40)\n      returndatasize\n      not(0x1f)\n      0x1f\n      dup3\n      add\n      and\n      dup3\n      add\n      dup1\n      0x40\n      mstore\n      pop\n      dup2\n      add\n      swap1\n      tag_55\n      swap2\n      swap1\n      tag_56\n      jump\t// in\n    tag_55:\n      pop\n        /* \"contracts/VotingSystem.sol\":1943:1970  AgendaStatus storage agenda */\n      0x00\n        /* \"contracts/VotingSystem.sol\":1973:1987  idToAgendaData */\n      0x08\n        /* \"contracts/VotingSystem.sol\":1973:2002  idToAgendaData[agendaTokenId] */\n      0x00\n        /* \"contracts/VotingSystem.sol\":1988:2001  agendaTokenId */\n      dup6\n        /* \"contracts/VotingSystem.sol\":1973:2002  idToAgendaData[agendaTokenId] */\n      dup2\n      mstore\n      0x20\n      add\n      swap1\n      dup2\n      mstore\n      0x20\n      add\n      0x00\n      keccak256\n        /* \"contracts/VotingSystem.sol\":1943:2002  AgendaStatus storage agenda = idToAgendaData[agendaTokenId] */\n      swap1\n      pop\n        /* \"contracts/VotingSystem.sol\":2032:2038  amount */\n      dup2\n        /* \"contracts/VotingSystem.sol\":2012:2018  agenda */\n      dup2\n        /* \"contracts/VotingSystem.sol\":2012:2029  agenda.totalVotes */\n      0x01\n      add\n      0x00\n        /* \"contracts/VotingSystem.sol\":2012:2038  agenda.totalVotes+= amount */\n      dup3\n      dup3\n      sload\n      tag_57\n      swap2\n      swap1\n      tag_47\n      jump\t// in\n    tag_57:\n      swap3\n      pop\n      pop\n      dup2\n      swap1\n      sstore\n      pop\n        /* \"contracts/VotingSystem.sol\":2049:2067  bool isVoterExists */\n      0x00\n        /* \"contracts/VotingSystem.sol\":2090:2096  uint i */\n      dup1\n        /* \"contracts/VotingSystem.sol\":2085:2271  for (uint i = 0; i < agenda.voters.length; i++) {... */\n    tag_58:\n        /* \"contracts/VotingSystem.sol\":2106:2112  agenda */\n      dup3\n        /* \"contracts/VotingSystem.sol\":2106:2119  agenda.voters */\n      0x00\n      add\n        /* \"contracts/VotingSystem.sol\":2106:2126  agenda.voters.length */\n      dup1\n      sload\n      swap1\n      pop\n        /* \"contracts/VotingSystem.sol\":2102:2103  i */\n      dup2\n        /* \"contracts/VotingSystem.sol\":2102:2126  i < agenda.voters.length */\n      lt\n        /* \"contracts/VotingSystem.sol\":2085:2271  for (uint i = 0; i < agenda.voters.length; i++) {... */\n      iszero\n      tag_59\n      jumpi\n        /* \"contracts/VotingSystem.sol\":2171:2183  voterAddress */\n      dup5\n        /* \"contracts/VotingSystem.sol\":2151:2183  agenda.voters[i] == voterAddress */\n      0xffffffffffffffffffffffffffffffffffffffff\n      and\n        /* \"contracts/VotingSystem.sol\":2151:2157  agenda */\n      dup4\n        /* \"contracts/VotingSystem.sol\":2151:2164  agenda.voters */\n      0x00\n      add\n        /* \"contracts/VotingSystem.sol\":2165:2166  i */\n      dup3\n        /* \"contracts/VotingSystem.sol\":2151:2167  agenda.voters[i] */\n      dup2\n      sload\n      dup2\n      lt\n      tag_61\n      jumpi\n      tag_62\n      tag_63\n      jump\t// in\n    tag_62:\n    tag_61:\n      swap1\n      0x00\n      mstore\n      keccak256(0x00, 0x20)\n      add\n      0x00\n      swap1\n      sload\n      swap1\n      0x0100\n      exp\n      swap1\n      div\n      0xffffffffffffffffffffffffffffffffffffffff\n      and\n        /* \"contracts/VotingSystem.sol\":2151:2183  agenda.voters[i] == voterAddress */\n      0xffffffffffffffffffffffffffffffffffffffff\n      and\n      sub\n        /* \"contracts/VotingSystem.sol\":2147:2261  if (agenda.voters[i] == voterAddress) {... */\n      tag_65\n      jumpi\n        /* \"contracts/VotingSystem.sol\":2219:2223  true */\n      0x01\n        /* \"contracts/VotingSystem.sol\":2203:2223  isVoterExists = true */\n      swap2\n      pop\n        /* \"contracts/VotingSystem.sol\":2241:2246  break */\n      jump(tag_59)\n        /* \"contracts/VotingSystem.sol\":2147:2261  if (agenda.voters[i] == voterAddress) {... */\n    tag_65:\n        /* \"contracts/VotingSystem.sol\":2128:2131  i++ */\n      dup1\n      dup1\n      0x01\n      add\n      swap2\n      pop\n      pop\n        /* \"contracts/VotingSystem.sol\":2085:2271  for (uint i = 0; i < agenda.voters.length; i++) {... */\n      jump(tag_58)\n    tag_59:\n      pop\n        /* \"contracts/VotingSystem.sol\":2285:2298  isVoterExists */\n      dup1\n        /* \"contracts/VotingSystem.sol\":2280:2357  if (!isVoterExists) {... */\n      tag_66\n      jumpi\n        /* \"contracts/VotingSystem.sol\":2314:2320  agenda */\n      dup2\n        /* \"contracts/VotingSystem.sol\":2314:2327  agenda.voters */\n      0x00\n      add\n        /* \"contracts/VotingSystem.sol\":2333:2345  voterAddress */\n      dup5\n        /* \"contracts/VotingSystem.sol\":2314:2346  agenda.voters.push(voterAddress) */\n      swap1\n      dup1\n      0x01\n      dup2\n      sload\n      add\n      dup1\n      dup3\n      sstore\n      dup1\n      swap2\n      pop\n      pop\n      0x01\n      swap1\n      sub\n      swap1\n      0x00\n      mstore\n      keccak256(0x00, 0x20)\n      add\n      0x00\n      swap1\n      swap2\n      swap1\n      swap2\n      swap1\n      swap2\n      0x0100\n      exp\n      dup2\n      sload\n      dup2\n      0xffffffffffffffffffffffffffffffffffffffff\n      mul\n      not\n      and\n      swap1\n      dup4\n      0xffffffffffffffffffffffffffffffffffffffff\n      and\n      mul\n      or\n      swap1\n      sstore\n      pop\n        /* \"contracts/VotingSystem.sol\":2280:2357  if (!isVoterExists) {... */\n    tag_66:\n        /* \"contracts/VotingSystem.sol\":2407:2413  amount */\n      dup3\n        /* \"contracts/VotingSystem.sol\":2367:2373  agenda */\n      dup3\n        /* \"contracts/VotingSystem.sol\":2367:2389  agenda.voterTokenValue */\n      0x02\n      add\n        /* \"contracts/VotingSystem.sol\":2367:2403  agenda.voterTokenValue[voterAddress] */\n      0x00\n        /* \"contracts/VotingSystem.sol\":2390:2402  voterAddress */\n      dup7\n        /* \"contracts/VotingSystem.sol\":2367:2403  agenda.voterTokenValue[voterAddress] */\n      0xffffffffffffffffffffffffffffffffffffffff\n      and\n      0xffffffffffffffffffffffffffffffffffffffff\n      and\n      dup2\n      mstore\n      0x20\n      add\n      swap1\n      dup2\n      mstore\n      0x20\n      add\n      0x00\n      keccak256\n      0x00\n        /* \"contracts/VotingSystem.sol\":2367:2413  agenda.voterTokenValue[voterAddress] += amount */\n      dup3\n      dup3\n      sload\n      tag_68\n      swap2\n      swap1\n      tag_47\n      jump\t// in\n    tag_68:\n      swap3\n      pop\n      pop\n      dup2\n      swap1\n      sstore\n      pop\n        /* \"contracts/VotingSystem.sol\":2428:2454  Vote(voterAddress, amount) */\n      0xf668ead05c744b9178e571d2edb452e72baf6529c8d72160e64e59b50d865bd0\n        /* \"contracts/VotingSystem.sol\":2433:2445  voterAddress */\n      dup5\n        /* \"contracts/VotingSystem.sol\":2447:2453  amount */\n      dup5\n        /* \"contracts/VotingSystem.sol\":2428:2454  Vote(voterAddress, amount) */\n      mload(0x40)\n      tag_69\n      swap3\n      swap2\n      swap1\n      tag_52\n      jump\t// in\n    tag_69:\n      mload(0x40)\n      dup1\n      swap2\n      sub\n      swap1\n      log1\n        /* \"contracts/VotingSystem.sol\":2486:2498  maxVoteToken */\n      sload(0x06)\n        /* \"contracts/VotingSystem.sol\":2467:2473  agenda */\n      dup3\n        /* \"contracts/VotingSystem.sol\":2467:2484  agenda.totalVotes */\n      0x01\n      add\n      sload\n        /* \"contracts/VotingSystem.sol\":2467:2498  agenda.totalVotes==maxVoteToken */\n      sub\n        /* \"contracts/VotingSystem.sol\":2464:2634  if(agenda.totalVotes==maxVoteToken){... */\n      tag_70\n      jumpi\n        /* \"contracts/VotingSystem.sol\":2513:2527  listedAgendaId */\n      0x07\n        /* \"contracts/VotingSystem.sol\":2533:2546  agendaTokenId */\n      dup6\n        /* \"contracts/VotingSystem.sol\":2513:2547  listedAgendaId.push(agendaTokenId) */\n      swap1\n      dup1\n      0x01\n      dup2\n      sload\n      add\n      dup1\n      dup3\n      sstore\n      dup1\n      swap2\n      pop\n      pop\n      0x01\n      swap1\n      sub\n      swap1\n      0x00\n      mstore\n      keccak256(0x00, 0x20)\n      add\n      0x00\n      swap1\n      swap2\n      swap1\n      swap2\n      swap1\n      swap2\n      pop\n      sstore\n        /* \"contracts/VotingSystem.sol\":2579:2583  true */\n      0x01\n        /* \"contracts/VotingSystem.sol\":2561:2567  agenda */\n      dup3\n        /* \"contracts/VotingSystem.sol\":2561:2576  agenda.isListed */\n      0x03\n      add\n      0x00\n        /* \"contracts/VotingSystem.sol\":2561:2583  agenda.isListed = true */\n      0x0100\n      exp\n      dup2\n      sload\n      dup2\n      0xff\n      mul\n      not\n      and\n      swap1\n      dup4\n      iszero\n      iszero\n      mul\n      or\n      swap1\n      sstore\n      pop\n        /* \"contracts/VotingSystem.sol\":2602:2623  Listed(agendaTokenId) */\n      0xf3ecdc9ffda52c5ad69793c567cb456f83bba2d14f196542e0be80c919a8bda3\n        /* \"contracts/VotingSystem.sol\":2609:2622  agendaTokenId */\n      dup6\n        /* \"contracts/VotingSystem.sol\":2602:2623  Listed(agendaTokenId) */\n      mload(0x40)\n      tag_72\n      swap2\n      swap1\n      tag_13\n      jump\t// in\n    tag_72:\n      mload(0x40)\n      dup1\n      swap2\n      sub\n      swap1\n      log1\n        /* \"contracts/VotingSystem.sol\":2464:2634  if(agenda.totalVotes==maxVoteToken){... */\n    tag_70:\n        /* \"contracts/VotingSystem.sol\":1494:2640  {... */\n      pop\n      pop\n        /* \"contracts/VotingSystem.sol\":1412:2640  function vote(uint256 agendaTokenId, address voterAddress, uint256 amount) public {... */\n      pop\n      pop\n      pop\n      jump\t// out\n        /* \"contracts/VotingSystem.sol\":3124:3366  function getVotingStatus(uint256 agendaTokenId) public view returns (address[] memory, uint256[] memory) {... */\n    tag_24:\n        /* \"contracts/VotingSystem.sol\":3193:3209  address[] memory */\n      0x60\n        /* \"contracts/VotingSystem.sol\":3211:3227  uint256[] memory */\n      dup1\n        /* \"contracts/VotingSystem.sol\":3239:3266  AgendaStatus storage agenda */\n      0x00\n        /* \"contracts/VotingSystem.sol\":3269:3283  idToAgendaData */\n      0x08\n        /* \"contracts/VotingSystem.sol\":3269:3298  idToAgendaData[agendaTokenId] */\n      0x00\n        /* \"contracts/VotingSystem.sol\":3284:3297  agendaTokenId */\n      dup6\n        /* \"contracts/VotingSystem.sol\":3269:3298  idToAgendaData[agendaTokenId] */\n      dup2\n      mstore\n      0x20\n      add\n      swap1\n      dup2\n      mstore\n      0x20\n      add\n      0x00\n      keccak256\n        /* \"contracts/VotingSystem.sol\":3239:3298  AgendaStatus storage agenda = idToAgendaData[agendaTokenId] */\n      swap1\n      pop\n        /* \"contracts/VotingSystem.sol\":3316:3322  agenda */\n      dup1\n        /* \"contracts/VotingSystem.sol\":3316:3329  agenda.voters */\n      0x00\n      add\n        /* \"contracts/VotingSystem.sol\":3331:3358  getVoterTokenValues(agenda) */\n      tag_74\n        /* \"contracts/VotingSystem.sol\":3351:3357  agenda */\n      dup3\n        /* \"contracts/VotingSystem.sol\":3331:3350  getVoterTokenValues */\n      tag_75\n        /* \"contracts/VotingSystem.sol\":3331:3358  getVoterTokenValues(agenda) */\n      jump\t// in\n    tag_74:\n        /* \"contracts/VotingSystem.sol\":3308:3359  return (agenda.voters, getVoterTokenValues(agenda)) */\n      dup2\n      dup1\n      sload\n      dup1\n      0x20\n      mul\n      0x20\n      add\n      mload(0x40)\n      swap1\n      dup2\n      add\n      0x40\n      mstore\n      dup1\n      swap3\n      swap2\n      swap1\n      dup2\n      dup2\n      mstore\n      0x20\n      add\n      dup3\n      dup1\n      sload\n      dup1\n      iszero\n      tag_76\n      jumpi\n      0x20\n      mul\n      dup3\n      add\n      swap2\n      swap1\n      0x00\n      mstore\n      keccak256(0x00, 0x20)\n      swap1\n    tag_77:\n      dup2\n      0x00\n      swap1\n      sload\n      swap1\n      0x0100\n      exp\n      swap1\n      div\n      0xffffffffffffffffffffffffffffffffffffffff\n      and\n      0xffffffffffffffffffffffffffffffffffffffff\n      and\n      dup2\n      mstore\n      0x20\n      add\n      swap1\n      0x01\n      add\n      swap1\n      dup1\n      dup4\n      gt\n      tag_77\n      jumpi\n    tag_76:\n      pop\n      pop\n      pop\n      pop\n      pop\n      swap2\n      pop\n      swap3\n      pop\n      swap3\n      pop\n      pop\n        /* \"contracts/VotingSystem.sol\":3124:3366  function getVotingStatus(uint256 agendaTokenId) public view returns (address[] memory, uint256[] memory) {... */\n      swap2\n      pop\n      swap2\n      jump\t// out\n        /* \"contracts/VotingSystem.sol\":3746:3883  function getOwner(uint256 AgendaTokenId) public view returns (address) {... */\n    tag_29:\n        /* \"contracts/VotingSystem.sol\":3808:3815  address */\n      0x00\n        /* \"contracts/VotingSystem.sol\":3834:3845  APTcontract */\n      0x02\n      0x00\n      swap1\n      sload\n      swap1\n      0x0100\n      exp\n      swap1\n      div\n      0xffffffffffffffffffffffffffffffffffffffff\n      and\n        /* \"contracts/VotingSystem.sol\":3834:3861  APTcontract.getOwnerOfToken */\n      0xffffffffffffffffffffffffffffffffffffffff\n      and\n      0x7f1dd80b\n        /* \"contracts/VotingSystem.sol\":3862:3875  AgendaTokenId */\n      dup4\n        /* \"contracts/VotingSystem.sol\":3834:3876  APTcontract.getOwnerOfToken(AgendaTokenId) */\n      mload(0x40)\n      dup3\n      0xffffffff\n      and\n      0xe0\n      shl\n      dup2\n      mstore\n      0x04\n      add\n      tag_79\n      swap2\n      swap1\n      tag_13\n      jump\t// in\n    tag_79:\n      0x20\n      mload(0x40)\n      dup1\n      dup4\n      sub\n      dup2\n      dup7\n      gas\n      staticcall\n      iszero\n      dup1\n      iszero\n      tag_81\n      jumpi\n      returndatasize\n      0x00\n      dup1\n      returndatacopy\n      revert(0x00, returndatasize)\n    tag_81:\n      pop\n      pop\n      pop\n      pop\n      mload(0x40)\n      returndatasize\n      not(0x1f)\n      0x1f\n      dup3\n      add\n      and\n      dup3\n      add\n      dup1\n      0x40\n      mstore\n      pop\n      dup2\n      add\n      swap1\n      tag_82\n      swap2\n      swap1\n      tag_83\n      jump\t// in\n    tag_82:\n        /* \"contracts/VotingSystem.sol\":3827:3876  return APTcontract.getOwnerOfToken(AgendaTokenId) */\n      swap1\n      pop\n        /* \"contracts/VotingSystem.sol\":3746:3883  function getOwner(uint256 AgendaTokenId) public view returns (address) {... */\n      swap2\n      swap1\n      pop\n      jump\t// out\n        /* \"contracts/VotingSystem.sol\":3372:3740  function getVoterTokenValues(AgendaStatus storage agenda) private view returns (uint256[] memory) {... */\n    tag_75:\n        /* \"contracts/VotingSystem.sol\":3452:3468  uint256[] memory */\n      0x60\n        /* \"contracts/VotingSystem.sol\":3480:3503  uint256[] memory values */\n      0x00\n        /* \"contracts/VotingSystem.sol\":3520:3526  agenda */\n      dup3\n        /* \"contracts/VotingSystem.sol\":3520:3533  agenda.voters */\n      0x00\n      add\n        /* \"contracts/VotingSystem.sol\":3520:3540  agenda.voters.length */\n      dup1\n      sload\n      swap1\n      pop\n        /* \"contracts/VotingSystem.sol\":3506:3541  new uint256[](agenda.voters.length) */\n      0xffffffffffffffff\n      dup2\n      gt\n      iszero\n      tag_85\n      jumpi\n      tag_86\n      tag_87\n      jump\t// in\n    tag_86:\n    tag_85:\n      mload(0x40)\n      swap1\n      dup1\n      dup3\n      mstore\n      dup1\n      0x20\n      mul\n      0x20\n      add\n      dup3\n      add\n      0x40\n      mstore\n      dup1\n      iszero\n      tag_88\n      jumpi\n      dup2\n      0x20\n      add\n      0x20\n      dup3\n      mul\n      dup1\n      calldatasize\n      dup4\n      calldatacopy\n      dup1\n      dup3\n      add\n      swap2\n      pop\n      pop\n      swap1\n      pop\n    tag_88:\n      pop\n        /* \"contracts/VotingSystem.sol\":3480:3541  uint256[] memory values = new uint256[](agenda.voters.length) */\n      swap1\n      pop\n        /* \"contracts/VotingSystem.sol\":3556:3562  uint i */\n      0x00\n        /* \"contracts/VotingSystem.sol\":3551:3711  for (uint i = 0; i < agenda.voters.length; i++) {... */\n    tag_89:\n        /* \"contracts/VotingSystem.sol\":3572:3578  agenda */\n      dup4\n        /* \"contracts/VotingSystem.sol\":3572:3585  agenda.voters */\n      0x00\n      add\n        /* \"contracts/VotingSystem.sol\":3572:3592  agenda.voters.length */\n      dup1\n      sload\n      swap1\n      pop\n        /* \"contracts/VotingSystem.sol\":3568:3569  i */\n      dup2\n        /* \"contracts/VotingSystem.sol\":3568:3592  i < agenda.voters.length */\n      lt\n        /* \"contracts/VotingSystem.sol\":3551:3711  for (uint i = 0; i < agenda.voters.length; i++) {... */\n      iszero\n      tag_90\n      jumpi\n        /* \"contracts/VotingSystem.sol\":3613:3626  address voter */\n      0x00\n        /* \"contracts/VotingSystem.sol\":3629:3635  agenda */\n      dup5\n        /* \"contracts/VotingSystem.sol\":3629:3642  agenda.voters */\n      0x00\n      add\n        /* \"contracts/VotingSystem.sol\":3643:3644  i */\n      dup3\n        /* \"contracts/VotingSystem.sol\":3629:3645  agenda.voters[i] */\n      dup2\n      sload\n      dup2\n      lt\n      tag_92\n      jumpi\n      tag_93\n      tag_63\n      jump\t// in\n    tag_93:\n    tag_92:\n      swap1\n      0x00\n      mstore\n      keccak256(0x00, 0x20)\n      add\n      0x00\n      swap1\n      sload\n      swap1\n      0x0100\n      exp\n      swap1\n      div\n      0xffffffffffffffffffffffffffffffffffffffff\n      and\n        /* \"contracts/VotingSystem.sol\":3613:3645  address voter = agenda.voters[i] */\n      swap1\n      pop\n        /* \"contracts/VotingSystem.sol\":3671:3677  agenda */\n      dup5\n        /* \"contracts/VotingSystem.sol\":3671:3693  agenda.voterTokenValue */\n      0x02\n      add\n        /* \"contracts/VotingSystem.sol\":3671:3700  agenda.voterTokenValue[voter] */\n      0x00\n        /* \"contracts/VotingSystem.sol\":3694:3699  voter */\n      dup3\n        /* \"contracts/VotingSystem.sol\":3671:3700  agenda.voterTokenValue[voter] */\n      0xffffffffffffffffffffffffffffffffffffffff\n      and\n      0xffffffffffffffffffffffffffffffffffffffff\n      and\n      dup2\n      mstore\n      0x20\n      add\n      swap1\n      dup2\n      mstore\n      0x20\n      add\n      0x00\n      keccak256\n      sload\n        /* \"contracts/VotingSystem.sol\":3659:3665  values */\n      dup4\n        /* \"contracts/VotingSystem.sol\":3666:3667  i */\n      dup4\n        /* \"contracts/VotingSystem.sol\":3659:3668  values[i] */\n      dup2\n      mload\n      dup2\n      lt\n      tag_95\n      jumpi\n      tag_96\n      tag_63\n      jump\t// in\n    tag_96:\n    tag_95:\n      0x20\n      mul\n      0x20\n      add\n      add\n        /* \"contracts/VotingSystem.sol\":3659:3700  values[i] = agenda.voterTokenValue[voter] */\n      dup2\n      dup2\n      mstore\n      pop\n      pop\n        /* \"contracts/VotingSystem.sol\":3599:3711  {... */\n      pop\n        /* \"contracts/VotingSystem.sol\":3594:3597  i++ */\n      dup1\n      dup1\n      0x01\n      add\n      swap2\n      pop\n      pop\n        /* \"contracts/VotingSystem.sol\":3551:3711  for (uint i = 0; i < agenda.voters.length; i++) {... */\n      jump(tag_89)\n    tag_90:\n      pop\n        /* \"contracts/VotingSystem.sol\":3727:3733  values */\n      dup1\n        /* \"contracts/VotingSystem.sol\":3720:3733  return values */\n      swap2\n      pop\n      pop\n        /* \"contracts/VotingSystem.sol\":3372:3740  function getVoterTokenValues(AgendaStatus storage agenda) private view returns (uint256[] memory) {... */\n      swap2\n      swap1\n      pop\n      jump\t// out\n        /* \"#utility.yul\":88:205   */\n    tag_98:\n        /* \"#utility.yul\":197:198   */\n      0x00\n        /* \"#utility.yul\":194:195   */\n      dup1\n        /* \"#utility.yul\":187:199   */\n      revert\n        /* \"#utility.yul\":334:411   */\n    tag_100:\n        /* \"#utility.yul\":371:378   */\n      0x00\n        /* \"#utility.yul\":400:405   */\n      dup2\n        /* \"#utility.yul\":389:405   */\n      swap1\n      pop\n        /* \"#utility.yul\":334:411   */\n      swap2\n      swap1\n      pop\n      jump\t// out\n        /* \"#utility.yul\":417:539   */\n    tag_101:\n        /* \"#utility.yul\":490:514   */\n      tag_143\n        /* \"#utility.yul\":508:513   */\n      dup2\n        /* \"#utility.yul\":490:514   */\n      tag_100\n      jump\t// in\n    tag_143:\n        /* \"#utility.yul\":483:488   */\n      dup2\n        /* \"#utility.yul\":480:515   */\n      eq\n        /* \"#utility.yul\":470:533   */\n      tag_144\n      jumpi\n        /* \"#utility.yul\":529:530   */\n      0x00\n        /* \"#utility.yul\":526:527   */\n      dup1\n        /* \"#utility.yul\":519:531   */\n      revert\n        /* \"#utility.yul\":470:533   */\n    tag_144:\n        /* \"#utility.yul\":417:539   */\n      pop\n      jump\t// out\n        /* \"#utility.yul\":545:684   */\n    tag_102:\n        /* \"#utility.yul\":591:596   */\n      0x00\n        /* \"#utility.yul\":629:635   */\n      dup2\n        /* \"#utility.yul\":616:636   */\n      calldataload\n        /* \"#utility.yul\":607:636   */\n      swap1\n      pop\n        /* \"#utility.yul\":645:678   */\n      tag_146\n        /* \"#utility.yul\":672:677   */\n      dup2\n        /* \"#utility.yul\":645:678   */\n      tag_101\n      jump\t// in\n    tag_146:\n        /* \"#utility.yul\":545:684   */\n      swap3\n      swap2\n      pop\n      pop\n      jump\t// out\n        /* \"#utility.yul\":690:1019   */\n    tag_10:\n        /* \"#utility.yul\":749:755   */\n      0x00\n        /* \"#utility.yul\":798:800   */\n      0x20\n        /* \"#utility.yul\":786:795   */\n      dup3\n        /* \"#utility.yul\":777:784   */\n      dup5\n        /* \"#utility.yul\":773:796   */\n      sub\n        /* \"#utility.yul\":769:801   */\n      slt\n        /* \"#utility.yul\":766:885   */\n      iszero\n      tag_148\n      jumpi\n        /* \"#utility.yul\":804:883   */\n      tag_149\n      tag_98\n      jump\t// in\n    tag_149:\n        /* \"#utility.yul\":766:885   */\n    tag_148:\n        /* \"#utility.yul\":924:925   */\n      0x00\n        /* \"#utility.yul\":949:1002   */\n      tag_150\n        /* \"#utility.yul\":994:1001   */\n      dup5\n        /* \"#utility.yul\":985:991   */\n      dup3\n        /* \"#utility.yul\":974:983   */\n      dup6\n        /* \"#utility.yul\":970:992   */\n      add\n        /* \"#utility.yul\":949:1002   */\n      tag_102\n      jump\t// in\n    tag_150:\n        /* \"#utility.yul\":939:1002   */\n      swap2\n      pop\n        /* \"#utility.yul\":895:1012   */\n      pop\n        /* \"#utility.yul\":690:1019   */\n      swap3\n      swap2\n      pop\n      pop\n      jump\t// out\n        /* \"#utility.yul\":1025:1143   */\n    tag_103:\n        /* \"#utility.yul\":1112:1136   */\n      tag_152\n        /* \"#utility.yul\":1130:1135   */\n      dup2\n        /* \"#utility.yul\":1112:1136   */\n      tag_100\n      jump\t// in\n    tag_152:\n        /* \"#utility.yul\":1107:1110   */\n      dup3\n        /* \"#utility.yul\":1100:1137   */\n      mstore\n        /* \"#utility.yul\":1025:1143   */\n      pop\n      pop\n      jump\t// out\n        /* \"#utility.yul\":1149:1371   */\n    tag_13:\n        /* \"#utility.yul\":1242:1246   */\n      0x00\n        /* \"#utility.yul\":1280:1282   */\n      0x20\n        /* \"#utility.yul\":1269:1278   */\n      dup3\n        /* \"#utility.yul\":1265:1283   */\n      add\n        /* \"#utility.yul\":1257:1283   */\n      swap1\n      pop\n        /* \"#utility.yul\":1293:1364   */\n      tag_154\n        /* \"#utility.yul\":1361:1362   */\n      0x00\n        /* \"#utility.yul\":1350:1359   */\n      dup4\n        /* \"#utility.yul\":1346:1363   */\n      add\n        /* \"#utility.yul\":1337:1343   */\n      dup5\n        /* \"#utility.yul\":1293:1364   */\n      tag_103\n      jump\t// in\n    tag_154:\n        /* \"#utility.yul\":1149:1371   */\n      swap3\n      swap2\n      pop\n      pop\n      jump\t// out\n        /* \"#utility.yul\":1377:1491   */\n    tag_104:\n        /* \"#utility.yul\":1444:1450   */\n      0x00\n        /* \"#utility.yul\":1478:1483   */\n      dup2\n        /* \"#utility.yul\":1472:1484   */\n      mload\n        /* \"#utility.yul\":1462:1484   */\n      swap1\n      pop\n        /* \"#utility.yul\":1377:1491   */\n      swap2\n      swap1\n      pop\n      jump\t// out\n        /* \"#utility.yul\":1497:1681   */\n    tag_105:\n        /* \"#utility.yul\":1596:1607   */\n      0x00\n        /* \"#utility.yul\":1630:1636   */\n      dup3\n        /* \"#utility.yul\":1625:1628   */\n      dup3\n        /* \"#utility.yul\":1618:1637   */\n      mstore\n        /* \"#utility.yul\":1670:1674   */\n      0x20\n        /* \"#utility.yul\":1665:1668   */\n      dup3\n        /* \"#utility.yul\":1661:1675   */\n      add\n        /* \"#utility.yul\":1646:1675   */\n      swap1\n      pop\n        /* \"#utility.yul\":1497:1681   */\n      swap3\n      swap2\n      pop\n      pop\n      jump\t// out\n        /* \"#utility.yul\":1687:1819   */\n    tag_106:\n        /* \"#utility.yul\":1754:1758   */\n      0x00\n        /* \"#utility.yul\":1777:1780   */\n      dup2\n        /* \"#utility.yul\":1769:1780   */\n      swap1\n      pop\n        /* \"#utility.yul\":1807:1811   */\n      0x20\n        /* \"#utility.yul\":1802:1805   */\n      dup3\n        /* \"#utility.yul\":1798:1812   */\n      add\n        /* \"#utility.yul\":1790:1812   */\n      swap1\n      pop\n        /* \"#utility.yul\":1687:1819   */\n      swap2\n      swap1\n      pop\n      jump\t// out\n        /* \"#utility.yul\":1825:1933   */\n    tag_107:\n        /* \"#utility.yul\":1902:1926   */\n      tag_159\n        /* \"#utility.yul\":1920:1925   */\n      dup2\n        /* \"#utility.yul\":1902:1926   */\n      tag_100\n      jump\t// in\n    tag_159:\n        /* \"#utility.yul\":1897:1900   */\n      dup3\n        /* \"#utility.yul\":1890:1927   */\n      mstore\n        /* \"#utility.yul\":1825:1933   */\n      pop\n      pop\n      jump\t// out\n        /* \"#utility.yul\":1939:2118   */\n    tag_108:\n        /* \"#utility.yul\":2008:2018   */\n      0x00\n        /* \"#utility.yul\":2029:2075   */\n      tag_161\n        /* \"#utility.yul\":2071:2074   */\n      dup4\n        /* \"#utility.yul\":2063:2069   */\n      dup4\n        /* \"#utility.yul\":2029:2075   */\n      tag_107\n      jump\t// in\n    tag_161:\n        /* \"#utility.yul\":2107:2111   */\n      0x20\n        /* \"#utility.yul\":2102:2105   */\n      dup4\n        /* \"#utility.yul\":2098:2112   */\n      add\n        /* \"#utility.yul\":2084:2112   */\n      swap1\n      pop\n        /* \"#utility.yul\":1939:2118   */\n      swap3\n      swap2\n      pop\n      pop\n      jump\t// out\n        /* \"#utility.yul\":2124:2237   */\n    tag_109:\n        /* \"#utility.yul\":2194:2198   */\n      0x00\n        /* \"#utility.yul\":2226:2230   */\n      0x20\n        /* \"#utility.yul\":2221:2224   */\n      dup3\n        /* \"#utility.yul\":2217:2231   */\n      add\n        /* \"#utility.yul\":2209:2231   */\n      swap1\n      pop\n        /* \"#utility.yul\":2124:2237   */\n      swap2\n      swap1\n      pop\n      jump\t// out\n        /* \"#utility.yul\":2273:3005   */\n    tag_110:\n        /* \"#utility.yul\":2392:2395   */\n      0x00\n        /* \"#utility.yul\":2421:2475   */\n      tag_164\n        /* \"#utility.yul\":2469:2474   */\n      dup3\n        /* \"#utility.yul\":2421:2475   */\n      tag_104\n      jump\t// in\n    tag_164:\n        /* \"#utility.yul\":2491:2577   */\n      tag_165\n        /* \"#utility.yul\":2570:2576   */\n      dup2\n        /* \"#utility.yul\":2565:2568   */\n      dup6\n        /* \"#utility.yul\":2491:2577   */\n      tag_105\n      jump\t// in\n    tag_165:\n        /* \"#utility.yul\":2484:2577   */\n      swap4\n      pop\n        /* \"#utility.yul\":2601:2657   */\n      tag_166\n        /* \"#utility.yul\":2651:2656   */\n      dup4\n        /* \"#utility.yul\":2601:2657   */\n      tag_106\n      jump\t// in\n    tag_166:\n        /* \"#utility.yul\":2680:2687   */\n      dup1\n        /* \"#utility.yul\":2711:2712   */\n      0x00\n        /* \"#utility.yul\":2696:2980   */\n    tag_167:\n        /* \"#utility.yul\":2721:2727   */\n      dup4\n        /* \"#utility.yul\":2718:2719   */\n      dup2\n        /* \"#utility.yul\":2715:2728   */\n      lt\n        /* \"#utility.yul\":2696:2980   */\n      iszero\n      tag_169\n      jumpi\n        /* \"#utility.yul\":2797:2803   */\n      dup2\n        /* \"#utility.yul\":2791:2804   */\n      mload\n        /* \"#utility.yul\":2824:2887   */\n      tag_170\n        /* \"#utility.yul\":2883:2886   */\n      dup9\n        /* \"#utility.yul\":2868:2881   */\n      dup3\n        /* \"#utility.yul\":2824:2887   */\n      tag_108\n      jump\t// in\n    tag_170:\n        /* \"#utility.yul\":2817:2887   */\n      swap8\n      pop\n        /* \"#utility.yul\":2910:2970   */\n      tag_171\n        /* \"#utility.yul\":2963:2969   */\n      dup4\n        /* \"#utility.yul\":2910:2970   */\n      tag_109\n      jump\t// in\n    tag_171:\n        /* \"#utility.yul\":2900:2970   */\n      swap3\n      pop\n        /* \"#utility.yul\":2756:2980   */\n      pop\n        /* \"#utility.yul\":2743:2744   */\n      0x01\n        /* \"#utility.yul\":2740:2741   */\n      dup2\n        /* \"#utility.yul\":2736:2745   */\n      add\n        /* \"#utility.yul\":2731:2745   */\n      swap1\n      pop\n        /* \"#utility.yul\":2696:2980   */\n      jump(tag_167)\n    tag_169:\n        /* \"#utility.yul\":2700:2714   */\n      pop\n        /* \"#utility.yul\":2996:2999   */\n      dup6\n        /* \"#utility.yul\":2989:2999   */\n      swap4\n      pop\n        /* \"#utility.yul\":2397:3005   */\n      pop\n      pop\n      pop\n        /* \"#utility.yul\":2273:3005   */\n      swap3\n      swap2\n      pop\n      pop\n      jump\t// out\n        /* \"#utility.yul\":3011:3384   */\n    tag_17:\n        /* \"#utility.yul\":3154:3158   */\n      0x00\n        /* \"#utility.yul\":3192:3194   */\n      0x20\n        /* \"#utility.yul\":3181:3190   */\n      dup3\n        /* \"#utility.yul\":3177:3195   */\n      add\n        /* \"#utility.yul\":3169:3195   */\n      swap1\n      pop\n        /* \"#utility.yul\":3241:3250   */\n      dup2\n        /* \"#utility.yul\":3235:3239   */\n      dup2\n        /* \"#utility.yul\":3231:3251   */\n      sub\n        /* \"#utility.yul\":3227:3228   */\n      0x00\n        /* \"#utility.yul\":3216:3225   */\n      dup4\n        /* \"#utility.yul\":3212:3229   */\n      add\n        /* \"#utility.yul\":3205:3252   */\n      mstore\n        /* \"#utility.yul\":3269:3377   */\n      tag_173\n        /* \"#utility.yul\":3372:3376   */\n      dup2\n        /* \"#utility.yul\":3363:3369   */\n      dup5\n        /* \"#utility.yul\":3269:3377   */\n      tag_110\n      jump\t// in\n    tag_173:\n        /* \"#utility.yul\":3261:3377   */\n      swap1\n      pop\n        /* \"#utility.yul\":3011:3384   */\n      swap3\n      swap2\n      pop\n      pop\n      jump\t// out\n        /* \"#utility.yul\":3390:3516   */\n    tag_111:\n        /* \"#utility.yul\":3427:3434   */\n      0x00\n        /* \"#utility.yul\":3467:3509   */\n      0xffffffffffffffffffffffffffffffffffffffff\n        /* \"#utility.yul\":3460:3465   */\n      dup3\n        /* \"#utility.yul\":3456:3510   */\n      and\n        /* \"#utility.yul\":3445:3510   */\n      swap1\n      pop\n        /* \"#utility.yul\":3390:3516   */\n      swap2\n      swap1\n      pop\n      jump\t// out\n        /* \"#utility.yul\":3522:3618   */\n    tag_112:\n        /* \"#utility.yul\":3559:3566   */\n      0x00\n        /* \"#utility.yul\":3588:3612   */\n      tag_176\n        /* \"#utility.yul\":3606:3611   */\n      dup3\n        /* \"#utility.yul\":3588:3612   */\n      tag_111\n      jump\t// in\n    tag_176:\n        /* \"#utility.yul\":3577:3612   */\n      swap1\n      pop\n        /* \"#utility.yul\":3522:3618   */\n      swap2\n      swap1\n      pop\n      jump\t// out\n        /* \"#utility.yul\":3624:3746   */\n    tag_113:\n        /* \"#utility.yul\":3697:3721   */\n      tag_178\n        /* \"#utility.yul\":3715:3720   */\n      dup2\n        /* \"#utility.yul\":3697:3721   */\n      tag_112\n      jump\t// in\n    tag_178:\n        /* \"#utility.yul\":3690:3695   */\n      dup2\n        /* \"#utility.yul\":3687:3722   */\n      eq\n        /* \"#utility.yul\":3677:3740   */\n      tag_179\n      jumpi\n        /* \"#utility.yul\":3736:3737   */\n      0x00\n        /* \"#utility.yul\":3733:3734   */\n      dup1\n        /* \"#utility.yul\":3726:3738   */\n      revert\n        /* \"#utility.yul\":3677:3740   */\n    tag_179:\n        /* \"#utility.yul\":3624:3746   */\n      pop\n      jump\t// out\n        /* \"#utility.yul\":3752:3891   */\n    tag_114:\n        /* \"#utility.yul\":3798:3803   */\n      0x00\n        /* \"#utility.yul\":3836:3842   */\n      dup2\n        /* \"#utility.yul\":3823:3843   */\n      calldataload\n        /* \"#utility.yul\":3814:3843   */\n      swap1\n      pop\n        /* \"#utility.yul\":3852:3885   */\n      tag_181\n        /* \"#utility.yul\":3879:3884   */\n      dup2\n        /* \"#utility.yul\":3852:3885   */\n      tag_113\n      jump\t// in\n    tag_181:\n        /* \"#utility.yul\":3752:3891   */\n      swap3\n      swap2\n      pop\n      pop\n      jump\t// out\n        /* \"#utility.yul\":3897:4516   */\n    tag_20:\n        /* \"#utility.yul\":3974:3980   */\n      0x00\n        /* \"#utility.yul\":3982:3988   */\n      dup1\n        /* \"#utility.yul\":3990:3996   */\n      0x00\n        /* \"#utility.yul\":4039:4041   */\n      0x60\n        /* \"#utility.yul\":4027:4036   */\n      dup5\n        /* \"#utility.yul\":4018:4025   */\n      dup7\n        /* \"#utility.yul\":4014:4037   */\n      sub\n        /* \"#utility.yul\":4010:4042   */\n      slt\n        /* \"#utility.yul\":4007:4126   */\n      iszero\n      tag_183\n      jumpi\n        /* \"#utility.yul\":4045:4124   */\n      tag_184\n      tag_98\n      jump\t// in\n    tag_184:\n        /* \"#utility.yul\":4007:4126   */\n    tag_183:\n        /* \"#utility.yul\":4165:4166   */\n      0x00\n        /* \"#utility.yul\":4190:4243   */\n      tag_185\n        /* \"#utility.yul\":4235:4242   */\n      dup7\n        /* \"#utility.yul\":4226:4232   */\n      dup3\n        /* \"#utility.yul\":4215:4224   */\n      dup8\n        /* \"#utility.yul\":4211:4233   */\n      add\n        /* \"#utility.yul\":4190:4243   */\n      tag_102\n      jump\t// in\n    tag_185:\n        /* \"#utility.yul\":4180:4243   */\n      swap4\n      pop\n        /* \"#utility.yul\":4136:4253   */\n      pop\n        /* \"#utility.yul\":4292:4294   */\n      0x20\n        /* \"#utility.yul\":4318:4371   */\n      tag_186\n        /* \"#utility.yul\":4363:4370   */\n      dup7\n        /* \"#utility.yul\":4354:4360   */\n      dup3\n        /* \"#utility.yul\":4343:4352   */\n      dup8\n        /* \"#utility.yul\":4339:4361   */\n      add\n        /* \"#utility.yul\":4318:4371   */\n      tag_114\n      jump\t// in\n    tag_186:\n        /* \"#utility.yul\":4308:4371   */\n      swap3\n      pop\n        /* \"#utility.yul\":4263:4381   */\n      pop\n        /* \"#utility.yul\":4420:4422   */\n      0x40\n        /* \"#utility.yul\":4446:4499   */\n      tag_187\n        /* \"#utility.yul\":4491:4498   */\n      dup7\n        /* \"#utility.yul\":4482:4488   */\n      dup3\n        /* \"#utility.yul\":4471:4480   */\n      dup8\n        /* \"#utility.yul\":4467:4489   */\n      add\n        /* \"#utility.yul\":4446:4499   */\n      tag_102\n      jump\t// in\n    tag_187:\n        /* \"#utility.yul\":4436:4499   */\n      swap2\n      pop\n        /* \"#utility.yul\":4391:4509   */\n      pop\n        /* \"#utility.yul\":3897:4516   */\n      swap3\n      pop\n      swap3\n      pop\n      swap3\n      jump\t// out\n        /* \"#utility.yul\":4522:4636   */\n    tag_115:\n        /* \"#utility.yul\":4589:4595   */\n      0x00\n        /* \"#utility.yul\":4623:4628   */\n      dup2\n        /* \"#utility.yul\":4617:4629   */\n      mload\n        /* \"#utility.yul\":4607:4629   */\n      swap1\n      pop\n        /* \"#utility.yul\":4522:4636   */\n      swap2\n      swap1\n      pop\n      jump\t// out\n        /* \"#utility.yul\":4642:4826   */\n    tag_116:\n        /* \"#utility.yul\":4741:4752   */\n      0x00\n        /* \"#utility.yul\":4775:4781   */\n      dup3\n        /* \"#utility.yul\":4770:4773   */\n      dup3\n        /* \"#utility.yul\":4763:4782   */\n      mstore\n        /* \"#utility.yul\":4815:4819   */\n      0x20\n        /* \"#utility.yul\":4810:4813   */\n      dup3\n        /* \"#utility.yul\":4806:4820   */\n      add\n        /* \"#utility.yul\":4791:4820   */\n      swap1\n      pop\n        /* \"#utility.yul\":4642:4826   */\n      swap3\n      swap2\n      pop\n      pop\n      jump\t// out\n        /* \"#utility.yul\":4832:4964   */\n    tag_117:\n        /* \"#utility.yul\":4899:4903   */\n      0x00\n        /* \"#utility.yul\":4922:4925   */\n      dup2\n        /* \"#utility.yul\":4914:4925   */\n      swap1\n      pop\n        /* \"#utility.yul\":4952:4956   */\n      0x20\n        /* \"#utility.yul\":4947:4950   */\n      dup3\n        /* \"#utility.yul\":4943:4957   */\n      add\n        /* \"#utility.yul\":4935:4957   */\n      swap1\n      pop\n        /* \"#utility.yul\":4832:4964   */\n      swap2\n      swap1\n      pop\n      jump\t// out\n        /* \"#utility.yul\":4970:5078   */\n    tag_118:\n        /* \"#utility.yul\":5047:5071   */\n      tag_192\n        /* \"#utility.yul\":5065:5070   */\n      dup2\n        /* \"#utility.yul\":5047:5071   */\n      tag_112\n      jump\t// in\n    tag_192:\n        /* \"#utility.yul\":5042:5045   */\n      dup3\n        /* \"#utility.yul\":5035:5072   */\n      mstore\n        /* \"#utility.yul\":4970:5078   */\n      pop\n      pop\n      jump\t// out\n        /* \"#utility.yul\":5084:5263   */\n    tag_119:\n        /* \"#utility.yul\":5153:5163   */\n      0x00\n        /* \"#utility.yul\":5174:5220   */\n      tag_194\n        /* \"#utility.yul\":5216:5219   */\n      dup4\n        /* \"#utility.yul\":5208:5214   */\n      dup4\n        /* \"#utility.yul\":5174:5220   */\n      tag_118\n      jump\t// in\n    tag_194:\n        /* \"#utility.yul\":5252:5256   */\n      0x20\n        /* \"#utility.yul\":5247:5250   */\n      dup4\n        /* \"#utility.yul\":5243:5257   */\n      add\n        /* \"#utility.yul\":5229:5257   */\n      swap1\n      pop\n        /* \"#utility.yul\":5084:5263   */\n      swap3\n      swap2\n      pop\n      pop\n      jump\t// out\n        /* \"#utility.yul\":5269:5382   */\n    tag_120:\n        /* \"#utility.yul\":5339:5343   */\n      0x00\n        /* \"#utility.yul\":5371:5375   */\n      0x20\n        /* \"#utility.yul\":5366:5369   */\n      dup3\n        /* \"#utility.yul\":5362:5376   */\n      add\n        /* \"#utility.yul\":5354:5376   */\n      swap1\n      pop\n        /* \"#utility.yul\":5269:5382   */\n      swap2\n      swap1\n      pop\n      jump\t// out\n        /* \"#utility.yul\":5418:6150   */\n    tag_121:\n        /* \"#utility.yul\":5537:5540   */\n      0x00\n        /* \"#utility.yul\":5566:5620   */\n      tag_197\n        /* \"#utility.yul\":5614:5619   */\n      dup3\n        /* \"#utility.yul\":5566:5620   */\n      tag_115\n      jump\t// in\n    tag_197:\n        /* \"#utility.yul\":5636:5722   */\n      tag_198\n        /* \"#utility.yul\":5715:5721   */\n      dup2\n        /* \"#utility.yul\":5710:5713   */\n      dup6\n        /* \"#utility.yul\":5636:5722   */\n      tag_116\n      jump\t// in\n    tag_198:\n        /* \"#utility.yul\":5629:5722   */\n      swap4\n      pop\n        /* \"#utility.yul\":5746:5802   */\n      tag_199\n        /* \"#utility.yul\":5796:5801   */\n      dup4\n        /* \"#utility.yul\":5746:5802   */\n      tag_117\n      jump\t// in\n    tag_199:\n        /* \"#utility.yul\":5825:5832   */\n      dup1\n        /* \"#utility.yul\":5856:5857   */\n      0x00\n        /* \"#utility.yul\":5841:6125   */\n    tag_200:\n        /* \"#utility.yul\":5866:5872   */\n      dup4\n        /* \"#utility.yul\":5863:5864   */\n      dup2\n        /* \"#utility.yul\":5860:5873   */\n      lt\n        /* \"#utility.yul\":5841:6125   */\n      iszero\n      tag_202\n      jumpi\n        /* \"#utility.yul\":5942:5948   */\n      dup2\n        /* \"#utility.yul\":5936:5949   */\n      mload\n        /* \"#utility.yul\":5969:6032   */\n      tag_203\n        /* \"#utility.yul\":6028:6031   */\n      dup9\n        /* \"#utility.yul\":6013:6026   */\n      dup3\n        /* \"#utility.yul\":5969:6032   */\n      tag_119\n      jump\t// in\n    tag_203:\n        /* \"#utility.yul\":5962:6032   */\n      swap8\n      pop\n        /* \"#utility.yul\":6055:6115   */\n      tag_204\n        /* \"#utility.yul\":6108:6114   */\n      dup4\n        /* \"#utility.yul\":6055:6115   */\n      tag_120\n      jump\t// in\n    tag_204:\n        /* \"#utility.yul\":6045:6115   */\n      swap3\n      pop\n        /* \"#utility.yul\":5901:6125   */\n      pop\n        /* \"#utility.yul\":5888:5889   */\n      0x01\n        /* \"#utility.yul\":5885:5886   */\n      dup2\n        /* \"#utility.yul\":5881:5890   */\n      add\n        /* \"#utility.yul\":5876:5890   */\n      swap1\n      pop\n        /* \"#utility.yul\":5841:6125   */\n      jump(tag_200)\n    tag_202:\n        /* \"#utility.yul\":5845:5859   */\n      pop\n        /* \"#utility.yul\":6141:6144   */\n      dup6\n        /* \"#utility.yul\":6134:6144   */\n      swap4\n      pop\n        /* \"#utility.yul\":5542:6150   */\n      pop\n      pop\n      pop\n        /* \"#utility.yul\":5418:6150   */\n      swap3\n      swap2\n      pop\n      pop\n      jump\t// out\n        /* \"#utility.yul\":6156:6790   */\n    tag_26:\n        /* \"#utility.yul\":6377:6381   */\n      0x00\n        /* \"#utility.yul\":6415:6417   */\n      0x40\n        /* \"#utility.yul\":6404:6413   */\n      dup3\n        /* \"#utility.yul\":6400:6418   */\n      add\n        /* \"#utility.yul\":6392:6418   */\n      swap1\n      pop\n        /* \"#utility.yul\":6464:6473   */\n      dup2\n        /* \"#utility.yul\":6458:6462   */\n      dup2\n        /* \"#utility.yul\":6454:6474   */\n      sub\n        /* \"#utility.yul\":6450:6451   */\n      0x00\n        /* \"#utility.yul\":6439:6448   */\n      dup4\n        /* \"#utility.yul\":6435:6452   */\n      add\n        /* \"#utility.yul\":6428:6475   */\n      mstore\n        /* \"#utility.yul\":6492:6600   */\n      tag_206\n        /* \"#utility.yul\":6595:6599   */\n      dup2\n        /* \"#utility.yul\":6586:6592   */\n      dup6\n        /* \"#utility.yul\":6492:6600   */\n      tag_121\n      jump\t// in\n    tag_206:\n        /* \"#utility.yul\":6484:6600   */\n      swap1\n      pop\n        /* \"#utility.yul\":6647:6656   */\n      dup2\n        /* \"#utility.yul\":6641:6645   */\n      dup2\n        /* \"#utility.yul\":6637:6657   */\n      sub\n        /* \"#utility.yul\":6632:6634   */\n      0x20\n        /* \"#utility.yul\":6621:6630   */\n      dup4\n        /* \"#utility.yul\":6617:6635   */\n      add\n        /* \"#utility.yul\":6610:6658   */\n      mstore\n        /* \"#utility.yul\":6675:6783   */\n      tag_207\n        /* \"#utility.yul\":6778:6782   */\n      dup2\n        /* \"#utility.yul\":6769:6775   */\n      dup5\n        /* \"#utility.yul\":6675:6783   */\n      tag_110\n      jump\t// in\n    tag_207:\n        /* \"#utility.yul\":6667:6783   */\n      swap1\n      pop\n        /* \"#utility.yul\":6156:6790   */\n      swap4\n      swap3\n      pop\n      pop\n      pop\n      jump\t// out\n        /* \"#utility.yul\":6796:6914   */\n    tag_122:\n        /* \"#utility.yul\":6883:6907   */\n      tag_209\n        /* \"#utility.yul\":6901:6906   */\n      dup2\n        /* \"#utility.yul\":6883:6907   */\n      tag_112\n      jump\t// in\n    tag_209:\n        /* \"#utility.yul\":6878:6881   */\n      dup3\n        /* \"#utility.yul\":6871:6908   */\n      mstore\n        /* \"#utility.yul\":6796:6914   */\n      pop\n      pop\n      jump\t// out\n        /* \"#utility.yul\":6920:7142   */\n    tag_31:\n        /* \"#utility.yul\":7013:7017   */\n      0x00\n        /* \"#utility.yul\":7051:7053   */\n      0x20\n        /* \"#utility.yul\":7040:7049   */\n      dup3\n        /* \"#utility.yul\":7036:7054   */\n      add\n        /* \"#utility.yul\":7028:7054   */\n      swap1\n      pop\n        /* \"#utility.yul\":7064:7135   */\n      tag_211\n        /* \"#utility.yul\":7132:7133   */\n      0x00\n        /* \"#utility.yul\":7121:7130   */\n      dup4\n        /* \"#utility.yul\":7117:7134   */\n      add\n        /* \"#utility.yul\":7108:7114   */\n      dup5\n        /* \"#utility.yul\":7064:7135   */\n      tag_122\n      jump\t// in\n    tag_211:\n        /* \"#utility.yul\":6920:7142   */\n      swap3\n      swap2\n      pop\n      pop\n      jump\t// out\n        /* \"#utility.yul\":7148:7317   */\n    tag_123:\n        /* \"#utility.yul\":7232:7243   */\n      0x00\n        /* \"#utility.yul\":7266:7272   */\n      dup3\n        /* \"#utility.yul\":7261:7264   */\n      dup3\n        /* \"#utility.yul\":7254:7273   */\n      mstore\n        /* \"#utility.yul\":7306:7310   */\n      0x20\n        /* \"#utility.yul\":7301:7304   */\n      dup3\n        /* \"#utility.yul\":7297:7311   */\n      add\n        /* \"#utility.yul\":7282:7311   */\n      swap1\n      pop\n        /* \"#utility.yul\":7148:7317   */\n      swap3\n      swap2\n      pop\n      pop\n      jump\t// out\n        /* \"#utility.yul\":7323:7546   */\n    tag_124:\n        /* \"#utility.yul\":7463:7497   */\n      0x4f6e6c7920636f6e7472616374206f776e65722063616e20636f6e6669726d20\n        /* \"#utility.yul\":7459:7460   */\n      0x00\n        /* \"#utility.yul\":7451:7457   */\n      dup3\n        /* \"#utility.yul\":7447:7461   */\n      add\n        /* \"#utility.yul\":7440:7498   */\n      mstore\n        /* \"#utility.yul\":7532:7538   */\n      0x766f746500000000000000000000000000000000000000000000000000000000\n        /* \"#utility.yul\":7527:7529   */\n      0x20\n        /* \"#utility.yul\":7519:7525   */\n      dup3\n        /* \"#utility.yul\":7515:7530   */\n      add\n        /* \"#utility.yul\":7508:7539   */\n      mstore\n        /* \"#utility.yul\":7323:7546   */\n      pop\n      jump\t// out\n        /* \"#utility.yul\":7552:7918   */\n    tag_125:\n        /* \"#utility.yul\":7694:7697   */\n      0x00\n        /* \"#utility.yul\":7715:7782   */\n      tag_215\n        /* \"#utility.yul\":7779:7781   */\n      0x24\n        /* \"#utility.yul\":7774:7777   */\n      dup4\n        /* \"#utility.yul\":7715:7782   */\n      tag_123\n      jump\t// in\n    tag_215:\n        /* \"#utility.yul\":7708:7782   */\n      swap2\n      pop\n        /* \"#utility.yul\":7791:7884   */\n      tag_216\n        /* \"#utility.yul\":7880:7883   */\n      dup3\n        /* \"#utility.yul\":7791:7884   */\n      tag_124\n      jump\t// in\n    tag_216:\n        /* \"#utility.yul\":7909:7911   */\n      0x40\n        /* \"#utility.yul\":7904:7907   */\n      dup3\n        /* \"#utility.yul\":7900:7912   */\n      add\n        /* \"#utility.yul\":7893:7912   */\n      swap1\n      pop\n        /* \"#utility.yul\":7552:7918   */\n      swap2\n      swap1\n      pop\n      jump\t// out\n        /* \"#utility.yul\":7924:8343   */\n    tag_39:\n        /* \"#utility.yul\":8090:8094   */\n      0x00\n        /* \"#utility.yul\":8128:8130   */\n      0x20\n        /* \"#utility.yul\":8117:8126   */\n      dup3\n        /* \"#utility.yul\":8113:8131   */\n      add\n        /* \"#utility.yul\":8105:8131   */\n      swap1\n      pop\n        /* \"#utility.yul\":8177:8186   */\n      dup2\n        /* \"#utility.yul\":8171:8175   */\n      dup2\n        /* \"#utility.yul\":8167:8187   */\n      sub\n        /* \"#utility.yul\":8163:8164   */\n      0x00\n        /* \"#utility.yul\":8152:8161   */\n      dup4\n        /* \"#utility.yul\":8148:8165   */\n      add\n        /* \"#utility.yul\":8141:8188   */\n      mstore\n        /* \"#utility.yul\":8205:8336   */\n      tag_218\n        /* \"#utility.yul\":8331:8335   */\n      dup2\n        /* \"#utility.yul\":8205:8336   */\n      tag_125\n      jump\t// in\n    tag_218:\n        /* \"#utility.yul\":8197:8336   */\n      swap1\n      pop\n        /* \"#utility.yul\":7924:8343   */\n      swap2\n      swap1\n      pop\n      jump\t// out\n        /* \"#utility.yul\":8349:8520   */\n    tag_126:\n        /* \"#utility.yul\":8489:8512   */\n      0x4e6f206578697374696e67206167656e64612069640000000000000000000000\n        /* \"#utility.yul\":8485:8486   */\n      0x00\n        /* \"#utility.yul\":8477:8483   */\n      dup3\n        /* \"#utility.yul\":8473:8487   */\n      add\n        /* \"#utility.yul\":8466:8513   */\n      mstore\n        /* \"#utility.yul\":8349:8520   */\n      pop\n      jump\t// out\n        /* \"#utility.yul\":8526:8892   */\n    tag_127:\n        /* \"#utility.yul\":8668:8671   */\n      0x00\n        /* \"#utility.yul\":8689:8756   */\n      tag_221\n        /* \"#utility.yul\":8753:8755   */\n      0x15\n        /* \"#utility.yul\":8748:8751   */\n      dup4\n        /* \"#utility.yul\":8689:8756   */\n      tag_123\n      jump\t// in\n    tag_221:\n        /* \"#utility.yul\":8682:8756   */\n      swap2\n      pop\n        /* \"#utility.yul\":8765:8858   */\n      tag_222\n        /* \"#utility.yul\":8854:8857   */\n      dup3\n        /* \"#utility.yul\":8765:8858   */\n      tag_126\n      jump\t// in\n    tag_222:\n        /* \"#utility.yul\":8883:8885   */\n      0x20\n        /* \"#utility.yul\":8878:8881   */\n      dup3\n        /* \"#utility.yul\":8874:8886   */\n      add\n        /* \"#utility.yul\":8867:8886   */\n      swap1\n      pop\n        /* \"#utility.yul\":8526:8892   */\n      swap2\n      swap1\n      pop\n      jump\t// out\n        /* \"#utility.yul\":8898:9317   */\n    tag_42:\n        /* \"#utility.yul\":9064:9068   */\n      0x00\n        /* \"#utility.yul\":9102:9104   */\n      0x20\n        /* \"#utility.yul\":9091:9100   */\n      dup3\n        /* \"#utility.yul\":9087:9105   */\n      add\n        /* \"#utility.yul\":9079:9105   */\n      swap1\n      pop\n        /* \"#utility.yul\":9151:9160   */\n      dup2\n        /* \"#utility.yul\":9145:9149   */\n      dup2\n        /* \"#utility.yul\":9141:9161   */\n      sub\n        /* \"#utility.yul\":9137:9138   */\n      0x00\n        /* \"#utility.yul\":9126:9135   */\n      dup4\n        /* \"#utility.yul\":9122:9139   */\n      add\n        /* \"#utility.yul\":9115:9162   */\n      mstore\n        /* \"#utility.yul\":9179:9310   */\n      tag_224\n        /* \"#utility.yul\":9305:9309   */\n      dup2\n        /* \"#utility.yul\":9179:9310   */\n      tag_127\n      jump\t// in\n    tag_224:\n        /* \"#utility.yul\":9171:9310   */\n      swap1\n      pop\n        /* \"#utility.yul\":8898:9317   */\n      swap2\n      swap1\n      pop\n      jump\t// out\n        /* \"#utility.yul\":9323:9492   */\n    tag_128:\n        /* \"#utility.yul\":9463:9484   */\n      0x3020746f6b656e207472616e7366657272656400000000000000000000000000\n        /* \"#utility.yul\":9459:9460   */\n      0x00\n        /* \"#utility.yul\":9451:9457   */\n      dup3\n        /* \"#utility.yul\":9447:9461   */\n      add\n        /* \"#utility.yul\":9440:9485   */\n      mstore\n        /* \"#utility.yul\":9323:9492   */\n      pop\n      jump\t// out\n        /* \"#utility.yul\":9498:9864   */\n    tag_129:\n        /* \"#utility.yul\":9640:9643   */\n      0x00\n        /* \"#utility.yul\":9661:9728   */\n      tag_227\n        /* \"#utility.yul\":9725:9727   */\n      0x13\n        /* \"#utility.yul\":9720:9723   */\n      dup4\n        /* \"#utility.yul\":9661:9728   */\n      tag_123\n      jump\t// in\n    tag_227:\n        /* \"#utility.yul\":9654:9728   */\n      swap2\n      pop\n        /* \"#utility.yul\":9737:9830   */\n      tag_228\n        /* \"#utility.yul\":9826:9829   */\n      dup3\n        /* \"#utility.yul\":9737:9830   */\n      tag_128\n      jump\t// in\n    tag_228:\n        /* \"#utility.yul\":9855:9857   */\n      0x20\n        /* \"#utility.yul\":9850:9853   */\n      dup3\n        /* \"#utility.yul\":9846:9858   */\n      add\n        /* \"#utility.yul\":9839:9858   */\n      swap1\n      pop\n        /* \"#utility.yul\":9498:9864   */\n      swap2\n      swap1\n      pop\n      jump\t// out\n        /* \"#utility.yul\":9870:10289   */\n    tag_45:\n        /* \"#utility.yul\":10036:10040   */\n      0x00\n        /* \"#utility.yul\":10074:10076   */\n      0x20\n        /* \"#utility.yul\":10063:10072   */\n      dup3\n        /* \"#utility.yul\":10059:10077   */\n      add\n        /* \"#utility.yul\":10051:10077   */\n      swap1\n      pop\n        /* \"#utility.yul\":10123:10132   */\n      dup2\n        /* \"#utility.yul\":10117:10121   */\n      dup2\n        /* \"#utility.yul\":10113:10133   */\n      sub\n        /* \"#utility.yul\":10109:10110   */\n      0x00\n        /* \"#utility.yul\":10098:10107   */\n      dup4\n        /* \"#utility.yul\":10094:10111   */\n      add\n        /* \"#utility.yul\":10087:10134   */\n      mstore\n        /* \"#utility.yul\":10151:10282   */\n      tag_230\n        /* \"#utility.yul\":10277:10281   */\n      dup2\n        /* \"#utility.yul\":10151:10282   */\n      tag_129\n      jump\t// in\n    tag_230:\n        /* \"#utility.yul\":10143:10282   */\n      swap1\n      pop\n        /* \"#utility.yul\":9870:10289   */\n      swap2\n      swap1\n      pop\n      jump\t// out\n        /* \"#utility.yul\":10295:10475   */\n    tag_130:\n        /* \"#utility.yul\":10343:10420   */\n      0x4e487b7100000000000000000000000000000000000000000000000000000000\n        /* \"#utility.yul\":10340:10341   */\n      0x00\n        /* \"#utility.yul\":10333:10421   */\n      mstore\n        /* \"#utility.yul\":10440:10444   */\n      0x11\n        /* \"#utility.yul\":10437:10438   */\n      0x04\n        /* \"#utility.yul\":10430:10445   */\n      mstore\n        /* \"#utility.yul\":10464:10468   */\n      0x24\n        /* \"#utility.yul\":10461:10462   */\n      0x00\n        /* \"#utility.yul\":10454:10469   */\n      revert\n        /* \"#utility.yul\":10481:10672   */\n    tag_47:\n        /* \"#utility.yul\":10521:10524   */\n      0x00\n        /* \"#utility.yul\":10540:10560   */\n      tag_233\n        /* \"#utility.yul\":10558:10559   */\n      dup3\n        /* \"#utility.yul\":10540:10560   */\n      tag_100\n      jump\t// in\n    tag_233:\n        /* \"#utility.yul\":10535:10560   */\n      swap2\n      pop\n        /* \"#utility.yul\":10574:10594   */\n      tag_234\n        /* \"#utility.yul\":10592:10593   */\n      dup4\n        /* \"#utility.yul\":10574:10594   */\n      tag_100\n      jump\t// in\n    tag_234:\n        /* \"#utility.yul\":10569:10594   */\n      swap3\n      pop\n        /* \"#utility.yul\":10617:10618   */\n      dup3\n        /* \"#utility.yul\":10614:10615   */\n      dup3\n        /* \"#utility.yul\":10610:10619   */\n      add\n        /* \"#utility.yul\":10603:10619   */\n      swap1\n      pop\n        /* \"#utility.yul\":10638:10641   */\n      dup1\n        /* \"#utility.yul\":10635:10636   */\n      dup3\n        /* \"#utility.yul\":10632:10642   */\n      gt\n        /* \"#utility.yul\":10629:10665   */\n      iszero\n      tag_235\n      jumpi\n        /* \"#utility.yul\":10645:10663   */\n      tag_236\n      tag_130\n      jump\t// in\n    tag_236:\n        /* \"#utility.yul\":10629:10665   */\n    tag_235:\n        /* \"#utility.yul\":10481:10672   */\n      swap3\n      swap2\n      pop\n      pop\n      jump\t// out\n        /* \"#utility.yul\":10678:10903   */\n    tag_131:\n        /* \"#utility.yul\":10818:10852   */\n      0x4d6178696d756d20617661696c61626c6520746f6b656e20696e707574206578\n        /* \"#utility.yul\":10814:10815   */\n      0x00\n        /* \"#utility.yul\":10806:10812   */\n      dup3\n        /* \"#utility.yul\":10802:10816   */\n      add\n        /* \"#utility.yul\":10795:10853   */\n      mstore\n        /* \"#utility.yul\":10887:10895   */\n      0x6365656465640000000000000000000000000000000000000000000000000000\n        /* \"#utility.yul\":10882:10884   */\n      0x20\n        /* \"#utility.yul\":10874:10880   */\n      dup3\n        /* \"#utility.yul\":10870:10885   */\n      add\n        /* \"#utility.yul\":10863:10896   */\n      mstore\n        /* \"#utility.yul\":10678:10903   */\n      pop\n      jump\t// out\n        /* \"#utility.yul\":10909:11275   */\n    tag_132:\n        /* \"#utility.yul\":11051:11054   */\n      0x00\n        /* \"#utility.yul\":11072:11139   */\n      tag_239\n        /* \"#utility.yul\":11136:11138   */\n      0x26\n        /* \"#utility.yul\":11131:11134   */\n      dup4\n        /* \"#utility.yul\":11072:11139   */\n      tag_123\n      jump\t// in\n    tag_239:\n        /* \"#utility.yul\":11065:11139   */\n      swap2\n      pop\n        /* \"#utility.yul\":11148:11241   */\n      tag_240\n        /* \"#utility.yul\":11237:11240   */\n      dup3\n        /* \"#utility.yul\":11148:11241   */\n      tag_131\n      jump\t// in\n    tag_240:\n        /* \"#utility.yul\":11266:11268   */\n      0x40\n        /* \"#utility.yul\":11261:11264   */\n      dup3\n        /* \"#utility.yul\":11257:11269   */\n      add\n        /* \"#utility.yul\":11250:11269   */\n      swap1\n      pop\n        /* \"#utility.yul\":10909:11275   */\n      swap2\n      swap1\n      pop\n      jump\t// out\n        /* \"#utility.yul\":11281:11700   */\n    tag_50:\n        /* \"#utility.yul\":11447:11451   */\n      0x00\n        /* \"#utility.yul\":11485:11487   */\n      0x20\n        /* \"#utility.yul\":11474:11483   */\n      dup3\n        /* \"#utility.yul\":11470:11488   */\n      add\n        /* \"#utility.yul\":11462:11488   */\n      swap1\n      pop\n        /* \"#utility.yul\":11534:11543   */\n      dup2\n        /* \"#utility.yul\":11528:11532   */\n      dup2\n        /* \"#utility.yul\":11524:11544   */\n      sub\n        /* \"#utility.yul\":11520:11521   */\n      0x00\n        /* \"#utility.yul\":11509:11518   */\n      dup4\n        /* \"#utility.yul\":11505:11522   */\n      add\n        /* \"#utility.yul\":11498:11545   */\n      mstore\n        /* \"#utility.yul\":11562:11693   */\n      tag_242\n        /* \"#utility.yul\":11688:11692   */\n      dup2\n        /* \"#utility.yul\":11562:11693   */\n      tag_132\n      jump\t// in\n    tag_242:\n        /* \"#utility.yul\":11554:11693   */\n      swap1\n      pop\n        /* \"#utility.yul\":11281:11700   */\n      swap2\n      swap1\n      pop\n      jump\t// out\n        /* \"#utility.yul\":11706:12038   */\n    tag_52:\n        /* \"#utility.yul\":11827:11831   */\n      0x00\n        /* \"#utility.yul\":11865:11867   */\n      0x40\n        /* \"#utility.yul\":11854:11863   */\n      dup3\n        /* \"#utility.yul\":11850:11868   */\n      add\n        /* \"#utility.yul\":11842:11868   */\n      swap1\n      pop\n        /* \"#utility.yul\":11878:11949   */\n      tag_244\n        /* \"#utility.yul\":11946:11947   */\n      0x00\n        /* \"#utility.yul\":11935:11944   */\n      dup4\n        /* \"#utility.yul\":11931:11948   */\n      add\n        /* \"#utility.yul\":11922:11928   */\n      dup6\n        /* \"#utility.yul\":11878:11949   */\n      tag_122\n      jump\t// in\n    tag_244:\n        /* \"#utility.yul\":11959:12031   */\n      tag_245\n        /* \"#utility.yul\":12027:12029   */\n      0x20\n        /* \"#utility.yul\":12016:12025   */\n      dup4\n        /* \"#utility.yul\":12012:12030   */\n      add\n        /* \"#utility.yul\":12003:12009   */\n      dup5\n        /* \"#utility.yul\":11959:12031   */\n      tag_103\n      jump\t// in\n    tag_245:\n        /* \"#utility.yul\":11706:12038   */\n      swap4\n      swap3\n      pop\n      pop\n      pop\n      jump\t// out\n        /* \"#utility.yul\":12044:12134   */\n    tag_133:\n        /* \"#utility.yul\":12078:12085   */\n      0x00\n        /* \"#utility.yul\":12121:12126   */\n      dup2\n        /* \"#utility.yul\":12114:12127   */\n      iszero\n        /* \"#utility.yul\":12107:12128   */\n      iszero\n        /* \"#utility.yul\":12096:12128   */\n      swap1\n      pop\n        /* \"#utility.yul\":12044:12134   */\n      swap2\n      swap1\n      pop\n      jump\t// out\n        /* \"#utility.yul\":12140:12256   */\n    tag_134:\n        /* \"#utility.yul\":12210:12231   */\n      tag_248\n        /* \"#utility.yul\":12225:12230   */\n      dup2\n        /* \"#utility.yul\":12210:12231   */\n      tag_133\n      jump\t// in\n    tag_248:\n        /* \"#utility.yul\":12203:12208   */\n      dup2\n        /* \"#utility.yul\":12200:12232   */\n      eq\n        /* \"#utility.yul\":12190:12250   */\n      tag_249\n      jumpi\n        /* \"#utility.yul\":12246:12247   */\n      0x00\n        /* \"#utility.yul\":12243:12244   */\n      dup1\n        /* \"#utility.yul\":12236:12248   */\n      revert\n        /* \"#utility.yul\":12190:12250   */\n    tag_249:\n        /* \"#utility.yul\":12140:12256   */\n      pop\n      jump\t// out\n        /* \"#utility.yul\":12262:12399   */\n    tag_135:\n        /* \"#utility.yul\":12316:12321   */\n      0x00\n        /* \"#utility.yul\":12347:12353   */\n      dup2\n        /* \"#utility.yul\":12341:12354   */\n      mload\n        /* \"#utility.yul\":12332:12354   */\n      swap1\n      pop\n        /* \"#utility.yul\":12363:12393   */\n      tag_251\n        /* \"#utility.yul\":12387:12392   */\n      dup2\n        /* \"#utility.yul\":12363:12393   */\n      tag_134\n      jump\t// in\n    tag_251:\n        /* \"#utility.yul\":12262:12399   */\n      swap3\n      swap2\n      pop\n      pop\n      jump\t// out\n        /* \"#utility.yul\":12405:12750   */\n    tag_56:\n        /* \"#utility.yul\":12472:12478   */\n      0x00\n        /* \"#utility.yul\":12521:12523   */\n      0x20\n        /* \"#utility.yul\":12509:12518   */\n      dup3\n        /* \"#utility.yul\":12500:12507   */\n      dup5\n        /* \"#utility.yul\":12496:12519   */\n      sub\n        /* \"#utility.yul\":12492:12524   */\n      slt\n        /* \"#utility.yul\":12489:12608   */\n      iszero\n      tag_253\n      jumpi\n        /* \"#utility.yul\":12527:12606   */\n      tag_254\n      tag_98\n      jump\t// in\n    tag_254:\n        /* \"#utility.yul\":12489:12608   */\n    tag_253:\n        /* \"#utility.yul\":12647:12648   */\n      0x00\n        /* \"#utility.yul\":12672:12733   */\n      tag_255\n        /* \"#utility.yul\":12725:12732   */\n      dup5\n        /* \"#utility.yul\":12716:12722   */\n      dup3\n        /* \"#utility.yul\":12705:12714   */\n      dup6\n        /* \"#utility.yul\":12701:12723   */\n      add\n        /* \"#utility.yul\":12672:12733   */\n      tag_135\n      jump\t// in\n    tag_255:\n        /* \"#utility.yul\":12662:12733   */\n      swap2\n      pop\n        /* \"#utility.yul\":12618:12743   */\n      pop\n        /* \"#utility.yul\":12405:12750   */\n      swap3\n      swap2\n      pop\n      pop\n      jump\t// out\n        /* \"#utility.yul\":12756:12936   */\n    tag_63:\n        /* \"#utility.yul\":12804:12881   */\n      0x4e487b7100000000000000000000000000000000000000000000000000000000\n        /* \"#utility.yul\":12801:12802   */\n      0x00\n        /* \"#utility.yul\":12794:12882   */\n      mstore\n        /* \"#utility.yul\":12901:12905   */\n      0x32\n        /* \"#utility.yul\":12898:12899   */\n      0x04\n        /* \"#utility.yul\":12891:12906   */\n      mstore\n        /* \"#utility.yul\":12925:12929   */\n      0x24\n        /* \"#utility.yul\":12922:12923   */\n      0x00\n        /* \"#utility.yul\":12915:12930   */\n      revert\n        /* \"#utility.yul\":12942:13085   */\n    tag_136:\n        /* \"#utility.yul\":12999:13004   */\n      0x00\n        /* \"#utility.yul\":13030:13036   */\n      dup2\n        /* \"#utility.yul\":13024:13037   */\n      mload\n        /* \"#utility.yul\":13015:13037   */\n      swap1\n      pop\n        /* \"#utility.yul\":13046:13079   */\n      tag_258\n        /* \"#utility.yul\":13073:13078   */\n      dup2\n        /* \"#utility.yul\":13046:13079   */\n      tag_113\n      jump\t// in\n    tag_258:\n        /* \"#utility.yul\":12942:13085   */\n      swap3\n      swap2\n      pop\n      pop\n      jump\t// out\n        /* \"#utility.yul\":13091:13442   */\n    tag_83:\n        /* \"#utility.yul\":13161:13167   */\n      0x00\n        /* \"#utility.yul\":13210:13212   */\n      0x20\n        /* \"#utility.yul\":13198:13207   */\n      dup3\n        /* \"#utility.yul\":13189:13196   */\n      dup5\n        /* \"#utility.yul\":13185:13208   */\n      sub\n        /* \"#utility.yul\":13181:13213   */\n      slt\n        /* \"#utility.yul\":13178:13297   */\n      iszero\n      tag_260\n      jumpi\n        /* \"#utility.yul\":13216:13295   */\n      tag_261\n      tag_98\n      jump\t// in\n    tag_261:\n        /* \"#utility.yul\":13178:13297   */\n    tag_260:\n        /* \"#utility.yul\":13336:13337   */\n      0x00\n        /* \"#utility.yul\":13361:13425   */\n      tag_262\n        /* \"#utility.yul\":13417:13424   */\n      dup5\n        /* \"#utility.yul\":13408:13414   */\n      dup3\n        /* \"#utility.yul\":13397:13406   */\n      dup6\n        /* \"#utility.yul\":13393:13415   */\n      add\n        /* \"#utility.yul\":13361:13425   */\n      tag_136\n      jump\t// in\n    tag_262:\n        /* \"#utility.yul\":13351:13425   */\n      swap2\n      pop\n        /* \"#utility.yul\":13307:13435   */\n      pop\n        /* \"#utility.yul\":13091:13442   */\n      swap3\n      swap2\n      pop\n      pop\n      jump\t// out\n        /* \"#utility.yul\":13448:13628   */\n    tag_87:\n        /* \"#utility.yul\":13496:13573   */\n      0x4e487b7100000000000000000000000000000000000000000000000000000000\n        /* \"#utility.yul\":13493:13494   */\n      0x00\n        /* \"#utility.yul\":13486:13574   */\n      mstore\n        /* \"#utility.yul\":13593:13597   */\n      0x41\n        /* \"#utility.yul\":13590:13591   */\n      0x04\n        /* \"#utility.yul\":13583:13598   */\n      mstore\n        /* \"#utility.yul\":13617:13621   */\n      0x24\n        /* \"#utility.yul\":13614:13615   */\n      0x00\n        /* \"#utility.yul\":13607:13622   */\n      revert\n\n    auxdata: 0xa264697066735822122001bcd49a02be4ffdf873fdbc160d09cde6ff4a792179e5c728f5cd34e72408b464736f6c63430008180033\n}\n",
				"bytecode": {
					"linkReferences": {},
					"object": "608060405273adb8d027111ae2cb88e3c00730af8eeecbc21ca85f806101000a81548173ffffffffffffffffffffffffffffffffffffffff021916908373ffffffffffffffffffffffffffffffffffffffff1602179055507320552e92665a832ca5c3ea22199f4b1e800652c460015f6101000a81548173ffffffffffffffffffffffffffffffffffffffff021916908373ffffffffffffffffffffffffffffffffffffffff1602179055505f8054906101000a900473ffffffffffffffffffffffffffffffffffffffff1660025f6101000a81548173ffffffffffffffffffffffffffffffffffffffff021916908373ffffffffffffffffffffffffffffffffffffffff16021790555060015f9054906101000a900473ffffffffffffffffffffffffffffffffffffffff1660035f6101000a81548173ffffffffffffffffffffffffffffffffffffffff021916908373ffffffffffffffffffffffffffffffffffffffff16021790555060025f9054906101000a900473ffffffffffffffffffffffffffffffffffffffff1673ffffffffffffffffffffffffffffffffffffffff16637e3cd5c46040518163ffffffff1660e01b8152600401602060405180830381865afa1580156101d5573d5f803e3d5ffd5b505050506040513d601f19601f820116820180604052508101906101f99190610289565b600555606460065534801561020c575f80fd5b503360045f6101000a81548173ffffffffffffffffffffffffffffffffffffffff021916908373ffffffffffffffffffffffffffffffffffffffff1602179055506102b4565b5f80fd5b5f819050919050565b61026881610256565b8114610272575f80fd5b50565b5f815190506102838161025f565b92915050565b5f6020828403121561029e5761029d610252565b5b5f6102ab84828501610275565b91505092915050565b610f34806102c15f395ff3fe608060405234801561000f575f80fd5b5060043610610054575f3560e01c80629b93691461005857806313d8ac9e146100885780634de8737c146100a65780638f633994146100c2578063c41a360a146100f3575b5f80fd5b610072600480360381019061006d919061089a565b610123565b60405161007f91906108d4565b60405180910390f35b610090610140565b60405161009d91906109a4565b60405180910390f35b6100c060048036038101906100bb9190610a1e565b610196565b005b6100dc60048036038101906100d7919061089a565b6105f5565b6040516100ea929190610b25565b60405180910390f35b61010d6004803603810190610108919061089a565b6106a7565b60405161011a9190610b69565b60405180910390f35b5f60085f8381526020019081526020015f20600101549050919050565b6060600780548060200260200160405190810160405280929190818152602001828054801561018c57602002820191905f5260205f20905b815481526020019060010190808311610178575b5050505050905090565b3373ffffffffffffffffffffffffffffffffffffffff1660045f9054906101000a900473ffffffffffffffffffffffffffffffffffffffff1673ffffffffffffffffffffffffffffffffffffffff1614610225576040517f08c379a000000000000000000000000000000000000000000000000000000000815260040161021c90610c02565b60405180910390fd5b60055483111561026a576040517f08c379a000000000000000000000000000000000000000000000000000000000815260040161026190610c6a565b60405180910390fd5b5f81116102ac576040517f08c379a00000000000000000000000000000000000000000000000000000000081526004016102a390610cd2565b60405180910390fd5b6006548160085f8681526020019081526020015f20600101546102cf9190610d1d565b1115610310576040517f08c379a000000000000000000000000000000000000000000000000000000000815260040161030790610dc0565b60405180910390fd5b60035f9054906101000a900473ffffffffffffffffffffffffffffffffffffffff1673ffffffffffffffffffffffffffffffffffffffff16639dc29fac83836040518363ffffffff1660e01b815260040161036c929190610dde565b6020604051808303815f875af1158015610388573d5f803e3d5ffd5b505050506040513d601f19601f820116820180604052508101906103ac9190610e3a565b505f60085f8581526020019081526020015f20905081816001015f8282546103d49190610d1d565b925050819055505f805b825f0180549050811015610471578473ffffffffffffffffffffffffffffffffffffffff16835f01828154811061041857610417610e65565b5b905f5260205f20015f9054906101000a900473ffffffffffffffffffffffffffffffffffffffff1673ffffffffffffffffffffffffffffffffffffffff16036104645760019150610471565b80806001019150506103de565b50806104d957815f0184908060018154018082558091505060019003905f5260205f20015f9091909190916101000a81548173ffffffffffffffffffffffffffffffffffffffff021916908373ffffffffffffffffffffffffffffffffffffffff1602179055505b82826002015f8673ffffffffffffffffffffffffffffffffffffffff1673ffffffffffffffffffffffffffffffffffffffff1681526020019081526020015f205f8282546105279190610d1d565b925050819055507ff668ead05c744b9178e571d2edb452e72baf6529c8d72160e64e59b50d865bd0848460405161055f929190610dde565b60405180910390a16006548260010154036105ee57600785908060018154018082558091505060019003905f5260205f20015f90919091909150556001826003015f6101000a81548160ff0219169083151502179055507ff3ecdc9ffda52c5ad69793c567cb456f83bba2d14f196542e0be80c919a8bda3856040516105e591906108d4565b60405180910390a15b5050505050565b6060805f60085f8581526020019081526020015f209050805f0161061882610748565b8180548060200260200160405190810160405280929190818152602001828054801561069657602002820191905f5260205f20905b815f9054906101000a900473ffffffffffffffffffffffffffffffffffffffff1673ffffffffffffffffffffffffffffffffffffffff168152602001906001019080831161064d575b505050505091509250925050915091565b5f60025f9054906101000a900473ffffffffffffffffffffffffffffffffffffffff1673ffffffffffffffffffffffffffffffffffffffff16637f1dd80b836040518263ffffffff1660e01b815260040161070291906108d4565b602060405180830381865afa15801561071d573d5f803e3d5ffd5b505050506040513d601f19601f820116820180604052508101906107419190610ea6565b9050919050565b60605f825f018054905067ffffffffffffffff81111561076b5761076a610ed1565b5b6040519080825280602002602001820160405280156107995781602001602082028036833780820191505090505b5090505f5b835f0180549050811015610859575f845f0182815481106107c2576107c1610e65565b5b905f5260205f20015f9054906101000a900473ffffffffffffffffffffffffffffffffffffffff169050846002015f8273ffffffffffffffffffffffffffffffffffffffff1673ffffffffffffffffffffffffffffffffffffffff1681526020019081526020015f205483838151811061083f5761083e610e65565b5b60200260200101818152505050808060010191505061079e565b5080915050919050565b5f80fd5b5f819050919050565b61087981610867565b8114610883575f80fd5b50565b5f8135905061089481610870565b92915050565b5f602082840312156108af576108ae610863565b5b5f6108bc84828501610886565b91505092915050565b6108ce81610867565b82525050565b5f6020820190506108e75f8301846108c5565b92915050565b5f81519050919050565b5f82825260208201905092915050565b5f819050602082019050919050565b61091f81610867565b82525050565b5f6109308383610916565b60208301905092915050565b5f602082019050919050565b5f610952826108ed565b61095c81856108f7565b935061096783610907565b805f5b8381101561099757815161097e8882610925565b97506109898361093c565b92505060018101905061096a565b5085935050505092915050565b5f6020820190508181035f8301526109bc8184610948565b905092915050565b5f73ffffffffffffffffffffffffffffffffffffffff82169050919050565b5f6109ed826109c4565b9050919050565b6109fd816109e3565b8114610a07575f80fd5b50565b5f81359050610a18816109f4565b92915050565b5f805f60608486031215610a3557610a34610863565b5b5f610a4286828701610886565b9350506020610a5386828701610a0a565b9250506040610a6486828701610886565b9150509250925092565b5f81519050919050565b5f82825260208201905092915050565b5f819050602082019050919050565b610aa0816109e3565b82525050565b5f610ab18383610a97565b60208301905092915050565b5f602082019050919050565b5f610ad382610a6e565b610add8185610a78565b9350610ae883610a88565b805f5b83811015610b18578151610aff8882610aa6565b9750610b0a83610abd565b925050600181019050610aeb565b5085935050505092915050565b5f6040820190508181035f830152610b3d8185610ac9565b90508181036020830152610b518184610948565b90509392505050565b610b63816109e3565b82525050565b5f602082019050610b7c5f830184610b5a565b92915050565b5f82825260208201905092915050565b7f4f6e6c7920636f6e7472616374206f776e65722063616e20636f6e6669726d205f8201527f766f746500000000000000000000000000000000000000000000000000000000602082015250565b5f610bec602483610b82565b9150610bf782610b92565b604082019050919050565b5f6020820190508181035f830152610c1981610be0565b9050919050565b7f4e6f206578697374696e67206167656e646120696400000000000000000000005f82015250565b5f610c54601583610b82565b9150610c5f82610c20565b602082019050919050565b5f6020820190508181035f830152610c8181610c48565b9050919050565b7f3020746f6b656e207472616e73666572726564000000000000000000000000005f82015250565b5f610cbc601383610b82565b9150610cc782610c88565b602082019050919050565b5f6020820190508181035f830152610ce981610cb0565b9050919050565b7f4e487b71000000000000000000000000000000000000000000000000000000005f52601160045260245ffd5b5f610d2782610867565b9150610d3283610867565b9250828201905080821115610d4a57610d49610cf0565b5b92915050565b7f4d6178696d756d20617661696c61626c6520746f6b656e20696e7075742065785f8201527f6365656465640000000000000000000000000000000000000000000000000000602082015250565b5f610daa602683610b82565b9150610db582610d50565b604082019050919050565b5f6020820190508181035f830152610dd781610d9e565b9050919050565b5f604082019050610df15f830185610b5a565b610dfe60208301846108c5565b9392505050565b5f8115159050919050565b610e1981610e05565b8114610e23575f80fd5b50565b5f81519050610e3481610e10565b92915050565b5f60208284031215610e4f57610e4e610863565b5b5f610e5c84828501610e26565b91505092915050565b7f4e487b71000000000000000000000000000000000000000000000000000000005f52603260045260245ffd5b5f81519050610ea0816109f4565b92915050565b5f60208284031215610ebb57610eba610863565b5b5f610ec884828501610e92565b91505092915050565b7f4e487b71000000000000000000000000000000000000000000000000000000005f52604160045260245ffdfea264697066735822122001bcd49a02be4ffdf873fdbc160d09cde6ff4a792179e5c728f5cd34e72408b464736f6c63430008180033",
					"opcodes": "PUSH1 0x80 PUSH1 0x40 MSTORE PUSH20 0xADB8D027111AE2CB88E3C00730AF8EEECBC21CA8 PUSH0 DUP1 PUSH2 0x100 EXP DUP2 SLOAD DUP2 PUSH20 0xFFFFFFFFFFFFFFFFFFFFFFFFFFFFFFFFFFFFFFFF MUL NOT AND SWAP1 DUP4 PUSH20 0xFFFFFFFFFFFFFFFFFFFFFFFFFFFFFFFFFFFFFFFF AND MUL OR SWAP1 SSTORE POP PUSH20 0x20552E92665A832CA5C3EA22199F4B1E800652C4 PUSH1 0x1 PUSH0 PUSH2 0x100 EXP DUP2 SLOAD DUP2 PUSH20 0xFFFFFFFFFFFFFFFFFFFFFFFFFFFFFFFFFFFFFFFF MUL NOT AND SWAP1 DUP4 PUSH20 0xFFFFFFFFFFFFFFFFFFFFFFFFFFFFFFFFFFFFFFFF AND MUL OR SWAP1 SSTORE POP PUSH0 DUP1 SLOAD SWAP1 PUSH2 0x100 EXP SWAP1 DIV PUSH20 0xFFFFFFFFFFFFFFFFFFFFFFFFFFFFFFFFFFFFFFFF AND PUSH1 0x2 PUSH0 PUSH2 0x100 EXP DUP2 SLOAD DUP2 PUSH20 0xFFFFFFFFFFFFFFFFFFFFFFFFFFFFFFFFFFFFFFFF MUL NOT AND SWAP1 DUP4 PUSH20 0xFFFFFFFFFFFFFFFFFFFFFFFFFFFFFFFFFFFFFFFF AND MUL OR SWAP1 SSTORE POP PUSH1 0x1 PUSH0 SWAP1 SLOAD SWAP1 PUSH2 0x100 EXP SWAP1 DIV PUSH20 0xFFFFFFFFFFFFFFFFFFFFFFFFFFFFFFFFFFFFFFFF AND PUSH1 0x3 PUSH0 PUSH2 0x100 EXP DUP2 SLOAD DUP2 PUSH20 0xFFFFFFFFFFFFFFFFFFFFFFFFFFFFFFFFFFFFFFFF MUL NOT AND SWAP1 DUP4 PUSH20 0xFFFFFFFFFFFFFFFFFFFFFFFFFFFFFFFFFFFFFFFF AND MUL OR SWAP1 SSTORE POP PUSH1 0x2 PUSH0 SWAP1 SLOAD SWAP1 PUSH2 0x100 EXP SWAP1 DIV PUSH20 0xFFFFFFFFFFFFFFFFFFFFFFFFFFFFFFFFFFFFFFFF AND PUSH20 0xFFFFFFFFFFFFFFFFFFFFFFFFFFFFFFFFFFFFFFFF AND PUSH4 0x7E3CD5C4 PUSH1 0x40 MLOAD DUP2 PUSH4 0xFFFFFFFF AND PUSH1 0xE0 SHL DUP2 MSTORE PUSH1 0x4 ADD PUSH1 0x20 PUSH1 0x40 MLOAD DUP1 DUP4 SUB DUP2 DUP7 GAS STATICCALL ISZERO DUP1 ISZERO PUSH2 0x1D5 JUMPI RETURNDATASIZE PUSH0 DUP1 RETURNDATACOPY RETURNDATASIZE PUSH0 REVERT JUMPDEST POP POP POP POP PUSH1 0x40 MLOAD RETURNDATASIZE PUSH1 0x1F NOT PUSH1 0x1F DUP3 ADD AND DUP3 ADD DUP1 PUSH1 0x40 MSTORE POP DUP2 ADD SWAP1 PUSH2 0x1F9 SWAP2 SWAP1 PUSH2 0x289 JUMP JUMPDEST PUSH1 0x5 SSTORE PUSH1 0x64 PUSH1 0x6 SSTORE CALLVALUE DUP1 ISZERO PUSH2 0x20C JUMPI PUSH0 DUP1 REVERT JUMPDEST POP CALLER PUSH1 0x4 PUSH0 PUSH2 0x100 EXP DUP2 SLOAD DUP2 PUSH20 0xFFFFFFFFFFFFFFFFFFFFFFFFFFFFFFFFFFFFFFFF MUL NOT AND SWAP1 DUP4 PUSH20 0xFFFFFFFFFFFFFFFFFFFFFFFFFFFFFFFFFFFFFFFF AND MUL OR SWAP1 SSTORE POP PUSH2 0x2B4 JUMP JUMPDEST PUSH0 DUP1 REVERT JUMPDEST PUSH0 DUP2 SWAP1 POP SWAP2 SWAP1 POP JUMP JUMPDEST PUSH2 0x268 DUP2 PUSH2 0x256 JUMP JUMPDEST DUP2 EQ PUSH2 0x272 JUMPI PUSH0 DUP1 REVERT JUMPDEST POP JUMP JUMPDEST PUSH0 DUP2 MLOAD SWAP1 POP PUSH2 0x283 DUP2 PUSH2 0x25F JUMP JUMPDEST SWAP3 SWAP2 POP POP JUMP JUMPDEST PUSH0 PUSH1 0x20 DUP3 DUP5 SUB SLT ISZERO PUSH2 0x29E JUMPI PUSH2 0x29D PUSH2 0x252 JUMP JUMPDEST JUMPDEST PUSH0 PUSH2 0x2AB DUP5 DUP3 DUP6 ADD PUSH2 0x275 JUMP JUMPDEST SWAP2 POP POP SWAP3 SWAP2 POP POP JUMP JUMPDEST PUSH2 0xF34 DUP1 PUSH2 0x2C1 PUSH0 CODECOPY PUSH0 RETURN INVALID PUSH1 0x80 PUSH1 0x40 MSTORE CALLVALUE DUP1 ISZERO PUSH2 0xF JUMPI PUSH0 DUP1 REVERT JUMPDEST POP PUSH1 0x4 CALLDATASIZE LT PUSH2 0x54 JUMPI PUSH0 CALLDATALOAD PUSH1 0xE0 SHR DUP1 PUSH3 0x9B9369 EQ PUSH2 0x58 JUMPI DUP1 PUSH4 0x13D8AC9E EQ PUSH2 0x88 JUMPI DUP1 PUSH4 0x4DE8737C EQ PUSH2 0xA6 JUMPI DUP1 PUSH4 0x8F633994 EQ PUSH2 0xC2 JUMPI DUP1 PUSH4 0xC41A360A EQ PUSH2 0xF3 JUMPI JUMPDEST PUSH0 DUP1 REVERT JUMPDEST PUSH2 0x72 PUSH1 0x4 DUP1 CALLDATASIZE SUB DUP2 ADD SWAP1 PUSH2 0x6D SWAP2 SWAP1 PUSH2 0x89A JUMP JUMPDEST PUSH2 0x123 JUMP JUMPDEST PUSH1 0x40 MLOAD PUSH2 0x7F SWAP2 SWAP1 PUSH2 0x8D4 JUMP JUMPDEST PUSH1 0x40 MLOAD DUP1 SWAP2 SUB SWAP1 RETURN JUMPDEST PUSH2 0x90 PUSH2 0x140 JUMP JUMPDEST PUSH1 0x40 MLOAD PUSH2 0x9D SWAP2 SWAP1 PUSH2 0x9A4 JUMP JUMPDEST PUSH1 0x40 MLOAD DUP1 SWAP2 SUB SWAP1 RETURN JUMPDEST PUSH2 0xC0 PUSH1 0x4 DUP1 CALLDATASIZE SUB DUP2 ADD SWAP1 PUSH2 0xBB SWAP2 SWAP1 PUSH2 0xA1E JUMP JUMPDEST PUSH2 0x196 JUMP JUMPDEST STOP JUMPDEST PUSH2 0xDC PUSH1 0x4 DUP1 CALLDATASIZE SUB DUP2 ADD SWAP1 PUSH2 0xD7 SWAP2 SWAP1 PUSH2 0x89A JUMP JUMPDEST PUSH2 0x5F5 JUMP JUMPDEST PUSH1 0x40 MLOAD PUSH2 0xEA SWAP3 SWAP2 SWAP1 PUSH2 0xB25 JUMP JUMPDEST PUSH1 0x40 MLOAD DUP1 SWAP2 SUB SWAP1 RETURN JUMPDEST PUSH2 0x10D PUSH1 0x4 DUP1 CALLDATASIZE SUB DUP2 ADD SWAP1 PUSH2 0x108 SWAP2 SWAP1 PUSH2 0x89A JUMP JUMPDEST PUSH2 0x6A7 JUMP JUMPDEST PUSH1 0x40 MLOAD PUSH2 0x11A SWAP2 SWAP1 PUSH2 0xB69 JUMP JUMPDEST PUSH1 0x40 MLOAD DUP1 SWAP2 SUB SWAP1 RETURN JUMPDEST PUSH0 PUSH1 0x8 PUSH0 DUP4 DUP2 MSTORE PUSH1 0x20 ADD SWAP1 DUP2 MSTORE PUSH1 0x20 ADD PUSH0 KECCAK256 PUSH1 0x1 ADD SLOAD SWAP1 POP SWAP2 SWAP1 POP JUMP JUMPDEST PUSH1 0x60 PUSH1 0x7 DUP1 SLOAD DUP1 PUSH1 0x20 MUL PUSH1 0x20 ADD PUSH1 0x40 MLOAD SWAP1 DUP2 ADD PUSH1 0x40 MSTORE DUP1 SWAP3 SWAP2 SWAP1 DUP2 DUP2 MSTORE PUSH1 0x20 ADD DUP3 DUP1 SLOAD DUP1 ISZERO PUSH2 0x18C JUMPI PUSH1 0x20 MUL DUP3 ADD SWAP2 SWAP1 PUSH0 MSTORE PUSH1 0x20 PUSH0 KECCAK256 SWAP1 JUMPDEST DUP2 SLOAD DUP2 MSTORE PUSH1 0x20 ADD SWAP1 PUSH1 0x1 ADD SWAP1 DUP1 DUP4 GT PUSH2 0x178 JUMPI JUMPDEST POP POP POP POP POP SWAP1 POP SWAP1 JUMP JUMPDEST CALLER PUSH20 0xFFFFFFFFFFFFFFFFFFFFFFFFFFFFFFFFFFFFFFFF AND PUSH1 0x4 PUSH0 SWAP1 SLOAD SWAP1 PUSH2 0x100 EXP SWAP1 DIV PUSH20 0xFFFFFFFFFFFFFFFFFFFFFFFFFFFFFFFFFFFFFFFF AND PUSH20 0xFFFFFFFFFFFFFFFFFFFFFFFFFFFFFFFFFFFFFFFF AND EQ PUSH2 0x225 JUMPI PUSH1 0x40 MLOAD PUSH32 0x8C379A000000000000000000000000000000000000000000000000000000000 DUP2 MSTORE PUSH1 0x4 ADD PUSH2 0x21C SWAP1 PUSH2 0xC02 JUMP JUMPDEST PUSH1 0x40 MLOAD DUP1 SWAP2 SUB SWAP1 REVERT JUMPDEST PUSH1 0x5 SLOAD DUP4 GT ISZERO PUSH2 0x26A JUMPI PUSH1 0x40 MLOAD PUSH32 0x8C379A000000000000000000000000000000000000000000000000000000000 DUP2 MSTORE PUSH1 0x4 ADD PUSH2 0x261 SWAP1 PUSH2 0xC6A JUMP JUMPDEST PUSH1 0x40 MLOAD DUP1 SWAP2 SUB SWAP1 REVERT JUMPDEST PUSH0 DUP2 GT PUSH2 0x2AC JUMPI PUSH1 0x40 MLOAD PUSH32 0x8C379A000000000000000000000000000000000000000000000000000000000 DUP2 MSTORE PUSH1 0x4 ADD PUSH2 0x2A3 SWAP1 PUSH2 0xCD2 JUMP JUMPDEST PUSH1 0x40 MLOAD DUP1 SWAP2 SUB SWAP1 REVERT JUMPDEST PUSH1 0x6 SLOAD DUP2 PUSH1 0x8 PUSH0 DUP7 DUP2 MSTORE PUSH1 0x20 ADD SWAP1 DUP2 MSTORE PUSH1 0x20 ADD PUSH0 KECCAK256 PUSH1 0x1 ADD SLOAD PUSH2 0x2CF SWAP2 SWAP1 PUSH2 0xD1D JUMP JUMPDEST GT ISZERO PUSH2 0x310 JUMPI PUSH1 0x40 MLOAD PUSH32 0x8C379A000000000000000000000000000000000000000000000000000000000 DUP2 MSTORE PUSH1 0x4 ADD PUSH2 0x307 SWAP1 PUSH2 0xDC0 JUMP JUMPDEST PUSH1 0x40 MLOAD DUP1 SWAP2 SUB SWAP1 REVERT JUMPDEST PUSH1 0x3 PUSH0 SWAP1 SLOAD SWAP1 PUSH2 0x100 EXP SWAP1 DIV PUSH20 0xFFFFFFFFFFFFFFFFFFFFFFFFFFFFFFFFFFFFFFFF AND PUSH20 0xFFFFFFFFFFFFFFFFFFFFFFFFFFFFFFFFFFFFFFFF AND PUSH4 0x9DC29FAC DUP4 DUP4 PUSH1 0x40 MLOAD DUP4 PUSH4 0xFFFFFFFF AND PUSH1 0xE0 SHL DUP2 MSTORE PUSH1 0x4 ADD PUSH2 0x36C SWAP3 SWAP2 SWAP1 PUSH2 0xDDE JUMP JUMPDEST PUSH1 0x20 PUSH1 0x40 MLOAD DUP1 DUP4 SUB DUP2 PUSH0 DUP8 GAS CALL ISZERO DUP1 ISZERO PUSH2 0x388 JUMPI RETURNDATASIZE PUSH0 DUP1 RETURNDATACOPY RETURNDATASIZE PUSH0 REVERT JUMPDEST POP POP POP POP PUSH1 0x40 MLOAD RETURNDATASIZE PUSH1 0x1F NOT PUSH1 0x1F DUP3 ADD AND DUP3 ADD DUP1 PUSH1 0x40 MSTORE POP DUP2 ADD SWAP1 PUSH2 0x3AC SWAP2 SWAP1 PUSH2 0xE3A JUMP JUMPDEST POP PUSH0 PUSH1 0x8 PUSH0 DUP6 DUP2 MSTORE PUSH1 0x20 ADD SWAP1 DUP2 MSTORE PUSH1 0x20 ADD PUSH0 KECCAK256 SWAP1 POP DUP2 DUP2 PUSH1 0x1 ADD PUSH0 DUP3 DUP3 SLOAD PUSH2 0x3D4 SWAP2 SWAP1 PUSH2 0xD1D JUMP JUMPDEST SWAP3 POP POP DUP2 SWAP1 SSTORE POP PUSH0 DUP1 JUMPDEST DUP3 PUSH0 ADD DUP1 SLOAD SWAP1 POP DUP2 LT ISZERO PUSH2 0x471 JUMPI DUP5 PUSH20 0xFFFFFFFFFFFFFFFFFFFFFFFFFFFFFFFFFFFFFFFF AND DUP4 PUSH0 ADD DUP3 DUP2 SLOAD DUP2 LT PUSH2 0x418 JUMPI PUSH2 0x417 PUSH2 0xE65 JUMP JUMPDEST JUMPDEST SWAP1 PUSH0 MSTORE PUSH1 0x20 PUSH0 KECCAK256 ADD PUSH0 SWAP1 SLOAD SWAP1 PUSH2 0x100 EXP SWAP1 DIV PUSH20 0xFFFFFFFFFFFFFFFFFFFFFFFFFFFFFFFFFFFFFFFF AND PUSH20 0xFFFFFFFFFFFFFFFFFFFFFFFFFFFFFFFFFFFFFFFF AND SUB PUSH2 0x464 JUMPI PUSH1 0x1 SWAP2 POP PUSH2 0x471 JUMP JUMPDEST DUP1 DUP1 PUSH1 0x1 ADD SWAP2 POP POP PUSH2 0x3DE JUMP JUMPDEST POP DUP1 PUSH2 0x4D9 JUMPI DUP2 PUSH0 ADD DUP5 SWAP1 DUP1 PUSH1 0x1 DUP2 SLOAD ADD DUP1 DUP3 SSTORE DUP1 SWAP2 POP POP PUSH1 0x1 SWAP1 SUB SWAP1 PUSH0 MSTORE PUSH1 0x20 PUSH0 KECCAK256 ADD PUSH0 SWAP1 SWAP2 SWAP1 SWAP2 SWAP1 SWAP2 PUSH2 0x100 EXP DUP2 SLOAD DUP2 PUSH20 0xFFFFFFFFFFFFFFFFFFFFFFFFFFFFFFFFFFFFFFFF MUL NOT AND SWAP1 DUP4 PUSH20 0xFFFFFFFFFFFFFFFFFFFFFFFFFFFFFFFFFFFFFFFF AND MUL OR SWAP1 SSTORE POP JUMPDEST DUP3 DUP3 PUSH1 0x2 ADD PUSH0 DUP7 PUSH20 0xFFFFFFFFFFFFFFFFFFFFFFFFFFFFFFFFFFFFFFFF AND PUSH20 0xFFFFFFFFFFFFFFFFFFFFFFFFFFFFFFFFFFFFFFFF AND DUP2 MSTORE PUSH1 0x20 ADD SWAP1 DUP2 MSTORE PUSH1 0x20 ADD PUSH0 KECCAK256 PUSH0 DUP3 DUP3 SLOAD PUSH2 0x527 SWAP2 SWAP1 PUSH2 0xD1D JUMP JUMPDEST SWAP3 POP POP DUP2 SWAP1 SSTORE POP PUSH32 0xF668EAD05C744B9178E571D2EDB452E72BAF6529C8D72160E64E59B50D865BD0 DUP5 DUP5 PUSH1 0x40 MLOAD PUSH2 0x55F SWAP3 SWAP2 SWAP1 PUSH2 0xDDE JUMP JUMPDEST PUSH1 0x40 MLOAD DUP1 SWAP2 SUB SWAP1 LOG1 PUSH1 0x6 SLOAD DUP3 PUSH1 0x1 ADD SLOAD SUB PUSH2 0x5EE JUMPI PUSH1 0x7 DUP6 SWAP1 DUP1 PUSH1 0x1 DUP2 SLOAD ADD DUP1 DUP3 SSTORE DUP1 SWAP2 POP POP PUSH1 0x1 SWAP1 SUB SWAP1 PUSH0 MSTORE PUSH1 0x20 PUSH0 KECCAK256 ADD PUSH0 SWAP1 SWAP2 SWAP1 SWAP2 SWAP1 SWAP2 POP SSTORE PUSH1 0x1 DUP3 PUSH1 0x3 ADD PUSH0 PUSH2 0x100 EXP DUP2 SLOAD DUP2 PUSH1 0xFF MUL NOT AND SWAP1 DUP4 ISZERO ISZERO MUL OR SWAP1 SSTORE POP PUSH32 0xF3ECDC9FFDA52C5AD69793C567CB456F83BBA2D14F196542E0BE80C919A8BDA3 DUP6 PUSH1 0x40 MLOAD PUSH2 0x5E5 SWAP2 SWAP1 PUSH2 0x8D4 JUMP JUMPDEST PUSH1 0x40 MLOAD DUP1 SWAP2 SUB SWAP1 LOG1 JUMPDEST POP POP POP POP POP JUMP JUMPDEST PUSH1 0x60 DUP1 PUSH0 PUSH1 0x8 PUSH0 DUP6 DUP2 MSTORE PUSH1 0x20 ADD SWAP1 DUP2 MSTORE PUSH1 0x20 ADD PUSH0 KECCAK256 SWAP1 POP DUP1 PUSH0 ADD PUSH2 0x618 DUP3 PUSH2 0x748 JUMP JUMPDEST DUP2 DUP1 SLOAD DUP1 PUSH1 0x20 MUL PUSH1 0x20 ADD PUSH1 0x40 MLOAD SWAP1 DUP2 ADD PUSH1 0x40 MSTORE DUP1 SWAP3 SWAP2 SWAP1 DUP2 DUP2 MSTORE PUSH1 0x20 ADD DUP3 DUP1 SLOAD DUP1 ISZERO PUSH2 0x696 JUMPI PUSH1 0x20 MUL DUP3 ADD SWAP2 SWAP1 PUSH0 MSTORE PUSH1 0x20 PUSH0 KECCAK256 SWAP1 JUMPDEST DUP2 PUSH0 SWAP1 SLOAD SWAP1 PUSH2 0x100 EXP SWAP1 DIV PUSH20 0xFFFFFFFFFFFFFFFFFFFFFFFFFFFFFFFFFFFFFFFF AND PUSH20 0xFFFFFFFFFFFFFFFFFFFFFFFFFFFFFFFFFFFFFFFF AND DUP2 MSTORE PUSH1 0x20 ADD SWAP1 PUSH1 0x1 ADD SWAP1 DUP1 DUP4 GT PUSH2 0x64D JUMPI JUMPDEST POP POP POP POP POP SWAP2 POP SWAP3 POP SWAP3 POP POP SWAP2 POP SWAP2 JUMP JUMPDEST PUSH0 PUSH1 0x2 PUSH0 SWAP1 SLOAD SWAP1 PUSH2 0x100 EXP SWAP1 DIV PUSH20 0xFFFFFFFFFFFFFFFFFFFFFFFFFFFFFFFFFFFFFFFF AND PUSH20 0xFFFFFFFFFFFFFFFFFFFFFFFFFFFFFFFFFFFFFFFF AND PUSH4 0x7F1DD80B DUP4 PUSH1 0x40 MLOAD DUP3 PUSH4 0xFFFFFFFF AND PUSH1 0xE0 SHL DUP2 MSTORE PUSH1 0x4 ADD PUSH2 0x702 SWAP2 SWAP1 PUSH2 0x8D4 JUMP JUMPDEST PUSH1 0x20 PUSH1 0x40 MLOAD DUP1 DUP4 SUB DUP2 DUP7 GAS STATICCALL ISZERO DUP1 ISZERO PUSH2 0x71D JUMPI RETURNDATASIZE PUSH0 DUP1 RETURNDATACOPY RETURNDATASIZE PUSH0 REVERT JUMPDEST POP POP POP POP PUSH1 0x40 MLOAD RETURNDATASIZE PUSH1 0x1F NOT PUSH1 0x1F DUP3 ADD AND DUP3 ADD DUP1 PUSH1 0x40 MSTORE POP DUP2 ADD SWAP1 PUSH2 0x741 SWAP2 SWAP1 PUSH2 0xEA6 JUMP JUMPDEST SWAP1 POP SWAP2 SWAP1 POP JUMP JUMPDEST PUSH1 0x60 PUSH0 DUP3 PUSH0 ADD DUP1 SLOAD SWAP1 POP PUSH8 0xFFFFFFFFFFFFFFFF DUP2 GT ISZERO PUSH2 0x76B JUMPI PUSH2 0x76A PUSH2 0xED1 JUMP JUMPDEST JUMPDEST PUSH1 0x40 MLOAD SWAP1 DUP1 DUP3 MSTORE DUP1 PUSH1 0x20 MUL PUSH1 0x20 ADD DUP3 ADD PUSH1 0x40 MSTORE DUP1 ISZERO PUSH2 0x799 JUMPI DUP2 PUSH1 0x20 ADD PUSH1 0x20 DUP3 MUL DUP1 CALLDATASIZE DUP4 CALLDATACOPY DUP1 DUP3 ADD SWAP2 POP POP SWAP1 POP JUMPDEST POP SWAP1 POP PUSH0 JUMPDEST DUP4 PUSH0 ADD DUP1 SLOAD SWAP1 POP DUP2 LT ISZERO PUSH2 0x859 JUMPI PUSH0 DUP5 PUSH0 ADD DUP3 DUP2 SLOAD DUP2 LT PUSH2 0x7C2 JUMPI PUSH2 0x7C1 PUSH2 0xE65 JUMP JUMPDEST JUMPDEST SWAP1 PUSH0 MSTORE PUSH1 0x20 PUSH0 KECCAK256 ADD PUSH0 SWAP1 SLOAD SWAP1 PUSH2 0x100 EXP SWAP1 DIV PUSH20 0xFFFFFFFFFFFFFFFFFFFFFFFFFFFFFFFFFFFFFFFF AND SWAP1 POP DUP5 PUSH1 0x2 ADD PUSH0 DUP3 PUSH20 0xFFFFFFFFFFFFFFFFFFFFFFFFFFFFFFFFFFFFFFFF AND PUSH20 0xFFFFFFFFFFFFFFFFFFFFFFFFFFFFFFFFFFFFFFFF AND DUP2 MSTORE PUSH1 0x20 ADD SWAP1 DUP2 MSTORE PUSH1 0x20 ADD PUSH0 KECCAK256 SLOAD DUP4 DUP4 DUP2 MLOAD DUP2 LT PUSH2 0x83F JUMPI PUSH2 0x83E PUSH2 0xE65 JUMP JUMPDEST JUMPDEST PUSH1 0x20 MUL PUSH1 0x20 ADD ADD DUP2 DUP2 MSTORE POP POP POP DUP1 DUP1 PUSH1 0x1 ADD SWAP2 POP POP PUSH2 0x79E JUMP JUMPDEST POP DUP1 SWAP2 POP POP SWAP2 SWAP1 POP JUMP JUMPDEST PUSH0 DUP1 REVERT JUMPDEST PUSH0 DUP2 SWAP1 POP SWAP2 SWAP1 POP JUMP JUMPDEST PUSH2 0x879 DUP2 PUSH2 0x867 JUMP JUMPDEST DUP2 EQ PUSH2 0x883 JUMPI PUSH0 DUP1 REVERT JUMPDEST POP JUMP JUMPDEST PUSH0 DUP2 CALLDATALOAD SWAP1 POP PUSH2 0x894 DUP2 PUSH2 0x870 JUMP JUMPDEST SWAP3 SWAP2 POP POP JUMP JUMPDEST PUSH0 PUSH1 0x20 DUP3 DUP5 SUB SLT ISZERO PUSH2 0x8AF JUMPI PUSH2 0x8AE PUSH2 0x863 JUMP JUMPDEST JUMPDEST PUSH0 PUSH2 0x8BC DUP5 DUP3 DUP6 ADD PUSH2 0x886 JUMP JUMPDEST SWAP2 POP POP SWAP3 SWAP2 POP POP JUMP JUMPDEST PUSH2 0x8CE DUP2 PUSH2 0x867 JUMP JUMPDEST DUP3 MSTORE POP POP JUMP JUMPDEST PUSH0 PUSH1 0x20 DUP3 ADD SWAP1 POP PUSH2 0x8E7 PUSH0 DUP4 ADD DUP5 PUSH2 0x8C5 JUMP JUMPDEST SWAP3 SWAP2 POP POP JUMP JUMPDEST PUSH0 DUP2 MLOAD SWAP1 POP SWAP2 SWAP1 POP JUMP JUMPDEST PUSH0 DUP3 DUP3 MSTORE PUSH1 0x20 DUP3 ADD SWAP1 POP SWAP3 SWAP2 POP POP JUMP JUMPDEST PUSH0 DUP2 SWAP1 POP PUSH1 0x20 DUP3 ADD SWAP1 POP SWAP2 SWAP1 POP JUMP JUMPDEST PUSH2 0x91F DUP2 PUSH2 0x867 JUMP JUMPDEST DUP3 MSTORE POP POP JUMP JUMPDEST PUSH0 PUSH2 0x930 DUP4 DUP4 PUSH2 0x916 JUMP JUMPDEST PUSH1 0x20 DUP4 ADD SWAP1 POP SWAP3 SWAP2 POP POP JUMP JUMPDEST PUSH0 PUSH1 0x20 DUP3 ADD SWAP1 POP SWAP2 SWAP1 POP JUMP JUMPDEST PUSH0 PUSH2 0x952 DUP3 PUSH2 0x8ED JUMP JUMPDEST PUSH2 0x95C DUP2 DUP6 PUSH2 0x8F7 JUMP JUMPDEST SWAP4 POP PUSH2 0x967 DUP4 PUSH2 0x907 JUMP JUMPDEST DUP1 PUSH0 JUMPDEST DUP4 DUP2 LT ISZERO PUSH2 0x997 JUMPI DUP2 MLOAD PUSH2 0x97E DUP9 DUP3 PUSH2 0x925 JUMP JUMPDEST SWAP8 POP PUSH2 0x989 DUP4 PUSH2 0x93C JUMP JUMPDEST SWAP3 POP POP PUSH1 0x1 DUP2 ADD SWAP1 POP PUSH2 0x96A JUMP JUMPDEST POP DUP6 SWAP4 POP POP POP POP SWAP3 SWAP2 POP POP JUMP JUMPDEST PUSH0 PUSH1 0x20 DUP3 ADD SWAP1 POP DUP2 DUP2 SUB PUSH0 DUP4 ADD MSTORE PUSH2 0x9BC DUP2 DUP5 PUSH2 0x948 JUMP JUMPDEST SWAP1 POP SWAP3 SWAP2 POP POP JUMP JUMPDEST PUSH0 PUSH20 0xFFFFFFFFFFFFFFFFFFFFFFFFFFFFFFFFFFFFFFFF DUP3 AND SWAP1 POP SWAP2 SWAP1 POP JUMP JUMPDEST PUSH0 PUSH2 0x9ED DUP3 PUSH2 0x9C4 JUMP JUMPDEST SWAP1 POP SWAP2 SWAP1 POP JUMP JUMPDEST PUSH2 0x9FD DUP2 PUSH2 0x9E3 JUMP JUMPDEST DUP2 EQ PUSH2 0xA07 JUMPI PUSH0 DUP1 REVERT JUMPDEST POP JUMP JUMPDEST PUSH0 DUP2 CALLDATALOAD SWAP1 POP PUSH2 0xA18 DUP2 PUSH2 0x9F4 JUMP JUMPDEST SWAP3 SWAP2 POP POP JUMP JUMPDEST PUSH0 DUP1 PUSH0 PUSH1 0x60 DUP5 DUP7 SUB SLT ISZERO PUSH2 0xA35 JUMPI PUSH2 0xA34 PUSH2 0x863 JUMP JUMPDEST JUMPDEST PUSH0 PUSH2 0xA42 DUP7 DUP3 DUP8 ADD PUSH2 0x886 JUMP JUMPDEST SWAP4 POP POP PUSH1 0x20 PUSH2 0xA53 DUP7 DUP3 DUP8 ADD PUSH2 0xA0A JUMP JUMPDEST SWAP3 POP POP PUSH1 0x40 PUSH2 0xA64 DUP7 DUP3 DUP8 ADD PUSH2 0x886 JUMP JUMPDEST SWAP2 POP POP SWAP3 POP SWAP3 POP SWAP3 JUMP JUMPDEST PUSH0 DUP2 MLOAD SWAP1 POP SWAP2 SWAP1 POP JUMP JUMPDEST PUSH0 DUP3 DUP3 MSTORE PUSH1 0x20 DUP3 ADD SWAP1 POP SWAP3 SWAP2 POP POP JUMP JUMPDEST PUSH0 DUP2 SWAP1 POP PUSH1 0x20 DUP3 ADD SWAP1 POP SWAP2 SWAP1 POP JUMP JUMPDEST PUSH2 0xAA0 DUP2 PUSH2 0x9E3 JUMP JUMPDEST DUP3 MSTORE POP POP JUMP JUMPDEST PUSH0 PUSH2 0xAB1 DUP4 DUP4 PUSH2 0xA97 JUMP JUMPDEST PUSH1 0x20 DUP4 ADD SWAP1 POP SWAP3 SWAP2 POP POP JUMP JUMPDEST PUSH0 PUSH1 0x20 DUP3 ADD SWAP1 POP SWAP2 SWAP1 POP JUMP JUMPDEST PUSH0 PUSH2 0xAD3 DUP3 PUSH2 0xA6E JUMP JUMPDEST PUSH2 0xADD DUP2 DUP6 PUSH2 0xA78 JUMP JUMPDEST SWAP4 POP PUSH2 0xAE8 DUP4 PUSH2 0xA88 JUMP JUMPDEST DUP1 PUSH0 JUMPDEST DUP4 DUP2 LT ISZERO PUSH2 0xB18 JUMPI DUP2 MLOAD PUSH2 0xAFF DUP9 DUP3 PUSH2 0xAA6 JUMP JUMPDEST SWAP8 POP PUSH2 0xB0A DUP4 PUSH2 0xABD JUMP JUMPDEST SWAP3 POP POP PUSH1 0x1 DUP2 ADD SWAP1 POP PUSH2 0xAEB JUMP JUMPDEST POP DUP6 SWAP4 POP POP POP POP SWAP3 SWAP2 POP POP JUMP JUMPDEST PUSH0 PUSH1 0x40 DUP3 ADD SWAP1 POP DUP2 DUP2 SUB PUSH0 DUP4 ADD MSTORE PUSH2 0xB3D DUP2 DUP6 PUSH2 0xAC9 JUMP JUMPDEST SWAP1 POP DUP2 DUP2 SUB PUSH1 0x20 DUP4 ADD MSTORE PUSH2 0xB51 DUP2 DUP5 PUSH2 0x948 JUMP JUMPDEST SWAP1 POP SWAP4 SWAP3 POP POP POP JUMP JUMPDEST PUSH2 0xB63 DUP2 PUSH2 0x9E3 JUMP JUMPDEST DUP3 MSTORE POP POP JUMP JUMPDEST PUSH0 PUSH1 0x20 DUP3 ADD SWAP1 POP PUSH2 0xB7C PUSH0 DUP4 ADD DUP5 PUSH2 0xB5A JUMP JUMPDEST SWAP3 SWAP2 POP POP JUMP JUMPDEST PUSH0 DUP3 DUP3 MSTORE PUSH1 0x20 DUP3 ADD SWAP1 POP SWAP3 SWAP2 POP POP JUMP JUMPDEST PUSH32 0x4F6E6C7920636F6E7472616374206F776E65722063616E20636F6E6669726D20 PUSH0 DUP3 ADD MSTORE PUSH32 0x766F746500000000000000000000000000000000000000000000000000000000 PUSH1 0x20 DUP3 ADD MSTORE POP JUMP JUMPDEST PUSH0 PUSH2 0xBEC PUSH1 0x24 DUP4 PUSH2 0xB82 JUMP JUMPDEST SWAP2 POP PUSH2 0xBF7 DUP3 PUSH2 0xB92 JUMP JUMPDEST PUSH1 0x40 DUP3 ADD SWAP1 POP SWAP2 SWAP1 POP JUMP JUMPDEST PUSH0 PUSH1 0x20 DUP3 ADD SWAP1 POP DUP2 DUP2 SUB PUSH0 DUP4 ADD MSTORE PUSH2 0xC19 DUP2 PUSH2 0xBE0 JUMP JUMPDEST SWAP1 POP SWAP2 SWAP1 POP JUMP JUMPDEST PUSH32 0x4E6F206578697374696E67206167656E64612069640000000000000000000000 PUSH0 DUP3 ADD MSTORE POP JUMP JUMPDEST PUSH0 PUSH2 0xC54 PUSH1 0x15 DUP4 PUSH2 0xB82 JUMP JUMPDEST SWAP2 POP PUSH2 0xC5F DUP3 PUSH2 0xC20 JUMP JUMPDEST PUSH1 0x20 DUP3 ADD SWAP1 POP SWAP2 SWAP1 POP JUMP JUMPDEST PUSH0 PUSH1 0x20 DUP3 ADD SWAP1 POP DUP2 DUP2 SUB PUSH0 DUP4 ADD MSTORE PUSH2 0xC81 DUP2 PUSH2 0xC48 JUMP JUMPDEST SWAP1 POP SWAP2 SWAP1 POP JUMP JUMPDEST PUSH32 0x3020746F6B656E207472616E7366657272656400000000000000000000000000 PUSH0 DUP3 ADD MSTORE POP JUMP JUMPDEST PUSH0 PUSH2 0xCBC PUSH1 0x13 DUP4 PUSH2 0xB82 JUMP JUMPDEST SWAP2 POP PUSH2 0xCC7 DUP3 PUSH2 0xC88 JUMP JUMPDEST PUSH1 0x20 DUP3 ADD SWAP1 POP SWAP2 SWAP1 POP JUMP JUMPDEST PUSH0 PUSH1 0x20 DUP3 ADD SWAP1 POP DUP2 DUP2 SUB PUSH0 DUP4 ADD MSTORE PUSH2 0xCE9 DUP2 PUSH2 0xCB0 JUMP JUMPDEST SWAP1 POP SWAP2 SWAP1 POP JUMP JUMPDEST PUSH32 0x4E487B7100000000000000000000000000000000000000000000000000000000 PUSH0 MSTORE PUSH1 0x11 PUSH1 0x4 MSTORE PUSH1 0x24 PUSH0 REVERT JUMPDEST PUSH0 PUSH2 0xD27 DUP3 PUSH2 0x867 JUMP JUMPDEST SWAP2 POP PUSH2 0xD32 DUP4 PUSH2 0x867 JUMP JUMPDEST SWAP3 POP DUP3 DUP3 ADD SWAP1 POP DUP1 DUP3 GT ISZERO PUSH2 0xD4A JUMPI PUSH2 0xD49 PUSH2 0xCF0 JUMP JUMPDEST JUMPDEST SWAP3 SWAP2 POP POP JUMP JUMPDEST PUSH32 0x4D6178696D756D20617661696C61626C6520746F6B656E20696E707574206578 PUSH0 DUP3 ADD MSTORE PUSH32 0x6365656465640000000000000000000000000000000000000000000000000000 PUSH1 0x20 DUP3 ADD MSTORE POP JUMP JUMPDEST PUSH0 PUSH2 0xDAA PUSH1 0x26 DUP4 PUSH2 0xB82 JUMP JUMPDEST SWAP2 POP PUSH2 0xDB5 DUP3 PUSH2 0xD50 JUMP JUMPDEST PUSH1 0x40 DUP3 ADD SWAP1 POP SWAP2 SWAP1 POP JUMP JUMPDEST PUSH0 PUSH1 0x20 DUP3 ADD SWAP1 POP DUP2 DUP2 SUB PUSH0 DUP4 ADD MSTORE PUSH2 0xDD7 DUP2 PUSH2 0xD9E JUMP JUMPDEST SWAP1 POP SWAP2 SWAP1 POP JUMP JUMPDEST PUSH0 PUSH1 0x40 DUP3 ADD SWAP1 POP PUSH2 0xDF1 PUSH0 DUP4 ADD DUP6 PUSH2 0xB5A JUMP JUMPDEST PUSH2 0xDFE PUSH1 0x20 DUP4 ADD DUP5 PUSH2 0x8C5 JUMP JUMPDEST SWAP4 SWAP3 POP POP POP JUMP JUMPDEST PUSH0 DUP2 ISZERO ISZERO SWAP1 POP SWAP2 SWAP1 POP JUMP JUMPDEST PUSH2 0xE19 DUP2 PUSH2 0xE05 JUMP JUMPDEST DUP2 EQ PUSH2 0xE23 JUMPI PUSH0 DUP1 REVERT JUMPDEST POP JUMP JUMPDEST PUSH0 DUP2 MLOAD SWAP1 POP PUSH2 0xE34 DUP2 PUSH2 0xE10 JUMP JUMPDEST SWAP3 SWAP2 POP POP JUMP JUMPDEST PUSH0 PUSH1 0x20 DUP3 DUP5 SUB SLT ISZERO PUSH2 0xE4F JUMPI PUSH2 0xE4E PUSH2 0x863 JUMP JUMPDEST JUMPDEST PUSH0 PUSH2 0xE5C DUP5 DUP3 DUP6 ADD PUSH2 0xE26 JUMP JUMPDEST SWAP2 POP POP SWAP3 SWAP2 POP POP JUMP JUMPDEST PUSH32 0x4E487B7100000000000000000000000000000000000000000000000000000000 PUSH0 MSTORE PUSH1 0x32 PUSH1 0x4 MSTORE PUSH1 0x24 PUSH0 REVERT JUMPDEST PUSH0 DUP2 MLOAD SWAP1 POP PUSH2 0xEA0 DUP2 PUSH2 0x9F4 JUMP JUMPDEST SWAP3 SWAP2 POP POP JUMP JUMPDEST PUSH0 PUSH1 0x20 DUP3 DUP5 SUB SLT ISZERO PUSH2 0xEBB JUMPI PUSH2 0xEBA PUSH2 0x863 JUMP JUMPDEST JUMPDEST PUSH0 PUSH2 0xEC8 DUP5 DUP3 DUP6 ADD PUSH2 0xE92 JUMP JUMPDEST SWAP2 POP POP SWAP3 SWAP2 POP POP JUMP JUMPDEST PUSH32 0x4E487B7100000000000000000000000000000000000000000000000000000000 PUSH0 MSTORE PUSH1 0x41 PUSH1 0x4 MSTORE PUSH1 0x24 PUSH0 REVERT INVALID LOG2 PUSH5 0x6970667358 0x22 SLT KECCAK256 ADD 0xBC 0xD4 SWAP11 MUL 0xBE 0x4F REVERT 0xF8 PUSH20 0xFDBC160D09CDE6FF4A792179E5C728F5CD34E724 ADDMOD 0xB4 PUSH5 0x736F6C6343 STOP ADDMOD XOR STOP CALLER "
				},
				"gasEstimates": {
					"creation": {
						"codeDepositCost": "778400",
						"executionCost": "infinite",
						"totalCost": "infinite"
					},
					"external": {
						"getListedAgendas()": "infinite",
						"getOwner(uint256)": "infinite",
						"getVoteNumber(uint256)": "infinite",
						"getVotingStatus(uint256)": "infinite",
						"vote(uint256,address,uint256)": "infinite"
					},
					"internal": {
						"getVoterTokenValues(struct VotingSystem.AgendaStatus storage pointer)": "infinite"
					}
				},
				"methodIdentifiers": {
					"getListedAgendas()": "13d8ac9e",
					"getOwner(uint256)": "c41a360a",
					"getVoteNumber(uint256)": "009b9369",
					"getVotingStatus(uint256)": "8f633994",
					"vote(uint256,address,uint256)": "4de8737c"
				}
			},
			"storageLayout": {
				"storage": [
					{
						"astId": 56,
						"contract": "contracts/VotingSystem.sol:VotingSystem",
						"label": "APTAddress",
						"offset": 0,
						"slot": "0",
						"type": "t_address"
					},
					{
						"astId": 59,
						"contract": "contracts/VotingSystem.sol:VotingSystem",
						"label": "AECAddress",
						"offset": 0,
						"slot": "1",
						"type": "t_address"
					},
					{
						"astId": 65,
						"contract": "contracts/VotingSystem.sol:VotingSystem",
						"label": "APTcontract",
						"offset": 0,
						"slot": "2",
						"type": "t_contract(AgendaProposalToken)14"
					},
					{
						"astId": 71,
						"contract": "contracts/VotingSystem.sol:VotingSystem",
						"label": "AECcontract",
						"offset": 0,
						"slot": "3",
						"type": "t_contract(AECToken)53"
					},
					{
						"astId": 73,
						"contract": "contracts/VotingSystem.sol:VotingSystem",
						"label": "contractOwner",
						"offset": 0,
						"slot": "4",
						"type": "t_address"
					},
					{
						"astId": 78,
						"contract": "contracts/VotingSystem.sol:VotingSystem",
						"label": "totalAgendaNumber",
						"offset": 0,
						"slot": "5",
						"type": "t_uint256"
					},
					{
						"astId": 81,
						"contract": "contracts/VotingSystem.sol:VotingSystem",
						"label": "maxVoteToken",
						"offset": 0,
						"slot": "6",
						"type": "t_uint256"
					},
					{
						"astId": 84,
						"contract": "contracts/VotingSystem.sol:VotingSystem",
						"label": "listedAgendaId",
						"offset": 0,
						"slot": "7",
						"type": "t_array(t_uint256)dyn_storage"
					},
					{
						"astId": 101,
						"contract": "contracts/VotingSystem.sol:VotingSystem",
						"label": "idToAgendaData",
						"offset": 0,
						"slot": "8",
						"type": "t_mapping(t_uint256,t_struct(AgendaStatus)96_storage)"
					}
				],
				"types": {
					"t_address": {
						"encoding": "inplace",
						"label": "address",
						"numberOfBytes": "20"
					},
					"t_array(t_address)dyn_storage": {
						"base": "t_address",
						"encoding": "dynamic_array",
						"label": "address[]",
						"numberOfBytes": "32"
					},
					"t_array(t_uint256)dyn_storage": {
						"base": "t_uint256",
						"encoding": "dynamic_array",
						"label": "uint256[]",
						"numberOfBytes": "32"
					},
					"t_bool": {
						"encoding": "inplace",
						"label": "bool",
						"numberOfBytes": "1"
					},
					"t_contract(AECToken)53": {
						"encoding": "inplace",
						"label": "contract AECToken",
						"numberOfBytes": "20"
					},
					"t_contract(AgendaProposalToken)14": {
						"encoding": "inplace",
						"label": "contract AgendaProposalToken",
						"numberOfBytes": "20"
					},
					"t_mapping(t_address,t_uint256)": {
						"encoding": "mapping",
						"key": "t_address",
						"label": "mapping(address => uint256)",
						"numberOfBytes": "32",
						"value": "t_uint256"
					},
					"t_mapping(t_uint256,t_struct(AgendaStatus)96_storage)": {
						"encoding": "mapping",
						"key": "t_uint256",
						"label": "mapping(uint256 => struct VotingSystem.AgendaStatus)",
						"numberOfBytes": "32",
						"value": "t_struct(AgendaStatus)96_storage"
					},
					"t_struct(AgendaStatus)96_storage": {
						"encoding": "inplace",
						"label": "struct VotingSystem.AgendaStatus",
						"members": [
							{
								"astId": 87,
								"contract": "contracts/VotingSystem.sol:VotingSystem",
								"label": "voters",
								"offset": 0,
								"slot": "0",
								"type": "t_array(t_address)dyn_storage"
							},
							{
								"astId": 89,
								"contract": "contracts/VotingSystem.sol:VotingSystem",
								"label": "totalVotes",
								"offset": 0,
								"slot": "1",
								"type": "t_uint256"
							},
							{
								"astId": 93,
								"contract": "contracts/VotingSystem.sol:VotingSystem",
								"label": "voterTokenValue",
								"offset": 0,
								"slot": "2",
								"type": "t_mapping(t_address,t_uint256)"
							},
							{
								"astId": 95,
								"contract": "contracts/VotingSystem.sol:VotingSystem",
								"label": "isListed",
								"offset": 0,
								"slot": "3",
								"type": "t_bool"
							}
						],
						"numberOfBytes": "128"
					},
					"t_uint256": {
						"encoding": "inplace",
						"label": "uint256",
						"numberOfBytes": "32"
					}
				}
			},
			"userdoc": {
				"kind": "user",
				"methods": {},
				"version": 1
			}
		}
	}
}