{
	"contracts/VotingSystem.sol": {
		"VotingSystem": {
			"abi": [
				{
					"inputs": [],
					"stateMutability": "nonpayable",
					"type": "constructor"
				},
				{
					"anonymous": false,
					"inputs": [
						{
							"indexed": false,
							"internalType": "uint256",
							"name": "agendaTokenId",
							"type": "uint256"
						}
					],
					"name": "Listed",
					"type": "event"
				},
				{
					"anonymous": false,
					"inputs": [
						{
							"indexed": false,
							"internalType": "address",
							"name": "voterAddress",
							"type": "address"
						},
						{
							"indexed": false,
							"internalType": "uint256",
							"name": "amount",
							"type": "uint256"
						}
					],
					"name": "Vote",
					"type": "event"
				},
				{
					"inputs": [],
					"name": "getListedAgendas",
					"outputs": [
						{
							"internalType": "uint256[]",
							"name": "",
							"type": "uint256[]"
						}
					],
					"stateMutability": "view",
					"type": "function"
				},
				{
					"inputs": [
						{
							"internalType": "uint256",
							"name": "agendaTokenId",
							"type": "uint256"
						}
					],
					"name": "getVoteNumber",
					"outputs": [
						{
							"internalType": "uint256",
							"name": "",
							"type": "uint256"
						}
					],
					"stateMutability": "view",
					"type": "function"
				},
				{
					"inputs": [
						{
							"internalType": "uint256",
							"name": "agendaTokenId",
							"type": "uint256"
						}
					],
					"name": "getVotingStatus",
					"outputs": [
						{
							"internalType": "address[]",
							"name": "",
							"type": "address[]"
						},
						{
							"internalType": "uint256[]",
							"name": "",
							"type": "uint256[]"
						}
					],
					"stateMutability": "view",
					"type": "function"
				},
				{
					"inputs": [
						{
							"internalType": "uint256",
							"name": "agendaTokenId",
							"type": "uint256"
						},
						{
							"internalType": "uint256",
							"name": "amount",
							"type": "uint256"
						}
					],
					"name": "vote",
					"outputs": [],
					"stateMutability": "nonpayable",
					"type": "function"
				}
			],
			"devdoc": {
				"kind": "dev",
				"methods": {},
				"version": 1
			},
			"evm": {
				"assembly": "    /* \"contracts/VotingSystem.sol\":425:3255  contract VotingSystem {... */\n  mstore(0x40, 0x80)\n    /* \"contracts/VotingSystem.sol\":474:516  0xAdB8d027111ae2cB88e3C00730AF8EEeCBc21Ca8 */\n  0xadb8d027111ae2cb88e3c00730af8eeecbc21ca8\n    /* \"contracts/VotingSystem.sol\":453:516  address APTAddress = 0xAdB8d027111ae2cB88e3C00730AF8EEeCBc21Ca8 */\n  0x00\n  dup1\n  0x0100\n  exp\n  dup2\n  sload\n  dup2\n  0xffffffffffffffffffffffffffffffffffffffff\n  mul\n  not\n  and\n  swap1\n  dup4\n  0xffffffffffffffffffffffffffffffffffffffff\n  and\n  mul\n  or\n  swap1\n  sstore\n  pop\n    /* \"contracts/VotingSystem.sol\":636:646  APTAddress */\n  0x00\n  dup1\n  sload\n  swap1\n  0x0100\n  exp\n  swap1\n  div\n  0xffffffffffffffffffffffffffffffffffffffff\n  and\n    /* \"contracts/VotingSystem.sol\":596:647  APCInterface APTcontract = APCInterface(APTAddress) */\n  0x01\n  exp(0x0100, 0x00)\n  dup2\n  sload\n  dup2\n  0xffffffffffffffffffffffffffffffffffffffff\n  mul\n  not\n  and\n  swap1\n  dup4\n  0xffffffffffffffffffffffffffffffffffffffff\n  and\n  mul\n  or\n  swap1\n  sstore\n  pop\n    /* \"contracts/VotingSystem.sol\":770:781  APTcontract */\n  0x01\n  0x00\n  swap1\n  sload\n  swap1\n  0x0100\n  exp\n  swap1\n  div\n  0xffffffffffffffffffffffffffffffffffffffff\n  and\n    /* \"contracts/VotingSystem.sol\":770:801  APTcontract.getTotalTokenNumber */\n  0xffffffffffffffffffffffffffffffffffffffff\n  and\n  0x7e3cd5c4\n    /* \"contracts/VotingSystem.sol\":770:803  APTcontract.getTotalTokenNumber() */\n  mload(0x40)\n  dup2\n  0xffffffff\n  and\n  0xe0\n  shl\n  dup2\n  mstore\n  0x04\n  add\n  0x20\n  mload(0x40)\n  dup1\n  dup4\n  sub\n  dup2\n  dup7\n  gas\n  staticcall\n  iszero\n  dup1\n  iszero\n  tag_2\n  jumpi\n  returndatasize\n  0x00\n  dup1\n  returndatacopy\n  revert(0x00, returndatasize)\ntag_2:\n  pop\n  pop\n  pop\n  pop\n  mload(0x40)\n  returndatasize\n  not(0x1f)\n  0x1f\n  dup3\n  add\n  and\n  dup3\n  add\n  dup1\n  0x40\n  mstore\n  pop\n  dup2\n  add\n  swap1\n  tag_3\n  swap2\n  swap1\n  tag_4\n  jump\t// in\ntag_3:\n    /* \"contracts/VotingSystem.sol\":742:803  uint256 totalAgendaNumber = APTcontract.getTotalTokenNumber() */\n  0x03\n  sstore\n    /* \"contracts/VotingSystem.sol\":832:835  100 */\n  0x64\n    /* \"contracts/VotingSystem.sol\":809:835  uint256 maxVoteToken = 100 */\n  0x04\n  sstore\n    /* \"contracts/VotingSystem.sol\":1193:1251  constructor() {... */\n  callvalue\n  dup1\n  iszero\n  tag_5\n  jumpi\n  0x00\n  dup1\n  revert\ntag_5:\n  pop\n    /* \"contracts/VotingSystem.sol\":1233:1243  msg.sender */\n  caller\n    /* \"contracts/VotingSystem.sol\":1217:1230  contractOwner */\n  0x02\n  0x00\n    /* \"contracts/VotingSystem.sol\":1217:1243  contractOwner = msg.sender */\n  0x0100\n  exp\n  dup2\n  sload\n  dup2\n  0xffffffffffffffffffffffffffffffffffffffff\n  mul\n  not\n  and\n  swap1\n  dup4\n  0xffffffffffffffffffffffffffffffffffffffff\n  and\n  mul\n  or\n  swap1\n  sstore\n  pop\n    /* \"contracts/VotingSystem.sol\":425:3255  contract VotingSystem {... */\n  jump(tag_8)\n    /* \"#utility.yul\":88:205   */\ntag_10:\n    /* \"#utility.yul\":197:198   */\n  0x00\n    /* \"#utility.yul\":194:195   */\n  dup1\n    /* \"#utility.yul\":187:199   */\n  revert\n    /* \"#utility.yul\":334:411   */\ntag_12:\n    /* \"#utility.yul\":371:378   */\n  0x00\n    /* \"#utility.yul\":400:405   */\n  dup2\n    /* \"#utility.yul\":389:405   */\n  swap1\n  pop\n    /* \"#utility.yul\":334:411   */\n  swap2\n  swap1\n  pop\n  jump\t// out\n    /* \"#utility.yul\":417:539   */\ntag_13:\n    /* \"#utility.yul\":490:514   */\n  tag_21\n    /* \"#utility.yul\":508:513   */\n  dup2\n    /* \"#utility.yul\":490:514   */\n  tag_12\n  jump\t// in\ntag_21:\n    /* \"#utility.yul\":483:488   */\n  dup2\n    /* \"#utility.yul\":480:515   */\n  eq\n    /* \"#utility.yul\":470:533   */\n  tag_22\n  jumpi\n    /* \"#utility.yul\":529:530   */\n  0x00\n    /* \"#utility.yul\":526:527   */\n  dup1\n    /* \"#utility.yul\":519:531   */\n  revert\n    /* \"#utility.yul\":470:533   */\ntag_22:\n    /* \"#utility.yul\":417:539   */\n  pop\n  jump\t// out\n    /* \"#utility.yul\":545:688   */\ntag_14:\n    /* \"#utility.yul\":602:607   */\n  0x00\n    /* \"#utility.yul\":633:639   */\n  dup2\n    /* \"#utility.yul\":627:640   */\n  mload\n    /* \"#utility.yul\":618:640   */\n  swap1\n  pop\n    /* \"#utility.yul\":649:682   */\n  tag_24\n    /* \"#utility.yul\":676:681   */\n  dup2\n    /* \"#utility.yul\":649:682   */\n  tag_13\n  jump\t// in\ntag_24:\n    /* \"#utility.yul\":545:688   */\n  swap3\n  swap2\n  pop\n  pop\n  jump\t// out\n    /* \"#utility.yul\":694:1045   */\ntag_4:\n    /* \"#utility.yul\":764:770   */\n  0x00\n    /* \"#utility.yul\":813:815   */\n  0x20\n    /* \"#utility.yul\":801:810   */\n  dup3\n    /* \"#utility.yul\":792:799   */\n  dup5\n    /* \"#utility.yul\":788:811   */\n  sub\n    /* \"#utility.yul\":784:816   */\n  slt\n    /* \"#utility.yul\":781:900   */\n  iszero\n  tag_26\n  jumpi\n    /* \"#utility.yul\":819:898   */\n  tag_27\n  tag_10\n  jump\t// in\ntag_27:\n    /* \"#utility.yul\":781:900   */\ntag_26:\n    /* \"#utility.yul\":939:940   */\n  0x00\n    /* \"#utility.yul\":964:1028   */\n  tag_28\n    /* \"#utility.yul\":1020:1027   */\n  dup5\n    /* \"#utility.yul\":1011:1017   */\n  dup3\n    /* \"#utility.yul\":1000:1009   */\n  dup6\n    /* \"#utility.yul\":996:1018   */\n  add\n    /* \"#utility.yul\":964:1028   */\n  tag_14\n  jump\t// in\ntag_28:\n    /* \"#utility.yul\":954:1028   */\n  swap2\n  pop\n    /* \"#utility.yul\":910:1038   */\n  pop\n    /* \"#utility.yul\":694:1045   */\n  swap3\n  swap2\n  pop\n  pop\n  jump\t// out\n    /* \"contracts/VotingSystem.sol\":425:3255  contract VotingSystem {... */\ntag_8:\n  dataSize(sub_0)\n  dup1\n  dataOffset(sub_0)\n  0x00\n  codecopy\n  0x00\n  return\nstop\n\nsub_0: assembly {\n        /* \"contracts/VotingSystem.sol\":425:3255  contract VotingSystem {... */\n      mstore(0x40, 0x80)\n      callvalue\n      dup1\n      iszero\n      tag_1\n      jumpi\n      0x00\n      dup1\n      revert\n    tag_1:\n      pop\n      jumpi(tag_2, lt(calldatasize, 0x04))\n      shr(0xe0, calldataload(0x00))\n      dup1\n      0x9b9369\n      eq\n      tag_3\n      jumpi\n      dup1\n      0x13d8ac9e\n      eq\n      tag_4\n      jumpi\n      dup1\n      0x8f633994\n      eq\n      tag_5\n      jumpi\n      dup1\n      0xb384abef\n      eq\n      tag_6\n      jumpi\n    tag_2:\n      0x00\n      dup1\n      revert\n        /* \"contracts/VotingSystem.sol\":2382:2521  function getVoteNumber(uint256 agendaTokenId) public view returns (uint256){... */\n    tag_3:\n      tag_7\n      0x04\n      dup1\n      calldatasize\n      sub\n      dup2\n      add\n      swap1\n      tag_8\n      swap2\n      swap1\n      tag_9\n      jump\t// in\n    tag_8:\n      tag_10\n      jump\t// in\n    tag_7:\n      mload(0x40)\n      tag_11\n      swap2\n      swap1\n      tag_12\n      jump\t// in\n    tag_11:\n      mload(0x40)\n      dup1\n      swap2\n      sub\n      swap1\n      return\n        /* \"contracts/VotingSystem.sol\":2528:2631  function getListedAgendas() public view returns(uint256[] memory){... */\n    tag_4:\n      tag_13\n      tag_14\n      jump\t// in\n    tag_13:\n      mload(0x40)\n      tag_15\n      swap2\n      swap1\n      tag_16\n      jump\t// in\n    tag_15:\n      mload(0x40)\n      dup1\n      swap2\n      sub\n      swap1\n      return\n        /* \"contracts/VotingSystem.sol\":2637:2879  function getVotingStatus(uint256 agendaTokenId) public view returns (address[] memory, uint256[] memory) {... */\n    tag_5:\n      tag_17\n      0x04\n      dup1\n      calldatasize\n      sub\n      dup2\n      add\n      swap1\n      tag_18\n      swap2\n      swap1\n      tag_9\n      jump\t// in\n    tag_18:\n      tag_19\n      jump\t// in\n    tag_17:\n      mload(0x40)\n      tag_20\n      swap3\n      swap2\n      swap1\n      tag_21\n      jump\t// in\n    tag_20:\n      mload(0x40)\n      dup1\n      swap2\n      sub\n      swap1\n      return\n        /* \"contracts/VotingSystem.sol\":1257:2376  function vote(uint256 agendaTokenId, uint256 amount) public {... */\n    tag_6:\n      tag_22\n      0x04\n      dup1\n      calldatasize\n      sub\n      dup2\n      add\n      swap1\n      tag_23\n      swap2\n      swap1\n      tag_24\n      jump\t// in\n    tag_23:\n      tag_25\n      jump\t// in\n    tag_22:\n      stop\n        /* \"contracts/VotingSystem.sol\":2382:2521  function getVoteNumber(uint256 agendaTokenId) public view returns (uint256){... */\n    tag_10:\n        /* \"contracts/VotingSystem.sol\":2449:2456  uint256 */\n      0x00\n        /* \"contracts/VotingSystem.sol\":2474:2488  idToAgendaData */\n      0x06\n        /* \"contracts/VotingSystem.sol\":2474:2503  idToAgendaData[agendaTokenId] */\n      0x00\n        /* \"contracts/VotingSystem.sol\":2489:2502  agendaTokenId */\n      dup4\n        /* \"contracts/VotingSystem.sol\":2474:2503  idToAgendaData[agendaTokenId] */\n      dup2\n      mstore\n      0x20\n      add\n      swap1\n      dup2\n      mstore\n      0x20\n      add\n      0x00\n      keccak256\n        /* \"contracts/VotingSystem.sol\":2474:2514  idToAgendaData[agendaTokenId].totalVotes */\n      0x01\n      add\n      sload\n        /* \"contracts/VotingSystem.sol\":2467:2514  return idToAgendaData[agendaTokenId].totalVotes */\n      swap1\n      pop\n        /* \"contracts/VotingSystem.sol\":2382:2521  function getVoteNumber(uint256 agendaTokenId) public view returns (uint256){... */\n      swap2\n      swap1\n      pop\n      jump\t// out\n        /* \"contracts/VotingSystem.sol\":2528:2631  function getListedAgendas() public view returns(uint256[] memory){... */\n    tag_14:\n        /* \"contracts/VotingSystem.sol\":2576:2592  uint256[] memory */\n      0x60\n        /* \"contracts/VotingSystem.sol\":2610:2624  listedAgendaId */\n      0x05\n        /* \"contracts/VotingSystem.sol\":2603:2624  return listedAgendaId */\n      dup1\n      sload\n      dup1\n      0x20\n      mul\n      0x20\n      add\n      mload(0x40)\n      swap1\n      dup2\n      add\n      0x40\n      mstore\n      dup1\n      swap3\n      swap2\n      swap1\n      dup2\n      dup2\n      mstore\n      0x20\n      add\n      dup3\n      dup1\n      sload\n      dup1\n      iszero\n      tag_28\n      jumpi\n      0x20\n      mul\n      dup3\n      add\n      swap2\n      swap1\n      0x00\n      mstore\n      keccak256(0x00, 0x20)\n      swap1\n    tag_29:\n      dup2\n      sload\n      dup2\n      mstore\n      0x20\n      add\n      swap1\n      0x01\n      add\n      swap1\n      dup1\n      dup4\n      gt\n      tag_29\n      jumpi\n    tag_28:\n      pop\n      pop\n      pop\n      pop\n      pop\n      swap1\n      pop\n        /* \"contracts/VotingSystem.sol\":2528:2631  function getListedAgendas() public view returns(uint256[] memory){... */\n      swap1\n      jump\t// out\n        /* \"contracts/VotingSystem.sol\":2637:2879  function getVotingStatus(uint256 agendaTokenId) public view returns (address[] memory, uint256[] memory) {... */\n    tag_19:\n        /* \"contracts/VotingSystem.sol\":2706:2722  address[] memory */\n      0x60\n        /* \"contracts/VotingSystem.sol\":2724:2740  uint256[] memory */\n      dup1\n        /* \"contracts/VotingSystem.sol\":2752:2779  AgendaStatus storage agenda */\n      0x00\n        /* \"contracts/VotingSystem.sol\":2782:2796  idToAgendaData */\n      0x06\n        /* \"contracts/VotingSystem.sol\":2782:2811  idToAgendaData[agendaTokenId] */\n      0x00\n        /* \"contracts/VotingSystem.sol\":2797:2810  agendaTokenId */\n      dup6\n        /* \"contracts/VotingSystem.sol\":2782:2811  idToAgendaData[agendaTokenId] */\n      dup2\n      mstore\n      0x20\n      add\n      swap1\n      dup2\n      mstore\n      0x20\n      add\n      0x00\n      keccak256\n        /* \"contracts/VotingSystem.sol\":2752:2811  AgendaStatus storage agenda = idToAgendaData[agendaTokenId] */\n      swap1\n      pop\n        /* \"contracts/VotingSystem.sol\":2829:2835  agenda */\n      dup1\n        /* \"contracts/VotingSystem.sol\":2829:2842  agenda.voters */\n      0x00\n      add\n        /* \"contracts/VotingSystem.sol\":2844:2871  getVoterTokenValues(agenda) */\n      tag_31\n        /* \"contracts/VotingSystem.sol\":2864:2870  agenda */\n      dup3\n        /* \"contracts/VotingSystem.sol\":2844:2863  getVoterTokenValues */\n      tag_32\n        /* \"contracts/VotingSystem.sol\":2844:2871  getVoterTokenValues(agenda) */\n      jump\t// in\n    tag_31:\n        /* \"contracts/VotingSystem.sol\":2821:2872  return (agenda.voters, getVoterTokenValues(agenda)) */\n      dup2\n      dup1\n      sload\n      dup1\n      0x20\n      mul\n      0x20\n      add\n      mload(0x40)\n      swap1\n      dup2\n      add\n      0x40\n      mstore\n      dup1\n      swap3\n      swap2\n      swap1\n      dup2\n      dup2\n      mstore\n      0x20\n      add\n      dup3\n      dup1\n      sload\n      dup1\n      iszero\n      tag_33\n      jumpi\n      0x20\n      mul\n      dup3\n      add\n      swap2\n      swap1\n      0x00\n      mstore\n      keccak256(0x00, 0x20)\n      swap1\n    tag_34:\n      dup2\n      0x00\n      swap1\n      sload\n      swap1\n      0x0100\n      exp\n      swap1\n      div\n      0xffffffffffffffffffffffffffffffffffffffff\n      and\n      0xffffffffffffffffffffffffffffffffffffffff\n      and\n      dup2\n      mstore\n      0x20\n      add\n      swap1\n      0x01\n      add\n      swap1\n      dup1\n      dup4\n      gt\n      tag_34\n      jumpi\n    tag_33:\n      pop\n      pop\n      pop\n      pop\n      pop\n      swap2\n      pop\n      swap3\n      pop\n      swap3\n      pop\n      pop\n        /* \"contracts/VotingSystem.sol\":2637:2879  function getVotingStatus(uint256 agendaTokenId) public view returns (address[] memory, uint256[] memory) {... */\n      swap2\n      pop\n      swap2\n      jump\t// out\n        /* \"contracts/VotingSystem.sol\":1257:2376  function vote(uint256 agendaTokenId, uint256 amount) public {... */\n    tag_25:\n        /* \"contracts/VotingSystem.sol\":1351:1368  totalAgendaNumber */\n      sload(0x03)\n        /* \"contracts/VotingSystem.sol\":1336:1349  agendaTokenId */\n      dup3\n        /* \"contracts/VotingSystem.sol\":1336:1368  agendaTokenId<=totalAgendaNumber */\n      gt\n      iszero\n        /* \"contracts/VotingSystem.sol\":1327:1394  require (agendaTokenId<=totalAgendaNumber, \"No existing agenda id\") */\n      tag_36\n      jumpi\n      mload(0x40)\n      0x08c379a000000000000000000000000000000000000000000000000000000000\n      dup2\n      mstore\n      0x04\n      add\n      tag_37\n      swap1\n      tag_38\n      jump\t// in\n    tag_37:\n      mload(0x40)\n      dup1\n      swap2\n      sub\n      swap1\n      revert\n    tag_36:\n        /* \"contracts/VotingSystem.sol\":1420:1421  0 */\n      0x00\n        /* \"contracts/VotingSystem.sol\":1413:1419  amount */\n      dup2\n        /* \"contracts/VotingSystem.sol\":1413:1421  amount>0 */\n      gt\n        /* \"contracts/VotingSystem.sol\":1404:1445  require (amount>0, \"0 token transferred\") */\n      tag_39\n      jumpi\n      mload(0x40)\n      0x08c379a000000000000000000000000000000000000000000000000000000000\n      dup2\n      mstore\n      0x04\n      add\n      tag_40\n      swap1\n      tag_41\n      jump\t// in\n    tag_40:\n      mload(0x40)\n      dup1\n      swap2\n      sub\n      swap1\n      revert\n    tag_39:\n        /* \"contracts/VotingSystem.sol\":1513:1525  maxVoteToken */\n      sload(0x04)\n        /* \"contracts/VotingSystem.sol\":1505:1511  amount */\n      dup2\n        /* \"contracts/VotingSystem.sol\":1464:1478  idToAgendaData */\n      0x06\n        /* \"contracts/VotingSystem.sol\":1464:1493  idToAgendaData[agendaTokenId] */\n      0x00\n        /* \"contracts/VotingSystem.sol\":1479:1492  agendaTokenId */\n      dup6\n        /* \"contracts/VotingSystem.sol\":1464:1493  idToAgendaData[agendaTokenId] */\n      dup2\n      mstore\n      0x20\n      add\n      swap1\n      dup2\n      mstore\n      0x20\n      add\n      0x00\n      keccak256\n        /* \"contracts/VotingSystem.sol\":1464:1504  idToAgendaData[agendaTokenId].totalVotes */\n      0x01\n      add\n      sload\n        /* \"contracts/VotingSystem.sol\":1464:1511  idToAgendaData[agendaTokenId].totalVotes+amount */\n      tag_42\n      swap2\n      swap1\n      tag_43\n      jump\t// in\n    tag_42:\n        /* \"contracts/VotingSystem.sol\":1464:1525  idToAgendaData[agendaTokenId].totalVotes+amount<=maxVoteToken */\n      gt\n      iszero\n        /* \"contracts/VotingSystem.sol\":1455:1568  require (idToAgendaData[agendaTokenId].totalVotes+amount<=maxVoteToken, \"Maximum available token input exceeded\") */\n      tag_44\n      jumpi\n      mload(0x40)\n      0x08c379a000000000000000000000000000000000000000000000000000000000\n      dup2\n      mstore\n      0x04\n      add\n      tag_45\n      swap1\n      tag_46\n      jump\t// in\n    tag_45:\n      mload(0x40)\n      dup1\n      swap2\n      sub\n      swap1\n      revert\n    tag_44:\n        /* \"contracts/VotingSystem.sol\":1687:1714  AgendaStatus storage agenda */\n      0x00\n        /* \"contracts/VotingSystem.sol\":1717:1731  idToAgendaData */\n      0x06\n        /* \"contracts/VotingSystem.sol\":1717:1746  idToAgendaData[agendaTokenId] */\n      0x00\n        /* \"contracts/VotingSystem.sol\":1732:1745  agendaTokenId */\n      dup5\n        /* \"contracts/VotingSystem.sol\":1717:1746  idToAgendaData[agendaTokenId] */\n      dup2\n      mstore\n      0x20\n      add\n      swap1\n      dup2\n      mstore\n      0x20\n      add\n      0x00\n      keccak256\n        /* \"contracts/VotingSystem.sol\":1687:1746  AgendaStatus storage agenda = idToAgendaData[agendaTokenId] */\n      swap1\n      pop\n        /* \"contracts/VotingSystem.sol\":1776:1782  amount */\n      dup2\n        /* \"contracts/VotingSystem.sol\":1756:1762  agenda */\n      dup2\n        /* \"contracts/VotingSystem.sol\":1756:1773  agenda.totalVotes */\n      0x01\n      add\n      0x00\n        /* \"contracts/VotingSystem.sol\":1756:1782  agenda.totalVotes+= amount */\n      dup3\n      dup3\n      sload\n      tag_47\n      swap2\n      swap1\n      tag_43\n      jump\t// in\n    tag_47:\n      swap3\n      pop\n      pop\n      dup2\n      swap1\n      sstore\n      pop\n        /* \"contracts/VotingSystem.sol\":1793:1811  bool isVoterExists */\n      0x00\n        /* \"contracts/VotingSystem.sol\":1834:1840  uint i */\n      dup1\n        /* \"contracts/VotingSystem.sol\":1829:2013  for (uint i = 0; i < agenda.voters.length; i++) {... */\n    tag_48:\n        /* \"contracts/VotingSystem.sol\":1850:1856  agenda */\n      dup3\n        /* \"contracts/VotingSystem.sol\":1850:1863  agenda.voters */\n      0x00\n      add\n        /* \"contracts/VotingSystem.sol\":1850:1870  agenda.voters.length */\n      dup1\n      sload\n      swap1\n      pop\n        /* \"contracts/VotingSystem.sol\":1846:1847  i */\n      dup2\n        /* \"contracts/VotingSystem.sol\":1846:1870  i < agenda.voters.length */\n      lt\n        /* \"contracts/VotingSystem.sol\":1829:2013  for (uint i = 0; i < agenda.voters.length; i++) {... */\n      iszero\n      tag_49\n      jumpi\n        /* \"contracts/VotingSystem.sol\":1915:1925  msg.sender */\n      caller\n        /* \"contracts/VotingSystem.sol\":1895:1925  agenda.voters[i] == msg.sender */\n      0xffffffffffffffffffffffffffffffffffffffff\n      and\n        /* \"contracts/VotingSystem.sol\":1895:1901  agenda */\n      dup4\n        /* \"contracts/VotingSystem.sol\":1895:1908  agenda.voters */\n      0x00\n      add\n        /* \"contracts/VotingSystem.sol\":1909:1910  i */\n      dup3\n        /* \"contracts/VotingSystem.sol\":1895:1911  agenda.voters[i] */\n      dup2\n      sload\n      dup2\n      lt\n      tag_51\n      jumpi\n      tag_52\n      tag_53\n      jump\t// in\n    tag_52:\n    tag_51:\n      swap1\n      0x00\n      mstore\n      keccak256(0x00, 0x20)\n      add\n      0x00\n      swap1\n      sload\n      swap1\n      0x0100\n      exp\n      swap1\n      div\n      0xffffffffffffffffffffffffffffffffffffffff\n      and\n        /* \"contracts/VotingSystem.sol\":1895:1925  agenda.voters[i] == msg.sender */\n      0xffffffffffffffffffffffffffffffffffffffff\n      and\n      sub\n        /* \"contracts/VotingSystem.sol\":1891:2003  if (agenda.voters[i] == msg.sender) {... */\n      tag_55\n      jumpi\n        /* \"contracts/VotingSystem.sol\":1961:1965  true */\n      0x01\n        /* \"contracts/VotingSystem.sol\":1945:1965  isVoterExists = true */\n      swap2\n      pop\n        /* \"contracts/VotingSystem.sol\":1983:1988  break */\n      jump(tag_49)\n        /* \"contracts/VotingSystem.sol\":1891:2003  if (agenda.voters[i] == msg.sender) {... */\n    tag_55:\n        /* \"contracts/VotingSystem.sol\":1872:1875  i++ */\n      dup1\n      dup1\n      0x01\n      add\n      swap2\n      pop\n      pop\n        /* \"contracts/VotingSystem.sol\":1829:2013  for (uint i = 0; i < agenda.voters.length; i++) {... */\n      jump(tag_48)\n    tag_49:\n      pop\n        /* \"contracts/VotingSystem.sol\":2027:2040  isVoterExists */\n      dup1\n        /* \"contracts/VotingSystem.sol\":2022:2097  if (!isVoterExists) {... */\n      tag_56\n      jumpi\n        /* \"contracts/VotingSystem.sol\":2056:2062  agenda */\n      dup2\n        /* \"contracts/VotingSystem.sol\":2056:2069  agenda.voters */\n      0x00\n      add\n        /* \"contracts/VotingSystem.sol\":2075:2085  msg.sender */\n      caller\n        /* \"contracts/VotingSystem.sol\":2056:2086  agenda.voters.push(msg.sender) */\n      swap1\n      dup1\n      0x01\n      dup2\n      sload\n      add\n      dup1\n      dup3\n      sstore\n      dup1\n      swap2\n      pop\n      pop\n      0x01\n      swap1\n      sub\n      swap1\n      0x00\n      mstore\n      keccak256(0x00, 0x20)\n      add\n      0x00\n      swap1\n      swap2\n      swap1\n      swap2\n      swap1\n      swap2\n      0x0100\n      exp\n      dup2\n      sload\n      dup2\n      0xffffffffffffffffffffffffffffffffffffffff\n      mul\n      not\n      and\n      swap1\n      dup4\n      0xffffffffffffffffffffffffffffffffffffffff\n      and\n      mul\n      or\n      swap1\n      sstore\n      pop\n        /* \"contracts/VotingSystem.sol\":2022:2097  if (!isVoterExists) {... */\n    tag_56:\n        /* \"contracts/VotingSystem.sol\":2145:2151  amount */\n      dup3\n        /* \"contracts/VotingSystem.sol\":2107:2113  agenda */\n      dup3\n        /* \"contracts/VotingSystem.sol\":2107:2129  agenda.voterTokenValue */\n      0x02\n      add\n        /* \"contracts/VotingSystem.sol\":2107:2141  agenda.voterTokenValue[msg.sender] */\n      0x00\n        /* \"contracts/VotingSystem.sol\":2130:2140  msg.sender */\n      caller\n        /* \"contracts/VotingSystem.sol\":2107:2141  agenda.voterTokenValue[msg.sender] */\n      0xffffffffffffffffffffffffffffffffffffffff\n      and\n      0xffffffffffffffffffffffffffffffffffffffff\n      and\n      dup2\n      mstore\n      0x20\n      add\n      swap1\n      dup2\n      mstore\n      0x20\n      add\n      0x00\n      keccak256\n      0x00\n        /* \"contracts/VotingSystem.sol\":2107:2151  agenda.voterTokenValue[msg.sender] += amount */\n      dup3\n      dup3\n      sload\n      tag_58\n      swap2\n      swap1\n      tag_43\n      jump\t// in\n    tag_58:\n      swap3\n      pop\n      pop\n      dup2\n      swap1\n      sstore\n      pop\n        /* \"contracts/VotingSystem.sol\":2166:2190  Vote(msg.sender, amount) */\n      0xf668ead05c744b9178e571d2edb452e72baf6529c8d72160e64e59b50d865bd0\n        /* \"contracts/VotingSystem.sol\":2171:2181  msg.sender */\n      caller\n        /* \"contracts/VotingSystem.sol\":2183:2189  amount */\n      dup5\n        /* \"contracts/VotingSystem.sol\":2166:2190  Vote(msg.sender, amount) */\n      mload(0x40)\n      tag_59\n      swap3\n      swap2\n      swap1\n      tag_60\n      jump\t// in\n    tag_59:\n      mload(0x40)\n      dup1\n      swap2\n      sub\n      swap1\n      log1\n        /* \"contracts/VotingSystem.sol\":2222:2234  maxVoteToken */\n      sload(0x04)\n        /* \"contracts/VotingSystem.sol\":2203:2209  agenda */\n      dup3\n        /* \"contracts/VotingSystem.sol\":2203:2220  agenda.totalVotes */\n      0x01\n      add\n      sload\n        /* \"contracts/VotingSystem.sol\":2203:2234  agenda.totalVotes==maxVoteToken */\n      sub\n        /* \"contracts/VotingSystem.sol\":2200:2370  if(agenda.totalVotes==maxVoteToken){... */\n      tag_61\n      jumpi\n        /* \"contracts/VotingSystem.sol\":2249:2263  listedAgendaId */\n      0x05\n        /* \"contracts/VotingSystem.sol\":2269:2282  agendaTokenId */\n      dup5\n        /* \"contracts/VotingSystem.sol\":2249:2283  listedAgendaId.push(agendaTokenId) */\n      swap1\n      dup1\n      0x01\n      dup2\n      sload\n      add\n      dup1\n      dup3\n      sstore\n      dup1\n      swap2\n      pop\n      pop\n      0x01\n      swap1\n      sub\n      swap1\n      0x00\n      mstore\n      keccak256(0x00, 0x20)\n      add\n      0x00\n      swap1\n      swap2\n      swap1\n      swap2\n      swap1\n      swap2\n      pop\n      sstore\n        /* \"contracts/VotingSystem.sol\":2315:2319  true */\n      0x01\n        /* \"contracts/VotingSystem.sol\":2297:2303  agenda */\n      dup3\n        /* \"contracts/VotingSystem.sol\":2297:2312  agenda.isListed */\n      0x03\n      add\n      0x00\n        /* \"contracts/VotingSystem.sol\":2297:2319  agenda.isListed = true */\n      0x0100\n      exp\n      dup2\n      sload\n      dup2\n      0xff\n      mul\n      not\n      and\n      swap1\n      dup4\n      iszero\n      iszero\n      mul\n      or\n      swap1\n      sstore\n      pop\n        /* \"contracts/VotingSystem.sol\":2338:2359  Listed(agendaTokenId) */\n      0xf3ecdc9ffda52c5ad69793c567cb456f83bba2d14f196542e0be80c919a8bda3\n        /* \"contracts/VotingSystem.sol\":2345:2358  agendaTokenId */\n      dup5\n        /* \"contracts/VotingSystem.sol\":2338:2359  Listed(agendaTokenId) */\n      mload(0x40)\n      tag_63\n      swap2\n      swap1\n      tag_12\n      jump\t// in\n    tag_63:\n      mload(0x40)\n      dup1\n      swap2\n      sub\n      swap1\n      log1\n        /* \"contracts/VotingSystem.sol\":2200:2370  if(agenda.totalVotes==maxVoteToken){... */\n    tag_61:\n        /* \"contracts/VotingSystem.sol\":1317:2376  {... */\n      pop\n      pop\n        /* \"contracts/VotingSystem.sol\":1257:2376  function vote(uint256 agendaTokenId, uint256 amount) public {... */\n      pop\n      pop\n      jump\t// out\n        /* \"contracts/VotingSystem.sol\":2885:3253  function getVoterTokenValues(AgendaStatus storage agenda) private view returns (uint256[] memory) {... */\n    tag_32:\n        /* \"contracts/VotingSystem.sol\":2965:2981  uint256[] memory */\n      0x60\n        /* \"contracts/VotingSystem.sol\":2993:3016  uint256[] memory values */\n      0x00\n        /* \"contracts/VotingSystem.sol\":3033:3039  agenda */\n      dup3\n        /* \"contracts/VotingSystem.sol\":3033:3046  agenda.voters */\n      0x00\n      add\n        /* \"contracts/VotingSystem.sol\":3033:3053  agenda.voters.length */\n      dup1\n      sload\n      swap1\n      pop\n        /* \"contracts/VotingSystem.sol\":3019:3054  new uint256[](agenda.voters.length) */\n      0xffffffffffffffff\n      dup2\n      gt\n      iszero\n      tag_65\n      jumpi\n      tag_66\n      tag_67\n      jump\t// in\n    tag_66:\n    tag_65:\n      mload(0x40)\n      swap1\n      dup1\n      dup3\n      mstore\n      dup1\n      0x20\n      mul\n      0x20\n      add\n      dup3\n      add\n      0x40\n      mstore\n      dup1\n      iszero\n      tag_68\n      jumpi\n      dup2\n      0x20\n      add\n      0x20\n      dup3\n      mul\n      dup1\n      calldatasize\n      dup4\n      calldatacopy\n      dup1\n      dup3\n      add\n      swap2\n      pop\n      pop\n      swap1\n      pop\n    tag_68:\n      pop\n        /* \"contracts/VotingSystem.sol\":2993:3054  uint256[] memory values = new uint256[](agenda.voters.length) */\n      swap1\n      pop\n        /* \"contracts/VotingSystem.sol\":3069:3075  uint i */\n      0x00\n        /* \"contracts/VotingSystem.sol\":3064:3224  for (uint i = 0; i < agenda.voters.length; i++) {... */\n    tag_69:\n        /* \"contracts/VotingSystem.sol\":3085:3091  agenda */\n      dup4\n        /* \"contracts/VotingSystem.sol\":3085:3098  agenda.voters */\n      0x00\n      add\n        /* \"contracts/VotingSystem.sol\":3085:3105  agenda.voters.length */\n      dup1\n      sload\n      swap1\n      pop\n        /* \"contracts/VotingSystem.sol\":3081:3082  i */\n      dup2\n        /* \"contracts/VotingSystem.sol\":3081:3105  i < agenda.voters.length */\n      lt\n        /* \"contracts/VotingSystem.sol\":3064:3224  for (uint i = 0; i < agenda.voters.length; i++) {... */\n      iszero\n      tag_70\n      jumpi\n        /* \"contracts/VotingSystem.sol\":3126:3139  address voter */\n      0x00\n        /* \"contracts/VotingSystem.sol\":3142:3148  agenda */\n      dup5\n        /* \"contracts/VotingSystem.sol\":3142:3155  agenda.voters */\n      0x00\n      add\n        /* \"contracts/VotingSystem.sol\":3156:3157  i */\n      dup3\n        /* \"contracts/VotingSystem.sol\":3142:3158  agenda.voters[i] */\n      dup2\n      sload\n      dup2\n      lt\n      tag_72\n      jumpi\n      tag_73\n      tag_53\n      jump\t// in\n    tag_73:\n    tag_72:\n      swap1\n      0x00\n      mstore\n      keccak256(0x00, 0x20)\n      add\n      0x00\n      swap1\n      sload\n      swap1\n      0x0100\n      exp\n      swap1\n      div\n      0xffffffffffffffffffffffffffffffffffffffff\n      and\n        /* \"contracts/VotingSystem.sol\":3126:3158  address voter = agenda.voters[i] */\n      swap1\n      pop\n        /* \"contracts/VotingSystem.sol\":3184:3190  agenda */\n      dup5\n        /* \"contracts/VotingSystem.sol\":3184:3206  agenda.voterTokenValue */\n      0x02\n      add\n        /* \"contracts/VotingSystem.sol\":3184:3213  agenda.voterTokenValue[voter] */\n      0x00\n        /* \"contracts/VotingSystem.sol\":3207:3212  voter */\n      dup3\n        /* \"contracts/VotingSystem.sol\":3184:3213  agenda.voterTokenValue[voter] */\n      0xffffffffffffffffffffffffffffffffffffffff\n      and\n      0xffffffffffffffffffffffffffffffffffffffff\n      and\n      dup2\n      mstore\n      0x20\n      add\n      swap1\n      dup2\n      mstore\n      0x20\n      add\n      0x00\n      keccak256\n      sload\n        /* \"contracts/VotingSystem.sol\":3172:3178  values */\n      dup4\n        /* \"contracts/VotingSystem.sol\":3179:3180  i */\n      dup4\n        /* \"contracts/VotingSystem.sol\":3172:3181  values[i] */\n      dup2\n      mload\n      dup2\n      lt\n      tag_75\n      jumpi\n      tag_76\n      tag_53\n      jump\t// in\n    tag_76:\n    tag_75:\n      0x20\n      mul\n      0x20\n      add\n      add\n        /* \"contracts/VotingSystem.sol\":3172:3213  values[i] = agenda.voterTokenValue[voter] */\n      dup2\n      dup2\n      mstore\n      pop\n      pop\n        /* \"contracts/VotingSystem.sol\":3112:3224  {... */\n      pop\n        /* \"contracts/VotingSystem.sol\":3107:3110  i++ */\n      dup1\n      dup1\n      0x01\n      add\n      swap2\n      pop\n      pop\n        /* \"contracts/VotingSystem.sol\":3064:3224  for (uint i = 0; i < agenda.voters.length; i++) {... */\n      jump(tag_69)\n    tag_70:\n      pop\n        /* \"contracts/VotingSystem.sol\":3240:3246  values */\n      dup1\n        /* \"contracts/VotingSystem.sol\":3233:3246  return values */\n      swap2\n      pop\n      pop\n        /* \"contracts/VotingSystem.sol\":2885:3253  function getVoterTokenValues(AgendaStatus storage agenda) private view returns (uint256[] memory) {... */\n      swap2\n      swap1\n      pop\n      jump\t// out\n        /* \"#utility.yul\":88:205   */\n    tag_78:\n        /* \"#utility.yul\":197:198   */\n      0x00\n        /* \"#utility.yul\":194:195   */\n      dup1\n        /* \"#utility.yul\":187:199   */\n      revert\n        /* \"#utility.yul\":334:411   */\n    tag_80:\n        /* \"#utility.yul\":371:378   */\n      0x00\n        /* \"#utility.yul\":400:405   */\n      dup2\n        /* \"#utility.yul\":389:405   */\n      swap1\n      pop\n        /* \"#utility.yul\":334:411   */\n      swap2\n      swap1\n      pop\n      jump\t// out\n        /* \"#utility.yul\":417:539   */\n    tag_81:\n        /* \"#utility.yul\":490:514   */\n      tag_115\n        /* \"#utility.yul\":508:513   */\n      dup2\n        /* \"#utility.yul\":490:514   */\n      tag_80\n      jump\t// in\n    tag_115:\n        /* \"#utility.yul\":483:488   */\n      dup2\n        /* \"#utility.yul\":480:515   */\n      eq\n        /* \"#utility.yul\":470:533   */\n      tag_116\n      jumpi\n        /* \"#utility.yul\":529:530   */\n      0x00\n        /* \"#utility.yul\":526:527   */\n      dup1\n        /* \"#utility.yul\":519:531   */\n      revert\n        /* \"#utility.yul\":470:533   */\n    tag_116:\n        /* \"#utility.yul\":417:539   */\n      pop\n      jump\t// out\n        /* \"#utility.yul\":545:684   */\n    tag_82:\n        /* \"#utility.yul\":591:596   */\n      0x00\n        /* \"#utility.yul\":629:635   */\n      dup2\n        /* \"#utility.yul\":616:636   */\n      calldataload\n        /* \"#utility.yul\":607:636   */\n      swap1\n      pop\n        /* \"#utility.yul\":645:678   */\n      tag_118\n        /* \"#utility.yul\":672:677   */\n      dup2\n        /* \"#utility.yul\":645:678   */\n      tag_81\n      jump\t// in\n    tag_118:\n        /* \"#utility.yul\":545:684   */\n      swap3\n      swap2\n      pop\n      pop\n      jump\t// out\n        /* \"#utility.yul\":690:1019   */\n    tag_9:\n        /* \"#utility.yul\":749:755   */\n      0x00\n        /* \"#utility.yul\":798:800   */\n      0x20\n        /* \"#utility.yul\":786:795   */\n      dup3\n        /* \"#utility.yul\":777:784   */\n      dup5\n        /* \"#utility.yul\":773:796   */\n      sub\n        /* \"#utility.yul\":769:801   */\n      slt\n        /* \"#utility.yul\":766:885   */\n      iszero\n      tag_120\n      jumpi\n        /* \"#utility.yul\":804:883   */\n      tag_121\n      tag_78\n      jump\t// in\n    tag_121:\n        /* \"#utility.yul\":766:885   */\n    tag_120:\n        /* \"#utility.yul\":924:925   */\n      0x00\n        /* \"#utility.yul\":949:1002   */\n      tag_122\n        /* \"#utility.yul\":994:1001   */\n      dup5\n        /* \"#utility.yul\":985:991   */\n      dup3\n        /* \"#utility.yul\":974:983   */\n      dup6\n        /* \"#utility.yul\":970:992   */\n      add\n        /* \"#utility.yul\":949:1002   */\n      tag_82\n      jump\t// in\n    tag_122:\n        /* \"#utility.yul\":939:1002   */\n      swap2\n      pop\n        /* \"#utility.yul\":895:1012   */\n      pop\n        /* \"#utility.yul\":690:1019   */\n      swap3\n      swap2\n      pop\n      pop\n      jump\t// out\n        /* \"#utility.yul\":1025:1143   */\n    tag_83:\n        /* \"#utility.yul\":1112:1136   */\n      tag_124\n        /* \"#utility.yul\":1130:1135   */\n      dup2\n        /* \"#utility.yul\":1112:1136   */\n      tag_80\n      jump\t// in\n    tag_124:\n        /* \"#utility.yul\":1107:1110   */\n      dup3\n        /* \"#utility.yul\":1100:1137   */\n      mstore\n        /* \"#utility.yul\":1025:1143   */\n      pop\n      pop\n      jump\t// out\n        /* \"#utility.yul\":1149:1371   */\n    tag_12:\n        /* \"#utility.yul\":1242:1246   */\n      0x00\n        /* \"#utility.yul\":1280:1282   */\n      0x20\n        /* \"#utility.yul\":1269:1278   */\n      dup3\n        /* \"#utility.yul\":1265:1283   */\n      add\n        /* \"#utility.yul\":1257:1283   */\n      swap1\n      pop\n        /* \"#utility.yul\":1293:1364   */\n      tag_126\n        /* \"#utility.yul\":1361:1362   */\n      0x00\n        /* \"#utility.yul\":1350:1359   */\n      dup4\n        /* \"#utility.yul\":1346:1363   */\n      add\n        /* \"#utility.yul\":1337:1343   */\n      dup5\n        /* \"#utility.yul\":1293:1364   */\n      tag_83\n      jump\t// in\n    tag_126:\n        /* \"#utility.yul\":1149:1371   */\n      swap3\n      swap2\n      pop\n      pop\n      jump\t// out\n        /* \"#utility.yul\":1377:1491   */\n    tag_84:\n        /* \"#utility.yul\":1444:1450   */\n      0x00\n        /* \"#utility.yul\":1478:1483   */\n      dup2\n        /* \"#utility.yul\":1472:1484   */\n      mload\n        /* \"#utility.yul\":1462:1484   */\n      swap1\n      pop\n        /* \"#utility.yul\":1377:1491   */\n      swap2\n      swap1\n      pop\n      jump\t// out\n        /* \"#utility.yul\":1497:1681   */\n    tag_85:\n        /* \"#utility.yul\":1596:1607   */\n      0x00\n        /* \"#utility.yul\":1630:1636   */\n      dup3\n        /* \"#utility.yul\":1625:1628   */\n      dup3\n        /* \"#utility.yul\":1618:1637   */\n      mstore\n        /* \"#utility.yul\":1670:1674   */\n      0x20\n        /* \"#utility.yul\":1665:1668   */\n      dup3\n        /* \"#utility.yul\":1661:1675   */\n      add\n        /* \"#utility.yul\":1646:1675   */\n      swap1\n      pop\n        /* \"#utility.yul\":1497:1681   */\n      swap3\n      swap2\n      pop\n      pop\n      jump\t// out\n        /* \"#utility.yul\":1687:1819   */\n    tag_86:\n        /* \"#utility.yul\":1754:1758   */\n      0x00\n        /* \"#utility.yul\":1777:1780   */\n      dup2\n        /* \"#utility.yul\":1769:1780   */\n      swap1\n      pop\n        /* \"#utility.yul\":1807:1811   */\n      0x20\n        /* \"#utility.yul\":1802:1805   */\n      dup3\n        /* \"#utility.yul\":1798:1812   */\n      add\n        /* \"#utility.yul\":1790:1812   */\n      swap1\n      pop\n        /* \"#utility.yul\":1687:1819   */\n      swap2\n      swap1\n      pop\n      jump\t// out\n        /* \"#utility.yul\":1825:1933   */\n    tag_87:\n        /* \"#utility.yul\":1902:1926   */\n      tag_131\n        /* \"#utility.yul\":1920:1925   */\n      dup2\n        /* \"#utility.yul\":1902:1926   */\n      tag_80\n      jump\t// in\n    tag_131:\n        /* \"#utility.yul\":1897:1900   */\n      dup3\n        /* \"#utility.yul\":1890:1927   */\n      mstore\n        /* \"#utility.yul\":1825:1933   */\n      pop\n      pop\n      jump\t// out\n        /* \"#utility.yul\":1939:2118   */\n    tag_88:\n        /* \"#utility.yul\":2008:2018   */\n      0x00\n        /* \"#utility.yul\":2029:2075   */\n      tag_133\n        /* \"#utility.yul\":2071:2074   */\n      dup4\n        /* \"#utility.yul\":2063:2069   */\n      dup4\n        /* \"#utility.yul\":2029:2075   */\n      tag_87\n      jump\t// in\n    tag_133:\n        /* \"#utility.yul\":2107:2111   */\n      0x20\n        /* \"#utility.yul\":2102:2105   */\n      dup4\n        /* \"#utility.yul\":2098:2112   */\n      add\n        /* \"#utility.yul\":2084:2112   */\n      swap1\n      pop\n        /* \"#utility.yul\":1939:2118   */\n      swap3\n      swap2\n      pop\n      pop\n      jump\t// out\n        /* \"#utility.yul\":2124:2237   */\n    tag_89:\n        /* \"#utility.yul\":2194:2198   */\n      0x00\n        /* \"#utility.yul\":2226:2230   */\n      0x20\n        /* \"#utility.yul\":2221:2224   */\n      dup3\n        /* \"#utility.yul\":2217:2231   */\n      add\n        /* \"#utility.yul\":2209:2231   */\n      swap1\n      pop\n        /* \"#utility.yul\":2124:2237   */\n      swap2\n      swap1\n      pop\n      jump\t// out\n        /* \"#utility.yul\":2273:3005   */\n    tag_90:\n        /* \"#utility.yul\":2392:2395   */\n      0x00\n        /* \"#utility.yul\":2421:2475   */\n      tag_136\n        /* \"#utility.yul\":2469:2474   */\n      dup3\n        /* \"#utility.yul\":2421:2475   */\n      tag_84\n      jump\t// in\n    tag_136:\n        /* \"#utility.yul\":2491:2577   */\n      tag_137\n        /* \"#utility.yul\":2570:2576   */\n      dup2\n        /* \"#utility.yul\":2565:2568   */\n      dup6\n        /* \"#utility.yul\":2491:2577   */\n      tag_85\n      jump\t// in\n    tag_137:\n        /* \"#utility.yul\":2484:2577   */\n      swap4\n      pop\n        /* \"#utility.yul\":2601:2657   */\n      tag_138\n        /* \"#utility.yul\":2651:2656   */\n      dup4\n        /* \"#utility.yul\":2601:2657   */\n      tag_86\n      jump\t// in\n    tag_138:\n        /* \"#utility.yul\":2680:2687   */\n      dup1\n        /* \"#utility.yul\":2711:2712   */\n      0x00\n        /* \"#utility.yul\":2696:2980   */\n    tag_139:\n        /* \"#utility.yul\":2721:2727   */\n      dup4\n        /* \"#utility.yul\":2718:2719   */\n      dup2\n        /* \"#utility.yul\":2715:2728   */\n      lt\n        /* \"#utility.yul\":2696:2980   */\n      iszero\n      tag_141\n      jumpi\n        /* \"#utility.yul\":2797:2803   */\n      dup2\n        /* \"#utility.yul\":2791:2804   */\n      mload\n        /* \"#utility.yul\":2824:2887   */\n      tag_142\n        /* \"#utility.yul\":2883:2886   */\n      dup9\n        /* \"#utility.yul\":2868:2881   */\n      dup3\n        /* \"#utility.yul\":2824:2887   */\n      tag_88\n      jump\t// in\n    tag_142:\n        /* \"#utility.yul\":2817:2887   */\n      swap8\n      pop\n        /* \"#utility.yul\":2910:2970   */\n      tag_143\n        /* \"#utility.yul\":2963:2969   */\n      dup4\n        /* \"#utility.yul\":2910:2970   */\n      tag_89\n      jump\t// in\n    tag_143:\n        /* \"#utility.yul\":2900:2970   */\n      swap3\n      pop\n        /* \"#utility.yul\":2756:2980   */\n      pop\n        /* \"#utility.yul\":2743:2744   */\n      0x01\n        /* \"#utility.yul\":2740:2741   */\n      dup2\n        /* \"#utility.yul\":2736:2745   */\n      add\n        /* \"#utility.yul\":2731:2745   */\n      swap1\n      pop\n        /* \"#utility.yul\":2696:2980   */\n      jump(tag_139)\n    tag_141:\n        /* \"#utility.yul\":2700:2714   */\n      pop\n        /* \"#utility.yul\":2996:2999   */\n      dup6\n        /* \"#utility.yul\":2989:2999   */\n      swap4\n      pop\n        /* \"#utility.yul\":2397:3005   */\n      pop\n      pop\n      pop\n        /* \"#utility.yul\":2273:3005   */\n      swap3\n      swap2\n      pop\n      pop\n      jump\t// out\n        /* \"#utility.yul\":3011:3384   */\n    tag_16:\n        /* \"#utility.yul\":3154:3158   */\n      0x00\n        /* \"#utility.yul\":3192:3194   */\n      0x20\n        /* \"#utility.yul\":3181:3190   */\n      dup3\n        /* \"#utility.yul\":3177:3195   */\n      add\n        /* \"#utility.yul\":3169:3195   */\n      swap1\n      pop\n        /* \"#utility.yul\":3241:3250   */\n      dup2\n        /* \"#utility.yul\":3235:3239   */\n      dup2\n        /* \"#utility.yul\":3231:3251   */\n      sub\n        /* \"#utility.yul\":3227:3228   */\n      0x00\n        /* \"#utility.yul\":3216:3225   */\n      dup4\n        /* \"#utility.yul\":3212:3229   */\n      add\n        /* \"#utility.yul\":3205:3252   */\n      mstore\n        /* \"#utility.yul\":3269:3377   */\n      tag_145\n        /* \"#utility.yul\":3372:3376   */\n      dup2\n        /* \"#utility.yul\":3363:3369   */\n      dup5\n        /* \"#utility.yul\":3269:3377   */\n      tag_90\n      jump\t// in\n    tag_145:\n        /* \"#utility.yul\":3261:3377   */\n      swap1\n      pop\n        /* \"#utility.yul\":3011:3384   */\n      swap3\n      swap2\n      pop\n      pop\n      jump\t// out\n        /* \"#utility.yul\":3390:3504   */\n    tag_91:\n        /* \"#utility.yul\":3457:3463   */\n      0x00\n        /* \"#utility.yul\":3491:3496   */\n      dup2\n        /* \"#utility.yul\":3485:3497   */\n      mload\n        /* \"#utility.yul\":3475:3497   */\n      swap1\n      pop\n        /* \"#utility.yul\":3390:3504   */\n      swap2\n      swap1\n      pop\n      jump\t// out\n        /* \"#utility.yul\":3510:3694   */\n    tag_92:\n        /* \"#utility.yul\":3609:3620   */\n      0x00\n        /* \"#utility.yul\":3643:3649   */\n      dup3\n        /* \"#utility.yul\":3638:3641   */\n      dup3\n        /* \"#utility.yul\":3631:3650   */\n      mstore\n        /* \"#utility.yul\":3683:3687   */\n      0x20\n        /* \"#utility.yul\":3678:3681   */\n      dup3\n        /* \"#utility.yul\":3674:3688   */\n      add\n        /* \"#utility.yul\":3659:3688   */\n      swap1\n      pop\n        /* \"#utility.yul\":3510:3694   */\n      swap3\n      swap2\n      pop\n      pop\n      jump\t// out\n        /* \"#utility.yul\":3700:3832   */\n    tag_93:\n        /* \"#utility.yul\":3767:3771   */\n      0x00\n        /* \"#utility.yul\":3790:3793   */\n      dup2\n        /* \"#utility.yul\":3782:3793   */\n      swap1\n      pop\n        /* \"#utility.yul\":3820:3824   */\n      0x20\n        /* \"#utility.yul\":3815:3818   */\n      dup3\n        /* \"#utility.yul\":3811:3825   */\n      add\n        /* \"#utility.yul\":3803:3825   */\n      swap1\n      pop\n        /* \"#utility.yul\":3700:3832   */\n      swap2\n      swap1\n      pop\n      jump\t// out\n        /* \"#utility.yul\":3838:3964   */\n    tag_94:\n        /* \"#utility.yul\":3875:3882   */\n      0x00\n        /* \"#utility.yul\":3915:3957   */\n      0xffffffffffffffffffffffffffffffffffffffff\n        /* \"#utility.yul\":3908:3913   */\n      dup3\n        /* \"#utility.yul\":3904:3958   */\n      and\n        /* \"#utility.yul\":3893:3958   */\n      swap1\n      pop\n        /* \"#utility.yul\":3838:3964   */\n      swap2\n      swap1\n      pop\n      jump\t// out\n        /* \"#utility.yul\":3970:4066   */\n    tag_95:\n        /* \"#utility.yul\":4007:4014   */\n      0x00\n        /* \"#utility.yul\":4036:4060   */\n      tag_151\n        /* \"#utility.yul\":4054:4059   */\n      dup3\n        /* \"#utility.yul\":4036:4060   */\n      tag_94\n      jump\t// in\n    tag_151:\n        /* \"#utility.yul\":4025:4060   */\n      swap1\n      pop\n        /* \"#utility.yul\":3970:4066   */\n      swap2\n      swap1\n      pop\n      jump\t// out\n        /* \"#utility.yul\":4072:4180   */\n    tag_96:\n        /* \"#utility.yul\":4149:4173   */\n      tag_153\n        /* \"#utility.yul\":4167:4172   */\n      dup2\n        /* \"#utility.yul\":4149:4173   */\n      tag_95\n      jump\t// in\n    tag_153:\n        /* \"#utility.yul\":4144:4147   */\n      dup3\n        /* \"#utility.yul\":4137:4174   */\n      mstore\n        /* \"#utility.yul\":4072:4180   */\n      pop\n      pop\n      jump\t// out\n        /* \"#utility.yul\":4186:4365   */\n    tag_97:\n        /* \"#utility.yul\":4255:4265   */\n      0x00\n        /* \"#utility.yul\":4276:4322   */\n      tag_155\n        /* \"#utility.yul\":4318:4321   */\n      dup4\n        /* \"#utility.yul\":4310:4316   */\n      dup4\n        /* \"#utility.yul\":4276:4322   */\n      tag_96\n      jump\t// in\n    tag_155:\n        /* \"#utility.yul\":4354:4358   */\n      0x20\n        /* \"#utility.yul\":4349:4352   */\n      dup4\n        /* \"#utility.yul\":4345:4359   */\n      add\n        /* \"#utility.yul\":4331:4359   */\n      swap1\n      pop\n        /* \"#utility.yul\":4186:4365   */\n      swap3\n      swap2\n      pop\n      pop\n      jump\t// out\n        /* \"#utility.yul\":4371:4484   */\n    tag_98:\n        /* \"#utility.yul\":4441:4445   */\n      0x00\n        /* \"#utility.yul\":4473:4477   */\n      0x20\n        /* \"#utility.yul\":4468:4471   */\n      dup3\n        /* \"#utility.yul\":4464:4478   */\n      add\n        /* \"#utility.yul\":4456:4478   */\n      swap1\n      pop\n        /* \"#utility.yul\":4371:4484   */\n      swap2\n      swap1\n      pop\n      jump\t// out\n        /* \"#utility.yul\":4520:5252   */\n    tag_99:\n        /* \"#utility.yul\":4639:4642   */\n      0x00\n        /* \"#utility.yul\":4668:4722   */\n      tag_158\n        /* \"#utility.yul\":4716:4721   */\n      dup3\n        /* \"#utility.yul\":4668:4722   */\n      tag_91\n      jump\t// in\n    tag_158:\n        /* \"#utility.yul\":4738:4824   */\n      tag_159\n        /* \"#utility.yul\":4817:4823   */\n      dup2\n        /* \"#utility.yul\":4812:4815   */\n      dup6\n        /* \"#utility.yul\":4738:4824   */\n      tag_92\n      jump\t// in\n    tag_159:\n        /* \"#utility.yul\":4731:4824   */\n      swap4\n      pop\n        /* \"#utility.yul\":4848:4904   */\n      tag_160\n        /* \"#utility.yul\":4898:4903   */\n      dup4\n        /* \"#utility.yul\":4848:4904   */\n      tag_93\n      jump\t// in\n    tag_160:\n        /* \"#utility.yul\":4927:4934   */\n      dup1\n        /* \"#utility.yul\":4958:4959   */\n      0x00\n        /* \"#utility.yul\":4943:5227   */\n    tag_161:\n        /* \"#utility.yul\":4968:4974   */\n      dup4\n        /* \"#utility.yul\":4965:4966   */\n      dup2\n        /* \"#utility.yul\":4962:4975   */\n      lt\n        /* \"#utility.yul\":4943:5227   */\n      iszero\n      tag_163\n      jumpi\n        /* \"#utility.yul\":5044:5050   */\n      dup2\n        /* \"#utility.yul\":5038:5051   */\n      mload\n        /* \"#utility.yul\":5071:5134   */\n      tag_164\n        /* \"#utility.yul\":5130:5133   */\n      dup9\n        /* \"#utility.yul\":5115:5128   */\n      dup3\n        /* \"#utility.yul\":5071:5134   */\n      tag_97\n      jump\t// in\n    tag_164:\n        /* \"#utility.yul\":5064:5134   */\n      swap8\n      pop\n        /* \"#utility.yul\":5157:5217   */\n      tag_165\n        /* \"#utility.yul\":5210:5216   */\n      dup4\n        /* \"#utility.yul\":5157:5217   */\n      tag_98\n      jump\t// in\n    tag_165:\n        /* \"#utility.yul\":5147:5217   */\n      swap3\n      pop\n        /* \"#utility.yul\":5003:5227   */\n      pop\n        /* \"#utility.yul\":4990:4991   */\n      0x01\n        /* \"#utility.yul\":4987:4988   */\n      dup2\n        /* \"#utility.yul\":4983:4992   */\n      add\n        /* \"#utility.yul\":4978:4992   */\n      swap1\n      pop\n        /* \"#utility.yul\":4943:5227   */\n      jump(tag_161)\n    tag_163:\n        /* \"#utility.yul\":4947:4961   */\n      pop\n        /* \"#utility.yul\":5243:5246   */\n      dup6\n        /* \"#utility.yul\":5236:5246   */\n      swap4\n      pop\n        /* \"#utility.yul\":4644:5252   */\n      pop\n      pop\n      pop\n        /* \"#utility.yul\":4520:5252   */\n      swap3\n      swap2\n      pop\n      pop\n      jump\t// out\n        /* \"#utility.yul\":5258:5892   */\n    tag_21:\n        /* \"#utility.yul\":5479:5483   */\n      0x00\n        /* \"#utility.yul\":5517:5519   */\n      0x40\n        /* \"#utility.yul\":5506:5515   */\n      dup3\n        /* \"#utility.yul\":5502:5520   */\n      add\n        /* \"#utility.yul\":5494:5520   */\n      swap1\n      pop\n        /* \"#utility.yul\":5566:5575   */\n      dup2\n        /* \"#utility.yul\":5560:5564   */\n      dup2\n        /* \"#utility.yul\":5556:5576   */\n      sub\n        /* \"#utility.yul\":5552:5553   */\n      0x00\n        /* \"#utility.yul\":5541:5550   */\n      dup4\n        /* \"#utility.yul\":5537:5554   */\n      add\n        /* \"#utility.yul\":5530:5577   */\n      mstore\n        /* \"#utility.yul\":5594:5702   */\n      tag_167\n        /* \"#utility.yul\":5697:5701   */\n      dup2\n        /* \"#utility.yul\":5688:5694   */\n      dup6\n        /* \"#utility.yul\":5594:5702   */\n      tag_99\n      jump\t// in\n    tag_167:\n        /* \"#utility.yul\":5586:5702   */\n      swap1\n      pop\n        /* \"#utility.yul\":5749:5758   */\n      dup2\n        /* \"#utility.yul\":5743:5747   */\n      dup2\n        /* \"#utility.yul\":5739:5759   */\n      sub\n        /* \"#utility.yul\":5734:5736   */\n      0x20\n        /* \"#utility.yul\":5723:5732   */\n      dup4\n        /* \"#utility.yul\":5719:5737   */\n      add\n        /* \"#utility.yul\":5712:5760   */\n      mstore\n        /* \"#utility.yul\":5777:5885   */\n      tag_168\n        /* \"#utility.yul\":5880:5884   */\n      dup2\n        /* \"#utility.yul\":5871:5877   */\n      dup5\n        /* \"#utility.yul\":5777:5885   */\n      tag_90\n      jump\t// in\n    tag_168:\n        /* \"#utility.yul\":5769:5885   */\n      swap1\n      pop\n        /* \"#utility.yul\":5258:5892   */\n      swap4\n      swap3\n      pop\n      pop\n      pop\n      jump\t// out\n        /* \"#utility.yul\":5898:6372   */\n    tag_24:\n        /* \"#utility.yul\":5966:5972   */\n      0x00\n        /* \"#utility.yul\":5974:5980   */\n      dup1\n        /* \"#utility.yul\":6023:6025   */\n      0x40\n        /* \"#utility.yul\":6011:6020   */\n      dup4\n        /* \"#utility.yul\":6002:6009   */\n      dup6\n        /* \"#utility.yul\":5998:6021   */\n      sub\n        /* \"#utility.yul\":5994:6026   */\n      slt\n        /* \"#utility.yul\":5991:6110   */\n      iszero\n      tag_170\n      jumpi\n        /* \"#utility.yul\":6029:6108   */\n      tag_171\n      tag_78\n      jump\t// in\n    tag_171:\n        /* \"#utility.yul\":5991:6110   */\n    tag_170:\n        /* \"#utility.yul\":6149:6150   */\n      0x00\n        /* \"#utility.yul\":6174:6227   */\n      tag_172\n        /* \"#utility.yul\":6219:6226   */\n      dup6\n        /* \"#utility.yul\":6210:6216   */\n      dup3\n        /* \"#utility.yul\":6199:6208   */\n      dup7\n        /* \"#utility.yul\":6195:6217   */\n      add\n        /* \"#utility.yul\":6174:6227   */\n      tag_82\n      jump\t// in\n    tag_172:\n        /* \"#utility.yul\":6164:6227   */\n      swap3\n      pop\n        /* \"#utility.yul\":6120:6237   */\n      pop\n        /* \"#utility.yul\":6276:6278   */\n      0x20\n        /* \"#utility.yul\":6302:6355   */\n      tag_173\n        /* \"#utility.yul\":6347:6354   */\n      dup6\n        /* \"#utility.yul\":6338:6344   */\n      dup3\n        /* \"#utility.yul\":6327:6336   */\n      dup7\n        /* \"#utility.yul\":6323:6345   */\n      add\n        /* \"#utility.yul\":6302:6355   */\n      tag_82\n      jump\t// in\n    tag_173:\n        /* \"#utility.yul\":6292:6355   */\n      swap2\n      pop\n        /* \"#utility.yul\":6247:6365   */\n      pop\n        /* \"#utility.yul\":5898:6372   */\n      swap3\n      pop\n      swap3\n      swap1\n      pop\n      jump\t// out\n        /* \"#utility.yul\":6378:6547   */\n    tag_100:\n        /* \"#utility.yul\":6462:6473   */\n      0x00\n        /* \"#utility.yul\":6496:6502   */\n      dup3\n        /* \"#utility.yul\":6491:6494   */\n      dup3\n        /* \"#utility.yul\":6484:6503   */\n      mstore\n        /* \"#utility.yul\":6536:6540   */\n      0x20\n        /* \"#utility.yul\":6531:6534   */\n      dup3\n        /* \"#utility.yul\":6527:6541   */\n      add\n        /* \"#utility.yul\":6512:6541   */\n      swap1\n      pop\n        /* \"#utility.yul\":6378:6547   */\n      swap3\n      swap2\n      pop\n      pop\n      jump\t// out\n        /* \"#utility.yul\":6553:6724   */\n    tag_101:\n        /* \"#utility.yul\":6693:6716   */\n      0x4e6f206578697374696e67206167656e64612069640000000000000000000000\n        /* \"#utility.yul\":6689:6690   */\n      0x00\n        /* \"#utility.yul\":6681:6687   */\n      dup3\n        /* \"#utility.yul\":6677:6691   */\n      add\n        /* \"#utility.yul\":6670:6717   */\n      mstore\n        /* \"#utility.yul\":6553:6724   */\n      pop\n      jump\t// out\n        /* \"#utility.yul\":6730:7096   */\n    tag_102:\n        /* \"#utility.yul\":6872:6875   */\n      0x00\n        /* \"#utility.yul\":6893:6960   */\n      tag_177\n        /* \"#utility.yul\":6957:6959   */\n      0x15\n        /* \"#utility.yul\":6952:6955   */\n      dup4\n        /* \"#utility.yul\":6893:6960   */\n      tag_100\n      jump\t// in\n    tag_177:\n        /* \"#utility.yul\":6886:6960   */\n      swap2\n      pop\n        /* \"#utility.yul\":6969:7062   */\n      tag_178\n        /* \"#utility.yul\":7058:7061   */\n      dup3\n        /* \"#utility.yul\":6969:7062   */\n      tag_101\n      jump\t// in\n    tag_178:\n        /* \"#utility.yul\":7087:7089   */\n      0x20\n        /* \"#utility.yul\":7082:7085   */\n      dup3\n        /* \"#utility.yul\":7078:7090   */\n      add\n        /* \"#utility.yul\":7071:7090   */\n      swap1\n      pop\n        /* \"#utility.yul\":6730:7096   */\n      swap2\n      swap1\n      pop\n      jump\t// out\n        /* \"#utility.yul\":7102:7521   */\n    tag_38:\n        /* \"#utility.yul\":7268:7272   */\n      0x00\n        /* \"#utility.yul\":7306:7308   */\n      0x20\n        /* \"#utility.yul\":7295:7304   */\n      dup3\n        /* \"#utility.yul\":7291:7309   */\n      add\n        /* \"#utility.yul\":7283:7309   */\n      swap1\n      pop\n        /* \"#utility.yul\":7355:7364   */\n      dup2\n        /* \"#utility.yul\":7349:7353   */\n      dup2\n        /* \"#utility.yul\":7345:7365   */\n      sub\n        /* \"#utility.yul\":7341:7342   */\n      0x00\n        /* \"#utility.yul\":7330:7339   */\n      dup4\n        /* \"#utility.yul\":7326:7343   */\n      add\n        /* \"#utility.yul\":7319:7366   */\n      mstore\n        /* \"#utility.yul\":7383:7514   */\n      tag_180\n        /* \"#utility.yul\":7509:7513   */\n      dup2\n        /* \"#utility.yul\":7383:7514   */\n      tag_102\n      jump\t// in\n    tag_180:\n        /* \"#utility.yul\":7375:7514   */\n      swap1\n      pop\n        /* \"#utility.yul\":7102:7521   */\n      swap2\n      swap1\n      pop\n      jump\t// out\n        /* \"#utility.yul\":7527:7696   */\n    tag_103:\n        /* \"#utility.yul\":7667:7688   */\n      0x3020746f6b656e207472616e7366657272656400000000000000000000000000\n        /* \"#utility.yul\":7663:7664   */\n      0x00\n        /* \"#utility.yul\":7655:7661   */\n      dup3\n        /* \"#utility.yul\":7651:7665   */\n      add\n        /* \"#utility.yul\":7644:7689   */\n      mstore\n        /* \"#utility.yul\":7527:7696   */\n      pop\n      jump\t// out\n        /* \"#utility.yul\":7702:8068   */\n    tag_104:\n        /* \"#utility.yul\":7844:7847   */\n      0x00\n        /* \"#utility.yul\":7865:7932   */\n      tag_183\n        /* \"#utility.yul\":7929:7931   */\n      0x13\n        /* \"#utility.yul\":7924:7927   */\n      dup4\n        /* \"#utility.yul\":7865:7932   */\n      tag_100\n      jump\t// in\n    tag_183:\n        /* \"#utility.yul\":7858:7932   */\n      swap2\n      pop\n        /* \"#utility.yul\":7941:8034   */\n      tag_184\n        /* \"#utility.yul\":8030:8033   */\n      dup3\n        /* \"#utility.yul\":7941:8034   */\n      tag_103\n      jump\t// in\n    tag_184:\n        /* \"#utility.yul\":8059:8061   */\n      0x20\n        /* \"#utility.yul\":8054:8057   */\n      dup3\n        /* \"#utility.yul\":8050:8062   */\n      add\n        /* \"#utility.yul\":8043:8062   */\n      swap1\n      pop\n        /* \"#utility.yul\":7702:8068   */\n      swap2\n      swap1\n      pop\n      jump\t// out\n        /* \"#utility.yul\":8074:8493   */\n    tag_41:\n        /* \"#utility.yul\":8240:8244   */\n      0x00\n        /* \"#utility.yul\":8278:8280   */\n      0x20\n        /* \"#utility.yul\":8267:8276   */\n      dup3\n        /* \"#utility.yul\":8263:8281   */\n      add\n        /* \"#utility.yul\":8255:8281   */\n      swap1\n      pop\n        /* \"#utility.yul\":8327:8336   */\n      dup2\n        /* \"#utility.yul\":8321:8325   */\n      dup2\n        /* \"#utility.yul\":8317:8337   */\n      sub\n        /* \"#utility.yul\":8313:8314   */\n      0x00\n        /* \"#utility.yul\":8302:8311   */\n      dup4\n        /* \"#utility.yul\":8298:8315   */\n      add\n        /* \"#utility.yul\":8291:8338   */\n      mstore\n        /* \"#utility.yul\":8355:8486   */\n      tag_186\n        /* \"#utility.yul\":8481:8485   */\n      dup2\n        /* \"#utility.yul\":8355:8486   */\n      tag_104\n      jump\t// in\n    tag_186:\n        /* \"#utility.yul\":8347:8486   */\n      swap1\n      pop\n        /* \"#utility.yul\":8074:8493   */\n      swap2\n      swap1\n      pop\n      jump\t// out\n        /* \"#utility.yul\":8499:8679   */\n    tag_105:\n        /* \"#utility.yul\":8547:8624   */\n      0x4e487b7100000000000000000000000000000000000000000000000000000000\n        /* \"#utility.yul\":8544:8545   */\n      0x00\n        /* \"#utility.yul\":8537:8625   */\n      mstore\n        /* \"#utility.yul\":8644:8648   */\n      0x11\n        /* \"#utility.yul\":8641:8642   */\n      0x04\n        /* \"#utility.yul\":8634:8649   */\n      mstore\n        /* \"#utility.yul\":8668:8672   */\n      0x24\n        /* \"#utility.yul\":8665:8666   */\n      0x00\n        /* \"#utility.yul\":8658:8673   */\n      revert\n        /* \"#utility.yul\":8685:8876   */\n    tag_43:\n        /* \"#utility.yul\":8725:8728   */\n      0x00\n        /* \"#utility.yul\":8744:8764   */\n      tag_189\n        /* \"#utility.yul\":8762:8763   */\n      dup3\n        /* \"#utility.yul\":8744:8764   */\n      tag_80\n      jump\t// in\n    tag_189:\n        /* \"#utility.yul\":8739:8764   */\n      swap2\n      pop\n        /* \"#utility.yul\":8778:8798   */\n      tag_190\n        /* \"#utility.yul\":8796:8797   */\n      dup4\n        /* \"#utility.yul\":8778:8798   */\n      tag_80\n      jump\t// in\n    tag_190:\n        /* \"#utility.yul\":8773:8798   */\n      swap3\n      pop\n        /* \"#utility.yul\":8821:8822   */\n      dup3\n        /* \"#utility.yul\":8818:8819   */\n      dup3\n        /* \"#utility.yul\":8814:8823   */\n      add\n        /* \"#utility.yul\":8807:8823   */\n      swap1\n      pop\n        /* \"#utility.yul\":8842:8845   */\n      dup1\n        /* \"#utility.yul\":8839:8840   */\n      dup3\n        /* \"#utility.yul\":8836:8846   */\n      gt\n        /* \"#utility.yul\":8833:8869   */\n      iszero\n      tag_191\n      jumpi\n        /* \"#utility.yul\":8849:8867   */\n      tag_192\n      tag_105\n      jump\t// in\n    tag_192:\n        /* \"#utility.yul\":8833:8869   */\n    tag_191:\n        /* \"#utility.yul\":8685:8876   */\n      swap3\n      swap2\n      pop\n      pop\n      jump\t// out\n        /* \"#utility.yul\":8882:9107   */\n    tag_106:\n        /* \"#utility.yul\":9022:9056   */\n      0x4d6178696d756d20617661696c61626c6520746f6b656e20696e707574206578\n        /* \"#utility.yul\":9018:9019   */\n      0x00\n        /* \"#utility.yul\":9010:9016   */\n      dup3\n        /* \"#utility.yul\":9006:9020   */\n      add\n        /* \"#utility.yul\":8999:9057   */\n      mstore\n        /* \"#utility.yul\":9091:9099   */\n      0x6365656465640000000000000000000000000000000000000000000000000000\n        /* \"#utility.yul\":9086:9088   */\n      0x20\n        /* \"#utility.yul\":9078:9084   */\n      dup3\n        /* \"#utility.yul\":9074:9089   */\n      add\n        /* \"#utility.yul\":9067:9100   */\n      mstore\n        /* \"#utility.yul\":8882:9107   */\n      pop\n      jump\t// out\n        /* \"#utility.yul\":9113:9479   */\n    tag_107:\n        /* \"#utility.yul\":9255:9258   */\n      0x00\n        /* \"#utility.yul\":9276:9343   */\n      tag_195\n        /* \"#utility.yul\":9340:9342   */\n      0x26\n        /* \"#utility.yul\":9335:9338   */\n      dup4\n        /* \"#utility.yul\":9276:9343   */\n      tag_100\n      jump\t// in\n    tag_195:\n        /* \"#utility.yul\":9269:9343   */\n      swap2\n      pop\n        /* \"#utility.yul\":9352:9445   */\n      tag_196\n        /* \"#utility.yul\":9441:9444   */\n      dup3\n        /* \"#utility.yul\":9352:9445   */\n      tag_106\n      jump\t// in\n    tag_196:\n        /* \"#utility.yul\":9470:9472   */\n      0x40\n        /* \"#utility.yul\":9465:9468   */\n      dup3\n        /* \"#utility.yul\":9461:9473   */\n      add\n        /* \"#utility.yul\":9454:9473   */\n      swap1\n      pop\n        /* \"#utility.yul\":9113:9479   */\n      swap2\n      swap1\n      pop\n      jump\t// out\n        /* \"#utility.yul\":9485:9904   */\n    tag_46:\n        /* \"#utility.yul\":9651:9655   */\n      0x00\n        /* \"#utility.yul\":9689:9691   */\n      0x20\n        /* \"#utility.yul\":9678:9687   */\n      dup3\n        /* \"#utility.yul\":9674:9692   */\n      add\n        /* \"#utility.yul\":9666:9692   */\n      swap1\n      pop\n        /* \"#utility.yul\":9738:9747   */\n      dup2\n        /* \"#utility.yul\":9732:9736   */\n      dup2\n        /* \"#utility.yul\":9728:9748   */\n      sub\n        /* \"#utility.yul\":9724:9725   */\n      0x00\n        /* \"#utility.yul\":9713:9722   */\n      dup4\n        /* \"#utility.yul\":9709:9726   */\n      add\n        /* \"#utility.yul\":9702:9749   */\n      mstore\n        /* \"#utility.yul\":9766:9897   */\n      tag_198\n        /* \"#utility.yul\":9892:9896   */\n      dup2\n        /* \"#utility.yul\":9766:9897   */\n      tag_107\n      jump\t// in\n    tag_198:\n        /* \"#utility.yul\":9758:9897   */\n      swap1\n      pop\n        /* \"#utility.yul\":9485:9904   */\n      swap2\n      swap1\n      pop\n      jump\t// out\n        /* \"#utility.yul\":9910:10090   */\n    tag_53:\n        /* \"#utility.yul\":9958:10035   */\n      0x4e487b7100000000000000000000000000000000000000000000000000000000\n        /* \"#utility.yul\":9955:9956   */\n      0x00\n        /* \"#utility.yul\":9948:10036   */\n      mstore\n        /* \"#utility.yul\":10055:10059   */\n      0x32\n        /* \"#utility.yul\":10052:10053   */\n      0x04\n        /* \"#utility.yul\":10045:10060   */\n      mstore\n        /* \"#utility.yul\":10079:10083   */\n      0x24\n        /* \"#utility.yul\":10076:10077   */\n      0x00\n        /* \"#utility.yul\":10069:10084   */\n      revert\n        /* \"#utility.yul\":10096:10214   */\n    tag_108:\n        /* \"#utility.yul\":10183:10207   */\n      tag_201\n        /* \"#utility.yul\":10201:10206   */\n      dup2\n        /* \"#utility.yul\":10183:10207   */\n      tag_95\n      jump\t// in\n    tag_201:\n        /* \"#utility.yul\":10178:10181   */\n      dup3\n        /* \"#utility.yul\":10171:10208   */\n      mstore\n        /* \"#utility.yul\":10096:10214   */\n      pop\n      pop\n      jump\t// out\n        /* \"#utility.yul\":10220:10552   */\n    tag_60:\n        /* \"#utility.yul\":10341:10345   */\n      0x00\n        /* \"#utility.yul\":10379:10381   */\n      0x40\n        /* \"#utility.yul\":10368:10377   */\n      dup3\n        /* \"#utility.yul\":10364:10382   */\n      add\n        /* \"#utility.yul\":10356:10382   */\n      swap1\n      pop\n        /* \"#utility.yul\":10392:10463   */\n      tag_203\n        /* \"#utility.yul\":10460:10461   */\n      0x00\n        /* \"#utility.yul\":10449:10458   */\n      dup4\n        /* \"#utility.yul\":10445:10462   */\n      add\n        /* \"#utility.yul\":10436:10442   */\n      dup6\n        /* \"#utility.yul\":10392:10463   */\n      tag_108\n      jump\t// in\n    tag_203:\n        /* \"#utility.yul\":10473:10545   */\n      tag_204\n        /* \"#utility.yul\":10541:10543   */\n      0x20\n        /* \"#utility.yul\":10530:10539   */\n      dup4\n        /* \"#utility.yul\":10526:10544   */\n      add\n        /* \"#utility.yul\":10517:10523   */\n      dup5\n        /* \"#utility.yul\":10473:10545   */\n      tag_83\n      jump\t// in\n    tag_204:\n        /* \"#utility.yul\":10220:10552   */\n      swap4\n      swap3\n      pop\n      pop\n      pop\n      jump\t// out\n        /* \"#utility.yul\":10558:10738   */\n    tag_67:\n        /* \"#utility.yul\":10606:10683   */\n      0x4e487b7100000000000000000000000000000000000000000000000000000000\n        /* \"#utility.yul\":10603:10604   */\n      0x00\n        /* \"#utility.yul\":10596:10684   */\n      mstore\n        /* \"#utility.yul\":10703:10707   */\n      0x41\n        /* \"#utility.yul\":10700:10701   */\n      0x04\n        /* \"#utility.yul\":10693:10708   */\n      mstore\n        /* \"#utility.yul\":10727:10731   */\n      0x24\n        /* \"#utility.yul\":10724:10725   */\n      0x00\n        /* \"#utility.yul\":10717:10732   */\n      revert\n\n    auxdata: 0xa2646970667358221220074b74abdcfc4641199ed0b1b5528a78ba842862b57834af82c1e688c473d58a64736f6c63430008180033\n}\n",
				"bytecode": {
					"linkReferences": {},
					"object": "608060405273adb8d027111ae2cb88e3c00730af8eeecbc21ca85f806101000a81548173ffffffffffffffffffffffffffffffffffffffff021916908373ffffffffffffffffffffffffffffffffffffffff1602179055505f8054906101000a900473ffffffffffffffffffffffffffffffffffffffff1660015f6101000a81548173ffffffffffffffffffffffffffffffffffffffff021916908373ffffffffffffffffffffffffffffffffffffffff16021790555060015f9054906101000a900473ffffffffffffffffffffffffffffffffffffffff1673ffffffffffffffffffffffffffffffffffffffff16637e3cd5c46040518163ffffffff1660e01b8152600401602060405180830381865afa158015610120573d5f803e3d5ffd5b505050506040513d601f19601f8201168201806040525081019061014491906101d4565b6003556064600455348015610157575f80fd5b503360025f6101000a81548173ffffffffffffffffffffffffffffffffffffffff021916908373ffffffffffffffffffffffffffffffffffffffff1602179055506101ff565b5f80fd5b5f819050919050565b6101b3816101a1565b81146101bd575f80fd5b50565b5f815190506101ce816101aa565b92915050565b5f602082840312156101e9576101e861019d565b5b5f6101f6848285016101c0565b91505092915050565b610ba98061020c5f395ff3fe608060405234801561000f575f80fd5b5060043610610049575f3560e01c80629b93691461004d57806313d8ac9e1461007d5780638f6339941461009b578063b384abef146100cc575b5f80fd5b61006760048036038101906100629190610691565b6100e8565b60405161007491906106cb565b60405180910390f35b610085610105565b604051610092919061079b565b60405180910390f35b6100b560048036038101906100b09190610691565b61015b565b6040516100c39291906108a2565b60405180910390f35b6100e660048036038101906100e191906108d7565b61020d565b005b5f60065f8381526020019081526020015f20600101549050919050565b6060600580548060200260200160405190810160405280929190818152602001828054801561015157602002820191905f5260205f20905b81548152602001906001019080831161013d575b5050505050905090565b6060805f60065f8581526020019081526020015f209050805f0161017e8261053f565b818054806020026020016040519081016040528092919081815260200182805480156101fc57602002820191905f5260205f20905b815f9054906101000a900473ffffffffffffffffffffffffffffffffffffffff1673ffffffffffffffffffffffffffffffffffffffff16815260200190600101908083116101b3575b505050505091509250925050915091565b600354821115610252576040517f08c379a00000000000000000000000000000000000000000000000000000000081526004016102499061096f565b60405180910390fd5b5f8111610294576040517f08c379a000000000000000000000000000000000000000000000000000000000815260040161028b906109d7565b60405180910390fd5b6004548160065f8581526020019081526020015f20600101546102b79190610a22565b11156102f8576040517f08c379a00000000000000000000000000000000000000000000000000000000081526004016102ef90610ac5565b60405180910390fd5b5f60065f8481526020019081526020015f20905081816001015f82825461031f9190610a22565b925050819055505f805b825f01805490508110156103bc573373ffffffffffffffffffffffffffffffffffffffff16835f01828154811061036357610362610ae3565b5b905f5260205f20015f9054906101000a900473ffffffffffffffffffffffffffffffffffffffff1673ffffffffffffffffffffffffffffffffffffffff16036103af57600191506103bc565b8080600101915050610329565b508061042457815f0133908060018154018082558091505060019003905f5260205f20015f9091909190916101000a81548173ffffffffffffffffffffffffffffffffffffffff021916908373ffffffffffffffffffffffffffffffffffffffff1602179055505b82826002015f3373ffffffffffffffffffffffffffffffffffffffff1673ffffffffffffffffffffffffffffffffffffffff1681526020019081526020015f205f8282546104729190610a22565b925050819055507ff668ead05c744b9178e571d2edb452e72baf6529c8d72160e64e59b50d865bd033846040516104aa929190610b1f565b60405180910390a160045482600101540361053957600584908060018154018082558091505060019003905f5260205f20015f90919091909150556001826003015f6101000a81548160ff0219169083151502179055507ff3ecdc9ffda52c5ad69793c567cb456f83bba2d14f196542e0be80c919a8bda38460405161053091906106cb565b60405180910390a15b50505050565b60605f825f018054905067ffffffffffffffff81111561056257610561610b46565b5b6040519080825280602002602001820160405280156105905781602001602082028036833780820191505090505b5090505f5b835f0180549050811015610650575f845f0182815481106105b9576105b8610ae3565b5b905f5260205f20015f9054906101000a900473ffffffffffffffffffffffffffffffffffffffff169050846002015f8273ffffffffffffffffffffffffffffffffffffffff1673ffffffffffffffffffffffffffffffffffffffff1681526020019081526020015f205483838151811061063657610635610ae3565b5b602002602001018181525050508080600101915050610595565b5080915050919050565b5f80fd5b5f819050919050565b6106708161065e565b811461067a575f80fd5b50565b5f8135905061068b81610667565b92915050565b5f602082840312156106a6576106a561065a565b5b5f6106b38482850161067d565b91505092915050565b6106c58161065e565b82525050565b5f6020820190506106de5f8301846106bc565b92915050565b5f81519050919050565b5f82825260208201905092915050565b5f819050602082019050919050565b6107168161065e565b82525050565b5f610727838361070d565b60208301905092915050565b5f602082019050919050565b5f610749826106e4565b61075381856106ee565b935061075e836106fe565b805f5b8381101561078e578151610775888261071c565b975061078083610733565b925050600181019050610761565b5085935050505092915050565b5f6020820190508181035f8301526107b3818461073f565b905092915050565b5f81519050919050565b5f82825260208201905092915050565b5f819050602082019050919050565b5f73ffffffffffffffffffffffffffffffffffffffff82169050919050565b5f61080d826107e4565b9050919050565b61081d81610803565b82525050565b5f61082e8383610814565b60208301905092915050565b5f602082019050919050565b5f610850826107bb565b61085a81856107c5565b9350610865836107d5565b805f5b8381101561089557815161087c8882610823565b97506108878361083a565b925050600181019050610868565b5085935050505092915050565b5f6040820190508181035f8301526108ba8185610846565b905081810360208301526108ce818461073f565b90509392505050565b5f80604083850312156108ed576108ec61065a565b5b5f6108fa8582860161067d565b925050602061090b8582860161067d565b9150509250929050565b5f82825260208201905092915050565b7f4e6f206578697374696e67206167656e646120696400000000000000000000005f82015250565b5f610959601583610915565b915061096482610925565b602082019050919050565b5f6020820190508181035f8301526109868161094d565b9050919050565b7f3020746f6b656e207472616e73666572726564000000000000000000000000005f82015250565b5f6109c1601383610915565b91506109cc8261098d565b602082019050919050565b5f6020820190508181035f8301526109ee816109b5565b9050919050565b7f4e487b71000000000000000000000000000000000000000000000000000000005f52601160045260245ffd5b5f610a2c8261065e565b9150610a378361065e565b9250828201905080821115610a4f57610a4e6109f5565b5b92915050565b7f4d6178696d756d20617661696c61626c6520746f6b656e20696e7075742065785f8201527f6365656465640000000000000000000000000000000000000000000000000000602082015250565b5f610aaf602683610915565b9150610aba82610a55565b604082019050919050565b5f6020820190508181035f830152610adc81610aa3565b9050919050565b7f4e487b71000000000000000000000000000000000000000000000000000000005f52603260045260245ffd5b610b1981610803565b82525050565b5f604082019050610b325f830185610b10565b610b3f60208301846106bc565b9392505050565b7f4e487b71000000000000000000000000000000000000000000000000000000005f52604160045260245ffdfea2646970667358221220074b74abdcfc4641199ed0b1b5528a78ba842862b57834af82c1e688c473d58a64736f6c63430008180033",
					"opcodes": "PUSH1 0x80 PUSH1 0x40 MSTORE PUSH20 0xADB8D027111AE2CB88E3C00730AF8EEECBC21CA8 PUSH0 DUP1 PUSH2 0x100 EXP DUP2 SLOAD DUP2 PUSH20 0xFFFFFFFFFFFFFFFFFFFFFFFFFFFFFFFFFFFFFFFF MUL NOT AND SWAP1 DUP4 PUSH20 0xFFFFFFFFFFFFFFFFFFFFFFFFFFFFFFFFFFFFFFFF AND MUL OR SWAP1 SSTORE POP PUSH0 DUP1 SLOAD SWAP1 PUSH2 0x100 EXP SWAP1 DIV PUSH20 0xFFFFFFFFFFFFFFFFFFFFFFFFFFFFFFFFFFFFFFFF AND PUSH1 0x1 PUSH0 PUSH2 0x100 EXP DUP2 SLOAD DUP2 PUSH20 0xFFFFFFFFFFFFFFFFFFFFFFFFFFFFFFFFFFFFFFFF MUL NOT AND SWAP1 DUP4 PUSH20 0xFFFFFFFFFFFFFFFFFFFFFFFFFFFFFFFFFFFFFFFF AND MUL OR SWAP1 SSTORE POP PUSH1 0x1 PUSH0 SWAP1 SLOAD SWAP1 PUSH2 0x100 EXP SWAP1 DIV PUSH20 0xFFFFFFFFFFFFFFFFFFFFFFFFFFFFFFFFFFFFFFFF AND PUSH20 0xFFFFFFFFFFFFFFFFFFFFFFFFFFFFFFFFFFFFFFFF AND PUSH4 0x7E3CD5C4 PUSH1 0x40 MLOAD DUP2 PUSH4 0xFFFFFFFF AND PUSH1 0xE0 SHL DUP2 MSTORE PUSH1 0x4 ADD PUSH1 0x20 PUSH1 0x40 MLOAD DUP1 DUP4 SUB DUP2 DUP7 GAS STATICCALL ISZERO DUP1 ISZERO PUSH2 0x120 JUMPI RETURNDATASIZE PUSH0 DUP1 RETURNDATACOPY RETURNDATASIZE PUSH0 REVERT JUMPDEST POP POP POP POP PUSH1 0x40 MLOAD RETURNDATASIZE PUSH1 0x1F NOT PUSH1 0x1F DUP3 ADD AND DUP3 ADD DUP1 PUSH1 0x40 MSTORE POP DUP2 ADD SWAP1 PUSH2 0x144 SWAP2 SWAP1 PUSH2 0x1D4 JUMP JUMPDEST PUSH1 0x3 SSTORE PUSH1 0x64 PUSH1 0x4 SSTORE CALLVALUE DUP1 ISZERO PUSH2 0x157 JUMPI PUSH0 DUP1 REVERT JUMPDEST POP CALLER PUSH1 0x2 PUSH0 PUSH2 0x100 EXP DUP2 SLOAD DUP2 PUSH20 0xFFFFFFFFFFFFFFFFFFFFFFFFFFFFFFFFFFFFFFFF MUL NOT AND SWAP1 DUP4 PUSH20 0xFFFFFFFFFFFFFFFFFFFFFFFFFFFFFFFFFFFFFFFF AND MUL OR SWAP1 SSTORE POP PUSH2 0x1FF JUMP JUMPDEST PUSH0 DUP1 REVERT JUMPDEST PUSH0 DUP2 SWAP1 POP SWAP2 SWAP1 POP JUMP JUMPDEST PUSH2 0x1B3 DUP2 PUSH2 0x1A1 JUMP JUMPDEST DUP2 EQ PUSH2 0x1BD JUMPI PUSH0 DUP1 REVERT JUMPDEST POP JUMP JUMPDEST PUSH0 DUP2 MLOAD SWAP1 POP PUSH2 0x1CE DUP2 PUSH2 0x1AA JUMP JUMPDEST SWAP3 SWAP2 POP POP JUMP JUMPDEST PUSH0 PUSH1 0x20 DUP3 DUP5 SUB SLT ISZERO PUSH2 0x1E9 JUMPI PUSH2 0x1E8 PUSH2 0x19D JUMP JUMPDEST JUMPDEST PUSH0 PUSH2 0x1F6 DUP5 DUP3 DUP6 ADD PUSH2 0x1C0 JUMP JUMPDEST SWAP2 POP POP SWAP3 SWAP2 POP POP JUMP JUMPDEST PUSH2 0xBA9 DUP1 PUSH2 0x20C PUSH0 CODECOPY PUSH0 RETURN INVALID PUSH1 0x80 PUSH1 0x40 MSTORE CALLVALUE DUP1 ISZERO PUSH2 0xF JUMPI PUSH0 DUP1 REVERT JUMPDEST POP PUSH1 0x4 CALLDATASIZE LT PUSH2 0x49 JUMPI PUSH0 CALLDATALOAD PUSH1 0xE0 SHR DUP1 PUSH3 0x9B9369 EQ PUSH2 0x4D JUMPI DUP1 PUSH4 0x13D8AC9E EQ PUSH2 0x7D JUMPI DUP1 PUSH4 0x8F633994 EQ PUSH2 0x9B JUMPI DUP1 PUSH4 0xB384ABEF EQ PUSH2 0xCC JUMPI JUMPDEST PUSH0 DUP1 REVERT JUMPDEST PUSH2 0x67 PUSH1 0x4 DUP1 CALLDATASIZE SUB DUP2 ADD SWAP1 PUSH2 0x62 SWAP2 SWAP1 PUSH2 0x691 JUMP JUMPDEST PUSH2 0xE8 JUMP JUMPDEST PUSH1 0x40 MLOAD PUSH2 0x74 SWAP2 SWAP1 PUSH2 0x6CB JUMP JUMPDEST PUSH1 0x40 MLOAD DUP1 SWAP2 SUB SWAP1 RETURN JUMPDEST PUSH2 0x85 PUSH2 0x105 JUMP JUMPDEST PUSH1 0x40 MLOAD PUSH2 0x92 SWAP2 SWAP1 PUSH2 0x79B JUMP JUMPDEST PUSH1 0x40 MLOAD DUP1 SWAP2 SUB SWAP1 RETURN JUMPDEST PUSH2 0xB5 PUSH1 0x4 DUP1 CALLDATASIZE SUB DUP2 ADD SWAP1 PUSH2 0xB0 SWAP2 SWAP1 PUSH2 0x691 JUMP JUMPDEST PUSH2 0x15B JUMP JUMPDEST PUSH1 0x40 MLOAD PUSH2 0xC3 SWAP3 SWAP2 SWAP1 PUSH2 0x8A2 JUMP JUMPDEST PUSH1 0x40 MLOAD DUP1 SWAP2 SUB SWAP1 RETURN JUMPDEST PUSH2 0xE6 PUSH1 0x4 DUP1 CALLDATASIZE SUB DUP2 ADD SWAP1 PUSH2 0xE1 SWAP2 SWAP1 PUSH2 0x8D7 JUMP JUMPDEST PUSH2 0x20D JUMP JUMPDEST STOP JUMPDEST PUSH0 PUSH1 0x6 PUSH0 DUP4 DUP2 MSTORE PUSH1 0x20 ADD SWAP1 DUP2 MSTORE PUSH1 0x20 ADD PUSH0 KECCAK256 PUSH1 0x1 ADD SLOAD SWAP1 POP SWAP2 SWAP1 POP JUMP JUMPDEST PUSH1 0x60 PUSH1 0x5 DUP1 SLOAD DUP1 PUSH1 0x20 MUL PUSH1 0x20 ADD PUSH1 0x40 MLOAD SWAP1 DUP2 ADD PUSH1 0x40 MSTORE DUP1 SWAP3 SWAP2 SWAP1 DUP2 DUP2 MSTORE PUSH1 0x20 ADD DUP3 DUP1 SLOAD DUP1 ISZERO PUSH2 0x151 JUMPI PUSH1 0x20 MUL DUP3 ADD SWAP2 SWAP1 PUSH0 MSTORE PUSH1 0x20 PUSH0 KECCAK256 SWAP1 JUMPDEST DUP2 SLOAD DUP2 MSTORE PUSH1 0x20 ADD SWAP1 PUSH1 0x1 ADD SWAP1 DUP1 DUP4 GT PUSH2 0x13D JUMPI JUMPDEST POP POP POP POP POP SWAP1 POP SWAP1 JUMP JUMPDEST PUSH1 0x60 DUP1 PUSH0 PUSH1 0x6 PUSH0 DUP6 DUP2 MSTORE PUSH1 0x20 ADD SWAP1 DUP2 MSTORE PUSH1 0x20 ADD PUSH0 KECCAK256 SWAP1 POP DUP1 PUSH0 ADD PUSH2 0x17E DUP3 PUSH2 0x53F JUMP JUMPDEST DUP2 DUP1 SLOAD DUP1 PUSH1 0x20 MUL PUSH1 0x20 ADD PUSH1 0x40 MLOAD SWAP1 DUP2 ADD PUSH1 0x40 MSTORE DUP1 SWAP3 SWAP2 SWAP1 DUP2 DUP2 MSTORE PUSH1 0x20 ADD DUP3 DUP1 SLOAD DUP1 ISZERO PUSH2 0x1FC JUMPI PUSH1 0x20 MUL DUP3 ADD SWAP2 SWAP1 PUSH0 MSTORE PUSH1 0x20 PUSH0 KECCAK256 SWAP1 JUMPDEST DUP2 PUSH0 SWAP1 SLOAD SWAP1 PUSH2 0x100 EXP SWAP1 DIV PUSH20 0xFFFFFFFFFFFFFFFFFFFFFFFFFFFFFFFFFFFFFFFF AND PUSH20 0xFFFFFFFFFFFFFFFFFFFFFFFFFFFFFFFFFFFFFFFF AND DUP2 MSTORE PUSH1 0x20 ADD SWAP1 PUSH1 0x1 ADD SWAP1 DUP1 DUP4 GT PUSH2 0x1B3 JUMPI JUMPDEST POP POP POP POP POP SWAP2 POP SWAP3 POP SWAP3 POP POP SWAP2 POP SWAP2 JUMP JUMPDEST PUSH1 0x3 SLOAD DUP3 GT ISZERO PUSH2 0x252 JUMPI PUSH1 0x40 MLOAD PUSH32 0x8C379A000000000000000000000000000000000000000000000000000000000 DUP2 MSTORE PUSH1 0x4 ADD PUSH2 0x249 SWAP1 PUSH2 0x96F JUMP JUMPDEST PUSH1 0x40 MLOAD DUP1 SWAP2 SUB SWAP1 REVERT JUMPDEST PUSH0 DUP2 GT PUSH2 0x294 JUMPI PUSH1 0x40 MLOAD PUSH32 0x8C379A000000000000000000000000000000000000000000000000000000000 DUP2 MSTORE PUSH1 0x4 ADD PUSH2 0x28B SWAP1 PUSH2 0x9D7 JUMP JUMPDEST PUSH1 0x40 MLOAD DUP1 SWAP2 SUB SWAP1 REVERT JUMPDEST PUSH1 0x4 SLOAD DUP2 PUSH1 0x6 PUSH0 DUP6 DUP2 MSTORE PUSH1 0x20 ADD SWAP1 DUP2 MSTORE PUSH1 0x20 ADD PUSH0 KECCAK256 PUSH1 0x1 ADD SLOAD PUSH2 0x2B7 SWAP2 SWAP1 PUSH2 0xA22 JUMP JUMPDEST GT ISZERO PUSH2 0x2F8 JUMPI PUSH1 0x40 MLOAD PUSH32 0x8C379A000000000000000000000000000000000000000000000000000000000 DUP2 MSTORE PUSH1 0x4 ADD PUSH2 0x2EF SWAP1 PUSH2 0xAC5 JUMP JUMPDEST PUSH1 0x40 MLOAD DUP1 SWAP2 SUB SWAP1 REVERT JUMPDEST PUSH0 PUSH1 0x6 PUSH0 DUP5 DUP2 MSTORE PUSH1 0x20 ADD SWAP1 DUP2 MSTORE PUSH1 0x20 ADD PUSH0 KECCAK256 SWAP1 POP DUP2 DUP2 PUSH1 0x1 ADD PUSH0 DUP3 DUP3 SLOAD PUSH2 0x31F SWAP2 SWAP1 PUSH2 0xA22 JUMP JUMPDEST SWAP3 POP POP DUP2 SWAP1 SSTORE POP PUSH0 DUP1 JUMPDEST DUP3 PUSH0 ADD DUP1 SLOAD SWAP1 POP DUP2 LT ISZERO PUSH2 0x3BC JUMPI CALLER PUSH20 0xFFFFFFFFFFFFFFFFFFFFFFFFFFFFFFFFFFFFFFFF AND DUP4 PUSH0 ADD DUP3 DUP2 SLOAD DUP2 LT PUSH2 0x363 JUMPI PUSH2 0x362 PUSH2 0xAE3 JUMP JUMPDEST JUMPDEST SWAP1 PUSH0 MSTORE PUSH1 0x20 PUSH0 KECCAK256 ADD PUSH0 SWAP1 SLOAD SWAP1 PUSH2 0x100 EXP SWAP1 DIV PUSH20 0xFFFFFFFFFFFFFFFFFFFFFFFFFFFFFFFFFFFFFFFF AND PUSH20 0xFFFFFFFFFFFFFFFFFFFFFFFFFFFFFFFFFFFFFFFF AND SUB PUSH2 0x3AF JUMPI PUSH1 0x1 SWAP2 POP PUSH2 0x3BC JUMP JUMPDEST DUP1 DUP1 PUSH1 0x1 ADD SWAP2 POP POP PUSH2 0x329 JUMP JUMPDEST POP DUP1 PUSH2 0x424 JUMPI DUP2 PUSH0 ADD CALLER SWAP1 DUP1 PUSH1 0x1 DUP2 SLOAD ADD DUP1 DUP3 SSTORE DUP1 SWAP2 POP POP PUSH1 0x1 SWAP1 SUB SWAP1 PUSH0 MSTORE PUSH1 0x20 PUSH0 KECCAK256 ADD PUSH0 SWAP1 SWAP2 SWAP1 SWAP2 SWAP1 SWAP2 PUSH2 0x100 EXP DUP2 SLOAD DUP2 PUSH20 0xFFFFFFFFFFFFFFFFFFFFFFFFFFFFFFFFFFFFFFFF MUL NOT AND SWAP1 DUP4 PUSH20 0xFFFFFFFFFFFFFFFFFFFFFFFFFFFFFFFFFFFFFFFF AND MUL OR SWAP1 SSTORE POP JUMPDEST DUP3 DUP3 PUSH1 0x2 ADD PUSH0 CALLER PUSH20 0xFFFFFFFFFFFFFFFFFFFFFFFFFFFFFFFFFFFFFFFF AND PUSH20 0xFFFFFFFFFFFFFFFFFFFFFFFFFFFFFFFFFFFFFFFF AND DUP2 MSTORE PUSH1 0x20 ADD SWAP1 DUP2 MSTORE PUSH1 0x20 ADD PUSH0 KECCAK256 PUSH0 DUP3 DUP3 SLOAD PUSH2 0x472 SWAP2 SWAP1 PUSH2 0xA22 JUMP JUMPDEST SWAP3 POP POP DUP2 SWAP1 SSTORE POP PUSH32 0xF668EAD05C744B9178E571D2EDB452E72BAF6529C8D72160E64E59B50D865BD0 CALLER DUP5 PUSH1 0x40 MLOAD PUSH2 0x4AA SWAP3 SWAP2 SWAP1 PUSH2 0xB1F JUMP JUMPDEST PUSH1 0x40 MLOAD DUP1 SWAP2 SUB SWAP1 LOG1 PUSH1 0x4 SLOAD DUP3 PUSH1 0x1 ADD SLOAD SUB PUSH2 0x539 JUMPI PUSH1 0x5 DUP5 SWAP1 DUP1 PUSH1 0x1 DUP2 SLOAD ADD DUP1 DUP3 SSTORE DUP1 SWAP2 POP POP PUSH1 0x1 SWAP1 SUB SWAP1 PUSH0 MSTORE PUSH1 0x20 PUSH0 KECCAK256 ADD PUSH0 SWAP1 SWAP2 SWAP1 SWAP2 SWAP1 SWAP2 POP SSTORE PUSH1 0x1 DUP3 PUSH1 0x3 ADD PUSH0 PUSH2 0x100 EXP DUP2 SLOAD DUP2 PUSH1 0xFF MUL NOT AND SWAP1 DUP4 ISZERO ISZERO MUL OR SWAP1 SSTORE POP PUSH32 0xF3ECDC9FFDA52C5AD69793C567CB456F83BBA2D14F196542E0BE80C919A8BDA3 DUP5 PUSH1 0x40 MLOAD PUSH2 0x530 SWAP2 SWAP1 PUSH2 0x6CB JUMP JUMPDEST PUSH1 0x40 MLOAD DUP1 SWAP2 SUB SWAP1 LOG1 JUMPDEST POP POP POP POP JUMP JUMPDEST PUSH1 0x60 PUSH0 DUP3 PUSH0 ADD DUP1 SLOAD SWAP1 POP PUSH8 0xFFFFFFFFFFFFFFFF DUP2 GT ISZERO PUSH2 0x562 JUMPI PUSH2 0x561 PUSH2 0xB46 JUMP JUMPDEST JUMPDEST PUSH1 0x40 MLOAD SWAP1 DUP1 DUP3 MSTORE DUP1 PUSH1 0x20 MUL PUSH1 0x20 ADD DUP3 ADD PUSH1 0x40 MSTORE DUP1 ISZERO PUSH2 0x590 JUMPI DUP2 PUSH1 0x20 ADD PUSH1 0x20 DUP3 MUL DUP1 CALLDATASIZE DUP4 CALLDATACOPY DUP1 DUP3 ADD SWAP2 POP POP SWAP1 POP JUMPDEST POP SWAP1 POP PUSH0 JUMPDEST DUP4 PUSH0 ADD DUP1 SLOAD SWAP1 POP DUP2 LT ISZERO PUSH2 0x650 JUMPI PUSH0 DUP5 PUSH0 ADD DUP3 DUP2 SLOAD DUP2 LT PUSH2 0x5B9 JUMPI PUSH2 0x5B8 PUSH2 0xAE3 JUMP JUMPDEST JUMPDEST SWAP1 PUSH0 MSTORE PUSH1 0x20 PUSH0 KECCAK256 ADD PUSH0 SWAP1 SLOAD SWAP1 PUSH2 0x100 EXP SWAP1 DIV PUSH20 0xFFFFFFFFFFFFFFFFFFFFFFFFFFFFFFFFFFFFFFFF AND SWAP1 POP DUP5 PUSH1 0x2 ADD PUSH0 DUP3 PUSH20 0xFFFFFFFFFFFFFFFFFFFFFFFFFFFFFFFFFFFFFFFF AND PUSH20 0xFFFFFFFFFFFFFFFFFFFFFFFFFFFFFFFFFFFFFFFF AND DUP2 MSTORE PUSH1 0x20 ADD SWAP1 DUP2 MSTORE PUSH1 0x20 ADD PUSH0 KECCAK256 SLOAD DUP4 DUP4 DUP2 MLOAD DUP2 LT PUSH2 0x636 JUMPI PUSH2 0x635 PUSH2 0xAE3 JUMP JUMPDEST JUMPDEST PUSH1 0x20 MUL PUSH1 0x20 ADD ADD DUP2 DUP2 MSTORE POP POP POP DUP1 DUP1 PUSH1 0x1 ADD SWAP2 POP POP PUSH2 0x595 JUMP JUMPDEST POP DUP1 SWAP2 POP POP SWAP2 SWAP1 POP JUMP JUMPDEST PUSH0 DUP1 REVERT JUMPDEST PUSH0 DUP2 SWAP1 POP SWAP2 SWAP1 POP JUMP JUMPDEST PUSH2 0x670 DUP2 PUSH2 0x65E JUMP JUMPDEST DUP2 EQ PUSH2 0x67A JUMPI PUSH0 DUP1 REVERT JUMPDEST POP JUMP JUMPDEST PUSH0 DUP2 CALLDATALOAD SWAP1 POP PUSH2 0x68B DUP2 PUSH2 0x667 JUMP JUMPDEST SWAP3 SWAP2 POP POP JUMP JUMPDEST PUSH0 PUSH1 0x20 DUP3 DUP5 SUB SLT ISZERO PUSH2 0x6A6 JUMPI PUSH2 0x6A5 PUSH2 0x65A JUMP JUMPDEST JUMPDEST PUSH0 PUSH2 0x6B3 DUP5 DUP3 DUP6 ADD PUSH2 0x67D JUMP JUMPDEST SWAP2 POP POP SWAP3 SWAP2 POP POP JUMP JUMPDEST PUSH2 0x6C5 DUP2 PUSH2 0x65E JUMP JUMPDEST DUP3 MSTORE POP POP JUMP JUMPDEST PUSH0 PUSH1 0x20 DUP3 ADD SWAP1 POP PUSH2 0x6DE PUSH0 DUP4 ADD DUP5 PUSH2 0x6BC JUMP JUMPDEST SWAP3 SWAP2 POP POP JUMP JUMPDEST PUSH0 DUP2 MLOAD SWAP1 POP SWAP2 SWAP1 POP JUMP JUMPDEST PUSH0 DUP3 DUP3 MSTORE PUSH1 0x20 DUP3 ADD SWAP1 POP SWAP3 SWAP2 POP POP JUMP JUMPDEST PUSH0 DUP2 SWAP1 POP PUSH1 0x20 DUP3 ADD SWAP1 POP SWAP2 SWAP1 POP JUMP JUMPDEST PUSH2 0x716 DUP2 PUSH2 0x65E JUMP JUMPDEST DUP3 MSTORE POP POP JUMP JUMPDEST PUSH0 PUSH2 0x727 DUP4 DUP4 PUSH2 0x70D JUMP JUMPDEST PUSH1 0x20 DUP4 ADD SWAP1 POP SWAP3 SWAP2 POP POP JUMP JUMPDEST PUSH0 PUSH1 0x20 DUP3 ADD SWAP1 POP SWAP2 SWAP1 POP JUMP JUMPDEST PUSH0 PUSH2 0x749 DUP3 PUSH2 0x6E4 JUMP JUMPDEST PUSH2 0x753 DUP2 DUP6 PUSH2 0x6EE JUMP JUMPDEST SWAP4 POP PUSH2 0x75E DUP4 PUSH2 0x6FE JUMP JUMPDEST DUP1 PUSH0 JUMPDEST DUP4 DUP2 LT ISZERO PUSH2 0x78E JUMPI DUP2 MLOAD PUSH2 0x775 DUP9 DUP3 PUSH2 0x71C JUMP JUMPDEST SWAP8 POP PUSH2 0x780 DUP4 PUSH2 0x733 JUMP JUMPDEST SWAP3 POP POP PUSH1 0x1 DUP2 ADD SWAP1 POP PUSH2 0x761 JUMP JUMPDEST POP DUP6 SWAP4 POP POP POP POP SWAP3 SWAP2 POP POP JUMP JUMPDEST PUSH0 PUSH1 0x20 DUP3 ADD SWAP1 POP DUP2 DUP2 SUB PUSH0 DUP4 ADD MSTORE PUSH2 0x7B3 DUP2 DUP5 PUSH2 0x73F JUMP JUMPDEST SWAP1 POP SWAP3 SWAP2 POP POP JUMP JUMPDEST PUSH0 DUP2 MLOAD SWAP1 POP SWAP2 SWAP1 POP JUMP JUMPDEST PUSH0 DUP3 DUP3 MSTORE PUSH1 0x20 DUP3 ADD SWAP1 POP SWAP3 SWAP2 POP POP JUMP JUMPDEST PUSH0 DUP2 SWAP1 POP PUSH1 0x20 DUP3 ADD SWAP1 POP SWAP2 SWAP1 POP JUMP JUMPDEST PUSH0 PUSH20 0xFFFFFFFFFFFFFFFFFFFFFFFFFFFFFFFFFFFFFFFF DUP3 AND SWAP1 POP SWAP2 SWAP1 POP JUMP JUMPDEST PUSH0 PUSH2 0x80D DUP3 PUSH2 0x7E4 JUMP JUMPDEST SWAP1 POP SWAP2 SWAP1 POP JUMP JUMPDEST PUSH2 0x81D DUP2 PUSH2 0x803 JUMP JUMPDEST DUP3 MSTORE POP POP JUMP JUMPDEST PUSH0 PUSH2 0x82E DUP4 DUP4 PUSH2 0x814 JUMP JUMPDEST PUSH1 0x20 DUP4 ADD SWAP1 POP SWAP3 SWAP2 POP POP JUMP JUMPDEST PUSH0 PUSH1 0x20 DUP3 ADD SWAP1 POP SWAP2 SWAP1 POP JUMP JUMPDEST PUSH0 PUSH2 0x850 DUP3 PUSH2 0x7BB JUMP JUMPDEST PUSH2 0x85A DUP2 DUP6 PUSH2 0x7C5 JUMP JUMPDEST SWAP4 POP PUSH2 0x865 DUP4 PUSH2 0x7D5 JUMP JUMPDEST DUP1 PUSH0 JUMPDEST DUP4 DUP2 LT ISZERO PUSH2 0x895 JUMPI DUP2 MLOAD PUSH2 0x87C DUP9 DUP3 PUSH2 0x823 JUMP JUMPDEST SWAP8 POP PUSH2 0x887 DUP4 PUSH2 0x83A JUMP JUMPDEST SWAP3 POP POP PUSH1 0x1 DUP2 ADD SWAP1 POP PUSH2 0x868 JUMP JUMPDEST POP DUP6 SWAP4 POP POP POP POP SWAP3 SWAP2 POP POP JUMP JUMPDEST PUSH0 PUSH1 0x40 DUP3 ADD SWAP1 POP DUP2 DUP2 SUB PUSH0 DUP4 ADD MSTORE PUSH2 0x8BA DUP2 DUP6 PUSH2 0x846 JUMP JUMPDEST SWAP1 POP DUP2 DUP2 SUB PUSH1 0x20 DUP4 ADD MSTORE PUSH2 0x8CE DUP2 DUP5 PUSH2 0x73F JUMP JUMPDEST SWAP1 POP SWAP4 SWAP3 POP POP POP JUMP JUMPDEST PUSH0 DUP1 PUSH1 0x40 DUP4 DUP6 SUB SLT ISZERO PUSH2 0x8ED JUMPI PUSH2 0x8EC PUSH2 0x65A JUMP JUMPDEST JUMPDEST PUSH0 PUSH2 0x8FA DUP6 DUP3 DUP7 ADD PUSH2 0x67D JUMP JUMPDEST SWAP3 POP POP PUSH1 0x20 PUSH2 0x90B DUP6 DUP3 DUP7 ADD PUSH2 0x67D JUMP JUMPDEST SWAP2 POP POP SWAP3 POP SWAP3 SWAP1 POP JUMP JUMPDEST PUSH0 DUP3 DUP3 MSTORE PUSH1 0x20 DUP3 ADD SWAP1 POP SWAP3 SWAP2 POP POP JUMP JUMPDEST PUSH32 0x4E6F206578697374696E67206167656E64612069640000000000000000000000 PUSH0 DUP3 ADD MSTORE POP JUMP JUMPDEST PUSH0 PUSH2 0x959 PUSH1 0x15 DUP4 PUSH2 0x915 JUMP JUMPDEST SWAP2 POP PUSH2 0x964 DUP3 PUSH2 0x925 JUMP JUMPDEST PUSH1 0x20 DUP3 ADD SWAP1 POP SWAP2 SWAP1 POP JUMP JUMPDEST PUSH0 PUSH1 0x20 DUP3 ADD SWAP1 POP DUP2 DUP2 SUB PUSH0 DUP4 ADD MSTORE PUSH2 0x986 DUP2 PUSH2 0x94D JUMP JUMPDEST SWAP1 POP SWAP2 SWAP1 POP JUMP JUMPDEST PUSH32 0x3020746F6B656E207472616E7366657272656400000000000000000000000000 PUSH0 DUP3 ADD MSTORE POP JUMP JUMPDEST PUSH0 PUSH2 0x9C1 PUSH1 0x13 DUP4 PUSH2 0x915 JUMP JUMPDEST SWAP2 POP PUSH2 0x9CC DUP3 PUSH2 0x98D JUMP JUMPDEST PUSH1 0x20 DUP3 ADD SWAP1 POP SWAP2 SWAP1 POP JUMP JUMPDEST PUSH0 PUSH1 0x20 DUP3 ADD SWAP1 POP DUP2 DUP2 SUB PUSH0 DUP4 ADD MSTORE PUSH2 0x9EE DUP2 PUSH2 0x9B5 JUMP JUMPDEST SWAP1 POP SWAP2 SWAP1 POP JUMP JUMPDEST PUSH32 0x4E487B7100000000000000000000000000000000000000000000000000000000 PUSH0 MSTORE PUSH1 0x11 PUSH1 0x4 MSTORE PUSH1 0x24 PUSH0 REVERT JUMPDEST PUSH0 PUSH2 0xA2C DUP3 PUSH2 0x65E JUMP JUMPDEST SWAP2 POP PUSH2 0xA37 DUP4 PUSH2 0x65E JUMP JUMPDEST SWAP3 POP DUP3 DUP3 ADD SWAP1 POP DUP1 DUP3 GT ISZERO PUSH2 0xA4F JUMPI PUSH2 0xA4E PUSH2 0x9F5 JUMP JUMPDEST JUMPDEST SWAP3 SWAP2 POP POP JUMP JUMPDEST PUSH32 0x4D6178696D756D20617661696C61626C6520746F6B656E20696E707574206578 PUSH0 DUP3 ADD MSTORE PUSH32 0x6365656465640000000000000000000000000000000000000000000000000000 PUSH1 0x20 DUP3 ADD MSTORE POP JUMP JUMPDEST PUSH0 PUSH2 0xAAF PUSH1 0x26 DUP4 PUSH2 0x915 JUMP JUMPDEST SWAP2 POP PUSH2 0xABA DUP3 PUSH2 0xA55 JUMP JUMPDEST PUSH1 0x40 DUP3 ADD SWAP1 POP SWAP2 SWAP1 POP JUMP JUMPDEST PUSH0 PUSH1 0x20 DUP3 ADD SWAP1 POP DUP2 DUP2 SUB PUSH0 DUP4 ADD MSTORE PUSH2 0xADC DUP2 PUSH2 0xAA3 JUMP JUMPDEST SWAP1 POP SWAP2 SWAP1 POP JUMP JUMPDEST PUSH32 0x4E487B7100000000000000000000000000000000000000000000000000000000 PUSH0 MSTORE PUSH1 0x32 PUSH1 0x4 MSTORE PUSH1 0x24 PUSH0 REVERT JUMPDEST PUSH2 0xB19 DUP2 PUSH2 0x803 JUMP JUMPDEST DUP3 MSTORE POP POP JUMP JUMPDEST PUSH0 PUSH1 0x40 DUP3 ADD SWAP1 POP PUSH2 0xB32 PUSH0 DUP4 ADD DUP6 PUSH2 0xB10 JUMP JUMPDEST PUSH2 0xB3F PUSH1 0x20 DUP4 ADD DUP5 PUSH2 0x6BC JUMP JUMPDEST SWAP4 SWAP3 POP POP POP JUMP JUMPDEST PUSH32 0x4E487B7100000000000000000000000000000000000000000000000000000000 PUSH0 MSTORE PUSH1 0x41 PUSH1 0x4 MSTORE PUSH1 0x24 PUSH0 REVERT INVALID LOG2 PUSH5 0x6970667358 0x22 SLT KECCAK256 SMOD 0x4B PUSH21 0xABDCFC4641199ED0B1B5528A78BA842862B57834AF DUP3 0xC1 0xE6 DUP9 0xC4 PUSH20 0xD58A64736F6C6343000818003300000000000000 "
				},
				"gasEstimates": {
					"creation": {
						"codeDepositCost": "597000",
						"executionCost": "infinite",
						"totalCost": "infinite"
					},
					"external": {
						"getListedAgendas()": "infinite",
						"getVoteNumber(uint256)": "infinite",
						"getVotingStatus(uint256)": "infinite",
						"vote(uint256,uint256)": "infinite"
					},
					"internal": {
						"getVoterTokenValues(struct VotingSystem.AgendaStatus storage pointer)": "infinite"
					}
				},
				"methodIdentifiers": {
					"getListedAgendas()": "13d8ac9e",
					"getVoteNumber(uint256)": "009b9369",
					"getVotingStatus(uint256)": "8f633994",
					"vote(uint256,uint256)": "b384abef"
				}
			},
			"storageLayout": {
				"storage": [
					{
						"astId": 38,
						"contract": "contracts/VotingSystem.sol:VotingSystem",
						"label": "APTAddress",
						"offset": 0,
						"slot": "0",
						"type": "t_address"
					},
					{
						"astId": 44,
						"contract": "contracts/VotingSystem.sol:VotingSystem",
						"label": "APTcontract",
						"offset": 0,
						"slot": "1",
						"type": "t_contract(APCInterface)14"
					},
					{
						"astId": 46,
						"contract": "contracts/VotingSystem.sol:VotingSystem",
						"label": "contractOwner",
						"offset": 0,
						"slot": "2",
						"type": "t_address"
					},
					{
						"astId": 51,
						"contract": "contracts/VotingSystem.sol:VotingSystem",
						"label": "totalAgendaNumber",
						"offset": 0,
						"slot": "3",
						"type": "t_uint256"
					},
					{
						"astId": 54,
						"contract": "contracts/VotingSystem.sol:VotingSystem",
						"label": "maxVoteToken",
						"offset": 0,
						"slot": "4",
						"type": "t_uint256"
					},
					{
						"astId": 57,
						"contract": "contracts/VotingSystem.sol:VotingSystem",
						"label": "listedAgendaId",
						"offset": 0,
						"slot": "5",
						"type": "t_array(t_uint256)dyn_storage"
					},
					{
						"astId": 74,
						"contract": "contracts/VotingSystem.sol:VotingSystem",
						"label": "idToAgendaData",
						"offset": 0,
						"slot": "6",
						"type": "t_mapping(t_uint256,t_struct(AgendaStatus)69_storage)"
					}
				],
				"types": {
					"t_address": {
						"encoding": "inplace",
						"label": "address",
						"numberOfBytes": "20"
					},
					"t_array(t_address)dyn_storage": {
						"base": "t_address",
						"encoding": "dynamic_array",
						"label": "address[]",
						"numberOfBytes": "32"
					},
					"t_array(t_uint256)dyn_storage": {
						"base": "t_uint256",
						"encoding": "dynamic_array",
						"label": "uint256[]",
						"numberOfBytes": "32"
					},
					"t_bool": {
						"encoding": "inplace",
						"label": "bool",
						"numberOfBytes": "1"
					},
					"t_contract(APCInterface)14": {
						"encoding": "inplace",
						"label": "contract APCInterface",
						"numberOfBytes": "20"
					},
					"t_mapping(t_address,t_uint256)": {
						"encoding": "mapping",
						"key": "t_address",
						"label": "mapping(address => uint256)",
						"numberOfBytes": "32",
						"value": "t_uint256"
					},
					"t_mapping(t_uint256,t_struct(AgendaStatus)69_storage)": {
						"encoding": "mapping",
						"key": "t_uint256",
						"label": "mapping(uint256 => struct VotingSystem.AgendaStatus)",
						"numberOfBytes": "32",
						"value": "t_struct(AgendaStatus)69_storage"
					},
					"t_struct(AgendaStatus)69_storage": {
						"encoding": "inplace",
						"label": "struct VotingSystem.AgendaStatus",
						"members": [
							{
								"astId": 60,
								"contract": "contracts/VotingSystem.sol:VotingSystem",
								"label": "voters",
								"offset": 0,
								"slot": "0",
								"type": "t_array(t_address)dyn_storage"
							},
							{
								"astId": 62,
								"contract": "contracts/VotingSystem.sol:VotingSystem",
								"label": "totalVotes",
								"offset": 0,
								"slot": "1",
								"type": "t_uint256"
							},
							{
								"astId": 66,
								"contract": "contracts/VotingSystem.sol:VotingSystem",
								"label": "voterTokenValue",
								"offset": 0,
								"slot": "2",
								"type": "t_mapping(t_address,t_uint256)"
							},
							{
								"astId": 68,
								"contract": "contracts/VotingSystem.sol:VotingSystem",
								"label": "isListed",
								"offset": 0,
								"slot": "3",
								"type": "t_bool"
							}
						],
						"numberOfBytes": "128"
					},
					"t_uint256": {
						"encoding": "inplace",
						"label": "uint256",
						"numberOfBytes": "32"
					}
				}
			},
			"userdoc": {
				"kind": "user",
				"methods": {},
				"version": 1
			}
		}
	}
}