{
	"contracts/VotingSystem.sol": {
		"VotingSystem": {
			"abi": [
				{
					"inputs": [],
					"stateMutability": "nonpayable",
					"type": "constructor"
				},
				{
					"anonymous": false,
					"inputs": [
						{
							"indexed": false,
							"internalType": "uint256",
							"name": "agendaTokenId",
							"type": "uint256"
						}
					],
					"name": "Listed",
					"type": "event"
				},
				{
					"anonymous": false,
					"inputs": [
						{
							"indexed": false,
							"internalType": "address",
							"name": "voterAddress",
							"type": "address"
						},
						{
							"indexed": false,
							"internalType": "uint256",
							"name": "amount",
							"type": "uint256"
						}
					],
					"name": "Vote",
					"type": "event"
				},
				{
					"inputs": [],
					"name": "getListedAgendas",
					"outputs": [
						{
							"internalType": "uint256[]",
							"name": "",
							"type": "uint256[]"
						}
					],
					"stateMutability": "view",
					"type": "function"
				},
				{
					"inputs": [
						{
							"internalType": "uint256",
							"name": "agendaTokenId",
							"type": "uint256"
						}
					],
					"name": "getVoteNumber",
					"outputs": [
						{
							"internalType": "uint256",
							"name": "",
							"type": "uint256"
						}
					],
					"stateMutability": "view",
					"type": "function"
				},
				{
					"inputs": [
						{
							"internalType": "uint256",
							"name": "agendaTokenId",
							"type": "uint256"
						}
					],
					"name": "getVotingStatus",
					"outputs": [
						{
							"internalType": "address[]",
							"name": "",
							"type": "address[]"
						},
						{
							"internalType": "uint256[]",
							"name": "",
							"type": "uint256[]"
						},
						{
							"internalType": "bool",
							"name": "",
							"type": "bool"
						},
						{
							"internalType": "bool",
							"name": "",
							"type": "bool"
						}
					],
					"stateMutability": "view",
					"type": "function"
				},
				{
					"inputs": [
						{
							"internalType": "uint256",
							"name": "agendaTokenId",
							"type": "uint256"
						},
						{
							"internalType": "uint256",
							"name": "amount",
							"type": "uint256"
						}
					],
					"name": "vote",
					"outputs": [],
					"stateMutability": "nonpayable",
					"type": "function"
				}
			],
			"devdoc": {
				"kind": "dev",
				"methods": {},
				"version": 1
			},
			"evm": {
				"assembly": "    /* \"contracts/VotingSystem.sol\":425:3334  contract VotingSystem {... */\n  mstore(0x40, 0x80)\n    /* \"contracts/VotingSystem.sol\":474:516  0xAdB8d027111ae2cB88e3C00730AF8EEeCBc21Ca8 */\n  0xadb8d027111ae2cb88e3c00730af8eeecbc21ca8\n    /* \"contracts/VotingSystem.sol\":453:516  address APTAddress = 0xAdB8d027111ae2cB88e3C00730AF8EEeCBc21Ca8 */\n  0x00\n  dup1\n  0x0100\n  exp\n  dup2\n  sload\n  dup2\n  0xffffffffffffffffffffffffffffffffffffffff\n  mul\n  not\n  and\n  swap1\n  dup4\n  0xffffffffffffffffffffffffffffffffffffffff\n  and\n  mul\n  or\n  swap1\n  sstore\n  pop\n    /* \"contracts/VotingSystem.sol\":636:646  APTAddress */\n  0x00\n  dup1\n  sload\n  swap1\n  0x0100\n  exp\n  swap1\n  div\n  0xffffffffffffffffffffffffffffffffffffffff\n  and\n    /* \"contracts/VotingSystem.sol\":596:647  APCInterface APTcontract = APCInterface(APTAddress) */\n  0x01\n  exp(0x0100, 0x00)\n  dup2\n  sload\n  dup2\n  0xffffffffffffffffffffffffffffffffffffffff\n  mul\n  not\n  and\n  swap1\n  dup4\n  0xffffffffffffffffffffffffffffffffffffffff\n  and\n  mul\n  or\n  swap1\n  sstore\n  pop\n    /* \"contracts/VotingSystem.sol\":770:781  APTcontract */\n  0x01\n  0x00\n  swap1\n  sload\n  swap1\n  0x0100\n  exp\n  swap1\n  div\n  0xffffffffffffffffffffffffffffffffffffffff\n  and\n    /* \"contracts/VotingSystem.sol\":770:801  APTcontract.getTotalTokenNumber */\n  0xffffffffffffffffffffffffffffffffffffffff\n  and\n  0x7e3cd5c4\n    /* \"contracts/VotingSystem.sol\":770:803  APTcontract.getTotalTokenNumber() */\n  mload(0x40)\n  dup2\n  0xffffffff\n  and\n  0xe0\n  shl\n  dup2\n  mstore\n  0x04\n  add\n  0x20\n  mload(0x40)\n  dup1\n  dup4\n  sub\n  dup2\n  dup7\n  gas\n  staticcall\n  iszero\n  dup1\n  iszero\n  tag_2\n  jumpi\n  returndatasize\n  0x00\n  dup1\n  returndatacopy\n  revert(0x00, returndatasize)\ntag_2:\n  pop\n  pop\n  pop\n  pop\n  mload(0x40)\n  returndatasize\n  not(0x1f)\n  0x1f\n  dup3\n  add\n  and\n  dup3\n  add\n  dup1\n  0x40\n  mstore\n  pop\n  dup2\n  add\n  swap1\n  tag_3\n  swap2\n  swap1\n  tag_4\n  jump\t// in\ntag_3:\n    /* \"contracts/VotingSystem.sol\":742:803  uint256 totalAgendaNumber = APTcontract.getTotalTokenNumber() */\n  0x03\n  sstore\n    /* \"contracts/VotingSystem.sol\":832:835  100 */\n  0x64\n    /* \"contracts/VotingSystem.sol\":809:835  uint256 maxVoteToken = 100 */\n  0x04\n  sstore\n    /* \"contracts/VotingSystem.sol\":1221:1279  constructor() {... */\n  callvalue\n  dup1\n  iszero\n  tag_5\n  jumpi\n  0x00\n  dup1\n  revert\ntag_5:\n  pop\n    /* \"contracts/VotingSystem.sol\":1261:1271  msg.sender */\n  caller\n    /* \"contracts/VotingSystem.sol\":1245:1258  contractOwner */\n  0x02\n  0x00\n    /* \"contracts/VotingSystem.sol\":1245:1271  contractOwner = msg.sender */\n  0x0100\n  exp\n  dup2\n  sload\n  dup2\n  0xffffffffffffffffffffffffffffffffffffffff\n  mul\n  not\n  and\n  swap1\n  dup4\n  0xffffffffffffffffffffffffffffffffffffffff\n  and\n  mul\n  or\n  swap1\n  sstore\n  pop\n    /* \"contracts/VotingSystem.sol\":425:3334  contract VotingSystem {... */\n  jump(tag_8)\n    /* \"#utility.yul\":88:205   */\ntag_10:\n    /* \"#utility.yul\":197:198   */\n  0x00\n    /* \"#utility.yul\":194:195   */\n  dup1\n    /* \"#utility.yul\":187:199   */\n  revert\n    /* \"#utility.yul\":334:411   */\ntag_12:\n    /* \"#utility.yul\":371:378   */\n  0x00\n    /* \"#utility.yul\":400:405   */\n  dup2\n    /* \"#utility.yul\":389:405   */\n  swap1\n  pop\n    /* \"#utility.yul\":334:411   */\n  swap2\n  swap1\n  pop\n  jump\t// out\n    /* \"#utility.yul\":417:539   */\ntag_13:\n    /* \"#utility.yul\":490:514   */\n  tag_21\n    /* \"#utility.yul\":508:513   */\n  dup2\n    /* \"#utility.yul\":490:514   */\n  tag_12\n  jump\t// in\ntag_21:\n    /* \"#utility.yul\":483:488   */\n  dup2\n    /* \"#utility.yul\":480:515   */\n  eq\n    /* \"#utility.yul\":470:533   */\n  tag_22\n  jumpi\n    /* \"#utility.yul\":529:530   */\n  0x00\n    /* \"#utility.yul\":526:527   */\n  dup1\n    /* \"#utility.yul\":519:531   */\n  revert\n    /* \"#utility.yul\":470:533   */\ntag_22:\n    /* \"#utility.yul\":417:539   */\n  pop\n  jump\t// out\n    /* \"#utility.yul\":545:688   */\ntag_14:\n    /* \"#utility.yul\":602:607   */\n  0x00\n    /* \"#utility.yul\":633:639   */\n  dup2\n    /* \"#utility.yul\":627:640   */\n  mload\n    /* \"#utility.yul\":618:640   */\n  swap1\n  pop\n    /* \"#utility.yul\":649:682   */\n  tag_24\n    /* \"#utility.yul\":676:681   */\n  dup2\n    /* \"#utility.yul\":649:682   */\n  tag_13\n  jump\t// in\ntag_24:\n    /* \"#utility.yul\":545:688   */\n  swap3\n  swap2\n  pop\n  pop\n  jump\t// out\n    /* \"#utility.yul\":694:1045   */\ntag_4:\n    /* \"#utility.yul\":764:770   */\n  0x00\n    /* \"#utility.yul\":813:815   */\n  0x20\n    /* \"#utility.yul\":801:810   */\n  dup3\n    /* \"#utility.yul\":792:799   */\n  dup5\n    /* \"#utility.yul\":788:811   */\n  sub\n    /* \"#utility.yul\":784:816   */\n  slt\n    /* \"#utility.yul\":781:900   */\n  iszero\n  tag_26\n  jumpi\n    /* \"#utility.yul\":819:898   */\n  tag_27\n  tag_10\n  jump\t// in\ntag_27:\n    /* \"#utility.yul\":781:900   */\ntag_26:\n    /* \"#utility.yul\":939:940   */\n  0x00\n    /* \"#utility.yul\":964:1028   */\n  tag_28\n    /* \"#utility.yul\":1020:1027   */\n  dup5\n    /* \"#utility.yul\":1011:1017   */\n  dup3\n    /* \"#utility.yul\":1000:1009   */\n  dup6\n    /* \"#utility.yul\":996:1018   */\n  add\n    /* \"#utility.yul\":964:1028   */\n  tag_14\n  jump\t// in\ntag_28:\n    /* \"#utility.yul\":954:1028   */\n  swap2\n  pop\n    /* \"#utility.yul\":910:1038   */\n  pop\n    /* \"#utility.yul\":694:1045   */\n  swap3\n  swap2\n  pop\n  pop\n  jump\t// out\n    /* \"contracts/VotingSystem.sol\":425:3334  contract VotingSystem {... */\ntag_8:\n  dataSize(sub_0)\n  dup1\n  dataOffset(sub_0)\n  0x00\n  codecopy\n  0x00\n  return\nstop\n\nsub_0: assembly {\n        /* \"contracts/VotingSystem.sol\":425:3334  contract VotingSystem {... */\n      mstore(0x40, 0x80)\n      callvalue\n      dup1\n      iszero\n      tag_1\n      jumpi\n      0x00\n      dup1\n      revert\n    tag_1:\n      pop\n      jumpi(tag_2, lt(calldatasize, 0x04))\n      shr(0xe0, calldataload(0x00))\n      dup1\n      0x9b9369\n      eq\n      tag_3\n      jumpi\n      dup1\n      0x13d8ac9e\n      eq\n      tag_4\n      jumpi\n      dup1\n      0x8f633994\n      eq\n      tag_5\n      jumpi\n      dup1\n      0xb384abef\n      eq\n      tag_6\n      jumpi\n    tag_2:\n      0x00\n      dup1\n      revert\n        /* \"contracts/VotingSystem.sol\":2410:2549  function getVoteNumber(uint256 agendaTokenId) public view returns (uint256){... */\n    tag_3:\n      tag_7\n      0x04\n      dup1\n      calldatasize\n      sub\n      dup2\n      add\n      swap1\n      tag_8\n      swap2\n      swap1\n      tag_9\n      jump\t// in\n    tag_8:\n      tag_10\n      jump\t// in\n    tag_7:\n      mload(0x40)\n      tag_11\n      swap2\n      swap1\n      tag_12\n      jump\t// in\n    tag_11:\n      mload(0x40)\n      dup1\n      swap2\n      sub\n      swap1\n      return\n        /* \"contracts/VotingSystem.sol\":2556:2659  function getListedAgendas() public view returns(uint256[] memory){... */\n    tag_4:\n      tag_13\n      tag_14\n      jump\t// in\n    tag_13:\n      mload(0x40)\n      tag_15\n      swap2\n      swap1\n      tag_16\n      jump\t// in\n    tag_15:\n      mload(0x40)\n      dup1\n      swap2\n      sub\n      swap1\n      return\n        /* \"contracts/VotingSystem.sol\":2665:2958  function getVotingStatus(uint256 agendaTokenId) public view returns (address[] memory, uint256[] memory, bool, bool) {... */\n    tag_5:\n      tag_17\n      0x04\n      dup1\n      calldatasize\n      sub\n      dup2\n      add\n      swap1\n      tag_18\n      swap2\n      swap1\n      tag_9\n      jump\t// in\n    tag_18:\n      tag_19\n      jump\t// in\n    tag_17:\n      mload(0x40)\n      tag_20\n      swap5\n      swap4\n      swap3\n      swap2\n      swap1\n      tag_21\n      jump\t// in\n    tag_20:\n      mload(0x40)\n      dup1\n      swap2\n      sub\n      swap1\n      return\n        /* \"contracts/VotingSystem.sol\":1285:2404  function vote(uint256 agendaTokenId, uint256 amount) public {... */\n    tag_6:\n      tag_22\n      0x04\n      dup1\n      calldatasize\n      sub\n      dup2\n      add\n      swap1\n      tag_23\n      swap2\n      swap1\n      tag_24\n      jump\t// in\n    tag_23:\n      tag_25\n      jump\t// in\n    tag_22:\n      stop\n        /* \"contracts/VotingSystem.sol\":2410:2549  function getVoteNumber(uint256 agendaTokenId) public view returns (uint256){... */\n    tag_10:\n        /* \"contracts/VotingSystem.sol\":2477:2484  uint256 */\n      0x00\n        /* \"contracts/VotingSystem.sol\":2502:2516  idToAgendaData */\n      0x06\n        /* \"contracts/VotingSystem.sol\":2502:2531  idToAgendaData[agendaTokenId] */\n      0x00\n        /* \"contracts/VotingSystem.sol\":2517:2530  agendaTokenId */\n      dup4\n        /* \"contracts/VotingSystem.sol\":2502:2531  idToAgendaData[agendaTokenId] */\n      dup2\n      mstore\n      0x20\n      add\n      swap1\n      dup2\n      mstore\n      0x20\n      add\n      0x00\n      keccak256\n        /* \"contracts/VotingSystem.sol\":2502:2542  idToAgendaData[agendaTokenId].totalVotes */\n      0x01\n      add\n      sload\n        /* \"contracts/VotingSystem.sol\":2495:2542  return idToAgendaData[agendaTokenId].totalVotes */\n      swap1\n      pop\n        /* \"contracts/VotingSystem.sol\":2410:2549  function getVoteNumber(uint256 agendaTokenId) public view returns (uint256){... */\n      swap2\n      swap1\n      pop\n      jump\t// out\n        /* \"contracts/VotingSystem.sol\":2556:2659  function getListedAgendas() public view returns(uint256[] memory){... */\n    tag_14:\n        /* \"contracts/VotingSystem.sol\":2604:2620  uint256[] memory */\n      0x60\n        /* \"contracts/VotingSystem.sol\":2638:2652  listedAgendaId */\n      0x05\n        /* \"contracts/VotingSystem.sol\":2631:2652  return listedAgendaId */\n      dup1\n      sload\n      dup1\n      0x20\n      mul\n      0x20\n      add\n      mload(0x40)\n      swap1\n      dup2\n      add\n      0x40\n      mstore\n      dup1\n      swap3\n      swap2\n      swap1\n      dup2\n      dup2\n      mstore\n      0x20\n      add\n      dup3\n      dup1\n      sload\n      dup1\n      iszero\n      tag_28\n      jumpi\n      0x20\n      mul\n      dup3\n      add\n      swap2\n      swap1\n      0x00\n      mstore\n      keccak256(0x00, 0x20)\n      swap1\n    tag_29:\n      dup2\n      sload\n      dup2\n      mstore\n      0x20\n      add\n      swap1\n      0x01\n      add\n      swap1\n      dup1\n      dup4\n      gt\n      tag_29\n      jumpi\n    tag_28:\n      pop\n      pop\n      pop\n      pop\n      pop\n      swap1\n      pop\n        /* \"contracts/VotingSystem.sol\":2556:2659  function getListedAgendas() public view returns(uint256[] memory){... */\n      swap1\n      jump\t// out\n        /* \"contracts/VotingSystem.sol\":2665:2958  function getVotingStatus(uint256 agendaTokenId) public view returns (address[] memory, uint256[] memory, bool, bool) {... */\n    tag_19:\n        /* \"contracts/VotingSystem.sol\":2734:2750  address[] memory */\n      0x60\n        /* \"contracts/VotingSystem.sol\":2752:2768  uint256[] memory */\n      dup1\n        /* \"contracts/VotingSystem.sol\":2770:2774  bool */\n      0x00\n        /* \"contracts/VotingSystem.sol\":2776:2780  bool */\n      dup1\n        /* \"contracts/VotingSystem.sol\":2792:2819  AgendaStatus storage agenda */\n      0x00\n        /* \"contracts/VotingSystem.sol\":2822:2836  idToAgendaData */\n      0x06\n        /* \"contracts/VotingSystem.sol\":2822:2851  idToAgendaData[agendaTokenId] */\n      0x00\n        /* \"contracts/VotingSystem.sol\":2837:2850  agendaTokenId */\n      dup8\n        /* \"contracts/VotingSystem.sol\":2822:2851  idToAgendaData[agendaTokenId] */\n      dup2\n      mstore\n      0x20\n      add\n      swap1\n      dup2\n      mstore\n      0x20\n      add\n      0x00\n      keccak256\n        /* \"contracts/VotingSystem.sol\":2792:2851  AgendaStatus storage agenda = idToAgendaData[agendaTokenId] */\n      swap1\n      pop\n        /* \"contracts/VotingSystem.sol\":2869:2875  agenda */\n      dup1\n        /* \"contracts/VotingSystem.sol\":2869:2882  agenda.voters */\n      0x00\n      add\n        /* \"contracts/VotingSystem.sol\":2884:2911  getVoterTokenValues(agenda) */\n      tag_31\n        /* \"contracts/VotingSystem.sol\":2904:2910  agenda */\n      dup3\n        /* \"contracts/VotingSystem.sol\":2884:2903  getVoterTokenValues */\n      tag_32\n        /* \"contracts/VotingSystem.sol\":2884:2911  getVoterTokenValues(agenda) */\n      jump\t// in\n    tag_31:\n        /* \"contracts/VotingSystem.sol\":2913:2919  agenda */\n      dup3\n        /* \"contracts/VotingSystem.sol\":2913:2928  agenda.isListed */\n      0x03\n      add\n      0x00\n      swap1\n      sload\n      swap1\n      0x0100\n      exp\n      swap1\n      div\n      0xff\n      and\n        /* \"contracts/VotingSystem.sol\":2930:2936  agenda */\n      dup4\n        /* \"contracts/VotingSystem.sol\":2930:2950  agenda.isDistributed */\n      0x03\n      add\n      0x01\n      swap1\n      sload\n      swap1\n      0x0100\n      exp\n      swap1\n      div\n      0xff\n      and\n        /* \"contracts/VotingSystem.sol\":2861:2951  return (agenda.voters, getVoterTokenValues(agenda), agenda.isListed, agenda.isDistributed) */\n      dup4\n      dup1\n      sload\n      dup1\n      0x20\n      mul\n      0x20\n      add\n      mload(0x40)\n      swap1\n      dup2\n      add\n      0x40\n      mstore\n      dup1\n      swap3\n      swap2\n      swap1\n      dup2\n      dup2\n      mstore\n      0x20\n      add\n      dup3\n      dup1\n      sload\n      dup1\n      iszero\n      tag_33\n      jumpi\n      0x20\n      mul\n      dup3\n      add\n      swap2\n      swap1\n      0x00\n      mstore\n      keccak256(0x00, 0x20)\n      swap1\n    tag_34:\n      dup2\n      0x00\n      swap1\n      sload\n      swap1\n      0x0100\n      exp\n      swap1\n      div\n      0xffffffffffffffffffffffffffffffffffffffff\n      and\n      0xffffffffffffffffffffffffffffffffffffffff\n      and\n      dup2\n      mstore\n      0x20\n      add\n      swap1\n      0x01\n      add\n      swap1\n      dup1\n      dup4\n      gt\n      tag_34\n      jumpi\n    tag_33:\n      pop\n      pop\n      pop\n      pop\n      pop\n      swap4\n      pop\n      swap5\n      pop\n      swap5\n      pop\n      swap5\n      pop\n      swap5\n      pop\n      pop\n        /* \"contracts/VotingSystem.sol\":2665:2958  function getVotingStatus(uint256 agendaTokenId) public view returns (address[] memory, uint256[] memory, bool, bool) {... */\n      swap2\n      swap4\n      pop\n      swap2\n      swap4\n      jump\t// out\n        /* \"contracts/VotingSystem.sol\":1285:2404  function vote(uint256 agendaTokenId, uint256 amount) public {... */\n    tag_25:\n        /* \"contracts/VotingSystem.sol\":1379:1396  totalAgendaNumber */\n      sload(0x03)\n        /* \"contracts/VotingSystem.sol\":1364:1377  agendaTokenId */\n      dup3\n        /* \"contracts/VotingSystem.sol\":1364:1396  agendaTokenId<=totalAgendaNumber */\n      gt\n      iszero\n        /* \"contracts/VotingSystem.sol\":1355:1422  require (agendaTokenId<=totalAgendaNumber, \"No existing agenda id\") */\n      tag_36\n      jumpi\n      mload(0x40)\n      0x08c379a000000000000000000000000000000000000000000000000000000000\n      dup2\n      mstore\n      0x04\n      add\n      tag_37\n      swap1\n      tag_38\n      jump\t// in\n    tag_37:\n      mload(0x40)\n      dup1\n      swap2\n      sub\n      swap1\n      revert\n    tag_36:\n        /* \"contracts/VotingSystem.sol\":1448:1449  0 */\n      0x00\n        /* \"contracts/VotingSystem.sol\":1441:1447  amount */\n      dup2\n        /* \"contracts/VotingSystem.sol\":1441:1449  amount>0 */\n      gt\n        /* \"contracts/VotingSystem.sol\":1432:1473  require (amount>0, \"0 token transferred\") */\n      tag_39\n      jumpi\n      mload(0x40)\n      0x08c379a000000000000000000000000000000000000000000000000000000000\n      dup2\n      mstore\n      0x04\n      add\n      tag_40\n      swap1\n      tag_41\n      jump\t// in\n    tag_40:\n      mload(0x40)\n      dup1\n      swap2\n      sub\n      swap1\n      revert\n    tag_39:\n        /* \"contracts/VotingSystem.sol\":1541:1553  maxVoteToken */\n      sload(0x04)\n        /* \"contracts/VotingSystem.sol\":1533:1539  amount */\n      dup2\n        /* \"contracts/VotingSystem.sol\":1492:1506  idToAgendaData */\n      0x06\n        /* \"contracts/VotingSystem.sol\":1492:1521  idToAgendaData[agendaTokenId] */\n      0x00\n        /* \"contracts/VotingSystem.sol\":1507:1520  agendaTokenId */\n      dup6\n        /* \"contracts/VotingSystem.sol\":1492:1521  idToAgendaData[agendaTokenId] */\n      dup2\n      mstore\n      0x20\n      add\n      swap1\n      dup2\n      mstore\n      0x20\n      add\n      0x00\n      keccak256\n        /* \"contracts/VotingSystem.sol\":1492:1532  idToAgendaData[agendaTokenId].totalVotes */\n      0x01\n      add\n      sload\n        /* \"contracts/VotingSystem.sol\":1492:1539  idToAgendaData[agendaTokenId].totalVotes+amount */\n      tag_42\n      swap2\n      swap1\n      tag_43\n      jump\t// in\n    tag_42:\n        /* \"contracts/VotingSystem.sol\":1492:1553  idToAgendaData[agendaTokenId].totalVotes+amount<=maxVoteToken */\n      gt\n      iszero\n        /* \"contracts/VotingSystem.sol\":1483:1596  require (idToAgendaData[agendaTokenId].totalVotes+amount<=maxVoteToken, \"Maximum available token input exceeded\") */\n      tag_44\n      jumpi\n      mload(0x40)\n      0x08c379a000000000000000000000000000000000000000000000000000000000\n      dup2\n      mstore\n      0x04\n      add\n      tag_45\n      swap1\n      tag_46\n      jump\t// in\n    tag_45:\n      mload(0x40)\n      dup1\n      swap2\n      sub\n      swap1\n      revert\n    tag_44:\n        /* \"contracts/VotingSystem.sol\":1715:1742  AgendaStatus storage agenda */\n      0x00\n        /* \"contracts/VotingSystem.sol\":1745:1759  idToAgendaData */\n      0x06\n        /* \"contracts/VotingSystem.sol\":1745:1774  idToAgendaData[agendaTokenId] */\n      0x00\n        /* \"contracts/VotingSystem.sol\":1760:1773  agendaTokenId */\n      dup5\n        /* \"contracts/VotingSystem.sol\":1745:1774  idToAgendaData[agendaTokenId] */\n      dup2\n      mstore\n      0x20\n      add\n      swap1\n      dup2\n      mstore\n      0x20\n      add\n      0x00\n      keccak256\n        /* \"contracts/VotingSystem.sol\":1715:1774  AgendaStatus storage agenda = idToAgendaData[agendaTokenId] */\n      swap1\n      pop\n        /* \"contracts/VotingSystem.sol\":1804:1810  amount */\n      dup2\n        /* \"contracts/VotingSystem.sol\":1784:1790  agenda */\n      dup2\n        /* \"contracts/VotingSystem.sol\":1784:1801  agenda.totalVotes */\n      0x01\n      add\n      0x00\n        /* \"contracts/VotingSystem.sol\":1784:1810  agenda.totalVotes+= amount */\n      dup3\n      dup3\n      sload\n      tag_47\n      swap2\n      swap1\n      tag_43\n      jump\t// in\n    tag_47:\n      swap3\n      pop\n      pop\n      dup2\n      swap1\n      sstore\n      pop\n        /* \"contracts/VotingSystem.sol\":1821:1839  bool isVoterExists */\n      0x00\n        /* \"contracts/VotingSystem.sol\":1862:1868  uint i */\n      dup1\n        /* \"contracts/VotingSystem.sol\":1857:2041  for (uint i = 0; i < agenda.voters.length; i++) {... */\n    tag_48:\n        /* \"contracts/VotingSystem.sol\":1878:1884  agenda */\n      dup3\n        /* \"contracts/VotingSystem.sol\":1878:1891  agenda.voters */\n      0x00\n      add\n        /* \"contracts/VotingSystem.sol\":1878:1898  agenda.voters.length */\n      dup1\n      sload\n      swap1\n      pop\n        /* \"contracts/VotingSystem.sol\":1874:1875  i */\n      dup2\n        /* \"contracts/VotingSystem.sol\":1874:1898  i < agenda.voters.length */\n      lt\n        /* \"contracts/VotingSystem.sol\":1857:2041  for (uint i = 0; i < agenda.voters.length; i++) {... */\n      iszero\n      tag_49\n      jumpi\n        /* \"contracts/VotingSystem.sol\":1943:1953  msg.sender */\n      caller\n        /* \"contracts/VotingSystem.sol\":1923:1953  agenda.voters[i] == msg.sender */\n      0xffffffffffffffffffffffffffffffffffffffff\n      and\n        /* \"contracts/VotingSystem.sol\":1923:1929  agenda */\n      dup4\n        /* \"contracts/VotingSystem.sol\":1923:1936  agenda.voters */\n      0x00\n      add\n        /* \"contracts/VotingSystem.sol\":1937:1938  i */\n      dup3\n        /* \"contracts/VotingSystem.sol\":1923:1939  agenda.voters[i] */\n      dup2\n      sload\n      dup2\n      lt\n      tag_51\n      jumpi\n      tag_52\n      tag_53\n      jump\t// in\n    tag_52:\n    tag_51:\n      swap1\n      0x00\n      mstore\n      keccak256(0x00, 0x20)\n      add\n      0x00\n      swap1\n      sload\n      swap1\n      0x0100\n      exp\n      swap1\n      div\n      0xffffffffffffffffffffffffffffffffffffffff\n      and\n        /* \"contracts/VotingSystem.sol\":1923:1953  agenda.voters[i] == msg.sender */\n      0xffffffffffffffffffffffffffffffffffffffff\n      and\n      sub\n        /* \"contracts/VotingSystem.sol\":1919:2031  if (agenda.voters[i] == msg.sender) {... */\n      tag_55\n      jumpi\n        /* \"contracts/VotingSystem.sol\":1989:1993  true */\n      0x01\n        /* \"contracts/VotingSystem.sol\":1973:1993  isVoterExists = true */\n      swap2\n      pop\n        /* \"contracts/VotingSystem.sol\":2011:2016  break */\n      jump(tag_49)\n        /* \"contracts/VotingSystem.sol\":1919:2031  if (agenda.voters[i] == msg.sender) {... */\n    tag_55:\n        /* \"contracts/VotingSystem.sol\":1900:1903  i++ */\n      dup1\n      dup1\n      0x01\n      add\n      swap2\n      pop\n      pop\n        /* \"contracts/VotingSystem.sol\":1857:2041  for (uint i = 0; i < agenda.voters.length; i++) {... */\n      jump(tag_48)\n    tag_49:\n      pop\n        /* \"contracts/VotingSystem.sol\":2055:2068  isVoterExists */\n      dup1\n        /* \"contracts/VotingSystem.sol\":2050:2125  if (!isVoterExists) {... */\n      tag_56\n      jumpi\n        /* \"contracts/VotingSystem.sol\":2084:2090  agenda */\n      dup2\n        /* \"contracts/VotingSystem.sol\":2084:2097  agenda.voters */\n      0x00\n      add\n        /* \"contracts/VotingSystem.sol\":2103:2113  msg.sender */\n      caller\n        /* \"contracts/VotingSystem.sol\":2084:2114  agenda.voters.push(msg.sender) */\n      swap1\n      dup1\n      0x01\n      dup2\n      sload\n      add\n      dup1\n      dup3\n      sstore\n      dup1\n      swap2\n      pop\n      pop\n      0x01\n      swap1\n      sub\n      swap1\n      0x00\n      mstore\n      keccak256(0x00, 0x20)\n      add\n      0x00\n      swap1\n      swap2\n      swap1\n      swap2\n      swap1\n      swap2\n      0x0100\n      exp\n      dup2\n      sload\n      dup2\n      0xffffffffffffffffffffffffffffffffffffffff\n      mul\n      not\n      and\n      swap1\n      dup4\n      0xffffffffffffffffffffffffffffffffffffffff\n      and\n      mul\n      or\n      swap1\n      sstore\n      pop\n        /* \"contracts/VotingSystem.sol\":2050:2125  if (!isVoterExists) {... */\n    tag_56:\n        /* \"contracts/VotingSystem.sol\":2173:2179  amount */\n      dup3\n        /* \"contracts/VotingSystem.sol\":2135:2141  agenda */\n      dup3\n        /* \"contracts/VotingSystem.sol\":2135:2157  agenda.voterTokenValue */\n      0x02\n      add\n        /* \"contracts/VotingSystem.sol\":2135:2169  agenda.voterTokenValue[msg.sender] */\n      0x00\n        /* \"contracts/VotingSystem.sol\":2158:2168  msg.sender */\n      caller\n        /* \"contracts/VotingSystem.sol\":2135:2169  agenda.voterTokenValue[msg.sender] */\n      0xffffffffffffffffffffffffffffffffffffffff\n      and\n      0xffffffffffffffffffffffffffffffffffffffff\n      and\n      dup2\n      mstore\n      0x20\n      add\n      swap1\n      dup2\n      mstore\n      0x20\n      add\n      0x00\n      keccak256\n      0x00\n        /* \"contracts/VotingSystem.sol\":2135:2179  agenda.voterTokenValue[msg.sender] += amount */\n      dup3\n      dup3\n      sload\n      tag_58\n      swap2\n      swap1\n      tag_43\n      jump\t// in\n    tag_58:\n      swap3\n      pop\n      pop\n      dup2\n      swap1\n      sstore\n      pop\n        /* \"contracts/VotingSystem.sol\":2194:2218  Vote(msg.sender, amount) */\n      0xf668ead05c744b9178e571d2edb452e72baf6529c8d72160e64e59b50d865bd0\n        /* \"contracts/VotingSystem.sol\":2199:2209  msg.sender */\n      caller\n        /* \"contracts/VotingSystem.sol\":2211:2217  amount */\n      dup5\n        /* \"contracts/VotingSystem.sol\":2194:2218  Vote(msg.sender, amount) */\n      mload(0x40)\n      tag_59\n      swap3\n      swap2\n      swap1\n      tag_60\n      jump\t// in\n    tag_59:\n      mload(0x40)\n      dup1\n      swap2\n      sub\n      swap1\n      log1\n        /* \"contracts/VotingSystem.sol\":2250:2262  maxVoteToken */\n      sload(0x04)\n        /* \"contracts/VotingSystem.sol\":2231:2237  agenda */\n      dup3\n        /* \"contracts/VotingSystem.sol\":2231:2248  agenda.totalVotes */\n      0x01\n      add\n      sload\n        /* \"contracts/VotingSystem.sol\":2231:2262  agenda.totalVotes==maxVoteToken */\n      sub\n        /* \"contracts/VotingSystem.sol\":2228:2398  if(agenda.totalVotes==maxVoteToken){... */\n      tag_61\n      jumpi\n        /* \"contracts/VotingSystem.sol\":2277:2291  listedAgendaId */\n      0x05\n        /* \"contracts/VotingSystem.sol\":2297:2310  agendaTokenId */\n      dup5\n        /* \"contracts/VotingSystem.sol\":2277:2311  listedAgendaId.push(agendaTokenId) */\n      swap1\n      dup1\n      0x01\n      dup2\n      sload\n      add\n      dup1\n      dup3\n      sstore\n      dup1\n      swap2\n      pop\n      pop\n      0x01\n      swap1\n      sub\n      swap1\n      0x00\n      mstore\n      keccak256(0x00, 0x20)\n      add\n      0x00\n      swap1\n      swap2\n      swap1\n      swap2\n      swap1\n      swap2\n      pop\n      sstore\n        /* \"contracts/VotingSystem.sol\":2343:2347  true */\n      0x01\n        /* \"contracts/VotingSystem.sol\":2325:2331  agenda */\n      dup3\n        /* \"contracts/VotingSystem.sol\":2325:2340  agenda.isListed */\n      0x03\n      add\n      0x00\n        /* \"contracts/VotingSystem.sol\":2325:2347  agenda.isListed = true */\n      0x0100\n      exp\n      dup2\n      sload\n      dup2\n      0xff\n      mul\n      not\n      and\n      swap1\n      dup4\n      iszero\n      iszero\n      mul\n      or\n      swap1\n      sstore\n      pop\n        /* \"contracts/VotingSystem.sol\":2366:2387  Listed(agendaTokenId) */\n      0xf3ecdc9ffda52c5ad69793c567cb456f83bba2d14f196542e0be80c919a8bda3\n        /* \"contracts/VotingSystem.sol\":2373:2386  agendaTokenId */\n      dup5\n        /* \"contracts/VotingSystem.sol\":2366:2387  Listed(agendaTokenId) */\n      mload(0x40)\n      tag_63\n      swap2\n      swap1\n      tag_12\n      jump\t// in\n    tag_63:\n      mload(0x40)\n      dup1\n      swap2\n      sub\n      swap1\n      log1\n        /* \"contracts/VotingSystem.sol\":2228:2398  if(agenda.totalVotes==maxVoteToken){... */\n    tag_61:\n        /* \"contracts/VotingSystem.sol\":1345:2404  {... */\n      pop\n      pop\n        /* \"contracts/VotingSystem.sol\":1285:2404  function vote(uint256 agendaTokenId, uint256 amount) public {... */\n      pop\n      pop\n      jump\t// out\n        /* \"contracts/VotingSystem.sol\":2964:3332  function getVoterTokenValues(AgendaStatus storage agenda) private view returns (uint256[] memory) {... */\n    tag_32:\n        /* \"contracts/VotingSystem.sol\":3044:3060  uint256[] memory */\n      0x60\n        /* \"contracts/VotingSystem.sol\":3072:3095  uint256[] memory values */\n      0x00\n        /* \"contracts/VotingSystem.sol\":3112:3118  agenda */\n      dup3\n        /* \"contracts/VotingSystem.sol\":3112:3125  agenda.voters */\n      0x00\n      add\n        /* \"contracts/VotingSystem.sol\":3112:3132  agenda.voters.length */\n      dup1\n      sload\n      swap1\n      pop\n        /* \"contracts/VotingSystem.sol\":3098:3133  new uint256[](agenda.voters.length) */\n      0xffffffffffffffff\n      dup2\n      gt\n      iszero\n      tag_65\n      jumpi\n      tag_66\n      tag_67\n      jump\t// in\n    tag_66:\n    tag_65:\n      mload(0x40)\n      swap1\n      dup1\n      dup3\n      mstore\n      dup1\n      0x20\n      mul\n      0x20\n      add\n      dup3\n      add\n      0x40\n      mstore\n      dup1\n      iszero\n      tag_68\n      jumpi\n      dup2\n      0x20\n      add\n      0x20\n      dup3\n      mul\n      dup1\n      calldatasize\n      dup4\n      calldatacopy\n      dup1\n      dup3\n      add\n      swap2\n      pop\n      pop\n      swap1\n      pop\n    tag_68:\n      pop\n        /* \"contracts/VotingSystem.sol\":3072:3133  uint256[] memory values = new uint256[](agenda.voters.length) */\n      swap1\n      pop\n        /* \"contracts/VotingSystem.sol\":3148:3154  uint i */\n      0x00\n        /* \"contracts/VotingSystem.sol\":3143:3303  for (uint i = 0; i < agenda.voters.length; i++) {... */\n    tag_69:\n        /* \"contracts/VotingSystem.sol\":3164:3170  agenda */\n      dup4\n        /* \"contracts/VotingSystem.sol\":3164:3177  agenda.voters */\n      0x00\n      add\n        /* \"contracts/VotingSystem.sol\":3164:3184  agenda.voters.length */\n      dup1\n      sload\n      swap1\n      pop\n        /* \"contracts/VotingSystem.sol\":3160:3161  i */\n      dup2\n        /* \"contracts/VotingSystem.sol\":3160:3184  i < agenda.voters.length */\n      lt\n        /* \"contracts/VotingSystem.sol\":3143:3303  for (uint i = 0; i < agenda.voters.length; i++) {... */\n      iszero\n      tag_70\n      jumpi\n        /* \"contracts/VotingSystem.sol\":3205:3218  address voter */\n      0x00\n        /* \"contracts/VotingSystem.sol\":3221:3227  agenda */\n      dup5\n        /* \"contracts/VotingSystem.sol\":3221:3234  agenda.voters */\n      0x00\n      add\n        /* \"contracts/VotingSystem.sol\":3235:3236  i */\n      dup3\n        /* \"contracts/VotingSystem.sol\":3221:3237  agenda.voters[i] */\n      dup2\n      sload\n      dup2\n      lt\n      tag_72\n      jumpi\n      tag_73\n      tag_53\n      jump\t// in\n    tag_73:\n    tag_72:\n      swap1\n      0x00\n      mstore\n      keccak256(0x00, 0x20)\n      add\n      0x00\n      swap1\n      sload\n      swap1\n      0x0100\n      exp\n      swap1\n      div\n      0xffffffffffffffffffffffffffffffffffffffff\n      and\n        /* \"contracts/VotingSystem.sol\":3205:3237  address voter = agenda.voters[i] */\n      swap1\n      pop\n        /* \"contracts/VotingSystem.sol\":3263:3269  agenda */\n      dup5\n        /* \"contracts/VotingSystem.sol\":3263:3285  agenda.voterTokenValue */\n      0x02\n      add\n        /* \"contracts/VotingSystem.sol\":3263:3292  agenda.voterTokenValue[voter] */\n      0x00\n        /* \"contracts/VotingSystem.sol\":3286:3291  voter */\n      dup3\n        /* \"contracts/VotingSystem.sol\":3263:3292  agenda.voterTokenValue[voter] */\n      0xffffffffffffffffffffffffffffffffffffffff\n      and\n      0xffffffffffffffffffffffffffffffffffffffff\n      and\n      dup2\n      mstore\n      0x20\n      add\n      swap1\n      dup2\n      mstore\n      0x20\n      add\n      0x00\n      keccak256\n      sload\n        /* \"contracts/VotingSystem.sol\":3251:3257  values */\n      dup4\n        /* \"contracts/VotingSystem.sol\":3258:3259  i */\n      dup4\n        /* \"contracts/VotingSystem.sol\":3251:3260  values[i] */\n      dup2\n      mload\n      dup2\n      lt\n      tag_75\n      jumpi\n      tag_76\n      tag_53\n      jump\t// in\n    tag_76:\n    tag_75:\n      0x20\n      mul\n      0x20\n      add\n      add\n        /* \"contracts/VotingSystem.sol\":3251:3292  values[i] = agenda.voterTokenValue[voter] */\n      dup2\n      dup2\n      mstore\n      pop\n      pop\n        /* \"contracts/VotingSystem.sol\":3191:3303  {... */\n      pop\n        /* \"contracts/VotingSystem.sol\":3186:3189  i++ */\n      dup1\n      dup1\n      0x01\n      add\n      swap2\n      pop\n      pop\n        /* \"contracts/VotingSystem.sol\":3143:3303  for (uint i = 0; i < agenda.voters.length; i++) {... */\n      jump(tag_69)\n    tag_70:\n      pop\n        /* \"contracts/VotingSystem.sol\":3319:3325  values */\n      dup1\n        /* \"contracts/VotingSystem.sol\":3312:3325  return values */\n      swap2\n      pop\n      pop\n        /* \"contracts/VotingSystem.sol\":2964:3332  function getVoterTokenValues(AgendaStatus storage agenda) private view returns (uint256[] memory) {... */\n      swap2\n      swap1\n      pop\n      jump\t// out\n        /* \"#utility.yul\":88:205   */\n    tag_78:\n        /* \"#utility.yul\":197:198   */\n      0x00\n        /* \"#utility.yul\":194:195   */\n      dup1\n        /* \"#utility.yul\":187:199   */\n      revert\n        /* \"#utility.yul\":334:411   */\n    tag_80:\n        /* \"#utility.yul\":371:378   */\n      0x00\n        /* \"#utility.yul\":400:405   */\n      dup2\n        /* \"#utility.yul\":389:405   */\n      swap1\n      pop\n        /* \"#utility.yul\":334:411   */\n      swap2\n      swap1\n      pop\n      jump\t// out\n        /* \"#utility.yul\":417:539   */\n    tag_81:\n        /* \"#utility.yul\":490:514   */\n      tag_117\n        /* \"#utility.yul\":508:513   */\n      dup2\n        /* \"#utility.yul\":490:514   */\n      tag_80\n      jump\t// in\n    tag_117:\n        /* \"#utility.yul\":483:488   */\n      dup2\n        /* \"#utility.yul\":480:515   */\n      eq\n        /* \"#utility.yul\":470:533   */\n      tag_118\n      jumpi\n        /* \"#utility.yul\":529:530   */\n      0x00\n        /* \"#utility.yul\":526:527   */\n      dup1\n        /* \"#utility.yul\":519:531   */\n      revert\n        /* \"#utility.yul\":470:533   */\n    tag_118:\n        /* \"#utility.yul\":417:539   */\n      pop\n      jump\t// out\n        /* \"#utility.yul\":545:684   */\n    tag_82:\n        /* \"#utility.yul\":591:596   */\n      0x00\n        /* \"#utility.yul\":629:635   */\n      dup2\n        /* \"#utility.yul\":616:636   */\n      calldataload\n        /* \"#utility.yul\":607:636   */\n      swap1\n      pop\n        /* \"#utility.yul\":645:678   */\n      tag_120\n        /* \"#utility.yul\":672:677   */\n      dup2\n        /* \"#utility.yul\":645:678   */\n      tag_81\n      jump\t// in\n    tag_120:\n        /* \"#utility.yul\":545:684   */\n      swap3\n      swap2\n      pop\n      pop\n      jump\t// out\n        /* \"#utility.yul\":690:1019   */\n    tag_9:\n        /* \"#utility.yul\":749:755   */\n      0x00\n        /* \"#utility.yul\":798:800   */\n      0x20\n        /* \"#utility.yul\":786:795   */\n      dup3\n        /* \"#utility.yul\":777:784   */\n      dup5\n        /* \"#utility.yul\":773:796   */\n      sub\n        /* \"#utility.yul\":769:801   */\n      slt\n        /* \"#utility.yul\":766:885   */\n      iszero\n      tag_122\n      jumpi\n        /* \"#utility.yul\":804:883   */\n      tag_123\n      tag_78\n      jump\t// in\n    tag_123:\n        /* \"#utility.yul\":766:885   */\n    tag_122:\n        /* \"#utility.yul\":924:925   */\n      0x00\n        /* \"#utility.yul\":949:1002   */\n      tag_124\n        /* \"#utility.yul\":994:1001   */\n      dup5\n        /* \"#utility.yul\":985:991   */\n      dup3\n        /* \"#utility.yul\":974:983   */\n      dup6\n        /* \"#utility.yul\":970:992   */\n      add\n        /* \"#utility.yul\":949:1002   */\n      tag_82\n      jump\t// in\n    tag_124:\n        /* \"#utility.yul\":939:1002   */\n      swap2\n      pop\n        /* \"#utility.yul\":895:1012   */\n      pop\n        /* \"#utility.yul\":690:1019   */\n      swap3\n      swap2\n      pop\n      pop\n      jump\t// out\n        /* \"#utility.yul\":1025:1143   */\n    tag_83:\n        /* \"#utility.yul\":1112:1136   */\n      tag_126\n        /* \"#utility.yul\":1130:1135   */\n      dup2\n        /* \"#utility.yul\":1112:1136   */\n      tag_80\n      jump\t// in\n    tag_126:\n        /* \"#utility.yul\":1107:1110   */\n      dup3\n        /* \"#utility.yul\":1100:1137   */\n      mstore\n        /* \"#utility.yul\":1025:1143   */\n      pop\n      pop\n      jump\t// out\n        /* \"#utility.yul\":1149:1371   */\n    tag_12:\n        /* \"#utility.yul\":1242:1246   */\n      0x00\n        /* \"#utility.yul\":1280:1282   */\n      0x20\n        /* \"#utility.yul\":1269:1278   */\n      dup3\n        /* \"#utility.yul\":1265:1283   */\n      add\n        /* \"#utility.yul\":1257:1283   */\n      swap1\n      pop\n        /* \"#utility.yul\":1293:1364   */\n      tag_128\n        /* \"#utility.yul\":1361:1362   */\n      0x00\n        /* \"#utility.yul\":1350:1359   */\n      dup4\n        /* \"#utility.yul\":1346:1363   */\n      add\n        /* \"#utility.yul\":1337:1343   */\n      dup5\n        /* \"#utility.yul\":1293:1364   */\n      tag_83\n      jump\t// in\n    tag_128:\n        /* \"#utility.yul\":1149:1371   */\n      swap3\n      swap2\n      pop\n      pop\n      jump\t// out\n        /* \"#utility.yul\":1377:1491   */\n    tag_84:\n        /* \"#utility.yul\":1444:1450   */\n      0x00\n        /* \"#utility.yul\":1478:1483   */\n      dup2\n        /* \"#utility.yul\":1472:1484   */\n      mload\n        /* \"#utility.yul\":1462:1484   */\n      swap1\n      pop\n        /* \"#utility.yul\":1377:1491   */\n      swap2\n      swap1\n      pop\n      jump\t// out\n        /* \"#utility.yul\":1497:1681   */\n    tag_85:\n        /* \"#utility.yul\":1596:1607   */\n      0x00\n        /* \"#utility.yul\":1630:1636   */\n      dup3\n        /* \"#utility.yul\":1625:1628   */\n      dup3\n        /* \"#utility.yul\":1618:1637   */\n      mstore\n        /* \"#utility.yul\":1670:1674   */\n      0x20\n        /* \"#utility.yul\":1665:1668   */\n      dup3\n        /* \"#utility.yul\":1661:1675   */\n      add\n        /* \"#utility.yul\":1646:1675   */\n      swap1\n      pop\n        /* \"#utility.yul\":1497:1681   */\n      swap3\n      swap2\n      pop\n      pop\n      jump\t// out\n        /* \"#utility.yul\":1687:1819   */\n    tag_86:\n        /* \"#utility.yul\":1754:1758   */\n      0x00\n        /* \"#utility.yul\":1777:1780   */\n      dup2\n        /* \"#utility.yul\":1769:1780   */\n      swap1\n      pop\n        /* \"#utility.yul\":1807:1811   */\n      0x20\n        /* \"#utility.yul\":1802:1805   */\n      dup3\n        /* \"#utility.yul\":1798:1812   */\n      add\n        /* \"#utility.yul\":1790:1812   */\n      swap1\n      pop\n        /* \"#utility.yul\":1687:1819   */\n      swap2\n      swap1\n      pop\n      jump\t// out\n        /* \"#utility.yul\":1825:1933   */\n    tag_87:\n        /* \"#utility.yul\":1902:1926   */\n      tag_133\n        /* \"#utility.yul\":1920:1925   */\n      dup2\n        /* \"#utility.yul\":1902:1926   */\n      tag_80\n      jump\t// in\n    tag_133:\n        /* \"#utility.yul\":1897:1900   */\n      dup3\n        /* \"#utility.yul\":1890:1927   */\n      mstore\n        /* \"#utility.yul\":1825:1933   */\n      pop\n      pop\n      jump\t// out\n        /* \"#utility.yul\":1939:2118   */\n    tag_88:\n        /* \"#utility.yul\":2008:2018   */\n      0x00\n        /* \"#utility.yul\":2029:2075   */\n      tag_135\n        /* \"#utility.yul\":2071:2074   */\n      dup4\n        /* \"#utility.yul\":2063:2069   */\n      dup4\n        /* \"#utility.yul\":2029:2075   */\n      tag_87\n      jump\t// in\n    tag_135:\n        /* \"#utility.yul\":2107:2111   */\n      0x20\n        /* \"#utility.yul\":2102:2105   */\n      dup4\n        /* \"#utility.yul\":2098:2112   */\n      add\n        /* \"#utility.yul\":2084:2112   */\n      swap1\n      pop\n        /* \"#utility.yul\":1939:2118   */\n      swap3\n      swap2\n      pop\n      pop\n      jump\t// out\n        /* \"#utility.yul\":2124:2237   */\n    tag_89:\n        /* \"#utility.yul\":2194:2198   */\n      0x00\n        /* \"#utility.yul\":2226:2230   */\n      0x20\n        /* \"#utility.yul\":2221:2224   */\n      dup3\n        /* \"#utility.yul\":2217:2231   */\n      add\n        /* \"#utility.yul\":2209:2231   */\n      swap1\n      pop\n        /* \"#utility.yul\":2124:2237   */\n      swap2\n      swap1\n      pop\n      jump\t// out\n        /* \"#utility.yul\":2273:3005   */\n    tag_90:\n        /* \"#utility.yul\":2392:2395   */\n      0x00\n        /* \"#utility.yul\":2421:2475   */\n      tag_138\n        /* \"#utility.yul\":2469:2474   */\n      dup3\n        /* \"#utility.yul\":2421:2475   */\n      tag_84\n      jump\t// in\n    tag_138:\n        /* \"#utility.yul\":2491:2577   */\n      tag_139\n        /* \"#utility.yul\":2570:2576   */\n      dup2\n        /* \"#utility.yul\":2565:2568   */\n      dup6\n        /* \"#utility.yul\":2491:2577   */\n      tag_85\n      jump\t// in\n    tag_139:\n        /* \"#utility.yul\":2484:2577   */\n      swap4\n      pop\n        /* \"#utility.yul\":2601:2657   */\n      tag_140\n        /* \"#utility.yul\":2651:2656   */\n      dup4\n        /* \"#utility.yul\":2601:2657   */\n      tag_86\n      jump\t// in\n    tag_140:\n        /* \"#utility.yul\":2680:2687   */\n      dup1\n        /* \"#utility.yul\":2711:2712   */\n      0x00\n        /* \"#utility.yul\":2696:2980   */\n    tag_141:\n        /* \"#utility.yul\":2721:2727   */\n      dup4\n        /* \"#utility.yul\":2718:2719   */\n      dup2\n        /* \"#utility.yul\":2715:2728   */\n      lt\n        /* \"#utility.yul\":2696:2980   */\n      iszero\n      tag_143\n      jumpi\n        /* \"#utility.yul\":2797:2803   */\n      dup2\n        /* \"#utility.yul\":2791:2804   */\n      mload\n        /* \"#utility.yul\":2824:2887   */\n      tag_144\n        /* \"#utility.yul\":2883:2886   */\n      dup9\n        /* \"#utility.yul\":2868:2881   */\n      dup3\n        /* \"#utility.yul\":2824:2887   */\n      tag_88\n      jump\t// in\n    tag_144:\n        /* \"#utility.yul\":2817:2887   */\n      swap8\n      pop\n        /* \"#utility.yul\":2910:2970   */\n      tag_145\n        /* \"#utility.yul\":2963:2969   */\n      dup4\n        /* \"#utility.yul\":2910:2970   */\n      tag_89\n      jump\t// in\n    tag_145:\n        /* \"#utility.yul\":2900:2970   */\n      swap3\n      pop\n        /* \"#utility.yul\":2756:2980   */\n      pop\n        /* \"#utility.yul\":2743:2744   */\n      0x01\n        /* \"#utility.yul\":2740:2741   */\n      dup2\n        /* \"#utility.yul\":2736:2745   */\n      add\n        /* \"#utility.yul\":2731:2745   */\n      swap1\n      pop\n        /* \"#utility.yul\":2696:2980   */\n      jump(tag_141)\n    tag_143:\n        /* \"#utility.yul\":2700:2714   */\n      pop\n        /* \"#utility.yul\":2996:2999   */\n      dup6\n        /* \"#utility.yul\":2989:2999   */\n      swap4\n      pop\n        /* \"#utility.yul\":2397:3005   */\n      pop\n      pop\n      pop\n        /* \"#utility.yul\":2273:3005   */\n      swap3\n      swap2\n      pop\n      pop\n      jump\t// out\n        /* \"#utility.yul\":3011:3384   */\n    tag_16:\n        /* \"#utility.yul\":3154:3158   */\n      0x00\n        /* \"#utility.yul\":3192:3194   */\n      0x20\n        /* \"#utility.yul\":3181:3190   */\n      dup3\n        /* \"#utility.yul\":3177:3195   */\n      add\n        /* \"#utility.yul\":3169:3195   */\n      swap1\n      pop\n        /* \"#utility.yul\":3241:3250   */\n      dup2\n        /* \"#utility.yul\":3235:3239   */\n      dup2\n        /* \"#utility.yul\":3231:3251   */\n      sub\n        /* \"#utility.yul\":3227:3228   */\n      0x00\n        /* \"#utility.yul\":3216:3225   */\n      dup4\n        /* \"#utility.yul\":3212:3229   */\n      add\n        /* \"#utility.yul\":3205:3252   */\n      mstore\n        /* \"#utility.yul\":3269:3377   */\n      tag_147\n        /* \"#utility.yul\":3372:3376   */\n      dup2\n        /* \"#utility.yul\":3363:3369   */\n      dup5\n        /* \"#utility.yul\":3269:3377   */\n      tag_90\n      jump\t// in\n    tag_147:\n        /* \"#utility.yul\":3261:3377   */\n      swap1\n      pop\n        /* \"#utility.yul\":3011:3384   */\n      swap3\n      swap2\n      pop\n      pop\n      jump\t// out\n        /* \"#utility.yul\":3390:3504   */\n    tag_91:\n        /* \"#utility.yul\":3457:3463   */\n      0x00\n        /* \"#utility.yul\":3491:3496   */\n      dup2\n        /* \"#utility.yul\":3485:3497   */\n      mload\n        /* \"#utility.yul\":3475:3497   */\n      swap1\n      pop\n        /* \"#utility.yul\":3390:3504   */\n      swap2\n      swap1\n      pop\n      jump\t// out\n        /* \"#utility.yul\":3510:3694   */\n    tag_92:\n        /* \"#utility.yul\":3609:3620   */\n      0x00\n        /* \"#utility.yul\":3643:3649   */\n      dup3\n        /* \"#utility.yul\":3638:3641   */\n      dup3\n        /* \"#utility.yul\":3631:3650   */\n      mstore\n        /* \"#utility.yul\":3683:3687   */\n      0x20\n        /* \"#utility.yul\":3678:3681   */\n      dup3\n        /* \"#utility.yul\":3674:3688   */\n      add\n        /* \"#utility.yul\":3659:3688   */\n      swap1\n      pop\n        /* \"#utility.yul\":3510:3694   */\n      swap3\n      swap2\n      pop\n      pop\n      jump\t// out\n        /* \"#utility.yul\":3700:3832   */\n    tag_93:\n        /* \"#utility.yul\":3767:3771   */\n      0x00\n        /* \"#utility.yul\":3790:3793   */\n      dup2\n        /* \"#utility.yul\":3782:3793   */\n      swap1\n      pop\n        /* \"#utility.yul\":3820:3824   */\n      0x20\n        /* \"#utility.yul\":3815:3818   */\n      dup3\n        /* \"#utility.yul\":3811:3825   */\n      add\n        /* \"#utility.yul\":3803:3825   */\n      swap1\n      pop\n        /* \"#utility.yul\":3700:3832   */\n      swap2\n      swap1\n      pop\n      jump\t// out\n        /* \"#utility.yul\":3838:3964   */\n    tag_94:\n        /* \"#utility.yul\":3875:3882   */\n      0x00\n        /* \"#utility.yul\":3915:3957   */\n      0xffffffffffffffffffffffffffffffffffffffff\n        /* \"#utility.yul\":3908:3913   */\n      dup3\n        /* \"#utility.yul\":3904:3958   */\n      and\n        /* \"#utility.yul\":3893:3958   */\n      swap1\n      pop\n        /* \"#utility.yul\":3838:3964   */\n      swap2\n      swap1\n      pop\n      jump\t// out\n        /* \"#utility.yul\":3970:4066   */\n    tag_95:\n        /* \"#utility.yul\":4007:4014   */\n      0x00\n        /* \"#utility.yul\":4036:4060   */\n      tag_153\n        /* \"#utility.yul\":4054:4059   */\n      dup3\n        /* \"#utility.yul\":4036:4060   */\n      tag_94\n      jump\t// in\n    tag_153:\n        /* \"#utility.yul\":4025:4060   */\n      swap1\n      pop\n        /* \"#utility.yul\":3970:4066   */\n      swap2\n      swap1\n      pop\n      jump\t// out\n        /* \"#utility.yul\":4072:4180   */\n    tag_96:\n        /* \"#utility.yul\":4149:4173   */\n      tag_155\n        /* \"#utility.yul\":4167:4172   */\n      dup2\n        /* \"#utility.yul\":4149:4173   */\n      tag_95\n      jump\t// in\n    tag_155:\n        /* \"#utility.yul\":4144:4147   */\n      dup3\n        /* \"#utility.yul\":4137:4174   */\n      mstore\n        /* \"#utility.yul\":4072:4180   */\n      pop\n      pop\n      jump\t// out\n        /* \"#utility.yul\":4186:4365   */\n    tag_97:\n        /* \"#utility.yul\":4255:4265   */\n      0x00\n        /* \"#utility.yul\":4276:4322   */\n      tag_157\n        /* \"#utility.yul\":4318:4321   */\n      dup4\n        /* \"#utility.yul\":4310:4316   */\n      dup4\n        /* \"#utility.yul\":4276:4322   */\n      tag_96\n      jump\t// in\n    tag_157:\n        /* \"#utility.yul\":4354:4358   */\n      0x20\n        /* \"#utility.yul\":4349:4352   */\n      dup4\n        /* \"#utility.yul\":4345:4359   */\n      add\n        /* \"#utility.yul\":4331:4359   */\n      swap1\n      pop\n        /* \"#utility.yul\":4186:4365   */\n      swap3\n      swap2\n      pop\n      pop\n      jump\t// out\n        /* \"#utility.yul\":4371:4484   */\n    tag_98:\n        /* \"#utility.yul\":4441:4445   */\n      0x00\n        /* \"#utility.yul\":4473:4477   */\n      0x20\n        /* \"#utility.yul\":4468:4471   */\n      dup3\n        /* \"#utility.yul\":4464:4478   */\n      add\n        /* \"#utility.yul\":4456:4478   */\n      swap1\n      pop\n        /* \"#utility.yul\":4371:4484   */\n      swap2\n      swap1\n      pop\n      jump\t// out\n        /* \"#utility.yul\":4520:5252   */\n    tag_99:\n        /* \"#utility.yul\":4639:4642   */\n      0x00\n        /* \"#utility.yul\":4668:4722   */\n      tag_160\n        /* \"#utility.yul\":4716:4721   */\n      dup3\n        /* \"#utility.yul\":4668:4722   */\n      tag_91\n      jump\t// in\n    tag_160:\n        /* \"#utility.yul\":4738:4824   */\n      tag_161\n        /* \"#utility.yul\":4817:4823   */\n      dup2\n        /* \"#utility.yul\":4812:4815   */\n      dup6\n        /* \"#utility.yul\":4738:4824   */\n      tag_92\n      jump\t// in\n    tag_161:\n        /* \"#utility.yul\":4731:4824   */\n      swap4\n      pop\n        /* \"#utility.yul\":4848:4904   */\n      tag_162\n        /* \"#utility.yul\":4898:4903   */\n      dup4\n        /* \"#utility.yul\":4848:4904   */\n      tag_93\n      jump\t// in\n    tag_162:\n        /* \"#utility.yul\":4927:4934   */\n      dup1\n        /* \"#utility.yul\":4958:4959   */\n      0x00\n        /* \"#utility.yul\":4943:5227   */\n    tag_163:\n        /* \"#utility.yul\":4968:4974   */\n      dup4\n        /* \"#utility.yul\":4965:4966   */\n      dup2\n        /* \"#utility.yul\":4962:4975   */\n      lt\n        /* \"#utility.yul\":4943:5227   */\n      iszero\n      tag_165\n      jumpi\n        /* \"#utility.yul\":5044:5050   */\n      dup2\n        /* \"#utility.yul\":5038:5051   */\n      mload\n        /* \"#utility.yul\":5071:5134   */\n      tag_166\n        /* \"#utility.yul\":5130:5133   */\n      dup9\n        /* \"#utility.yul\":5115:5128   */\n      dup3\n        /* \"#utility.yul\":5071:5134   */\n      tag_97\n      jump\t// in\n    tag_166:\n        /* \"#utility.yul\":5064:5134   */\n      swap8\n      pop\n        /* \"#utility.yul\":5157:5217   */\n      tag_167\n        /* \"#utility.yul\":5210:5216   */\n      dup4\n        /* \"#utility.yul\":5157:5217   */\n      tag_98\n      jump\t// in\n    tag_167:\n        /* \"#utility.yul\":5147:5217   */\n      swap3\n      pop\n        /* \"#utility.yul\":5003:5227   */\n      pop\n        /* \"#utility.yul\":4990:4991   */\n      0x01\n        /* \"#utility.yul\":4987:4988   */\n      dup2\n        /* \"#utility.yul\":4983:4992   */\n      add\n        /* \"#utility.yul\":4978:4992   */\n      swap1\n      pop\n        /* \"#utility.yul\":4943:5227   */\n      jump(tag_163)\n    tag_165:\n        /* \"#utility.yul\":4947:4961   */\n      pop\n        /* \"#utility.yul\":5243:5246   */\n      dup6\n        /* \"#utility.yul\":5236:5246   */\n      swap4\n      pop\n        /* \"#utility.yul\":4644:5252   */\n      pop\n      pop\n      pop\n        /* \"#utility.yul\":4520:5252   */\n      swap3\n      swap2\n      pop\n      pop\n      jump\t// out\n        /* \"#utility.yul\":5258:5348   */\n    tag_100:\n        /* \"#utility.yul\":5292:5299   */\n      0x00\n        /* \"#utility.yul\":5335:5340   */\n      dup2\n        /* \"#utility.yul\":5328:5341   */\n      iszero\n        /* \"#utility.yul\":5321:5342   */\n      iszero\n        /* \"#utility.yul\":5310:5342   */\n      swap1\n      pop\n        /* \"#utility.yul\":5258:5348   */\n      swap2\n      swap1\n      pop\n      jump\t// out\n        /* \"#utility.yul\":5354:5463   */\n    tag_101:\n        /* \"#utility.yul\":5435:5456   */\n      tag_170\n        /* \"#utility.yul\":5450:5455   */\n      dup2\n        /* \"#utility.yul\":5435:5456   */\n      tag_100\n      jump\t// in\n    tag_170:\n        /* \"#utility.yul\":5430:5433   */\n      dup3\n        /* \"#utility.yul\":5423:5457   */\n      mstore\n        /* \"#utility.yul\":5354:5463   */\n      pop\n      pop\n      jump\t// out\n        /* \"#utility.yul\":5469:6300   */\n    tag_21:\n        /* \"#utility.yul\":5734:5738   */\n      0x00\n        /* \"#utility.yul\":5772:5775   */\n      0x80\n        /* \"#utility.yul\":5761:5770   */\n      dup3\n        /* \"#utility.yul\":5757:5776   */\n      add\n        /* \"#utility.yul\":5749:5776   */\n      swap1\n      pop\n        /* \"#utility.yul\":5822:5831   */\n      dup2\n        /* \"#utility.yul\":5816:5820   */\n      dup2\n        /* \"#utility.yul\":5812:5832   */\n      sub\n        /* \"#utility.yul\":5808:5809   */\n      0x00\n        /* \"#utility.yul\":5797:5806   */\n      dup4\n        /* \"#utility.yul\":5793:5810   */\n      add\n        /* \"#utility.yul\":5786:5833   */\n      mstore\n        /* \"#utility.yul\":5850:5958   */\n      tag_172\n        /* \"#utility.yul\":5953:5957   */\n      dup2\n        /* \"#utility.yul\":5944:5950   */\n      dup8\n        /* \"#utility.yul\":5850:5958   */\n      tag_99\n      jump\t// in\n    tag_172:\n        /* \"#utility.yul\":5842:5958   */\n      swap1\n      pop\n        /* \"#utility.yul\":6005:6014   */\n      dup2\n        /* \"#utility.yul\":5999:6003   */\n      dup2\n        /* \"#utility.yul\":5995:6015   */\n      sub\n        /* \"#utility.yul\":5990:5992   */\n      0x20\n        /* \"#utility.yul\":5979:5988   */\n      dup4\n        /* \"#utility.yul\":5975:5993   */\n      add\n        /* \"#utility.yul\":5968:6016   */\n      mstore\n        /* \"#utility.yul\":6033:6141   */\n      tag_173\n        /* \"#utility.yul\":6136:6140   */\n      dup2\n        /* \"#utility.yul\":6127:6133   */\n      dup7\n        /* \"#utility.yul\":6033:6141   */\n      tag_90\n      jump\t// in\n    tag_173:\n        /* \"#utility.yul\":6025:6141   */\n      swap1\n      pop\n        /* \"#utility.yul\":6151:6217   */\n      tag_174\n        /* \"#utility.yul\":6213:6215   */\n      0x40\n        /* \"#utility.yul\":6202:6211   */\n      dup4\n        /* \"#utility.yul\":6198:6216   */\n      add\n        /* \"#utility.yul\":6189:6195   */\n      dup6\n        /* \"#utility.yul\":6151:6217   */\n      tag_101\n      jump\t// in\n    tag_174:\n        /* \"#utility.yul\":6227:6293   */\n      tag_175\n        /* \"#utility.yul\":6289:6291   */\n      0x60\n        /* \"#utility.yul\":6278:6287   */\n      dup4\n        /* \"#utility.yul\":6274:6292   */\n      add\n        /* \"#utility.yul\":6265:6271   */\n      dup5\n        /* \"#utility.yul\":6227:6293   */\n      tag_101\n      jump\t// in\n    tag_175:\n        /* \"#utility.yul\":5469:6300   */\n      swap6\n      swap5\n      pop\n      pop\n      pop\n      pop\n      pop\n      jump\t// out\n        /* \"#utility.yul\":6306:6780   */\n    tag_24:\n        /* \"#utility.yul\":6374:6380   */\n      0x00\n        /* \"#utility.yul\":6382:6388   */\n      dup1\n        /* \"#utility.yul\":6431:6433   */\n      0x40\n        /* \"#utility.yul\":6419:6428   */\n      dup4\n        /* \"#utility.yul\":6410:6417   */\n      dup6\n        /* \"#utility.yul\":6406:6429   */\n      sub\n        /* \"#utility.yul\":6402:6434   */\n      slt\n        /* \"#utility.yul\":6399:6518   */\n      iszero\n      tag_177\n      jumpi\n        /* \"#utility.yul\":6437:6516   */\n      tag_178\n      tag_78\n      jump\t// in\n    tag_178:\n        /* \"#utility.yul\":6399:6518   */\n    tag_177:\n        /* \"#utility.yul\":6557:6558   */\n      0x00\n        /* \"#utility.yul\":6582:6635   */\n      tag_179\n        /* \"#utility.yul\":6627:6634   */\n      dup6\n        /* \"#utility.yul\":6618:6624   */\n      dup3\n        /* \"#utility.yul\":6607:6616   */\n      dup7\n        /* \"#utility.yul\":6603:6625   */\n      add\n        /* \"#utility.yul\":6582:6635   */\n      tag_82\n      jump\t// in\n    tag_179:\n        /* \"#utility.yul\":6572:6635   */\n      swap3\n      pop\n        /* \"#utility.yul\":6528:6645   */\n      pop\n        /* \"#utility.yul\":6684:6686   */\n      0x20\n        /* \"#utility.yul\":6710:6763   */\n      tag_180\n        /* \"#utility.yul\":6755:6762   */\n      dup6\n        /* \"#utility.yul\":6746:6752   */\n      dup3\n        /* \"#utility.yul\":6735:6744   */\n      dup7\n        /* \"#utility.yul\":6731:6753   */\n      add\n        /* \"#utility.yul\":6710:6763   */\n      tag_82\n      jump\t// in\n    tag_180:\n        /* \"#utility.yul\":6700:6763   */\n      swap2\n      pop\n        /* \"#utility.yul\":6655:6773   */\n      pop\n        /* \"#utility.yul\":6306:6780   */\n      swap3\n      pop\n      swap3\n      swap1\n      pop\n      jump\t// out\n        /* \"#utility.yul\":6786:6955   */\n    tag_102:\n        /* \"#utility.yul\":6870:6881   */\n      0x00\n        /* \"#utility.yul\":6904:6910   */\n      dup3\n        /* \"#utility.yul\":6899:6902   */\n      dup3\n        /* \"#utility.yul\":6892:6911   */\n      mstore\n        /* \"#utility.yul\":6944:6948   */\n      0x20\n        /* \"#utility.yul\":6939:6942   */\n      dup3\n        /* \"#utility.yul\":6935:6949   */\n      add\n        /* \"#utility.yul\":6920:6949   */\n      swap1\n      pop\n        /* \"#utility.yul\":6786:6955   */\n      swap3\n      swap2\n      pop\n      pop\n      jump\t// out\n        /* \"#utility.yul\":6961:7132   */\n    tag_103:\n        /* \"#utility.yul\":7101:7124   */\n      0x4e6f206578697374696e67206167656e64612069640000000000000000000000\n        /* \"#utility.yul\":7097:7098   */\n      0x00\n        /* \"#utility.yul\":7089:7095   */\n      dup3\n        /* \"#utility.yul\":7085:7099   */\n      add\n        /* \"#utility.yul\":7078:7125   */\n      mstore\n        /* \"#utility.yul\":6961:7132   */\n      pop\n      jump\t// out\n        /* \"#utility.yul\":7138:7504   */\n    tag_104:\n        /* \"#utility.yul\":7280:7283   */\n      0x00\n        /* \"#utility.yul\":7301:7368   */\n      tag_184\n        /* \"#utility.yul\":7365:7367   */\n      0x15\n        /* \"#utility.yul\":7360:7363   */\n      dup4\n        /* \"#utility.yul\":7301:7368   */\n      tag_102\n      jump\t// in\n    tag_184:\n        /* \"#utility.yul\":7294:7368   */\n      swap2\n      pop\n        /* \"#utility.yul\":7377:7470   */\n      tag_185\n        /* \"#utility.yul\":7466:7469   */\n      dup3\n        /* \"#utility.yul\":7377:7470   */\n      tag_103\n      jump\t// in\n    tag_185:\n        /* \"#utility.yul\":7495:7497   */\n      0x20\n        /* \"#utility.yul\":7490:7493   */\n      dup3\n        /* \"#utility.yul\":7486:7498   */\n      add\n        /* \"#utility.yul\":7479:7498   */\n      swap1\n      pop\n        /* \"#utility.yul\":7138:7504   */\n      swap2\n      swap1\n      pop\n      jump\t// out\n        /* \"#utility.yul\":7510:7929   */\n    tag_38:\n        /* \"#utility.yul\":7676:7680   */\n      0x00\n        /* \"#utility.yul\":7714:7716   */\n      0x20\n        /* \"#utility.yul\":7703:7712   */\n      dup3\n        /* \"#utility.yul\":7699:7717   */\n      add\n        /* \"#utility.yul\":7691:7717   */\n      swap1\n      pop\n        /* \"#utility.yul\":7763:7772   */\n      dup2\n        /* \"#utility.yul\":7757:7761   */\n      dup2\n        /* \"#utility.yul\":7753:7773   */\n      sub\n        /* \"#utility.yul\":7749:7750   */\n      0x00\n        /* \"#utility.yul\":7738:7747   */\n      dup4\n        /* \"#utility.yul\":7734:7751   */\n      add\n        /* \"#utility.yul\":7727:7774   */\n      mstore\n        /* \"#utility.yul\":7791:7922   */\n      tag_187\n        /* \"#utility.yul\":7917:7921   */\n      dup2\n        /* \"#utility.yul\":7791:7922   */\n      tag_104\n      jump\t// in\n    tag_187:\n        /* \"#utility.yul\":7783:7922   */\n      swap1\n      pop\n        /* \"#utility.yul\":7510:7929   */\n      swap2\n      swap1\n      pop\n      jump\t// out\n        /* \"#utility.yul\":7935:8104   */\n    tag_105:\n        /* \"#utility.yul\":8075:8096   */\n      0x3020746f6b656e207472616e7366657272656400000000000000000000000000\n        /* \"#utility.yul\":8071:8072   */\n      0x00\n        /* \"#utility.yul\":8063:8069   */\n      dup3\n        /* \"#utility.yul\":8059:8073   */\n      add\n        /* \"#utility.yul\":8052:8097   */\n      mstore\n        /* \"#utility.yul\":7935:8104   */\n      pop\n      jump\t// out\n        /* \"#utility.yul\":8110:8476   */\n    tag_106:\n        /* \"#utility.yul\":8252:8255   */\n      0x00\n        /* \"#utility.yul\":8273:8340   */\n      tag_190\n        /* \"#utility.yul\":8337:8339   */\n      0x13\n        /* \"#utility.yul\":8332:8335   */\n      dup4\n        /* \"#utility.yul\":8273:8340   */\n      tag_102\n      jump\t// in\n    tag_190:\n        /* \"#utility.yul\":8266:8340   */\n      swap2\n      pop\n        /* \"#utility.yul\":8349:8442   */\n      tag_191\n        /* \"#utility.yul\":8438:8441   */\n      dup3\n        /* \"#utility.yul\":8349:8442   */\n      tag_105\n      jump\t// in\n    tag_191:\n        /* \"#utility.yul\":8467:8469   */\n      0x20\n        /* \"#utility.yul\":8462:8465   */\n      dup3\n        /* \"#utility.yul\":8458:8470   */\n      add\n        /* \"#utility.yul\":8451:8470   */\n      swap1\n      pop\n        /* \"#utility.yul\":8110:8476   */\n      swap2\n      swap1\n      pop\n      jump\t// out\n        /* \"#utility.yul\":8482:8901   */\n    tag_41:\n        /* \"#utility.yul\":8648:8652   */\n      0x00\n        /* \"#utility.yul\":8686:8688   */\n      0x20\n        /* \"#utility.yul\":8675:8684   */\n      dup3\n        /* \"#utility.yul\":8671:8689   */\n      add\n        /* \"#utility.yul\":8663:8689   */\n      swap1\n      pop\n        /* \"#utility.yul\":8735:8744   */\n      dup2\n        /* \"#utility.yul\":8729:8733   */\n      dup2\n        /* \"#utility.yul\":8725:8745   */\n      sub\n        /* \"#utility.yul\":8721:8722   */\n      0x00\n        /* \"#utility.yul\":8710:8719   */\n      dup4\n        /* \"#utility.yul\":8706:8723   */\n      add\n        /* \"#utility.yul\":8699:8746   */\n      mstore\n        /* \"#utility.yul\":8763:8894   */\n      tag_193\n        /* \"#utility.yul\":8889:8893   */\n      dup2\n        /* \"#utility.yul\":8763:8894   */\n      tag_106\n      jump\t// in\n    tag_193:\n        /* \"#utility.yul\":8755:8894   */\n      swap1\n      pop\n        /* \"#utility.yul\":8482:8901   */\n      swap2\n      swap1\n      pop\n      jump\t// out\n        /* \"#utility.yul\":8907:9087   */\n    tag_107:\n        /* \"#utility.yul\":8955:9032   */\n      0x4e487b7100000000000000000000000000000000000000000000000000000000\n        /* \"#utility.yul\":8952:8953   */\n      0x00\n        /* \"#utility.yul\":8945:9033   */\n      mstore\n        /* \"#utility.yul\":9052:9056   */\n      0x11\n        /* \"#utility.yul\":9049:9050   */\n      0x04\n        /* \"#utility.yul\":9042:9057   */\n      mstore\n        /* \"#utility.yul\":9076:9080   */\n      0x24\n        /* \"#utility.yul\":9073:9074   */\n      0x00\n        /* \"#utility.yul\":9066:9081   */\n      revert\n        /* \"#utility.yul\":9093:9284   */\n    tag_43:\n        /* \"#utility.yul\":9133:9136   */\n      0x00\n        /* \"#utility.yul\":9152:9172   */\n      tag_196\n        /* \"#utility.yul\":9170:9171   */\n      dup3\n        /* \"#utility.yul\":9152:9172   */\n      tag_80\n      jump\t// in\n    tag_196:\n        /* \"#utility.yul\":9147:9172   */\n      swap2\n      pop\n        /* \"#utility.yul\":9186:9206   */\n      tag_197\n        /* \"#utility.yul\":9204:9205   */\n      dup4\n        /* \"#utility.yul\":9186:9206   */\n      tag_80\n      jump\t// in\n    tag_197:\n        /* \"#utility.yul\":9181:9206   */\n      swap3\n      pop\n        /* \"#utility.yul\":9229:9230   */\n      dup3\n        /* \"#utility.yul\":9226:9227   */\n      dup3\n        /* \"#utility.yul\":9222:9231   */\n      add\n        /* \"#utility.yul\":9215:9231   */\n      swap1\n      pop\n        /* \"#utility.yul\":9250:9253   */\n      dup1\n        /* \"#utility.yul\":9247:9248   */\n      dup3\n        /* \"#utility.yul\":9244:9254   */\n      gt\n        /* \"#utility.yul\":9241:9277   */\n      iszero\n      tag_198\n      jumpi\n        /* \"#utility.yul\":9257:9275   */\n      tag_199\n      tag_107\n      jump\t// in\n    tag_199:\n        /* \"#utility.yul\":9241:9277   */\n    tag_198:\n        /* \"#utility.yul\":9093:9284   */\n      swap3\n      swap2\n      pop\n      pop\n      jump\t// out\n        /* \"#utility.yul\":9290:9515   */\n    tag_108:\n        /* \"#utility.yul\":9430:9464   */\n      0x4d6178696d756d20617661696c61626c6520746f6b656e20696e707574206578\n        /* \"#utility.yul\":9426:9427   */\n      0x00\n        /* \"#utility.yul\":9418:9424   */\n      dup3\n        /* \"#utility.yul\":9414:9428   */\n      add\n        /* \"#utility.yul\":9407:9465   */\n      mstore\n        /* \"#utility.yul\":9499:9507   */\n      0x6365656465640000000000000000000000000000000000000000000000000000\n        /* \"#utility.yul\":9494:9496   */\n      0x20\n        /* \"#utility.yul\":9486:9492   */\n      dup3\n        /* \"#utility.yul\":9482:9497   */\n      add\n        /* \"#utility.yul\":9475:9508   */\n      mstore\n        /* \"#utility.yul\":9290:9515   */\n      pop\n      jump\t// out\n        /* \"#utility.yul\":9521:9887   */\n    tag_109:\n        /* \"#utility.yul\":9663:9666   */\n      0x00\n        /* \"#utility.yul\":9684:9751   */\n      tag_202\n        /* \"#utility.yul\":9748:9750   */\n      0x26\n        /* \"#utility.yul\":9743:9746   */\n      dup4\n        /* \"#utility.yul\":9684:9751   */\n      tag_102\n      jump\t// in\n    tag_202:\n        /* \"#utility.yul\":9677:9751   */\n      swap2\n      pop\n        /* \"#utility.yul\":9760:9853   */\n      tag_203\n        /* \"#utility.yul\":9849:9852   */\n      dup3\n        /* \"#utility.yul\":9760:9853   */\n      tag_108\n      jump\t// in\n    tag_203:\n        /* \"#utility.yul\":9878:9880   */\n      0x40\n        /* \"#utility.yul\":9873:9876   */\n      dup3\n        /* \"#utility.yul\":9869:9881   */\n      add\n        /* \"#utility.yul\":9862:9881   */\n      swap1\n      pop\n        /* \"#utility.yul\":9521:9887   */\n      swap2\n      swap1\n      pop\n      jump\t// out\n        /* \"#utility.yul\":9893:10312   */\n    tag_46:\n        /* \"#utility.yul\":10059:10063   */\n      0x00\n        /* \"#utility.yul\":10097:10099   */\n      0x20\n        /* \"#utility.yul\":10086:10095   */\n      dup3\n        /* \"#utility.yul\":10082:10100   */\n      add\n        /* \"#utility.yul\":10074:10100   */\n      swap1\n      pop\n        /* \"#utility.yul\":10146:10155   */\n      dup2\n        /* \"#utility.yul\":10140:10144   */\n      dup2\n        /* \"#utility.yul\":10136:10156   */\n      sub\n        /* \"#utility.yul\":10132:10133   */\n      0x00\n        /* \"#utility.yul\":10121:10130   */\n      dup4\n        /* \"#utility.yul\":10117:10134   */\n      add\n        /* \"#utility.yul\":10110:10157   */\n      mstore\n        /* \"#utility.yul\":10174:10305   */\n      tag_205\n        /* \"#utility.yul\":10300:10304   */\n      dup2\n        /* \"#utility.yul\":10174:10305   */\n      tag_109\n      jump\t// in\n    tag_205:\n        /* \"#utility.yul\":10166:10305   */\n      swap1\n      pop\n        /* \"#utility.yul\":9893:10312   */\n      swap2\n      swap1\n      pop\n      jump\t// out\n        /* \"#utility.yul\":10318:10498   */\n    tag_53:\n        /* \"#utility.yul\":10366:10443   */\n      0x4e487b7100000000000000000000000000000000000000000000000000000000\n        /* \"#utility.yul\":10363:10364   */\n      0x00\n        /* \"#utility.yul\":10356:10444   */\n      mstore\n        /* \"#utility.yul\":10463:10467   */\n      0x32\n        /* \"#utility.yul\":10460:10461   */\n      0x04\n        /* \"#utility.yul\":10453:10468   */\n      mstore\n        /* \"#utility.yul\":10487:10491   */\n      0x24\n        /* \"#utility.yul\":10484:10485   */\n      0x00\n        /* \"#utility.yul\":10477:10492   */\n      revert\n        /* \"#utility.yul\":10504:10622   */\n    tag_110:\n        /* \"#utility.yul\":10591:10615   */\n      tag_208\n        /* \"#utility.yul\":10609:10614   */\n      dup2\n        /* \"#utility.yul\":10591:10615   */\n      tag_95\n      jump\t// in\n    tag_208:\n        /* \"#utility.yul\":10586:10589   */\n      dup3\n        /* \"#utility.yul\":10579:10616   */\n      mstore\n        /* \"#utility.yul\":10504:10622   */\n      pop\n      pop\n      jump\t// out\n        /* \"#utility.yul\":10628:10960   */\n    tag_60:\n        /* \"#utility.yul\":10749:10753   */\n      0x00\n        /* \"#utility.yul\":10787:10789   */\n      0x40\n        /* \"#utility.yul\":10776:10785   */\n      dup3\n        /* \"#utility.yul\":10772:10790   */\n      add\n        /* \"#utility.yul\":10764:10790   */\n      swap1\n      pop\n        /* \"#utility.yul\":10800:10871   */\n      tag_210\n        /* \"#utility.yul\":10868:10869   */\n      0x00\n        /* \"#utility.yul\":10857:10866   */\n      dup4\n        /* \"#utility.yul\":10853:10870   */\n      add\n        /* \"#utility.yul\":10844:10850   */\n      dup6\n        /* \"#utility.yul\":10800:10871   */\n      tag_110\n      jump\t// in\n    tag_210:\n        /* \"#utility.yul\":10881:10953   */\n      tag_211\n        /* \"#utility.yul\":10949:10951   */\n      0x20\n        /* \"#utility.yul\":10938:10947   */\n      dup4\n        /* \"#utility.yul\":10934:10952   */\n      add\n        /* \"#utility.yul\":10925:10931   */\n      dup5\n        /* \"#utility.yul\":10881:10953   */\n      tag_83\n      jump\t// in\n    tag_211:\n        /* \"#utility.yul\":10628:10960   */\n      swap4\n      swap3\n      pop\n      pop\n      pop\n      jump\t// out\n        /* \"#utility.yul\":10966:11146   */\n    tag_67:\n        /* \"#utility.yul\":11014:11091   */\n      0x4e487b7100000000000000000000000000000000000000000000000000000000\n        /* \"#utility.yul\":11011:11012   */\n      0x00\n        /* \"#utility.yul\":11004:11092   */\n      mstore\n        /* \"#utility.yul\":11111:11115   */\n      0x41\n        /* \"#utility.yul\":11108:11109   */\n      0x04\n        /* \"#utility.yul\":11101:11116   */\n      mstore\n        /* \"#utility.yul\":11135:11139   */\n      0x24\n        /* \"#utility.yul\":11132:11133   */\n      0x00\n        /* \"#utility.yul\":11125:11140   */\n      revert\n\n    auxdata: 0xa264697066735822122058ed781fb1e2955e4aacdcc252cccb8d5ab065e4c31cfbaa07c3f7bc5e328b4164736f6c63430008180033\n}\n",
				"bytecode": {
					"linkReferences": {},
					"object": "608060405273adb8d027111ae2cb88e3c00730af8eeecbc21ca85f806101000a81548173ffffffffffffffffffffffffffffffffffffffff021916908373ffffffffffffffffffffffffffffffffffffffff1602179055505f8054906101000a900473ffffffffffffffffffffffffffffffffffffffff1660015f6101000a81548173ffffffffffffffffffffffffffffffffffffffff021916908373ffffffffffffffffffffffffffffffffffffffff16021790555060015f9054906101000a900473ffffffffffffffffffffffffffffffffffffffff1673ffffffffffffffffffffffffffffffffffffffff16637e3cd5c46040518163ffffffff1660e01b8152600401602060405180830381865afa158015610120573d5f803e3d5ffd5b505050506040513d601f19601f8201168201806040525081019061014491906101d4565b6003556064600455348015610157575f80fd5b503360025f6101000a81548173ffffffffffffffffffffffffffffffffffffffff021916908373ffffffffffffffffffffffffffffffffffffffff1602179055506101ff565b5f80fd5b5f819050919050565b6101b3816101a1565b81146101bd575f80fd5b50565b5f815190506101ce816101aa565b92915050565b5f602082840312156101e9576101e861019d565b5b5f6101f6848285016101c0565b91505092915050565b610c0c8061020c5f395ff3fe608060405234801561000f575f80fd5b5060043610610049575f3560e01c80629b93691461004d57806313d8ac9e1461007d5780638f6339941461009b578063b384abef146100ce575b5f80fd5b610067600480360381019061006291906106be565b6100ea565b60405161007491906106f8565b60405180910390f35b610085610107565b60405161009291906107c8565b60405180910390f35b6100b560048036038101906100b091906106be565b61015d565b6040516100c594939291906108e9565b60405180910390f35b6100e860048036038101906100e3919061093a565b61023a565b005b5f60065f8381526020019081526020015f20600101549050919050565b6060600580548060200260200160405190810160405280929190818152602001828054801561015357602002820191905f5260205f20905b81548152602001906001019080831161013f575b5050505050905090565b6060805f805f60065f8781526020019081526020015f209050805f016101828261056c565b826003015f9054906101000a900460ff168360030160019054906101000a900460ff168380548060200260200160405190810160405280929190818152602001828054801561022357602002820191905f5260205f20905b815f9054906101000a900473ffffffffffffffffffffffffffffffffffffffff1673ffffffffffffffffffffffffffffffffffffffff16815260200190600101908083116101da575b505050505093509450945094509450509193509193565b60035482111561027f576040517f08c379a0000000000000000000000000000000000000000000000000000000008152600401610276906109d2565b60405180910390fd5b5f81116102c1576040517f08c379a00000000000000000000000000000000000000000000000000000000081526004016102b890610a3a565b60405180910390fd5b6004548160065f8581526020019081526020015f20600101546102e49190610a85565b1115610325576040517f08c379a000000000000000000000000000000000000000000000000000000000815260040161031c90610b28565b60405180910390fd5b5f60065f8481526020019081526020015f20905081816001015f82825461034c9190610a85565b925050819055505f805b825f01805490508110156103e9573373ffffffffffffffffffffffffffffffffffffffff16835f0182815481106103905761038f610b46565b5b905f5260205f20015f9054906101000a900473ffffffffffffffffffffffffffffffffffffffff1673ffffffffffffffffffffffffffffffffffffffff16036103dc57600191506103e9565b8080600101915050610356565b508061045157815f0133908060018154018082558091505060019003905f5260205f20015f9091909190916101000a81548173ffffffffffffffffffffffffffffffffffffffff021916908373ffffffffffffffffffffffffffffffffffffffff1602179055505b82826002015f3373ffffffffffffffffffffffffffffffffffffffff1673ffffffffffffffffffffffffffffffffffffffff1681526020019081526020015f205f82825461049f9190610a85565b925050819055507ff668ead05c744b9178e571d2edb452e72baf6529c8d72160e64e59b50d865bd033846040516104d7929190610b82565b60405180910390a160045482600101540361056657600584908060018154018082558091505060019003905f5260205f20015f90919091909150556001826003015f6101000a81548160ff0219169083151502179055507ff3ecdc9ffda52c5ad69793c567cb456f83bba2d14f196542e0be80c919a8bda38460405161055d91906106f8565b60405180910390a15b50505050565b60605f825f018054905067ffffffffffffffff81111561058f5761058e610ba9565b5b6040519080825280602002602001820160405280156105bd5781602001602082028036833780820191505090505b5090505f5b835f018054905081101561067d575f845f0182815481106105e6576105e5610b46565b5b905f5260205f20015f9054906101000a900473ffffffffffffffffffffffffffffffffffffffff169050846002015f8273ffffffffffffffffffffffffffffffffffffffff1673ffffffffffffffffffffffffffffffffffffffff1681526020019081526020015f205483838151811061066357610662610b46565b5b6020026020010181815250505080806001019150506105c2565b5080915050919050565b5f80fd5b5f819050919050565b61069d8161068b565b81146106a7575f80fd5b50565b5f813590506106b881610694565b92915050565b5f602082840312156106d3576106d2610687565b5b5f6106e0848285016106aa565b91505092915050565b6106f28161068b565b82525050565b5f60208201905061070b5f8301846106e9565b92915050565b5f81519050919050565b5f82825260208201905092915050565b5f819050602082019050919050565b6107438161068b565b82525050565b5f610754838361073a565b60208301905092915050565b5f602082019050919050565b5f61077682610711565b610780818561071b565b935061078b8361072b565b805f5b838110156107bb5781516107a28882610749565b97506107ad83610760565b92505060018101905061078e565b5085935050505092915050565b5f6020820190508181035f8301526107e0818461076c565b905092915050565b5f81519050919050565b5f82825260208201905092915050565b5f819050602082019050919050565b5f73ffffffffffffffffffffffffffffffffffffffff82169050919050565b5f61083a82610811565b9050919050565b61084a81610830565b82525050565b5f61085b8383610841565b60208301905092915050565b5f602082019050919050565b5f61087d826107e8565b61088781856107f2565b935061089283610802565b805f5b838110156108c25781516108a98882610850565b97506108b483610867565b925050600181019050610895565b5085935050505092915050565b5f8115159050919050565b6108e3816108cf565b82525050565b5f6080820190508181035f8301526109018187610873565b90508181036020830152610915818661076c565b905061092460408301856108da565b61093160608301846108da565b95945050505050565b5f80604083850312156109505761094f610687565b5b5f61095d858286016106aa565b925050602061096e858286016106aa565b9150509250929050565b5f82825260208201905092915050565b7f4e6f206578697374696e67206167656e646120696400000000000000000000005f82015250565b5f6109bc601583610978565b91506109c782610988565b602082019050919050565b5f6020820190508181035f8301526109e9816109b0565b9050919050565b7f3020746f6b656e207472616e73666572726564000000000000000000000000005f82015250565b5f610a24601383610978565b9150610a2f826109f0565b602082019050919050565b5f6020820190508181035f830152610a5181610a18565b9050919050565b7f4e487b71000000000000000000000000000000000000000000000000000000005f52601160045260245ffd5b5f610a8f8261068b565b9150610a9a8361068b565b9250828201905080821115610ab257610ab1610a58565b5b92915050565b7f4d6178696d756d20617661696c61626c6520746f6b656e20696e7075742065785f8201527f6365656465640000000000000000000000000000000000000000000000000000602082015250565b5f610b12602683610978565b9150610b1d82610ab8565b604082019050919050565b5f6020820190508181035f830152610b3f81610b06565b9050919050565b7f4e487b71000000000000000000000000000000000000000000000000000000005f52603260045260245ffd5b610b7c81610830565b82525050565b5f604082019050610b955f830185610b73565b610ba260208301846106e9565b9392505050565b7f4e487b71000000000000000000000000000000000000000000000000000000005f52604160045260245ffdfea264697066735822122058ed781fb1e2955e4aacdcc252cccb8d5ab065e4c31cfbaa07c3f7bc5e328b4164736f6c63430008180033",
					"opcodes": "PUSH1 0x80 PUSH1 0x40 MSTORE PUSH20 0xADB8D027111AE2CB88E3C00730AF8EEECBC21CA8 PUSH0 DUP1 PUSH2 0x100 EXP DUP2 SLOAD DUP2 PUSH20 0xFFFFFFFFFFFFFFFFFFFFFFFFFFFFFFFFFFFFFFFF MUL NOT AND SWAP1 DUP4 PUSH20 0xFFFFFFFFFFFFFFFFFFFFFFFFFFFFFFFFFFFFFFFF AND MUL OR SWAP1 SSTORE POP PUSH0 DUP1 SLOAD SWAP1 PUSH2 0x100 EXP SWAP1 DIV PUSH20 0xFFFFFFFFFFFFFFFFFFFFFFFFFFFFFFFFFFFFFFFF AND PUSH1 0x1 PUSH0 PUSH2 0x100 EXP DUP2 SLOAD DUP2 PUSH20 0xFFFFFFFFFFFFFFFFFFFFFFFFFFFFFFFFFFFFFFFF MUL NOT AND SWAP1 DUP4 PUSH20 0xFFFFFFFFFFFFFFFFFFFFFFFFFFFFFFFFFFFFFFFF AND MUL OR SWAP1 SSTORE POP PUSH1 0x1 PUSH0 SWAP1 SLOAD SWAP1 PUSH2 0x100 EXP SWAP1 DIV PUSH20 0xFFFFFFFFFFFFFFFFFFFFFFFFFFFFFFFFFFFFFFFF AND PUSH20 0xFFFFFFFFFFFFFFFFFFFFFFFFFFFFFFFFFFFFFFFF AND PUSH4 0x7E3CD5C4 PUSH1 0x40 MLOAD DUP2 PUSH4 0xFFFFFFFF AND PUSH1 0xE0 SHL DUP2 MSTORE PUSH1 0x4 ADD PUSH1 0x20 PUSH1 0x40 MLOAD DUP1 DUP4 SUB DUP2 DUP7 GAS STATICCALL ISZERO DUP1 ISZERO PUSH2 0x120 JUMPI RETURNDATASIZE PUSH0 DUP1 RETURNDATACOPY RETURNDATASIZE PUSH0 REVERT JUMPDEST POP POP POP POP PUSH1 0x40 MLOAD RETURNDATASIZE PUSH1 0x1F NOT PUSH1 0x1F DUP3 ADD AND DUP3 ADD DUP1 PUSH1 0x40 MSTORE POP DUP2 ADD SWAP1 PUSH2 0x144 SWAP2 SWAP1 PUSH2 0x1D4 JUMP JUMPDEST PUSH1 0x3 SSTORE PUSH1 0x64 PUSH1 0x4 SSTORE CALLVALUE DUP1 ISZERO PUSH2 0x157 JUMPI PUSH0 DUP1 REVERT JUMPDEST POP CALLER PUSH1 0x2 PUSH0 PUSH2 0x100 EXP DUP2 SLOAD DUP2 PUSH20 0xFFFFFFFFFFFFFFFFFFFFFFFFFFFFFFFFFFFFFFFF MUL NOT AND SWAP1 DUP4 PUSH20 0xFFFFFFFFFFFFFFFFFFFFFFFFFFFFFFFFFFFFFFFF AND MUL OR SWAP1 SSTORE POP PUSH2 0x1FF JUMP JUMPDEST PUSH0 DUP1 REVERT JUMPDEST PUSH0 DUP2 SWAP1 POP SWAP2 SWAP1 POP JUMP JUMPDEST PUSH2 0x1B3 DUP2 PUSH2 0x1A1 JUMP JUMPDEST DUP2 EQ PUSH2 0x1BD JUMPI PUSH0 DUP1 REVERT JUMPDEST POP JUMP JUMPDEST PUSH0 DUP2 MLOAD SWAP1 POP PUSH2 0x1CE DUP2 PUSH2 0x1AA JUMP JUMPDEST SWAP3 SWAP2 POP POP JUMP JUMPDEST PUSH0 PUSH1 0x20 DUP3 DUP5 SUB SLT ISZERO PUSH2 0x1E9 JUMPI PUSH2 0x1E8 PUSH2 0x19D JUMP JUMPDEST JUMPDEST PUSH0 PUSH2 0x1F6 DUP5 DUP3 DUP6 ADD PUSH2 0x1C0 JUMP JUMPDEST SWAP2 POP POP SWAP3 SWAP2 POP POP JUMP JUMPDEST PUSH2 0xC0C DUP1 PUSH2 0x20C PUSH0 CODECOPY PUSH0 RETURN INVALID PUSH1 0x80 PUSH1 0x40 MSTORE CALLVALUE DUP1 ISZERO PUSH2 0xF JUMPI PUSH0 DUP1 REVERT JUMPDEST POP PUSH1 0x4 CALLDATASIZE LT PUSH2 0x49 JUMPI PUSH0 CALLDATALOAD PUSH1 0xE0 SHR DUP1 PUSH3 0x9B9369 EQ PUSH2 0x4D JUMPI DUP1 PUSH4 0x13D8AC9E EQ PUSH2 0x7D JUMPI DUP1 PUSH4 0x8F633994 EQ PUSH2 0x9B JUMPI DUP1 PUSH4 0xB384ABEF EQ PUSH2 0xCE JUMPI JUMPDEST PUSH0 DUP1 REVERT JUMPDEST PUSH2 0x67 PUSH1 0x4 DUP1 CALLDATASIZE SUB DUP2 ADD SWAP1 PUSH2 0x62 SWAP2 SWAP1 PUSH2 0x6BE JUMP JUMPDEST PUSH2 0xEA JUMP JUMPDEST PUSH1 0x40 MLOAD PUSH2 0x74 SWAP2 SWAP1 PUSH2 0x6F8 JUMP JUMPDEST PUSH1 0x40 MLOAD DUP1 SWAP2 SUB SWAP1 RETURN JUMPDEST PUSH2 0x85 PUSH2 0x107 JUMP JUMPDEST PUSH1 0x40 MLOAD PUSH2 0x92 SWAP2 SWAP1 PUSH2 0x7C8 JUMP JUMPDEST PUSH1 0x40 MLOAD DUP1 SWAP2 SUB SWAP1 RETURN JUMPDEST PUSH2 0xB5 PUSH1 0x4 DUP1 CALLDATASIZE SUB DUP2 ADD SWAP1 PUSH2 0xB0 SWAP2 SWAP1 PUSH2 0x6BE JUMP JUMPDEST PUSH2 0x15D JUMP JUMPDEST PUSH1 0x40 MLOAD PUSH2 0xC5 SWAP5 SWAP4 SWAP3 SWAP2 SWAP1 PUSH2 0x8E9 JUMP JUMPDEST PUSH1 0x40 MLOAD DUP1 SWAP2 SUB SWAP1 RETURN JUMPDEST PUSH2 0xE8 PUSH1 0x4 DUP1 CALLDATASIZE SUB DUP2 ADD SWAP1 PUSH2 0xE3 SWAP2 SWAP1 PUSH2 0x93A JUMP JUMPDEST PUSH2 0x23A JUMP JUMPDEST STOP JUMPDEST PUSH0 PUSH1 0x6 PUSH0 DUP4 DUP2 MSTORE PUSH1 0x20 ADD SWAP1 DUP2 MSTORE PUSH1 0x20 ADD PUSH0 KECCAK256 PUSH1 0x1 ADD SLOAD SWAP1 POP SWAP2 SWAP1 POP JUMP JUMPDEST PUSH1 0x60 PUSH1 0x5 DUP1 SLOAD DUP1 PUSH1 0x20 MUL PUSH1 0x20 ADD PUSH1 0x40 MLOAD SWAP1 DUP2 ADD PUSH1 0x40 MSTORE DUP1 SWAP3 SWAP2 SWAP1 DUP2 DUP2 MSTORE PUSH1 0x20 ADD DUP3 DUP1 SLOAD DUP1 ISZERO PUSH2 0x153 JUMPI PUSH1 0x20 MUL DUP3 ADD SWAP2 SWAP1 PUSH0 MSTORE PUSH1 0x20 PUSH0 KECCAK256 SWAP1 JUMPDEST DUP2 SLOAD DUP2 MSTORE PUSH1 0x20 ADD SWAP1 PUSH1 0x1 ADD SWAP1 DUP1 DUP4 GT PUSH2 0x13F JUMPI JUMPDEST POP POP POP POP POP SWAP1 POP SWAP1 JUMP JUMPDEST PUSH1 0x60 DUP1 PUSH0 DUP1 PUSH0 PUSH1 0x6 PUSH0 DUP8 DUP2 MSTORE PUSH1 0x20 ADD SWAP1 DUP2 MSTORE PUSH1 0x20 ADD PUSH0 KECCAK256 SWAP1 POP DUP1 PUSH0 ADD PUSH2 0x182 DUP3 PUSH2 0x56C JUMP JUMPDEST DUP3 PUSH1 0x3 ADD PUSH0 SWAP1 SLOAD SWAP1 PUSH2 0x100 EXP SWAP1 DIV PUSH1 0xFF AND DUP4 PUSH1 0x3 ADD PUSH1 0x1 SWAP1 SLOAD SWAP1 PUSH2 0x100 EXP SWAP1 DIV PUSH1 0xFF AND DUP4 DUP1 SLOAD DUP1 PUSH1 0x20 MUL PUSH1 0x20 ADD PUSH1 0x40 MLOAD SWAP1 DUP2 ADD PUSH1 0x40 MSTORE DUP1 SWAP3 SWAP2 SWAP1 DUP2 DUP2 MSTORE PUSH1 0x20 ADD DUP3 DUP1 SLOAD DUP1 ISZERO PUSH2 0x223 JUMPI PUSH1 0x20 MUL DUP3 ADD SWAP2 SWAP1 PUSH0 MSTORE PUSH1 0x20 PUSH0 KECCAK256 SWAP1 JUMPDEST DUP2 PUSH0 SWAP1 SLOAD SWAP1 PUSH2 0x100 EXP SWAP1 DIV PUSH20 0xFFFFFFFFFFFFFFFFFFFFFFFFFFFFFFFFFFFFFFFF AND PUSH20 0xFFFFFFFFFFFFFFFFFFFFFFFFFFFFFFFFFFFFFFFF AND DUP2 MSTORE PUSH1 0x20 ADD SWAP1 PUSH1 0x1 ADD SWAP1 DUP1 DUP4 GT PUSH2 0x1DA JUMPI JUMPDEST POP POP POP POP POP SWAP4 POP SWAP5 POP SWAP5 POP SWAP5 POP SWAP5 POP POP SWAP2 SWAP4 POP SWAP2 SWAP4 JUMP JUMPDEST PUSH1 0x3 SLOAD DUP3 GT ISZERO PUSH2 0x27F JUMPI PUSH1 0x40 MLOAD PUSH32 0x8C379A000000000000000000000000000000000000000000000000000000000 DUP2 MSTORE PUSH1 0x4 ADD PUSH2 0x276 SWAP1 PUSH2 0x9D2 JUMP JUMPDEST PUSH1 0x40 MLOAD DUP1 SWAP2 SUB SWAP1 REVERT JUMPDEST PUSH0 DUP2 GT PUSH2 0x2C1 JUMPI PUSH1 0x40 MLOAD PUSH32 0x8C379A000000000000000000000000000000000000000000000000000000000 DUP2 MSTORE PUSH1 0x4 ADD PUSH2 0x2B8 SWAP1 PUSH2 0xA3A JUMP JUMPDEST PUSH1 0x40 MLOAD DUP1 SWAP2 SUB SWAP1 REVERT JUMPDEST PUSH1 0x4 SLOAD DUP2 PUSH1 0x6 PUSH0 DUP6 DUP2 MSTORE PUSH1 0x20 ADD SWAP1 DUP2 MSTORE PUSH1 0x20 ADD PUSH0 KECCAK256 PUSH1 0x1 ADD SLOAD PUSH2 0x2E4 SWAP2 SWAP1 PUSH2 0xA85 JUMP JUMPDEST GT ISZERO PUSH2 0x325 JUMPI PUSH1 0x40 MLOAD PUSH32 0x8C379A000000000000000000000000000000000000000000000000000000000 DUP2 MSTORE PUSH1 0x4 ADD PUSH2 0x31C SWAP1 PUSH2 0xB28 JUMP JUMPDEST PUSH1 0x40 MLOAD DUP1 SWAP2 SUB SWAP1 REVERT JUMPDEST PUSH0 PUSH1 0x6 PUSH0 DUP5 DUP2 MSTORE PUSH1 0x20 ADD SWAP1 DUP2 MSTORE PUSH1 0x20 ADD PUSH0 KECCAK256 SWAP1 POP DUP2 DUP2 PUSH1 0x1 ADD PUSH0 DUP3 DUP3 SLOAD PUSH2 0x34C SWAP2 SWAP1 PUSH2 0xA85 JUMP JUMPDEST SWAP3 POP POP DUP2 SWAP1 SSTORE POP PUSH0 DUP1 JUMPDEST DUP3 PUSH0 ADD DUP1 SLOAD SWAP1 POP DUP2 LT ISZERO PUSH2 0x3E9 JUMPI CALLER PUSH20 0xFFFFFFFFFFFFFFFFFFFFFFFFFFFFFFFFFFFFFFFF AND DUP4 PUSH0 ADD DUP3 DUP2 SLOAD DUP2 LT PUSH2 0x390 JUMPI PUSH2 0x38F PUSH2 0xB46 JUMP JUMPDEST JUMPDEST SWAP1 PUSH0 MSTORE PUSH1 0x20 PUSH0 KECCAK256 ADD PUSH0 SWAP1 SLOAD SWAP1 PUSH2 0x100 EXP SWAP1 DIV PUSH20 0xFFFFFFFFFFFFFFFFFFFFFFFFFFFFFFFFFFFFFFFF AND PUSH20 0xFFFFFFFFFFFFFFFFFFFFFFFFFFFFFFFFFFFFFFFF AND SUB PUSH2 0x3DC JUMPI PUSH1 0x1 SWAP2 POP PUSH2 0x3E9 JUMP JUMPDEST DUP1 DUP1 PUSH1 0x1 ADD SWAP2 POP POP PUSH2 0x356 JUMP JUMPDEST POP DUP1 PUSH2 0x451 JUMPI DUP2 PUSH0 ADD CALLER SWAP1 DUP1 PUSH1 0x1 DUP2 SLOAD ADD DUP1 DUP3 SSTORE DUP1 SWAP2 POP POP PUSH1 0x1 SWAP1 SUB SWAP1 PUSH0 MSTORE PUSH1 0x20 PUSH0 KECCAK256 ADD PUSH0 SWAP1 SWAP2 SWAP1 SWAP2 SWAP1 SWAP2 PUSH2 0x100 EXP DUP2 SLOAD DUP2 PUSH20 0xFFFFFFFFFFFFFFFFFFFFFFFFFFFFFFFFFFFFFFFF MUL NOT AND SWAP1 DUP4 PUSH20 0xFFFFFFFFFFFFFFFFFFFFFFFFFFFFFFFFFFFFFFFF AND MUL OR SWAP1 SSTORE POP JUMPDEST DUP3 DUP3 PUSH1 0x2 ADD PUSH0 CALLER PUSH20 0xFFFFFFFFFFFFFFFFFFFFFFFFFFFFFFFFFFFFFFFF AND PUSH20 0xFFFFFFFFFFFFFFFFFFFFFFFFFFFFFFFFFFFFFFFF AND DUP2 MSTORE PUSH1 0x20 ADD SWAP1 DUP2 MSTORE PUSH1 0x20 ADD PUSH0 KECCAK256 PUSH0 DUP3 DUP3 SLOAD PUSH2 0x49F SWAP2 SWAP1 PUSH2 0xA85 JUMP JUMPDEST SWAP3 POP POP DUP2 SWAP1 SSTORE POP PUSH32 0xF668EAD05C744B9178E571D2EDB452E72BAF6529C8D72160E64E59B50D865BD0 CALLER DUP5 PUSH1 0x40 MLOAD PUSH2 0x4D7 SWAP3 SWAP2 SWAP1 PUSH2 0xB82 JUMP JUMPDEST PUSH1 0x40 MLOAD DUP1 SWAP2 SUB SWAP1 LOG1 PUSH1 0x4 SLOAD DUP3 PUSH1 0x1 ADD SLOAD SUB PUSH2 0x566 JUMPI PUSH1 0x5 DUP5 SWAP1 DUP1 PUSH1 0x1 DUP2 SLOAD ADD DUP1 DUP3 SSTORE DUP1 SWAP2 POP POP PUSH1 0x1 SWAP1 SUB SWAP1 PUSH0 MSTORE PUSH1 0x20 PUSH0 KECCAK256 ADD PUSH0 SWAP1 SWAP2 SWAP1 SWAP2 SWAP1 SWAP2 POP SSTORE PUSH1 0x1 DUP3 PUSH1 0x3 ADD PUSH0 PUSH2 0x100 EXP DUP2 SLOAD DUP2 PUSH1 0xFF MUL NOT AND SWAP1 DUP4 ISZERO ISZERO MUL OR SWAP1 SSTORE POP PUSH32 0xF3ECDC9FFDA52C5AD69793C567CB456F83BBA2D14F196542E0BE80C919A8BDA3 DUP5 PUSH1 0x40 MLOAD PUSH2 0x55D SWAP2 SWAP1 PUSH2 0x6F8 JUMP JUMPDEST PUSH1 0x40 MLOAD DUP1 SWAP2 SUB SWAP1 LOG1 JUMPDEST POP POP POP POP JUMP JUMPDEST PUSH1 0x60 PUSH0 DUP3 PUSH0 ADD DUP1 SLOAD SWAP1 POP PUSH8 0xFFFFFFFFFFFFFFFF DUP2 GT ISZERO PUSH2 0x58F JUMPI PUSH2 0x58E PUSH2 0xBA9 JUMP JUMPDEST JUMPDEST PUSH1 0x40 MLOAD SWAP1 DUP1 DUP3 MSTORE DUP1 PUSH1 0x20 MUL PUSH1 0x20 ADD DUP3 ADD PUSH1 0x40 MSTORE DUP1 ISZERO PUSH2 0x5BD JUMPI DUP2 PUSH1 0x20 ADD PUSH1 0x20 DUP3 MUL DUP1 CALLDATASIZE DUP4 CALLDATACOPY DUP1 DUP3 ADD SWAP2 POP POP SWAP1 POP JUMPDEST POP SWAP1 POP PUSH0 JUMPDEST DUP4 PUSH0 ADD DUP1 SLOAD SWAP1 POP DUP2 LT ISZERO PUSH2 0x67D JUMPI PUSH0 DUP5 PUSH0 ADD DUP3 DUP2 SLOAD DUP2 LT PUSH2 0x5E6 JUMPI PUSH2 0x5E5 PUSH2 0xB46 JUMP JUMPDEST JUMPDEST SWAP1 PUSH0 MSTORE PUSH1 0x20 PUSH0 KECCAK256 ADD PUSH0 SWAP1 SLOAD SWAP1 PUSH2 0x100 EXP SWAP1 DIV PUSH20 0xFFFFFFFFFFFFFFFFFFFFFFFFFFFFFFFFFFFFFFFF AND SWAP1 POP DUP5 PUSH1 0x2 ADD PUSH0 DUP3 PUSH20 0xFFFFFFFFFFFFFFFFFFFFFFFFFFFFFFFFFFFFFFFF AND PUSH20 0xFFFFFFFFFFFFFFFFFFFFFFFFFFFFFFFFFFFFFFFF AND DUP2 MSTORE PUSH1 0x20 ADD SWAP1 DUP2 MSTORE PUSH1 0x20 ADD PUSH0 KECCAK256 SLOAD DUP4 DUP4 DUP2 MLOAD DUP2 LT PUSH2 0x663 JUMPI PUSH2 0x662 PUSH2 0xB46 JUMP JUMPDEST JUMPDEST PUSH1 0x20 MUL PUSH1 0x20 ADD ADD DUP2 DUP2 MSTORE POP POP POP DUP1 DUP1 PUSH1 0x1 ADD SWAP2 POP POP PUSH2 0x5C2 JUMP JUMPDEST POP DUP1 SWAP2 POP POP SWAP2 SWAP1 POP JUMP JUMPDEST PUSH0 DUP1 REVERT JUMPDEST PUSH0 DUP2 SWAP1 POP SWAP2 SWAP1 POP JUMP JUMPDEST PUSH2 0x69D DUP2 PUSH2 0x68B JUMP JUMPDEST DUP2 EQ PUSH2 0x6A7 JUMPI PUSH0 DUP1 REVERT JUMPDEST POP JUMP JUMPDEST PUSH0 DUP2 CALLDATALOAD SWAP1 POP PUSH2 0x6B8 DUP2 PUSH2 0x694 JUMP JUMPDEST SWAP3 SWAP2 POP POP JUMP JUMPDEST PUSH0 PUSH1 0x20 DUP3 DUP5 SUB SLT ISZERO PUSH2 0x6D3 JUMPI PUSH2 0x6D2 PUSH2 0x687 JUMP JUMPDEST JUMPDEST PUSH0 PUSH2 0x6E0 DUP5 DUP3 DUP6 ADD PUSH2 0x6AA JUMP JUMPDEST SWAP2 POP POP SWAP3 SWAP2 POP POP JUMP JUMPDEST PUSH2 0x6F2 DUP2 PUSH2 0x68B JUMP JUMPDEST DUP3 MSTORE POP POP JUMP JUMPDEST PUSH0 PUSH1 0x20 DUP3 ADD SWAP1 POP PUSH2 0x70B PUSH0 DUP4 ADD DUP5 PUSH2 0x6E9 JUMP JUMPDEST SWAP3 SWAP2 POP POP JUMP JUMPDEST PUSH0 DUP2 MLOAD SWAP1 POP SWAP2 SWAP1 POP JUMP JUMPDEST PUSH0 DUP3 DUP3 MSTORE PUSH1 0x20 DUP3 ADD SWAP1 POP SWAP3 SWAP2 POP POP JUMP JUMPDEST PUSH0 DUP2 SWAP1 POP PUSH1 0x20 DUP3 ADD SWAP1 POP SWAP2 SWAP1 POP JUMP JUMPDEST PUSH2 0x743 DUP2 PUSH2 0x68B JUMP JUMPDEST DUP3 MSTORE POP POP JUMP JUMPDEST PUSH0 PUSH2 0x754 DUP4 DUP4 PUSH2 0x73A JUMP JUMPDEST PUSH1 0x20 DUP4 ADD SWAP1 POP SWAP3 SWAP2 POP POP JUMP JUMPDEST PUSH0 PUSH1 0x20 DUP3 ADD SWAP1 POP SWAP2 SWAP1 POP JUMP JUMPDEST PUSH0 PUSH2 0x776 DUP3 PUSH2 0x711 JUMP JUMPDEST PUSH2 0x780 DUP2 DUP6 PUSH2 0x71B JUMP JUMPDEST SWAP4 POP PUSH2 0x78B DUP4 PUSH2 0x72B JUMP JUMPDEST DUP1 PUSH0 JUMPDEST DUP4 DUP2 LT ISZERO PUSH2 0x7BB JUMPI DUP2 MLOAD PUSH2 0x7A2 DUP9 DUP3 PUSH2 0x749 JUMP JUMPDEST SWAP8 POP PUSH2 0x7AD DUP4 PUSH2 0x760 JUMP JUMPDEST SWAP3 POP POP PUSH1 0x1 DUP2 ADD SWAP1 POP PUSH2 0x78E JUMP JUMPDEST POP DUP6 SWAP4 POP POP POP POP SWAP3 SWAP2 POP POP JUMP JUMPDEST PUSH0 PUSH1 0x20 DUP3 ADD SWAP1 POP DUP2 DUP2 SUB PUSH0 DUP4 ADD MSTORE PUSH2 0x7E0 DUP2 DUP5 PUSH2 0x76C JUMP JUMPDEST SWAP1 POP SWAP3 SWAP2 POP POP JUMP JUMPDEST PUSH0 DUP2 MLOAD SWAP1 POP SWAP2 SWAP1 POP JUMP JUMPDEST PUSH0 DUP3 DUP3 MSTORE PUSH1 0x20 DUP3 ADD SWAP1 POP SWAP3 SWAP2 POP POP JUMP JUMPDEST PUSH0 DUP2 SWAP1 POP PUSH1 0x20 DUP3 ADD SWAP1 POP SWAP2 SWAP1 POP JUMP JUMPDEST PUSH0 PUSH20 0xFFFFFFFFFFFFFFFFFFFFFFFFFFFFFFFFFFFFFFFF DUP3 AND SWAP1 POP SWAP2 SWAP1 POP JUMP JUMPDEST PUSH0 PUSH2 0x83A DUP3 PUSH2 0x811 JUMP JUMPDEST SWAP1 POP SWAP2 SWAP1 POP JUMP JUMPDEST PUSH2 0x84A DUP2 PUSH2 0x830 JUMP JUMPDEST DUP3 MSTORE POP POP JUMP JUMPDEST PUSH0 PUSH2 0x85B DUP4 DUP4 PUSH2 0x841 JUMP JUMPDEST PUSH1 0x20 DUP4 ADD SWAP1 POP SWAP3 SWAP2 POP POP JUMP JUMPDEST PUSH0 PUSH1 0x20 DUP3 ADD SWAP1 POP SWAP2 SWAP1 POP JUMP JUMPDEST PUSH0 PUSH2 0x87D DUP3 PUSH2 0x7E8 JUMP JUMPDEST PUSH2 0x887 DUP2 DUP6 PUSH2 0x7F2 JUMP JUMPDEST SWAP4 POP PUSH2 0x892 DUP4 PUSH2 0x802 JUMP JUMPDEST DUP1 PUSH0 JUMPDEST DUP4 DUP2 LT ISZERO PUSH2 0x8C2 JUMPI DUP2 MLOAD PUSH2 0x8A9 DUP9 DUP3 PUSH2 0x850 JUMP JUMPDEST SWAP8 POP PUSH2 0x8B4 DUP4 PUSH2 0x867 JUMP JUMPDEST SWAP3 POP POP PUSH1 0x1 DUP2 ADD SWAP1 POP PUSH2 0x895 JUMP JUMPDEST POP DUP6 SWAP4 POP POP POP POP SWAP3 SWAP2 POP POP JUMP JUMPDEST PUSH0 DUP2 ISZERO ISZERO SWAP1 POP SWAP2 SWAP1 POP JUMP JUMPDEST PUSH2 0x8E3 DUP2 PUSH2 0x8CF JUMP JUMPDEST DUP3 MSTORE POP POP JUMP JUMPDEST PUSH0 PUSH1 0x80 DUP3 ADD SWAP1 POP DUP2 DUP2 SUB PUSH0 DUP4 ADD MSTORE PUSH2 0x901 DUP2 DUP8 PUSH2 0x873 JUMP JUMPDEST SWAP1 POP DUP2 DUP2 SUB PUSH1 0x20 DUP4 ADD MSTORE PUSH2 0x915 DUP2 DUP7 PUSH2 0x76C JUMP JUMPDEST SWAP1 POP PUSH2 0x924 PUSH1 0x40 DUP4 ADD DUP6 PUSH2 0x8DA JUMP JUMPDEST PUSH2 0x931 PUSH1 0x60 DUP4 ADD DUP5 PUSH2 0x8DA JUMP JUMPDEST SWAP6 SWAP5 POP POP POP POP POP JUMP JUMPDEST PUSH0 DUP1 PUSH1 0x40 DUP4 DUP6 SUB SLT ISZERO PUSH2 0x950 JUMPI PUSH2 0x94F PUSH2 0x687 JUMP JUMPDEST JUMPDEST PUSH0 PUSH2 0x95D DUP6 DUP3 DUP7 ADD PUSH2 0x6AA JUMP JUMPDEST SWAP3 POP POP PUSH1 0x20 PUSH2 0x96E DUP6 DUP3 DUP7 ADD PUSH2 0x6AA JUMP JUMPDEST SWAP2 POP POP SWAP3 POP SWAP3 SWAP1 POP JUMP JUMPDEST PUSH0 DUP3 DUP3 MSTORE PUSH1 0x20 DUP3 ADD SWAP1 POP SWAP3 SWAP2 POP POP JUMP JUMPDEST PUSH32 0x4E6F206578697374696E67206167656E64612069640000000000000000000000 PUSH0 DUP3 ADD MSTORE POP JUMP JUMPDEST PUSH0 PUSH2 0x9BC PUSH1 0x15 DUP4 PUSH2 0x978 JUMP JUMPDEST SWAP2 POP PUSH2 0x9C7 DUP3 PUSH2 0x988 JUMP JUMPDEST PUSH1 0x20 DUP3 ADD SWAP1 POP SWAP2 SWAP1 POP JUMP JUMPDEST PUSH0 PUSH1 0x20 DUP3 ADD SWAP1 POP DUP2 DUP2 SUB PUSH0 DUP4 ADD MSTORE PUSH2 0x9E9 DUP2 PUSH2 0x9B0 JUMP JUMPDEST SWAP1 POP SWAP2 SWAP1 POP JUMP JUMPDEST PUSH32 0x3020746F6B656E207472616E7366657272656400000000000000000000000000 PUSH0 DUP3 ADD MSTORE POP JUMP JUMPDEST PUSH0 PUSH2 0xA24 PUSH1 0x13 DUP4 PUSH2 0x978 JUMP JUMPDEST SWAP2 POP PUSH2 0xA2F DUP3 PUSH2 0x9F0 JUMP JUMPDEST PUSH1 0x20 DUP3 ADD SWAP1 POP SWAP2 SWAP1 POP JUMP JUMPDEST PUSH0 PUSH1 0x20 DUP3 ADD SWAP1 POP DUP2 DUP2 SUB PUSH0 DUP4 ADD MSTORE PUSH2 0xA51 DUP2 PUSH2 0xA18 JUMP JUMPDEST SWAP1 POP SWAP2 SWAP1 POP JUMP JUMPDEST PUSH32 0x4E487B7100000000000000000000000000000000000000000000000000000000 PUSH0 MSTORE PUSH1 0x11 PUSH1 0x4 MSTORE PUSH1 0x24 PUSH0 REVERT JUMPDEST PUSH0 PUSH2 0xA8F DUP3 PUSH2 0x68B JUMP JUMPDEST SWAP2 POP PUSH2 0xA9A DUP4 PUSH2 0x68B JUMP JUMPDEST SWAP3 POP DUP3 DUP3 ADD SWAP1 POP DUP1 DUP3 GT ISZERO PUSH2 0xAB2 JUMPI PUSH2 0xAB1 PUSH2 0xA58 JUMP JUMPDEST JUMPDEST SWAP3 SWAP2 POP POP JUMP JUMPDEST PUSH32 0x4D6178696D756D20617661696C61626C6520746F6B656E20696E707574206578 PUSH0 DUP3 ADD MSTORE PUSH32 0x6365656465640000000000000000000000000000000000000000000000000000 PUSH1 0x20 DUP3 ADD MSTORE POP JUMP JUMPDEST PUSH0 PUSH2 0xB12 PUSH1 0x26 DUP4 PUSH2 0x978 JUMP JUMPDEST SWAP2 POP PUSH2 0xB1D DUP3 PUSH2 0xAB8 JUMP JUMPDEST PUSH1 0x40 DUP3 ADD SWAP1 POP SWAP2 SWAP1 POP JUMP JUMPDEST PUSH0 PUSH1 0x20 DUP3 ADD SWAP1 POP DUP2 DUP2 SUB PUSH0 DUP4 ADD MSTORE PUSH2 0xB3F DUP2 PUSH2 0xB06 JUMP JUMPDEST SWAP1 POP SWAP2 SWAP1 POP JUMP JUMPDEST PUSH32 0x4E487B7100000000000000000000000000000000000000000000000000000000 PUSH0 MSTORE PUSH1 0x32 PUSH1 0x4 MSTORE PUSH1 0x24 PUSH0 REVERT JUMPDEST PUSH2 0xB7C DUP2 PUSH2 0x830 JUMP JUMPDEST DUP3 MSTORE POP POP JUMP JUMPDEST PUSH0 PUSH1 0x40 DUP3 ADD SWAP1 POP PUSH2 0xB95 PUSH0 DUP4 ADD DUP6 PUSH2 0xB73 JUMP JUMPDEST PUSH2 0xBA2 PUSH1 0x20 DUP4 ADD DUP5 PUSH2 0x6E9 JUMP JUMPDEST SWAP4 SWAP3 POP POP POP JUMP JUMPDEST PUSH32 0x4E487B7100000000000000000000000000000000000000000000000000000000 PUSH0 MSTORE PUSH1 0x41 PUSH1 0x4 MSTORE PUSH1 0x24 PUSH0 REVERT INVALID LOG2 PUSH5 0x6970667358 0x22 SLT KECCAK256 PC 0xED PUSH25 0x1FB1E2955E4AACDCC252CCCB8D5AB065E4C31CFBAA07C3F7BC MCOPY ORIGIN DUP12 COINBASE PUSH5 0x736F6C6343 STOP ADDMOD XOR STOP CALLER "
				},
				"gasEstimates": {
					"creation": {
						"codeDepositCost": "616800",
						"executionCost": "infinite",
						"totalCost": "infinite"
					},
					"external": {
						"getListedAgendas()": "infinite",
						"getVoteNumber(uint256)": "infinite",
						"getVotingStatus(uint256)": "infinite",
						"vote(uint256,uint256)": "infinite"
					},
					"internal": {
						"getVoterTokenValues(struct VotingSystem.AgendaStatus storage pointer)": "infinite"
					}
				},
				"methodIdentifiers": {
					"getListedAgendas()": "13d8ac9e",
					"getVoteNumber(uint256)": "009b9369",
					"getVotingStatus(uint256)": "8f633994",
					"vote(uint256,uint256)": "b384abef"
				}
			},
			"storageLayout": {
				"storage": [
					{
						"astId": 38,
						"contract": "contracts/VotingSystem.sol:VotingSystem",
						"label": "APTAddress",
						"offset": 0,
						"slot": "0",
						"type": "t_address"
					},
					{
						"astId": 44,
						"contract": "contracts/VotingSystem.sol:VotingSystem",
						"label": "APTcontract",
						"offset": 0,
						"slot": "1",
						"type": "t_contract(APCInterface)14"
					},
					{
						"astId": 46,
						"contract": "contracts/VotingSystem.sol:VotingSystem",
						"label": "contractOwner",
						"offset": 0,
						"slot": "2",
						"type": "t_address"
					},
					{
						"astId": 51,
						"contract": "contracts/VotingSystem.sol:VotingSystem",
						"label": "totalAgendaNumber",
						"offset": 0,
						"slot": "3",
						"type": "t_uint256"
					},
					{
						"astId": 54,
						"contract": "contracts/VotingSystem.sol:VotingSystem",
						"label": "maxVoteToken",
						"offset": 0,
						"slot": "4",
						"type": "t_uint256"
					},
					{
						"astId": 57,
						"contract": "contracts/VotingSystem.sol:VotingSystem",
						"label": "listedAgendaId",
						"offset": 0,
						"slot": "5",
						"type": "t_array(t_uint256)dyn_storage"
					},
					{
						"astId": 76,
						"contract": "contracts/VotingSystem.sol:VotingSystem",
						"label": "idToAgendaData",
						"offset": 0,
						"slot": "6",
						"type": "t_mapping(t_uint256,t_struct(AgendaStatus)71_storage)"
					}
				],
				"types": {
					"t_address": {
						"encoding": "inplace",
						"label": "address",
						"numberOfBytes": "20"
					},
					"t_array(t_address)dyn_storage": {
						"base": "t_address",
						"encoding": "dynamic_array",
						"label": "address[]",
						"numberOfBytes": "32"
					},
					"t_array(t_uint256)dyn_storage": {
						"base": "t_uint256",
						"encoding": "dynamic_array",
						"label": "uint256[]",
						"numberOfBytes": "32"
					},
					"t_bool": {
						"encoding": "inplace",
						"label": "bool",
						"numberOfBytes": "1"
					},
					"t_contract(APCInterface)14": {
						"encoding": "inplace",
						"label": "contract APCInterface",
						"numberOfBytes": "20"
					},
					"t_mapping(t_address,t_uint256)": {
						"encoding": "mapping",
						"key": "t_address",
						"label": "mapping(address => uint256)",
						"numberOfBytes": "32",
						"value": "t_uint256"
					},
					"t_mapping(t_uint256,t_struct(AgendaStatus)71_storage)": {
						"encoding": "mapping",
						"key": "t_uint256",
						"label": "mapping(uint256 => struct VotingSystem.AgendaStatus)",
						"numberOfBytes": "32",
						"value": "t_struct(AgendaStatus)71_storage"
					},
					"t_struct(AgendaStatus)71_storage": {
						"encoding": "inplace",
						"label": "struct VotingSystem.AgendaStatus",
						"members": [
							{
								"astId": 60,
								"contract": "contracts/VotingSystem.sol:VotingSystem",
								"label": "voters",
								"offset": 0,
								"slot": "0",
								"type": "t_array(t_address)dyn_storage"
							},
							{
								"astId": 62,
								"contract": "contracts/VotingSystem.sol:VotingSystem",
								"label": "totalVotes",
								"offset": 0,
								"slot": "1",
								"type": "t_uint256"
							},
							{
								"astId": 66,
								"contract": "contracts/VotingSystem.sol:VotingSystem",
								"label": "voterTokenValue",
								"offset": 0,
								"slot": "2",
								"type": "t_mapping(t_address,t_uint256)"
							},
							{
								"astId": 68,
								"contract": "contracts/VotingSystem.sol:VotingSystem",
								"label": "isListed",
								"offset": 0,
								"slot": "3",
								"type": "t_bool"
							},
							{
								"astId": 70,
								"contract": "contracts/VotingSystem.sol:VotingSystem",
								"label": "isDistributed",
								"offset": 1,
								"slot": "3",
								"type": "t_bool"
							}
						],
						"numberOfBytes": "128"
					},
					"t_uint256": {
						"encoding": "inplace",
						"label": "uint256",
						"numberOfBytes": "32"
					}
				}
			},
			"userdoc": {
				"kind": "user",
				"methods": {},
				"version": 1
			}
		}
	}
}